{"abi":[{"type":"constructor","inputs":[{"name":"providerManager_","type":"address","internalType":"address"}],"stateMutability":"nonpayable"},{"type":"function","name":"deposit","inputs":[{"name":"amount","type":"uint256","internalType":"uint256"},{"name":"vault","type":"address","internalType":"contract IVault"}],"outputs":[{"name":"success","type":"bool","internalType":"bool"}],"stateMutability":"nonpayable"},{"type":"function","name":"getDepositBalance","inputs":[{"name":"user","type":"address","internalType":"address"},{"name":"vault","type":"address","internalType":"contract IVault"}],"outputs":[{"name":"balance","type":"uint256","internalType":"uint256"}],"stateMutability":"view"},{"type":"function","name":"getDepositRate","inputs":[{"name":"vault","type":"address","internalType":"contract IVault"}],"outputs":[{"name":"rate","type":"uint256","internalType":"uint256"}],"stateMutability":"view"},{"type":"function","name":"getIdentifier","inputs":[],"outputs":[{"name":"","type":"string","internalType":"string"}],"stateMutability":"pure"},{"type":"function","name":"getProviderManager","inputs":[],"outputs":[{"name":"","type":"address","internalType":"contract IProviderManager"}],"stateMutability":"view"},{"type":"function","name":"getSource","inputs":[{"name":"asset","type":"address","internalType":"address"},{"name":"","type":"address","internalType":"address"},{"name":"","type":"address","internalType":"address"}],"outputs":[{"name":"source","type":"address","internalType":"address"}],"stateMutability":"view"},{"type":"function","name":"withdraw","inputs":[{"name":"amount","type":"uint256","internalType":"uint256"},{"name":"vault","type":"address","internalType":"contract IVault"}],"outputs":[{"name":"success","type":"bool","internalType":"bool"}],"stateMutability":"nonpayable"},{"type":"error","name":"LibVenus__RateTooHigh","inputs":[]},{"type":"error","name":"VenusProvider__AddressZero","inputs":[]}],"bytecode":{"object":"0x60a060405234801562000010575f80fd5b50604051620017423803806200174283398181016040528101906200003691906200013c565b5f73ffffffffffffffffffffffffffffffffffffffff168173ffffffffffffffffffffffffffffffffffffffff16036200009c576040517fc37d003400000000000000000000000000000000000000000000000000000000815260040160405180910390fd5b8073ffffffffffffffffffffffffffffffffffffffff1660808173ffffffffffffffffffffffffffffffffffffffff1681525050506200016c565b5f80fd5b5f73ffffffffffffffffffffffffffffffffffffffff82169050919050565b5f6200010682620000db565b9050919050565b6200011881620000fa565b811462000123575f80fd5b50565b5f8151905062000136816200010d565b92915050565b5f60208284031215620001545762000153620000d7565b5b5f620001638482850162000126565b91505092915050565b6080516115b66200018c5f395f81816105ed015261065101526115b65ff3fe608060405234801561000f575f80fd5b506004361061007a575f3560e01c80636e553f65116100595780636e553f651461010e57806373f64d441461013e57806381d1f4d41461016e578063aa23e03d1461018c5761007a565b8062f714ce1461007e5780630ae112a4146100ae5780634c8f411d146100de575b5f80fd5b61009860048036038101906100939190610eb3565b6101aa565b6040516100a59190610f0b565b60405180910390f35b6100c860048036038101906100c39190610f4e565b6102b2565b6040516100d59190610f9b565b60405180910390f35b6100f860048036038101906100f39190610fb4565b610343565b6040516101059190610f9b565b60405180910390f35b61012860048036038101906101239190610eb3565b6104c6565b6040516101359190610f0b565b60405180910390f35b61015860048036038101906101539190610fdf565b6105d7565b604051610165919061103e565b60405180910390f35b6101766105ea565b60405161018391906110b2565b60405180910390f35b610194610611565b6040516101a19190611155565b60405180910390f35b5f808273ffffffffffffffffffffffffffffffffffffffff166338d52e0f6040518163ffffffff1660e01b8152600401602060405180830381865afa1580156101f5573d5f803e3d5ffd5b505050506040513d601f19601f820116820180604052508101906102199190611189565b90505f6102258261064e565b90505f8190508073ffffffffffffffffffffffffffffffffffffffff1663852a12e3876040518263ffffffff1660e01b81526004016102649190610f9b565b6020604051808303815f875af1158015610280573d5f803e3d5ffd5b505050506040513d601f19601f820116820180604052508101906102a491906111c8565b506001935050505092915050565b5f808273ffffffffffffffffffffffffffffffffffffffff166338d52e0f6040518163ffffffff1660e01b8152600401602060405180830381865afa1580156102fd573d5f803e3d5ffd5b505050506040513d601f19601f820116820180604052508101906103219190611189565b90505f61032d8261064e565b905061033981866106f7565b9250505092915050565b5f808273ffffffffffffffffffffffffffffffffffffffff166338d52e0f6040518163ffffffff1660e01b8152600401602060405180830381865afa15801561038e573d5f803e3d5ffd5b505050506040513d601f19601f820116820180604052508101906103b29190611189565b90505f6103be8261064e565b90505f8173ffffffffffffffffffffffffffffffffffffffff16636857249c6040518163ffffffff1660e01b8152600401602060405180830381865afa15801561040a573d5f803e3d5ffd5b505050506040513d601f19601f8201168201806040525081019061042e91906111c8565b90505f633b9aca008373ffffffffffffffffffffffffffffffffffffffff1663ae9d70b06040518163ffffffff1660e01b8152600401602060405180830381865afa15801561047f573d5f803e3d5ffd5b505050506040513d601f19601f820116820180604052508101906104a391906111c8565b6104ad9190611220565b905081816104bb9190611220565b945050505050919050565b5f808273ffffffffffffffffffffffffffffffffffffffff166338d52e0f6040518163ffffffff1660e01b8152600401602060405180830381865afa158015610511573d5f803e3d5ffd5b505050506040513d601f19601f820116820180604052508101906105359190611189565b90505f6105418261064e565b905061054c81610792565b5f8190508073ffffffffffffffffffffffffffffffffffffffff1663a0712d68876040518263ffffffff1660e01b81526004016105899190610f9b565b6020604051808303815f875af11580156105a5573d5f803e3d5ffd5b505050506040513d601f19601f820116820180604052508101906105c991906111c8565b506001935050505092915050565b5f6105e18461064e565b90509392505050565b5f7f0000000000000000000000000000000000000000000000000000000000000000905090565b60606040518060400160405280600e81526020017f56656e75735f50726f7669646572000000000000000000000000000000000000815250905090565b5f7f000000000000000000000000000000000000000000000000000000000000000073ffffffffffffffffffffffffffffffffffffffff1663c41adf50610693610611565b846040518363ffffffff1660e01b81526004016106b1929190611261565b602060405180830381865afa1580156106cc573d5f803e3d5ffd5b505050506040513d601f19601f820116820180604052508101906106f09190611189565b9050919050565b5f61078a610704846108ba565b8473ffffffffffffffffffffffffffffffffffffffff166370a08231856040518263ffffffff1660e01b815260040161073d919061103e565b602060405180830381865afa158015610758573d5f803e3d5ffd5b505050506040513d601f19601f8201168201806040525081019061077c91906111c8565b610d8b90919063ffffffff16565b905092915050565b5f61079b610da7565b90505f600167ffffffffffffffff8111156107b9576107b861128f565b5b6040519080825280602002602001820160405280156107e75781602001602082028036833780820191505090505b50905082815f815181106107fe576107fd6112bc565b5b602002602001019073ffffffffffffffffffffffffffffffffffffffff16908173ffffffffffffffffffffffffffffffffffffffff16815250508173ffffffffffffffffffffffffffffffffffffffff1663c2998238826040518263ffffffff1660e01b815260040161087191906113a0565b5f604051808303815f875af115801561088c573d5f803e3d5ffd5b505050506040513d5f823e3d601f19601f820116820180604052508101906108b491906114d3565b50505050565b5f808273ffffffffffffffffffffffffffffffffffffffff1663e1d146fb6040518163ffffffff1660e01b8152600401602060405180830381865afa158015610905573d5f803e3d5ffd5b505050506040513d601f19601f8201168201806040525081019061092991906111c8565b90505f8373ffffffffffffffffffffffffffffffffffffffff16636c540baf6040518163ffffffff1660e01b8152600401602060405180830381865afa158015610975573d5f803e3d5ffd5b505050506040513d601f19601f8201168201806040525081019061099991906111c8565b9050818103610a18578373ffffffffffffffffffffffffffffffffffffffff1663182df0f56040518163ffffffff1660e01b8152600401602060405180830381865afa1580156109eb573d5f803e3d5ffd5b505050506040513d601f19601f82011682018060405250810190610a0f91906111c8565b92505050610d86565b5f8473ffffffffffffffffffffffffffffffffffffffff16633b1d21a26040518163ffffffff1660e01b8152600401602060405180830381865afa158015610a62573d5f803e3d5ffd5b505050506040513d601f19601f82011682018060405250810190610a8691906111c8565b90505f8573ffffffffffffffffffffffffffffffffffffffff166347bd37186040518163ffffffff1660e01b8152600401602060405180830381865afa158015610ad2573d5f803e3d5ffd5b505050506040513d601f19601f82011682018060405250810190610af691906111c8565b90505f8673ffffffffffffffffffffffffffffffffffffffff16638f840ddd6040518163ffffffff1660e01b8152600401602060405180830381865afa158015610b42573d5f803e3d5ffd5b505050506040513d601f19601f82011682018060405250810190610b6691906111c8565b90505f8773ffffffffffffffffffffffffffffffffffffffff1663f8f9da286040518163ffffffff1660e01b8152600401602060405180830381865afa158015610bb2573d5f803e3d5ffd5b505050506040513d601f19601f82011682018060405250810190610bd691906111c8565b90506501840f0fbb00811115610c18576040517f9b4c111000000000000000000000000000000000000000000000000000000000815260040160405180910390fd5b5f610c42848789610c29919061151a565b84610c349190611220565b610d8b90919063ffffffff16565b90505f83610cc5838c73ffffffffffffffffffffffffffffffffffffffff1663173b99046040518163ffffffff1660e01b8152600401602060405180830381865afa158015610c93573d5f803e3d5ffd5b505050506040513d601f19601f82011682018060405250810190610cb791906111c8565b610d8b90919063ffffffff16565b610ccf919061154d565b90505f8583610cde919061154d565b90505f8b73ffffffffffffffffffffffffffffffffffffffff166318160ddd6040518163ffffffff1660e01b8152600401602060405180830381865afa158015610d2a573d5f803e3d5ffd5b505050506040513d601f19601f82011682018060405250810190610d4e91906111c8565b9050610d798184848b610d61919061154d565b610d6b919061151a565b610dc290919063ffffffff16565b9a50505050505050505050505b919050565b5f610d9f8383670de0b6b3a7640000610dde565b905092915050565b5f73317c1a5739f39046e20b08ac9beea3f10fd43326905090565b5f610dd683670de0b6b3a764000084610dde565b905092915050565b5f8284029050828482041484151782151516610df8575f80fd5b81810490509392505050565b5f604051905090565b5f80fd5b5f80fd5b5f819050919050565b610e2781610e15565b8114610e31575f80fd5b50565b5f81359050610e4281610e1e565b92915050565b5f73ffffffffffffffffffffffffffffffffffffffff82169050919050565b5f610e7182610e48565b9050919050565b5f610e8282610e67565b9050919050565b610e9281610e78565b8114610e9c575f80fd5b50565b5f81359050610ead81610e89565b92915050565b5f8060408385031215610ec957610ec8610e0d565b5b5f610ed685828601610e34565b9250506020610ee785828601610e9f565b9150509250929050565b5f8115159050919050565b610f0581610ef1565b82525050565b5f602082019050610f1e5f830184610efc565b92915050565b610f2d81610e67565b8114610f37575f80fd5b50565b5f81359050610f4881610f24565b92915050565b5f8060408385031215610f6457610f63610e0d565b5b5f610f7185828601610f3a565b9250506020610f8285828601610e9f565b9150509250929050565b610f9581610e15565b82525050565b5f602082019050610fae5f830184610f8c565b92915050565b5f60208284031215610fc957610fc8610e0d565b5b5f610fd684828501610e9f565b91505092915050565b5f805f60608486031215610ff657610ff5610e0d565b5b5f61100386828701610f3a565b935050602061101486828701610f3a565b925050604061102586828701610f3a565b9150509250925092565b61103881610e67565b82525050565b5f6020820190506110515f83018461102f565b92915050565b5f819050919050565b5f61107a61107561107084610e48565b611057565b610e48565b9050919050565b5f61108b82611060565b9050919050565b5f61109c82611081565b9050919050565b6110ac81611092565b82525050565b5f6020820190506110c55f8301846110a3565b92915050565b5f81519050919050565b5f82825260208201905092915050565b5f5b838110156111025780820151818401526020810190506110e7565b5f8484015250505050565b5f601f19601f8301169050919050565b5f611127826110cb565b61113181856110d5565b93506111418185602086016110e5565b61114a8161110d565b840191505092915050565b5f6020820190508181035f83015261116d818461111d565b905092915050565b5f8151905061118381610f24565b92915050565b5f6020828403121561119e5761119d610e0d565b5b5f6111ab84828501611175565b91505092915050565b5f815190506111c281610e1e565b92915050565b5f602082840312156111dd576111dc610e0d565b5b5f6111ea848285016111b4565b91505092915050565b7f4e487b71000000000000000000000000000000000000000000000000000000005f52601160045260245ffd5b5f61122a82610e15565b915061123583610e15565b925082820261124381610e15565b9150828204841483151761125a576112596111f3565b5b5092915050565b5f6040820190508181035f830152611279818561111d565b9050611288602083018461102f565b9392505050565b7f4e487b71000000000000000000000000000000000000000000000000000000005f52604160045260245ffd5b7f4e487b71000000000000000000000000000000000000000000000000000000005f52603260045260245ffd5b5f81519050919050565b5f82825260208201905092915050565b5f819050602082019050919050565b61131b81610e67565b82525050565b5f61132c8383611312565b60208301905092915050565b5f602082019050919050565b5f61134e826112e9565b61135881856112f3565b935061136383611303565b805f5b8381101561139357815161137a8882611321565b975061138583611338565b925050600181019050611366565b5085935050505092915050565b5f6020820190508181035f8301526113b88184611344565b905092915050565b5f80fd5b6113cd8261110d565b810181811067ffffffffffffffff821117156113ec576113eb61128f565b5b80604052505050565b5f6113fe610e04565b905061140a82826113c4565b919050565b5f67ffffffffffffffff8211156114295761142861128f565b5b602082029050602081019050919050565b5f80fd5b5f61145061144b8461140f565b6113f5565b905080838252602082019050602084028301858111156114735761147261143a565b5b835b8181101561149c578061148888826111b4565b845260208401935050602081019050611475565b5050509392505050565b5f82601f8301126114ba576114b96113c0565b5b81516114ca84826020860161143e565b91505092915050565b5f602082840312156114e8576114e7610e0d565b5b5f82015167ffffffffffffffff81111561150557611504610e11565b5b611511848285016114a6565b91505092915050565b5f61152482610e15565b915061152f83610e15565b9250828203905081811115611547576115466111f3565b5b92915050565b5f61155782610e15565b915061156283610e15565b925082820190508082111561157a576115796111f3565b5b9291505056fea26469706673582212201920ffd9f73d1368eb0f6de8763c1a5de36fd300919f8b97a8b473881f1c32f664736f6c63430008170033","linkReferences":{}},"methodIdentifiers":{"deposit(uint256,address)":"6e553f65","getDepositBalance(address,address)":"0ae112a4","getDepositRate(address)":"4c8f411d","getIdentifier()":"aa23e03d","getProviderManager()":"81d1f4d4","getSource(address,address,address)":"73f64d44","withdraw(uint256,address)":"00f714ce"},"id":31}