{"abi":[{"type":"constructor","inputs":[{"name":"name_","type":"string","internalType":"string"},{"name":"symbol_","type":"string","internalType":"string"},{"name":"decimals_","type":"uint8","internalType":"uint8"}],"stateMutability":"nonpayable"},{"type":"function","name":"allowance","inputs":[{"name":"owner","type":"address","internalType":"address"},{"name":"spender","type":"address","internalType":"address"}],"outputs":[{"name":"","type":"uint256","internalType":"uint256"}],"stateMutability":"view"},{"type":"function","name":"approve","inputs":[{"name":"spender","type":"address","internalType":"address"},{"name":"value","type":"uint256","internalType":"uint256"}],"outputs":[{"name":"","type":"bool","internalType":"bool"}],"stateMutability":"nonpayable"},{"type":"function","name":"balanceOf","inputs":[{"name":"account","type":"address","internalType":"address"}],"outputs":[{"name":"","type":"uint256","internalType":"uint256"}],"stateMutability":"view"},{"type":"function","name":"burn","inputs":[{"name":"from","type":"address","internalType":"address"},{"name":"value","type":"uint256","internalType":"uint256"}],"outputs":[],"stateMutability":"nonpayable"},{"type":"function","name":"decimals","inputs":[],"outputs":[{"name":"","type":"uint8","internalType":"uint8"}],"stateMutability":"view"},{"type":"function","name":"deposit","inputs":[],"outputs":[],"stateMutability":"payable"},{"type":"function","name":"depositBalance","inputs":[{"name":"user","type":"address","internalType":"address"},{"name":"provider","type":"string","internalType":"string"}],"outputs":[{"name":"","type":"uint256","internalType":"uint256"}],"stateMutability":"view"},{"type":"function","name":"depositTokens","inputs":[{"name":"from","type":"address","internalType":"address"},{"name":"value","type":"uint256","internalType":"uint256"},{"name":"provider","type":"string","internalType":"string"}],"outputs":[{"name":"success","type":"bool","internalType":"bool"}],"stateMutability":"nonpayable"},{"type":"function","name":"mint","inputs":[{"name":"to","type":"address","internalType":"address"},{"name":"value","type":"uint256","internalType":"uint256"}],"outputs":[],"stateMutability":"nonpayable"},{"type":"function","name":"name","inputs":[],"outputs":[{"name":"","type":"string","internalType":"string"}],"stateMutability":"view"},{"type":"function","name":"symbol","inputs":[],"outputs":[{"name":"","type":"string","internalType":"string"}],"stateMutability":"view"},{"type":"function","name":"totalSupply","inputs":[],"outputs":[{"name":"","type":"uint256","internalType":"uint256"}],"stateMutability":"view"},{"type":"function","name":"transfer","inputs":[{"name":"to","type":"address","internalType":"address"},{"name":"value","type":"uint256","internalType":"uint256"}],"outputs":[{"name":"","type":"bool","internalType":"bool"}],"stateMutability":"nonpayable"},{"type":"function","name":"transferFrom","inputs":[{"name":"from","type":"address","internalType":"address"},{"name":"to","type":"address","internalType":"address"},{"name":"value","type":"uint256","internalType":"uint256"}],"outputs":[{"name":"","type":"bool","internalType":"bool"}],"stateMutability":"nonpayable"},{"type":"function","name":"withdraw","inputs":[{"name":"value","type":"uint256","internalType":"uint256"}],"outputs":[],"stateMutability":"nonpayable"},{"type":"function","name":"withdrawTokens","inputs":[{"name":"to","type":"address","internalType":"address"},{"name":"value","type":"uint256","internalType":"uint256"},{"name":"provider","type":"string","internalType":"string"}],"outputs":[{"name":"success","type":"bool","internalType":"bool"}],"stateMutability":"nonpayable"},{"type":"event","name":"Approval","inputs":[{"name":"owner","type":"address","indexed":true,"internalType":"address"},{"name":"spender","type":"address","indexed":true,"internalType":"address"},{"name":"value","type":"uint256","indexed":false,"internalType":"uint256"}],"anonymous":false},{"type":"event","name":"Deposit","inputs":[{"name":"provider","type":"string","indexed":false,"internalType":"string"},{"name":"from","type":"address","indexed":false,"internalType":"address"},{"name":"value","type":"uint256","indexed":false,"internalType":"uint256"}],"anonymous":false},{"type":"event","name":"Transfer","inputs":[{"name":"from","type":"address","indexed":true,"internalType":"address"},{"name":"to","type":"address","indexed":true,"internalType":"address"},{"name":"value","type":"uint256","indexed":false,"internalType":"uint256"}],"anonymous":false},{"type":"event","name":"Withdraw","inputs":[{"name":"provider","type":"string","indexed":false,"internalType":"string"},{"name":"from","type":"address","indexed":false,"internalType":"address"},{"name":"value","type":"uint256","indexed":false,"internalType":"uint256"}],"anonymous":false},{"type":"error","name":"ERC20InsufficientAllowance","inputs":[{"name":"spender","type":"address","internalType":"address"},{"name":"allowance","type":"uint256","internalType":"uint256"},{"name":"needed","type":"uint256","internalType":"uint256"}]},{"type":"error","name":"ERC20InsufficientBalance","inputs":[{"name":"sender","type":"address","internalType":"address"},{"name":"balance","type":"uint256","internalType":"uint256"},{"name":"needed","type":"uint256","internalType":"uint256"}]},{"type":"error","name":"ERC20InvalidApprover","inputs":[{"name":"approver","type":"address","internalType":"address"}]},{"type":"error","name":"ERC20InvalidReceiver","inputs":[{"name":"receiver","type":"address","internalType":"address"}]},{"type":"error","name":"ERC20InvalidSender","inputs":[{"name":"sender","type":"address","internalType":"address"}]},{"type":"error","name":"ERC20InvalidSpender","inputs":[{"name":"spender","type":"address","internalType":"address"}]}],"bytecode":{"object":"0x608060405234801562000010575f80fd5b5060405162001c4f38038062001c4f833981810160405281019062000036919062000241565b828281600390816200004991906200050f565b5080600490816200005b91906200050f565b5050508060065f6101000a81548160ff021916908360ff160217905550505050620005f3565b5f604051905090565b5f80fd5b5f80fd5b5f80fd5b5f80fd5b5f601f19601f8301169050919050565b7f4e487b71000000000000000000000000000000000000000000000000000000005f52604160045260245ffd5b620000e2826200009a565b810181811067ffffffffffffffff82111715620001045762000103620000aa565b5b80604052505050565b5f6200011862000081565b9050620001268282620000d7565b919050565b5f67ffffffffffffffff821115620001485762000147620000aa565b5b62000153826200009a565b9050602081019050919050565b5f5b838110156200017f57808201518184015260208101905062000162565b5f8484015250505050565b5f620001a06200019a846200012b565b6200010d565b905082815260208101848484011115620001bf57620001be62000096565b5b620001cc84828562000160565b509392505050565b5f82601f830112620001eb57620001ea62000092565b5b8151620001fd8482602086016200018a565b91505092915050565b5f60ff82169050919050565b6200021d8162000206565b811462000228575f80fd5b50565b5f815190506200023b8162000212565b92915050565b5f805f606084860312156200025b576200025a6200008a565b5b5f84015167ffffffffffffffff8111156200027b576200027a6200008e565b5b6200028986828701620001d4565b935050602084015167ffffffffffffffff811115620002ad57620002ac6200008e565b5b620002bb86828701620001d4565b9250506040620002ce868287016200022b565b9150509250925092565b5f81519050919050565b7f4e487b71000000000000000000000000000000000000000000000000000000005f52602260045260245ffd5b5f60028204905060018216806200032757607f821691505b6020821081036200033d576200033c620002e2565b5b50919050565b5f819050815f5260205f209050919050565b5f6020601f8301049050919050565b5f82821b905092915050565b5f60088302620003a17fffffffffffffffffffffffffffffffffffffffffffffffffffffffffffffffff8262000364565b620003ad868362000364565b95508019841693508086168417925050509392505050565b5f819050919050565b5f819050919050565b5f620003f7620003f1620003eb84620003c5565b620003ce565b620003c5565b9050919050565b5f819050919050565b6200041283620003d7565b6200042a6200042182620003fe565b84845462000370565b825550505050565b5f90565b6200044062000432565b6200044d81848462000407565b505050565b5b818110156200047457620004685f8262000436565b60018101905062000453565b5050565b601f821115620004c3576200048d8162000343565b620004988462000355565b81016020851015620004a8578190505b620004c0620004b78562000355565b83018262000452565b50505b505050565b5f82821c905092915050565b5f620004e55f1984600802620004c8565b1980831691505092915050565b5f620004ff8383620004d4565b9150826002028217905092915050565b6200051a82620002d8565b67ffffffffffffffff811115620005365762000535620000aa565b5b6200054282546200030f565b6200054f82828562000478565b5f60209050601f83116001811462000585575f841562000570578287015190505b6200057c8582620004f2565b865550620005eb565b601f198416620005958662000343565b5f5b82811015620005be5784890151825560018201915060208501945060208101905062000597565b86831015620005de5784890151620005da601f891682620004d4565b8355505b6001600288020188555050505b505050505050565b61164e80620006015f395ff3fe6080604052600436106100f2575f3560e01c806370a0823111610089578063a909e48411610058578063a909e48414610342578063d0e30db01461037e578063dd62ed3e14610388578063fb1437b2146103c4576100f2565b806370a082311461027857806395d89b41146102b45780639dc29fac146102de578063a9059cbb14610306576100f2565b80632e1a7d4d116100c55780632e1a7d4d146101c2578063313ce567146101ea57806340c10f1914610214578063484c2d971461023c576100f2565b806306fdde03146100f6578063095ea7b31461012057806318160ddd1461015c57806323b872dd14610186575b5f80fd5b348015610101575f80fd5b5061010a610400565b6040516101179190610fde565b60405180910390f35b34801561012b575f80fd5b506101466004803603810190610141919061109c565b610490565b60405161015391906110f4565b60405180910390f35b348015610167575f80fd5b506101706104b2565b60405161017d919061111c565b60405180910390f35b348015610191575f80fd5b506101ac60048036038101906101a79190611135565b6104bb565b6040516101b991906110f4565b60405180910390f35b3480156101cd575f80fd5b506101e860048036038101906101e39190611185565b6104e9565b005b3480156101f5575f80fd5b506101fe61053a565b60405161020b91906111cb565b60405180910390f35b34801561021f575f80fd5b5061023a6004803603810190610235919061109c565b61054f565b005b348015610247575f80fd5b50610262600480360381019061025d9190611310565b61055d565b60405161026f91906110f4565b60405180910390f35b348015610283575f80fd5b5061029e6004803603810190610299919061137c565b61061d565b6040516102ab919061111c565b60405180910390f35b3480156102bf575f80fd5b506102c8610662565b6040516102d59190610fde565b60405180910390f35b3480156102e9575f80fd5b5061030460048036038101906102ff919061109c565b6106f2565b005b348015610311575f80fd5b5061032c6004803603810190610327919061109c565b610700565b60405161033991906110f4565b60405180910390f35b34801561034d575f80fd5b50610368600480360381019061036391906113a7565b610722565b604051610375919061111c565b60405180910390f35b610386610785565b005b348015610393575f80fd5b506103ae60048036038101906103a99190611401565b610791565b6040516103bb919061111c565b60405180910390f35b3480156103cf575f80fd5b506103ea60048036038101906103e59190611310565b610813565b6040516103f791906110f4565b60405180910390f35b60606003805461040f9061146c565b80601f016020809104026020016040519081016040528092919081815260200182805461043b9061146c565b80156104865780601f1061045d57610100808354040283529160200191610486565b820191905f5260205f20905b81548152906001019060200180831161046957829003601f168201915b5050505050905090565b5f8061049a6108d3565b90506104a78185856108da565b600191505092915050565b5f600254905090565b5f806104c56108d3565b90506104d28582856108ec565b6104dd85858561097e565b60019150509392505050565b6104f33382610a6e565b3373ffffffffffffffffffffffffffffffffffffffff166108fc8290811502906040515f60405180830381858888f19350505050158015610536573d5f803e3d5ffd5b5050565b5f60065f9054906101000a900460ff16905090565b6105598282610aed565b5050565b5f8260058360405161056f91906114d6565b90815260200160405180910390205f8673ffffffffffffffffffffffffffffffffffffffff1673ffffffffffffffffffffffffffffffffffffffff1681526020019081526020015f205f8282546105c69190611519565b925050819055506105d78484610a6e565b7fd327b35e36b3981157588978d60961f5c09dc2926008abb81dd77b1197a416ed82858560405161060a9392919061155b565b60405180910390a1600190509392505050565b5f805f8373ffffffffffffffffffffffffffffffffffffffff1673ffffffffffffffffffffffffffffffffffffffff1681526020019081526020015f20549050919050565b6060600480546106719061146c565b80601f016020809104026020016040519081016040528092919081815260200182805461069d9061146c565b80156106e85780601f106106bf576101008083540402835291602001916106e8565b820191905f5260205f20905b8154815290600101906020018083116106cb57829003601f168201915b5050505050905090565b6106fc8282610a6e565b5050565b5f8061070a6108d3565b905061071781858561097e565b600191505092915050565b5f60058260405161073391906114d6565b90815260200160405180910390205f8473ffffffffffffffffffffffffffffffffffffffff1673ffffffffffffffffffffffffffffffffffffffff1681526020019081526020015f2054905092915050565b61078f3334610aed565b565b5f60015f8473ffffffffffffffffffffffffffffffffffffffff1673ffffffffffffffffffffffffffffffffffffffff1681526020019081526020015f205f8373ffffffffffffffffffffffffffffffffffffffff1673ffffffffffffffffffffffffffffffffffffffff1681526020019081526020015f2054905092915050565b5f8260058360405161082591906114d6565b90815260200160405180910390205f8673ffffffffffffffffffffffffffffffffffffffff1673ffffffffffffffffffffffffffffffffffffffff1681526020019081526020015f205f82825461087c9190611597565b9250508190555061088d8484610aed565b7f7a5e5c901f9da945e2028bd646eb1f6842dff416e862cfa502e0d3408635143a8285856040516108c09392919061155b565b60405180910390a1600190509392505050565b5f33905090565b6108e78383836001610b6c565b505050565b5f6108f78484610791565b90507fffffffffffffffffffffffffffffffffffffffffffffffffffffffffffffffff81146109785781811015610969578281836040517ffb8f41b2000000000000000000000000000000000000000000000000000000008152600401610960939291906115ca565b60405180910390fd5b61097784848484035f610b6c565b5b50505050565b5f73ffffffffffffffffffffffffffffffffffffffff168373ffffffffffffffffffffffffffffffffffffffff16036109ee575f6040517f96c6fd1e0000000000000000000000000000000000000000000000000000000081526004016109e591906115ff565b60405180910390fd5b5f73ffffffffffffffffffffffffffffffffffffffff168273ffffffffffffffffffffffffffffffffffffffff1603610a5e575f6040517fec442f05000000000000000000000000000000000000000000000000000000008152600401610a5591906115ff565b60405180910390fd5b610a69838383610d3b565b505050565b5f73ffffffffffffffffffffffffffffffffffffffff168273ffffffffffffffffffffffffffffffffffffffff1603610ade575f6040517f96c6fd1e000000000000000000000000000000000000000000000000000000008152600401610ad591906115ff565b60405180910390fd5b610ae9825f83610d3b565b5050565b5f73ffffffffffffffffffffffffffffffffffffffff168273ffffffffffffffffffffffffffffffffffffffff1603610b5d575f6040517fec442f05000000000000000000000000000000000000000000000000000000008152600401610b5491906115ff565b60405180910390fd5b610b685f8383610d3b565b5050565b5f73ffffffffffffffffffffffffffffffffffffffff168473ffffffffffffffffffffffffffffffffffffffff1603610bdc575f6040517fe602df05000000000000000000000000000000000000000000000000000000008152600401610bd391906115ff565b60405180910390fd5b5f73ffffffffffffffffffffffffffffffffffffffff168373ffffffffffffffffffffffffffffffffffffffff1603610c4c575f6040517f94280d62000000000000000000000000000000000000000000000000000000008152600401610c4391906115ff565b60405180910390fd5b8160015f8673ffffffffffffffffffffffffffffffffffffffff1673ffffffffffffffffffffffffffffffffffffffff1681526020019081526020015f205f8573ffffffffffffffffffffffffffffffffffffffff1673ffffffffffffffffffffffffffffffffffffffff1681526020019081526020015f20819055508015610d35578273ffffffffffffffffffffffffffffffffffffffff168473ffffffffffffffffffffffffffffffffffffffff167f8c5be1e5ebec7d5bd14f71427d1e84f3dd0314c0f7b2291e5b200ac8c7c3b92584604051610d2c919061111c565b60405180910390a35b50505050565b5f73ffffffffffffffffffffffffffffffffffffffff168373ffffffffffffffffffffffffffffffffffffffff1603610d8b578060025f828254610d7f9190611519565b92505081905550610e59565b5f805f8573ffffffffffffffffffffffffffffffffffffffff1673ffffffffffffffffffffffffffffffffffffffff1681526020019081526020015f2054905081811015610e14578381836040517fe450d38c000000000000000000000000000000000000000000000000000000008152600401610e0b939291906115ca565b60405180910390fd5b8181035f808673ffffffffffffffffffffffffffffffffffffffff1673ffffffffffffffffffffffffffffffffffffffff1681526020019081526020015f2081905550505b5f73ffffffffffffffffffffffffffffffffffffffff168273ffffffffffffffffffffffffffffffffffffffff1603610ea0578060025f8282540392505081905550610eea565b805f808473ffffffffffffffffffffffffffffffffffffffff1673ffffffffffffffffffffffffffffffffffffffff1681526020019081526020015f205f82825401925050819055505b8173ffffffffffffffffffffffffffffffffffffffff168373ffffffffffffffffffffffffffffffffffffffff167fddf252ad1be2c89b69c2b068fc378daa952ba7f163c4a11628f55a4df523b3ef83604051610f47919061111c565b60405180910390a3505050565b5f81519050919050565b5f82825260208201905092915050565b5f5b83811015610f8b578082015181840152602081019050610f70565b5f8484015250505050565b5f601f19601f8301169050919050565b5f610fb082610f54565b610fba8185610f5e565b9350610fca818560208601610f6e565b610fd381610f96565b840191505092915050565b5f6020820190508181035f830152610ff68184610fa6565b905092915050565b5f604051905090565b5f80fd5b5f80fd5b5f73ffffffffffffffffffffffffffffffffffffffff82169050919050565b5f6110388261100f565b9050919050565b6110488161102e565b8114611052575f80fd5b50565b5f813590506110638161103f565b92915050565b5f819050919050565b61107b81611069565b8114611085575f80fd5b50565b5f8135905061109681611072565b92915050565b5f80604083850312156110b2576110b1611007565b5b5f6110bf85828601611055565b92505060206110d085828601611088565b9150509250929050565b5f8115159050919050565b6110ee816110da565b82525050565b5f6020820190506111075f8301846110e5565b92915050565b61111681611069565b82525050565b5f60208201905061112f5f83018461110d565b92915050565b5f805f6060848603121561114c5761114b611007565b5b5f61115986828701611055565b935050602061116a86828701611055565b925050604061117b86828701611088565b9150509250925092565b5f6020828403121561119a57611199611007565b5b5f6111a784828501611088565b91505092915050565b5f60ff82169050919050565b6111c5816111b0565b82525050565b5f6020820190506111de5f8301846111bc565b92915050565b5f80fd5b5f80fd5b7f4e487b71000000000000000000000000000000000000000000000000000000005f52604160045260245ffd5b61122282610f96565b810181811067ffffffffffffffff82111715611241576112406111ec565b5b80604052505050565b5f611253610ffe565b905061125f8282611219565b919050565b5f67ffffffffffffffff82111561127e5761127d6111ec565b5b61128782610f96565b9050602081019050919050565b828183375f83830152505050565b5f6112b46112af84611264565b61124a565b9050828152602081018484840111156112d0576112cf6111e8565b5b6112db848285611294565b509392505050565b5f82601f8301126112f7576112f66111e4565b5b81356113078482602086016112a2565b91505092915050565b5f805f6060848603121561132757611326611007565b5b5f61133486828701611055565b935050602061134586828701611088565b925050604084013567ffffffffffffffff8111156113665761136561100b565b5b611372868287016112e3565b9150509250925092565b5f6020828403121561139157611390611007565b5b5f61139e84828501611055565b91505092915050565b5f80604083850312156113bd576113bc611007565b5b5f6113ca85828601611055565b925050602083013567ffffffffffffffff8111156113eb576113ea61100b565b5b6113f7858286016112e3565b9150509250929050565b5f806040838503121561141757611416611007565b5b5f61142485828601611055565b925050602061143585828601611055565b9150509250929050565b7f4e487b71000000000000000000000000000000000000000000000000000000005f52602260045260245ffd5b5f600282049050600182168061148357607f821691505b6020821081036114965761149561143f565b5b50919050565b5f81905092915050565b5f6114b082610f54565b6114ba818561149c565b93506114ca818560208601610f6e565b80840191505092915050565b5f6114e182846114a6565b915081905092915050565b7f4e487b71000000000000000000000000000000000000000000000000000000005f52601160045260245ffd5b5f61152382611069565b915061152e83611069565b9250828201905080821115611546576115456114ec565b5b92915050565b6115558161102e565b82525050565b5f6060820190508181035f8301526115738186610fa6565b9050611582602083018561154c565b61158f604083018461110d565b949350505050565b5f6115a182611069565b91506115ac83611069565b92508282039050818111156115c4576115c36114ec565b5b92915050565b5f6060820190506115dd5f83018661154c565b6115ea602083018561110d565b6115f7604083018461110d565b949350505050565b5f6020820190506116125f83018461154c565b9291505056fea2646970667358221220ee4005519b25fbfb8eeb4a65eed52c652a4aaf2f249d6f920dcdb23a8d53557064736f6c63430008170033","linkReferences":{}},"methodIdentifiers":{"allowance(address,address)":"dd62ed3e","approve(address,uint256)":"095ea7b3","balanceOf(address)":"70a08231","burn(address,uint256)":"9dc29fac","decimals()":"313ce567","deposit()":"d0e30db0","depositBalance(address,string)":"a909e484","depositTokens(address,uint256,string)":"484c2d97","mint(address,uint256)":"40c10f19","name()":"06fdde03","symbol()":"95d89b41","totalSupply()":"18160ddd","transfer(address,uint256)":"a9059cbb","transferFrom(address,address,uint256)":"23b872dd","withdraw(uint256)":"2e1a7d4d","withdrawTokens(address,uint256,string)":"fb1437b2"},"id":24}