{"abi":[{"type":"constructor","inputs":[{"name":"providerManager_","type":"address","internalType":"address"}],"stateMutability":"nonpayable"},{"type":"function","name":"deposit","inputs":[{"name":"amount","type":"uint256","internalType":"uint256"},{"name":"vault","type":"address","internalType":"contract IVault"}],"outputs":[{"name":"success","type":"bool","internalType":"bool"}],"stateMutability":"nonpayable"},{"type":"function","name":"getDepositBalance","inputs":[{"name":"user","type":"address","internalType":"address"},{"name":"vault","type":"address","internalType":"contract IVault"}],"outputs":[{"name":"balance","type":"uint256","internalType":"uint256"}],"stateMutability":"view"},{"type":"function","name":"getDepositRate","inputs":[{"name":"vault","type":"address","internalType":"contract IVault"}],"outputs":[{"name":"rate","type":"uint256","internalType":"uint256"}],"stateMutability":"view"},{"type":"function","name":"getIdentifier","inputs":[],"outputs":[{"name":"","type":"string","internalType":"string"}],"stateMutability":"pure"},{"type":"function","name":"getProviderManager","inputs":[],"outputs":[{"name":"","type":"address","internalType":"contract IProviderManager"}],"stateMutability":"view"},{"type":"function","name":"getSource","inputs":[{"name":"asset","type":"address","internalType":"address"},{"name":"","type":"address","internalType":"address"},{"name":"","type":"address","internalType":"address"}],"outputs":[{"name":"source","type":"address","internalType":"address"}],"stateMutability":"view"},{"type":"function","name":"withdraw","inputs":[{"name":"amount","type":"uint256","internalType":"uint256"},{"name":"vault","type":"address","internalType":"contract IVault"}],"outputs":[{"name":"success","type":"bool","internalType":"bool"}],"stateMutability":"nonpayable"},{"type":"error","name":"CompoundV3Provider__AddressZero","inputs":[]}],"bytecode":{"object":"0x60a060405234801561000f575f80fd5b50604051610e62380380610e628339818101604052810190610031919061012e565b5f73ffffffffffffffffffffffffffffffffffffffff168173ffffffffffffffffffffffffffffffffffffffff1603610096576040517ffc67bbbb00000000000000000000000000000000000000000000000000000000815260040160405180910390fd5b8073ffffffffffffffffffffffffffffffffffffffff1660808173ffffffffffffffffffffffffffffffffffffffff168152505050610159565b5f80fd5b5f73ffffffffffffffffffffffffffffffffffffffff82169050919050565b5f6100fd826100d4565b9050919050565b61010d816100f3565b8114610117575f80fd5b50565b5f8151905061012881610104565b92915050565b5f60208284031215610143576101426100d0565b5b5f6101508482850161011a565b91505092915050565b608051610ce361017f5f395f818161053e015281816105e9015261064e0152610ce35ff3fe608060405234801561000f575f80fd5b506004361061007a575f3560e01c80636e553f65116100595780636e553f651461010e57806373f64d441461013e57806381d1f4d41461016e578063aa23e03d1461018c5761007a565b8062f714ce1461007e5780630ae112a4146100ae5780634c8f411d146100de575b5f80fd5b61009860048036038101906100939190610806565b6101aa565b6040516100a5919061085e565b60405180910390f35b6100c860048036038101906100c391906108a1565b610296565b6040516100d591906108ee565b60405180910390f35b6100f860048036038101906100f39190610907565b610324565b60405161010591906108ee565b60405180910390f35b61012860048036038101906101239190610806565b61044f565b604051610135919061085e565b60405180910390f35b61015860048036038101906101539190610932565b61053b565b6040516101659190610991565b60405180910390f35b6101766105e6565b6040516101839190610a05565b60405180910390f35b61019461060d565b6040516101a19190610aa8565b60405180910390f35b5f806101b58361064a565b90508073ffffffffffffffffffffffffffffffffffffffff1663f3fef3a38473ffffffffffffffffffffffffffffffffffffffff166338d52e0f6040518163ffffffff1660e01b8152600401602060405180830381865afa15801561021c573d5f803e3d5ffd5b505050506040513d601f19601f820116820180604052508101906102409190610adc565b866040518363ffffffff1660e01b815260040161025e929190610b07565b5f604051808303815f87803b158015610275575f80fd5b505af1158015610287573d5f803e3d5ffd5b50505050600191505092915050565b5f806102a18361064a565b90508073ffffffffffffffffffffffffffffffffffffffff166370a08231856040518263ffffffff1660e01b81526004016102dc9190610991565b602060405180830381865afa1580156102f7573d5f803e3d5ffd5b505050506040513d601f19601f8201168201806040525081019061031b9190610b42565b91505092915050565b5f8061032f8361064a565b90505f8173ffffffffffffffffffffffffffffffffffffffff16637eb711316040518163ffffffff1660e01b8152600401602060405180830381865afa15801561037b573d5f803e3d5ffd5b505050506040513d601f19601f8201168201806040525081019061039f9190610b42565b90505f633b9aca008373ffffffffffffffffffffffffffffffffffffffff1663d955759d846040518263ffffffff1660e01b81526004016103e091906108ee565b602060405180830381865afa1580156103fb573d5f803e3d5ffd5b505050506040513d601f19601f8201168201806040525081019061041f9190610baa565b6104299190610c02565b67ffffffffffffffff1690506301e13380816104459190610c3e565b9350505050919050565b5f8061045a8361064a565b90508073ffffffffffffffffffffffffffffffffffffffff1663f2b9fdb88473ffffffffffffffffffffffffffffffffffffffff166338d52e0f6040518163ffffffff1660e01b8152600401602060405180830381865afa1580156104c1573d5f803e3d5ffd5b505050506040513d601f19601f820116820180604052508101906104e59190610adc565b866040518363ffffffff1660e01b8152600401610503929190610b07565b5f604051808303815f87803b15801561051a575f80fd5b505af115801561052c573d5f803e3d5ffd5b50505050600191505092915050565b5f7f000000000000000000000000000000000000000000000000000000000000000073ffffffffffffffffffffffffffffffffffffffff1663c41adf5061058061060d565b866040518363ffffffff1660e01b815260040161059e929190610c7f565b602060405180830381865afa1580156105b9573d5f803e3d5ffd5b505050506040513d601f19601f820116820180604052508101906105dd9190610adc565b90509392505050565b5f7f0000000000000000000000000000000000000000000000000000000000000000905090565b60606040518060400160405280601481526020017f436f6d706f756e645f56335f50726f7669646572000000000000000000000000815250905090565b5f807f000000000000000000000000000000000000000000000000000000000000000073ffffffffffffffffffffffffffffffffffffffff1663c41adf5061069061060d565b8573ffffffffffffffffffffffffffffffffffffffff166338d52e0f6040518163ffffffff1660e01b8152600401602060405180830381865afa1580156106d9573d5f803e3d5ffd5b505050506040513d601f19601f820116820180604052508101906106fd9190610adc565b6040518363ffffffff1660e01b815260040161071a929190610c7f565b602060405180830381865afa158015610735573d5f803e3d5ffd5b505050506040513d601f19601f820116820180604052508101906107599190610adc565b905080915050919050565b5f80fd5b5f819050919050565b61077a81610768565b8114610784575f80fd5b50565b5f8135905061079581610771565b92915050565b5f73ffffffffffffffffffffffffffffffffffffffff82169050919050565b5f6107c48261079b565b9050919050565b5f6107d5826107ba565b9050919050565b6107e5816107cb565b81146107ef575f80fd5b50565b5f81359050610800816107dc565b92915050565b5f806040838503121561081c5761081b610764565b5b5f61082985828601610787565b925050602061083a858286016107f2565b9150509250929050565b5f8115159050919050565b61085881610844565b82525050565b5f6020820190506108715f83018461084f565b92915050565b610880816107ba565b811461088a575f80fd5b50565b5f8135905061089b81610877565b92915050565b5f80604083850312156108b7576108b6610764565b5b5f6108c48582860161088d565b92505060206108d5858286016107f2565b9150509250929050565b6108e881610768565b82525050565b5f6020820190506109015f8301846108df565b92915050565b5f6020828403121561091c5761091b610764565b5b5f610929848285016107f2565b91505092915050565b5f805f6060848603121561094957610948610764565b5b5f6109568682870161088d565b93505060206109678682870161088d565b92505060406109788682870161088d565b9150509250925092565b61098b816107ba565b82525050565b5f6020820190506109a45f830184610982565b92915050565b5f819050919050565b5f6109cd6109c86109c38461079b565b6109aa565b61079b565b9050919050565b5f6109de826109b3565b9050919050565b5f6109ef826109d4565b9050919050565b6109ff816109e5565b82525050565b5f602082019050610a185f8301846109f6565b92915050565b5f81519050919050565b5f82825260208201905092915050565b5f5b83811015610a55578082015181840152602081019050610a3a565b5f8484015250505050565b5f601f19601f8301169050919050565b5f610a7a82610a1e565b610a848185610a28565b9350610a94818560208601610a38565b610a9d81610a60565b840191505092915050565b5f6020820190508181035f830152610ac08184610a70565b905092915050565b5f81519050610ad681610877565b92915050565b5f60208284031215610af157610af0610764565b5b5f610afe84828501610ac8565b91505092915050565b5f604082019050610b1a5f830185610982565b610b2760208301846108df565b9392505050565b5f81519050610b3c81610771565b92915050565b5f60208284031215610b5757610b56610764565b5b5f610b6484828501610b2e565b91505092915050565b5f67ffffffffffffffff82169050919050565b610b8981610b6d565b8114610b93575f80fd5b50565b5f81519050610ba481610b80565b92915050565b5f60208284031215610bbf57610bbe610764565b5b5f610bcc84828501610b96565b91505092915050565b7f4e487b71000000000000000000000000000000000000000000000000000000005f52601160045260245ffd5b5f610c0c82610b6d565b9150610c1783610b6d565b9250828202610c2581610b6d565b9150808214610c3757610c36610bd5565b5b5092915050565b5f610c4882610768565b9150610c5383610768565b9250828202610c6181610768565b91508282048414831517610c7857610c77610bd5565b5b5092915050565b5f6040820190508181035f830152610c978185610a70565b9050610ca66020830184610982565b939250505056fea26469706673582212204aeb009be507f813dc36a0c0abd44ea50183c2425bbbaeb5d628ca6d94ea9fd664736f6c63430008170033","linkReferences":{}},"methodIdentifiers":{"deposit(uint256,address)":"6e553f65","getDepositBalance(address,address)":"0ae112a4","getDepositRate(address)":"4c8f411d","getIdentifier()":"aa23e03d","getProviderManager()":"81d1f4d4","getSource(address,address,address)":"73f64d44","withdraw(uint256,address)":"00f714ce"},"id":27}