{"abi":[{"type":"function","name":"ADMIN_ROLE","inputs":[],"outputs":[{"name":"","type":"bytes32","internalType":"bytes32"}],"stateMutability":"view"},{"type":"function","name":"EXECUTOR_ROLE","inputs":[],"outputs":[{"name":"","type":"bytes32","internalType":"bytes32"}],"stateMutability":"view"},{"type":"function","name":"OPERATOR_ROLE","inputs":[],"outputs":[{"name":"","type":"bytes32","internalType":"bytes32"}],"stateMutability":"view"},{"type":"function","name":"ROOT_UPDATER_ROLE","inputs":[],"outputs":[{"name":"","type":"bytes32","internalType":"bytes32"}],"stateMutability":"view"},{"type":"function","name":"claim","inputs":[{"name":"account","type":"address","internalType":"address"},{"name":"reward","type":"address","internalType":"address"},{"name":"claimable","type":"uint256","internalType":"uint256"},{"name":"proof","type":"bytes32[]","internalType":"bytes32[]"}],"outputs":[],"stateMutability":"nonpayable"},{"type":"function","name":"claimed","inputs":[{"name":"account","type":"address","internalType":"address"},{"name":"reward","type":"address","internalType":"address"}],"outputs":[{"name":"amount","type":"uint256","internalType":"uint256"}],"stateMutability":"view"},{"type":"function","name":"grantRole","inputs":[{"name":"role","type":"bytes32","internalType":"bytes32"},{"name":"account","type":"address","internalType":"address"}],"outputs":[],"stateMutability":"nonpayable"},{"type":"function","name":"hasRole","inputs":[{"name":"role","type":"bytes32","internalType":"bytes32"},{"name":"account","type":"address","internalType":"address"}],"outputs":[{"name":"","type":"bool","internalType":"bool"}],"stateMutability":"view"},{"type":"function","name":"pause","inputs":[],"outputs":[],"stateMutability":"nonpayable"},{"type":"function","name":"paused","inputs":[],"outputs":[{"name":"","type":"bool","internalType":"bool"}],"stateMutability":"view"},{"type":"function","name":"revokeRole","inputs":[{"name":"role","type":"bytes32","internalType":"bytes32"},{"name":"account","type":"address","internalType":"address"}],"outputs":[],"stateMutability":"nonpayable"},{"type":"function","name":"root","inputs":[],"outputs":[{"name":"","type":"bytes32","internalType":"bytes32"}],"stateMutability":"view"},{"type":"function","name":"unpause","inputs":[],"outputs":[],"stateMutability":"nonpayable"},{"type":"function","name":"updateRoot","inputs":[{"name":"_root","type":"bytes32","internalType":"bytes32"}],"outputs":[],"stateMutability":"nonpayable"},{"type":"function","name":"withdraw","inputs":[{"name":"token","type":"address","internalType":"address"}],"outputs":[],"stateMutability":"nonpayable"},{"type":"event","name":"Paused","inputs":[{"name":"account","type":"address","indexed":false,"internalType":"address"}],"anonymous":false},{"type":"event","name":"RewardsClaimed","inputs":[{"name":"account","type":"address","indexed":false,"internalType":"address"},{"name":"reward","type":"address","indexed":false,"internalType":"address"},{"name":"amount","type":"uint256","indexed":false,"internalType":"uint256"}],"anonymous":false},{"type":"event","name":"RoleGranted","inputs":[{"name":"role","type":"bytes32","indexed":true,"internalType":"bytes32"},{"name":"account","type":"address","indexed":true,"internalType":"address"},{"name":"sender","type":"address","indexed":true,"internalType":"address"}],"anonymous":false},{"type":"event","name":"RoleRevoked","inputs":[{"name":"role","type":"bytes32","indexed":true,"internalType":"bytes32"},{"name":"account","type":"address","indexed":true,"internalType":"address"},{"name":"sender","type":"address","indexed":true,"internalType":"address"}],"anonymous":false},{"type":"event","name":"RootUpdated","inputs":[{"name":"root","type":"bytes32","indexed":false,"internalType":"bytes32"}],"anonymous":false},{"type":"event","name":"Unpaused","inputs":[{"name":"account","type":"address","indexed":false,"internalType":"address"}],"anonymous":false},{"type":"error","name":"AccessManager__CallerIsNotAdmin","inputs":[]},{"type":"error","name":"AccessManager__CallerIsNotExecutor","inputs":[]},{"type":"error","name":"AccessManager__CallerIsNotOperator","inputs":[]},{"type":"error","name":"AccessManager__CallerIsNotRootUpdater","inputs":[]},{"type":"error","name":"EnforcedPause","inputs":[]},{"type":"error","name":"ExpectedPause","inputs":[]},{"type":"error","name":"RewardsDistributor__AlreadyClaimed","inputs":[]},{"type":"error","name":"RewardsDistributor__InvalidProof","inputs":[]},{"type":"error","name":"SafeERC20FailedOperation","inputs":[{"name":"token","type":"address","internalType":"address"}]}],"bytecode":{"object":"0x608060405234801561000f575f80fd5b5061002f5f801b61002461004d60201b60201c565b61005460201b60201c565b5f60015f6101000a81548160ff021916908315150217905550610199565b5f33905090565b610064828261013860201b60201c565b6101345760015f808481526020019081526020015f205f8373ffffffffffffffffffffffffffffffffffffffff1673ffffffffffffffffffffffffffffffffffffffff1681526020019081526020015f205f6101000a81548160ff0219169083151502179055506100d961004d60201b60201c565b73ffffffffffffffffffffffffffffffffffffffff168173ffffffffffffffffffffffffffffffffffffffff16837f2f8788117e7eff1d82e926ec794901d17c78024a50270940304540a733656f0d60405160405180910390a45b5050565b5f805f8481526020019081526020015f205f8373ffffffffffffffffffffffffffffffffffffffff1673ffffffffffffffffffffffffffffffffffffffff1681526020019081526020015f205f9054906101000a900460ff16905092915050565b611269806101a65f395ff3fe608060405234801561000f575f80fd5b50600436106100f3575f3560e01c806375b238fc11610095578063d9ab2c5c11610064578063d9ab2c5c14610235578063ebf0c71714610253578063f5b541a614610271578063fabed4121461028f576100f3565b806375b238fc146101c15780638456cb59146101df57806391d14854146101e9578063d547741f14610219576100f3565b80632f2ff15d116100d15780632f2ff15d146101615780633f4ba83a1461017d57806351cff8d9146101875780635c975abb146101a3576100f3565b806307bd0265146100f75780630c9cbf0e1461011557806321ff997014610145575b5f80fd5b6100ff6102ab565b60405161010c9190610dbf565b60405180910390f35b61012f600480360381019061012a9190610e3a565b6102cf565b60405161013c9190610e90565b60405180910390f35b61015f600480360381019061015a9190610ed3565b6102ef565b005b61017b60048036038101906101769190610efe565b610396565b005b6101856103ed565b005b6101a1600480360381019061019c9190610f3c565b610440565b005b6101ab610533565b6040516101b89190610f81565b60405180910390f35b6101c9610548565b6040516101d69190610dbf565b60405180910390f35b6101e761054e565b005b61020360048036038101906101fe9190610efe565b6105a1565b6040516102109190610f81565b60405180910390f35b610233600480360381019061022e9190610efe565b610602565b005b61023d610659565b60405161024a9190610dbf565b60405180910390f35b61025b61067c565b6040516102689190610dbf565b60405180910390f35b610279610682565b6040516102869190610dbf565b60405180910390f35b6102a960048036038101906102a49190611025565b6106a6565b005b7fd8aa0f3194971a2a116679f7c2090f6939c8d4e01a2a8d7e41d55e5351469e6381565b6003602052815f5260405f20602052805f5260405f205f91509150505481565b61031f7e9ab23a1010d07a0450a1fbea1d84169b57d2c2273b54bff0f20c3e90199b5d61031a6108ed565b6105a1565b610355576040517fc442c98e00000000000000000000000000000000000000000000000000000000815260040160405180910390fd5b806002819055507f2cbc14f49c068133583f7cb530018af451c87c1cf1327cf2a4ff4698c4730aa48160405161038b9190610dbf565b60405180910390a150565b6103a95f801b6103a46108ed565b6105a1565b6103df576040517ff72bfde400000000000000000000000000000000000000000000000000000000815260040160405180910390fd5b6103e982826108f4565b5050565b6104005f801b6103fb6108ed565b6105a1565b610436576040517ff72bfde400000000000000000000000000000000000000000000000000000000815260040160405180910390fd5b61043e6109cc565b565b6104535f801b61044e6108ed565b6105a1565b610489576040517ff72bfde400000000000000000000000000000000000000000000000000000000815260040160405180910390fd5b5f8173ffffffffffffffffffffffffffffffffffffffff166370a08231306040518263ffffffff1660e01b81526004016104c391906110b8565b602060405180830381865afa1580156104de573d5f803e3d5ffd5b505050506040513d601f19601f8201168201806040525081019061050291906110e5565b905061052f33828473ffffffffffffffffffffffffffffffffffffffff16610a2d9092919063ffffffff16565b5050565b5f60015f9054906101000a900460ff16905090565b5f801b81565b6105615f801b61055c6108ed565b6105a1565b610597576040517ff72bfde400000000000000000000000000000000000000000000000000000000815260040160405180910390fd5b61059f610aac565b565b5f805f8481526020019081526020015f205f8373ffffffffffffffffffffffffffffffffffffffff1673ffffffffffffffffffffffffffffffffffffffff1681526020019081526020015f205f9054906101000a900460ff16905092915050565b6106155f801b6106106108ed565b6105a1565b61064b576040517ff72bfde400000000000000000000000000000000000000000000000000000000815260040160405180910390fd5b6106558282610b0d565b5050565b7e9ab23a1010d07a0450a1fbea1d84169b57d2c2273b54bff0f20c3e90199b5d81565b60025481565b7f97667070c54ef182b0f5858b034beac1b6f3089aa2d3188bb1e8929f4fa9b92981565b6106ae610be5565b61070c82826002548888886040516020016106cb93929190611110565b604051602081830303815290604052805190602001206040516020016106f19190611165565b60405160208183030381529060405280519060200120610c26565b610742576040517f49bcd0f200000000000000000000000000000000000000000000000000000000815260040160405180910390fd5b5f60035f8773ffffffffffffffffffffffffffffffffffffffff1673ffffffffffffffffffffffffffffffffffffffff1681526020019081526020015f205f8673ffffffffffffffffffffffffffffffffffffffff1673ffffffffffffffffffffffffffffffffffffffff1681526020019081526020015f2054846107c791906111ac565b90505f8103610802576040517fc1d3caf300000000000000000000000000000000000000000000000000000000815260040160405180910390fd5b8360035f8873ffffffffffffffffffffffffffffffffffffffff1673ffffffffffffffffffffffffffffffffffffffff1681526020019081526020015f205f8773ffffffffffffffffffffffffffffffffffffffff1673ffffffffffffffffffffffffffffffffffffffff1681526020019081526020015f20819055506108aa86828773ffffffffffffffffffffffffffffffffffffffff16610a2d9092919063ffffffff16565b7f9310ccfcb8de723f578a9e4282ea9f521f05ae40dc08f3068dfad528a65ee3c78686836040516108dd93929190611110565b60405180910390a1505050505050565b5f33905090565b6108fe82826105a1565b6109c85760015f808481526020019081526020015f205f8373ffffffffffffffffffffffffffffffffffffffff1673ffffffffffffffffffffffffffffffffffffffff1681526020019081526020015f205f6101000a81548160ff02191690831515021790555061096d6108ed565b73ffffffffffffffffffffffffffffffffffffffff168173ffffffffffffffffffffffffffffffffffffffff16837f2f8788117e7eff1d82e926ec794901d17c78024a50270940304540a733656f0d60405160405180910390a45b5050565b6109d4610c3e565b5f60015f6101000a81548160ff0219169083151502179055507f5db9ee0a495bf2e6ff9c91a7834c1ba4fdd244a5e8aa4e537bd38aeae4b073aa610a166108ed565b604051610a2391906110b8565b60405180910390a1565b610aa7838473ffffffffffffffffffffffffffffffffffffffff1663a9059cbb8585604051602401610a609291906111df565b604051602081830303815290604052915060e01b6020820180517bffffffffffffffffffffffffffffffffffffffffffffffffffffffff8381831617835250505050610c7e565b505050565b610ab4610be5565b6001805f6101000a81548160ff0219169083151502179055507f62e78cea01bee320cd4e420270b5ea74000d11b0c9f74754ebdbfc544b05a258610af66108ed565b604051610b0391906110b8565b60405180910390a1565b610b1782826105a1565b15610be1575f805f8481526020019081526020015f205f8373ffffffffffffffffffffffffffffffffffffffff1673ffffffffffffffffffffffffffffffffffffffff1681526020019081526020015f205f6101000a81548160ff021916908315150217905550610b866108ed565b73ffffffffffffffffffffffffffffffffffffffff168173ffffffffffffffffffffffffffffffffffffffff16837ff6391f5c32d9c69d2a47ea670b442974b53935d1edc7fd64eb21e047a839171b60405160405180910390a45b5050565b610bed610533565b15610c24576040517fd93c066500000000000000000000000000000000000000000000000000000000815260040160405180910390fd5b565b5f82610c33868685610d19565b149050949350505050565b610c46610533565b610c7c576040517f8dfc202b00000000000000000000000000000000000000000000000000000000815260040160405180910390fd5b565b5f8060205f8451602086015f885af180610c9d576040513d5f823e3d81fd5b3d92505f519150505f8214610cb6576001811415610cd1565b5f8473ffffffffffffffffffffffffffffffffffffffff163b145b15610d1357836040517f5274afe7000000000000000000000000000000000000000000000000000000008152600401610d0a91906110b8565b60405180910390fd5b50505050565b5f808290505f5b85859050811015610d5d57610d4e82878784818110610d4257610d41611206565b5b90506020020135610d69565b91508080600101915050610d20565b50809150509392505050565b5f818310610d8057610d7b8284610d93565b610d8b565b610d8a8383610d93565b5b905092915050565b5f825f528160205260405f20905092915050565b5f819050919050565b610db981610da7565b82525050565b5f602082019050610dd25f830184610db0565b92915050565b5f80fd5b5f80fd5b5f73ffffffffffffffffffffffffffffffffffffffff82169050919050565b5f610e0982610de0565b9050919050565b610e1981610dff565b8114610e23575f80fd5b50565b5f81359050610e3481610e10565b92915050565b5f8060408385031215610e5057610e4f610dd8565b5b5f610e5d85828601610e26565b9250506020610e6e85828601610e26565b9150509250929050565b5f819050919050565b610e8a81610e78565b82525050565b5f602082019050610ea35f830184610e81565b92915050565b610eb281610da7565b8114610ebc575f80fd5b50565b5f81359050610ecd81610ea9565b92915050565b5f60208284031215610ee857610ee7610dd8565b5b5f610ef584828501610ebf565b91505092915050565b5f8060408385031215610f1457610f13610dd8565b5b5f610f2185828601610ebf565b9250506020610f3285828601610e26565b9150509250929050565b5f60208284031215610f5157610f50610dd8565b5b5f610f5e84828501610e26565b91505092915050565b5f8115159050919050565b610f7b81610f67565b82525050565b5f602082019050610f945f830184610f72565b92915050565b610fa381610e78565b8114610fad575f80fd5b50565b5f81359050610fbe81610f9a565b92915050565b5f80fd5b5f80fd5b5f80fd5b5f8083601f840112610fe557610fe4610fc4565b5b8235905067ffffffffffffffff81111561100257611001610fc8565b5b60208301915083602082028301111561101e5761101d610fcc565b5b9250929050565b5f805f805f6080868803121561103e5761103d610dd8565b5b5f61104b88828901610e26565b955050602061105c88828901610e26565b945050604061106d88828901610fb0565b935050606086013567ffffffffffffffff81111561108e5761108d610ddc565b5b61109a88828901610fd0565b92509250509295509295909350565b6110b281610dff565b82525050565b5f6020820190506110cb5f8301846110a9565b92915050565b5f815190506110df81610f9a565b92915050565b5f602082840312156110fa576110f9610dd8565b5b5f611107848285016110d1565b91505092915050565b5f6060820190506111235f8301866110a9565b61113060208301856110a9565b61113d6040830184610e81565b949350505050565b5f819050919050565b61115f61115a82610da7565b611145565b82525050565b5f611170828461114e565b60208201915081905092915050565b7f4e487b71000000000000000000000000000000000000000000000000000000005f52601160045260245ffd5b5f6111b682610e78565b91506111c183610e78565b92508282039050818111156111d9576111d861117f565b5b92915050565b5f6040820190506111f25f8301856110a9565b6111ff6020830184610e81565b9392505050565b7f4e487b71000000000000000000000000000000000000000000000000000000005f52603260045260245ffdfea2646970667358221220ff3dbc1efcf319b9b14df50cdd71b33e73ab88c2d0acc28f85db6d3a62af975764736f6c63430008170033","linkReferences":{}},"methodIdentifiers":{"ADMIN_ROLE()":"75b238fc","EXECUTOR_ROLE()":"07bd0265","OPERATOR_ROLE()":"f5b541a6","ROOT_UPDATER_ROLE()":"d9ab2c5c","claim(address,address,uint256,bytes32[])":"fabed412","claimed(address,address)":"0c9cbf0e","grantRole(bytes32,address)":"2f2ff15d","hasRole(bytes32,address)":"91d14854","pause()":"8456cb59","paused()":"5c975abb","revokeRole(bytes32,address)":"d547741f","root()":"ebf0c717","unpause()":"3f4ba83a","updateRoot(bytes32)":"21ff9970","withdraw(address)":"51cff8d9"},"id":2}