{
  "address": "0x6C7013b3596623d146781c90b4Ee182331Af6148",
  "abi": [
    {
      "inputs": [
        {
          "internalType": "address",
          "name": "asset_",
          "type": "address"
        },
        {
          "internalType": "string",
          "name": "name_",
          "type": "string"
        },
        {
          "internalType": "string",
          "name": "symbol_",
          "type": "string"
        },
        {
          "internalType": "contract IProvider[]",
          "name": "providers_",
          "type": "address[]"
        },
        {
          "internalType": "uint256",
          "name": "withdrawFeePercent_",
          "type": "uint256"
        },
        {
          "internalType": "address",
          "name": "timelock_",
          "type": "address"
        },
        {
          "internalType": "address",
          "name": "treasury_",
          "type": "address"
        }
      ],
      "stateMutability": "nonpayable",
      "type": "constructor"
    },
    {
      "inputs": [],
      "name": "AccessManager__CallerIsNotAdmin",
      "type": "error"
    },
    {
      "inputs": [],
      "name": "AccessManager__CallerIsNotExecutor",
      "type": "error"
    },
    {
      "inputs": [],
      "name": "AccessManager__CallerIsNotOperator",
      "type": "error"
    },
    {
      "inputs": [
        {
          "internalType": "address",
          "name": "target",
          "type": "address"
        }
      ],
      "name": "AddressEmptyCode",
      "type": "error"
    },
    {
      "inputs": [],
      "name": "ECDSAInvalidSignature",
      "type": "error"
    },
    {
      "inputs": [
        {
          "internalType": "uint256",
          "name": "length",
          "type": "uint256"
        }
      ],
      "name": "ECDSAInvalidSignatureLength",
      "type": "error"
    },
    {
      "inputs": [
        {
          "internalType": "bytes32",
          "name": "s",
          "type": "bytes32"
        }
      ],
      "name": "ECDSAInvalidSignatureS",
      "type": "error"
    },
    {
      "inputs": [
        {
          "internalType": "address",
          "name": "spender",
          "type": "address"
        },
        {
          "internalType": "uint256",
          "name": "allowance",
          "type": "uint256"
        },
        {
          "internalType": "uint256",
          "name": "needed",
          "type": "uint256"
        }
      ],
      "name": "ERC20InsufficientAllowance",
      "type": "error"
    },
    {
      "inputs": [
        {
          "internalType": "address",
          "name": "sender",
          "type": "address"
        },
        {
          "internalType": "uint256",
          "name": "balance",
          "type": "uint256"
        },
        {
          "internalType": "uint256",
          "name": "needed",
          "type": "uint256"
        }
      ],
      "name": "ERC20InsufficientBalance",
      "type": "error"
    },
    {
      "inputs": [
        {
          "internalType": "address",
          "name": "approver",
          "type": "address"
        }
      ],
      "name": "ERC20InvalidApprover",
      "type": "error"
    },
    {
      "inputs": [
        {
          "internalType": "address",
          "name": "receiver",
          "type": "address"
        }
      ],
      "name": "ERC20InvalidReceiver",
      "type": "error"
    },
    {
      "inputs": [
        {
          "internalType": "address",
          "name": "sender",
          "type": "address"
        }
      ],
      "name": "ERC20InvalidSender",
      "type": "error"
    },
    {
      "inputs": [
        {
          "internalType": "address",
          "name": "spender",
          "type": "address"
        }
      ],
      "name": "ERC20InvalidSpender",
      "type": "error"
    },
    {
      "inputs": [
        {
          "internalType": "uint256",
          "name": "deadline",
          "type": "uint256"
        }
      ],
      "name": "ERC2612ExpiredSignature",
      "type": "error"
    },
    {
      "inputs": [
        {
          "internalType": "address",
          "name": "signer",
          "type": "address"
        },
        {
          "internalType": "address",
          "name": "owner",
          "type": "address"
        }
      ],
      "name": "ERC2612InvalidSigner",
      "type": "error"
    },
    {
      "inputs": [],
      "name": "FailedCall",
      "type": "error"
    },
    {
      "inputs": [
        {
          "internalType": "address",
          "name": "account",
          "type": "address"
        },
        {
          "internalType": "uint256",
          "name": "currentNonce",
          "type": "uint256"
        }
      ],
      "name": "InvalidAccountNonce",
      "type": "error"
    },
    {
      "inputs": [],
      "name": "InvalidShortString",
      "type": "error"
    },
    {
      "inputs": [],
      "name": "PausableActions__ActionNotPaused",
      "type": "error"
    },
    {
      "inputs": [],
      "name": "PausableActions__ActionPaused",
      "type": "error"
    },
    {
      "inputs": [],
      "name": "Rebalancer__ExcessRebalanceFee",
      "type": "error"
    },
    {
      "inputs": [],
      "name": "Rebalancer__InvalidProvider",
      "type": "error"
    },
    {
      "inputs": [
        {
          "internalType": "address",
          "name": "token",
          "type": "address"
        }
      ],
      "name": "SafeERC20FailedOperation",
      "type": "error"
    },
    {
      "inputs": [
        {
          "internalType": "string",
          "name": "str",
          "type": "string"
        }
      ],
      "name": "StringTooLong",
      "type": "error"
    },
    {
      "inputs": [],
      "name": "Vault__AddressZero",
      "type": "error"
    },
    {
      "inputs": [],
      "name": "Vault__DepositLessThanMin",
      "type": "error"
    },
    {
      "inputs": [],
      "name": "Vault__InvalidInput",
      "type": "error"
    },
    {
      "inputs": [],
      "name": "Vault__SetupAlreadyCompleted",
      "type": "error"
    },
    {
      "inputs": [],
      "name": "Vault__Unauthorized",
      "type": "error"
    },
    {
      "anonymous": false,
      "inputs": [
        {
          "indexed": false,
          "internalType": "contract IProvider",
          "name": "activeProvider",
          "type": "address"
        }
      ],
      "name": "ActiveProviderUpdated",
      "type": "event"
    },
    {
      "anonymous": false,
      "inputs": [
        {
          "indexed": true,
          "internalType": "address",
          "name": "owner",
          "type": "address"
        },
        {
          "indexed": true,
          "internalType": "address",
          "name": "spender",
          "type": "address"
        },
        {
          "indexed": false,
          "internalType": "uint256",
          "name": "value",
          "type": "uint256"
        }
      ],
      "name": "Approval",
      "type": "event"
    },
    {
      "anonymous": false,
      "inputs": [
        {
          "indexed": true,
          "internalType": "address",
          "name": "sender",
          "type": "address"
        },
        {
          "indexed": true,
          "internalType": "address",
          "name": "owner",
          "type": "address"
        },
        {
          "indexed": false,
          "internalType": "uint256",
          "name": "assets",
          "type": "uint256"
        },
        {
          "indexed": false,
          "internalType": "uint256",
          "name": "shares",
          "type": "uint256"
        }
      ],
      "name": "Deposit",
      "type": "event"
    },
    {
      "anonymous": false,
      "inputs": [],
      "name": "EIP712DomainChanged",
      "type": "event"
    },
    {
      "anonymous": false,
      "inputs": [
        {
          "indexed": true,
          "internalType": "address",
          "name": "treasury",
          "type": "address"
        },
        {
          "indexed": false,
          "internalType": "uint256",
          "name": "fee",
          "type": "uint256"
        }
      ],
      "name": "FeeCharged",
      "type": "event"
    },
    {
      "anonymous": false,
      "inputs": [
        {
          "indexed": false,
          "internalType": "uint256",
          "name": "minAmount",
          "type": "uint256"
        }
      ],
      "name": "MinAmountUpdated",
      "type": "event"
    },
    {
      "anonymous": false,
      "inputs": [
        {
          "indexed": false,
          "internalType": "address",
          "name": "account",
          "type": "address"
        },
        {
          "indexed": false,
          "internalType": "enum PausableActions.Actions",
          "name": "action",
          "type": "uint8"
        }
      ],
      "name": "Paused",
      "type": "event"
    },
    {
      "anonymous": false,
      "inputs": [
        {
          "indexed": false,
          "internalType": "contract IProvider[]",
          "name": "providers",
          "type": "address[]"
        }
      ],
      "name": "ProvidersUpdated",
      "type": "event"
    },
    {
      "anonymous": false,
      "inputs": [
        {
          "indexed": false,
          "internalType": "uint256",
          "name": "assetsFrom",
          "type": "uint256"
        },
        {
          "indexed": false,
          "internalType": "uint256",
          "name": "assetsTo",
          "type": "uint256"
        },
        {
          "indexed": true,
          "internalType": "address",
          "name": "from",
          "type": "address"
        },
        {
          "indexed": true,
          "internalType": "address",
          "name": "to",
          "type": "address"
        }
      ],
      "name": "RebalanceExecuted",
      "type": "event"
    },
    {
      "anonymous": false,
      "inputs": [
        {
          "indexed": true,
          "internalType": "bytes32",
          "name": "role",
          "type": "bytes32"
        },
        {
          "indexed": true,
          "internalType": "address",
          "name": "account",
          "type": "address"
        },
        {
          "indexed": true,
          "internalType": "address",
          "name": "sender",
          "type": "address"
        }
      ],
      "name": "RoleGranted",
      "type": "event"
    },
    {
      "anonymous": false,
      "inputs": [
        {
          "indexed": true,
          "internalType": "bytes32",
          "name": "role",
          "type": "bytes32"
        },
        {
          "indexed": true,
          "internalType": "address",
          "name": "account",
          "type": "address"
        },
        {
          "indexed": true,
          "internalType": "address",
          "name": "sender",
          "type": "address"
        }
      ],
      "name": "RoleRevoked",
      "type": "event"
    },
    {
      "anonymous": false,
      "inputs": [
        {
          "indexed": true,
          "internalType": "address",
          "name": "setupAddress",
          "type": "address"
        }
      ],
      "name": "SetupCompleted",
      "type": "event"
    },
    {
      "anonymous": false,
      "inputs": [
        {
          "indexed": true,
          "internalType": "address",
          "name": "timelock",
          "type": "address"
        }
      ],
      "name": "TimelockUpdated",
      "type": "event"
    },
    {
      "anonymous": false,
      "inputs": [
        {
          "indexed": true,
          "internalType": "address",
          "name": "from",
          "type": "address"
        },
        {
          "indexed": true,
          "internalType": "address",
          "name": "to",
          "type": "address"
        },
        {
          "indexed": false,
          "internalType": "uint256",
          "name": "value",
          "type": "uint256"
        }
      ],
      "name": "Transfer",
      "type": "event"
    },
    {
      "anonymous": false,
      "inputs": [
        {
          "indexed": true,
          "internalType": "address",
          "name": "treasury",
          "type": "address"
        }
      ],
      "name": "TreasuryUpdated",
      "type": "event"
    },
    {
      "anonymous": false,
      "inputs": [
        {
          "indexed": false,
          "internalType": "address",
          "name": "account",
          "type": "address"
        },
        {
          "indexed": false,
          "internalType": "enum PausableActions.Actions",
          "name": "action",
          "type": "uint8"
        }
      ],
      "name": "Unpaused",
      "type": "event"
    },
    {
      "anonymous": false,
      "inputs": [
        {
          "indexed": true,
          "internalType": "address",
          "name": "sender",
          "type": "address"
        },
        {
          "indexed": true,
          "internalType": "address",
          "name": "receiver",
          "type": "address"
        },
        {
          "indexed": true,
          "internalType": "address",
          "name": "owner",
          "type": "address"
        },
        {
          "indexed": false,
          "internalType": "uint256",
          "name": "assets",
          "type": "uint256"
        },
        {
          "indexed": false,
          "internalType": "uint256",
          "name": "shares",
          "type": "uint256"
        }
      ],
      "name": "Withdraw",
      "type": "event"
    },
    {
      "anonymous": false,
      "inputs": [
        {
          "indexed": false,
          "internalType": "uint256",
          "name": "withdrawFeePercent",
          "type": "uint256"
        }
      ],
      "name": "WithdrawFeePercentUpdated",
      "type": "event"
    },
    {
      "inputs": [],
      "name": "ADMIN_ROLE",
      "outputs": [
        {
          "internalType": "bytes32",
          "name": "",
          "type": "bytes32"
        }
      ],
      "stateMutability": "view",
      "type": "function"
    },
    {
      "inputs": [],
      "name": "DOMAIN_SEPARATOR",
      "outputs": [
        {
          "internalType": "bytes32",
          "name": "",
          "type": "bytes32"
        }
      ],
      "stateMutability": "view",
      "type": "function"
    },
    {
      "inputs": [],
      "name": "EXECUTOR_ROLE",
      "outputs": [
        {
          "internalType": "bytes32",
          "name": "",
          "type": "bytes32"
        }
      ],
      "stateMutability": "view",
      "type": "function"
    },
    {
      "inputs": [],
      "name": "OPERATOR_ROLE",
      "outputs": [
        {
          "internalType": "bytes32",
          "name": "",
          "type": "bytes32"
        }
      ],
      "stateMutability": "view",
      "type": "function"
    },
    {
      "inputs": [],
      "name": "activeProvider",
      "outputs": [
        {
          "internalType": "contract IProvider",
          "name": "",
          "type": "address"
        }
      ],
      "stateMutability": "view",
      "type": "function"
    },
    {
      "inputs": [
        {
          "internalType": "address",
          "name": "owner",
          "type": "address"
        },
        {
          "internalType": "address",
          "name": "spender",
          "type": "address"
        }
      ],
      "name": "allowance",
      "outputs": [
        {
          "internalType": "uint256",
          "name": "",
          "type": "uint256"
        }
      ],
      "stateMutability": "view",
      "type": "function"
    },
    {
      "inputs": [
        {
          "internalType": "address",
          "name": "spender",
          "type": "address"
        },
        {
          "internalType": "uint256",
          "name": "value",
          "type": "uint256"
        }
      ],
      "name": "approve",
      "outputs": [
        {
          "internalType": "bool",
          "name": "",
          "type": "bool"
        }
      ],
      "stateMutability": "nonpayable",
      "type": "function"
    },
    {
      "inputs": [],
      "name": "asset",
      "outputs": [
        {
          "internalType": "address",
          "name": "",
          "type": "address"
        }
      ],
      "stateMutability": "view",
      "type": "function"
    },
    {
      "inputs": [
        {
          "internalType": "address",
          "name": "account",
          "type": "address"
        }
      ],
      "name": "balanceOf",
      "outputs": [
        {
          "internalType": "uint256",
          "name": "",
          "type": "uint256"
        }
      ],
      "stateMutability": "view",
      "type": "function"
    },
    {
      "inputs": [
        {
          "internalType": "uint256",
          "name": "shares",
          "type": "uint256"
        }
      ],
      "name": "convertToAssets",
      "outputs": [
        {
          "internalType": "uint256",
          "name": "assets",
          "type": "uint256"
        }
      ],
      "stateMutability": "view",
      "type": "function"
    },
    {
      "inputs": [
        {
          "internalType": "uint256",
          "name": "assets",
          "type": "uint256"
        }
      ],
      "name": "convertToShares",
      "outputs": [
        {
          "internalType": "uint256",
          "name": "shares",
          "type": "uint256"
        }
      ],
      "stateMutability": "view",
      "type": "function"
    },
    {
      "inputs": [],
      "name": "decimals",
      "outputs": [
        {
          "internalType": "uint8",
          "name": "",
          "type": "uint8"
        }
      ],
      "stateMutability": "view",
      "type": "function"
    },
    {
      "inputs": [
        {
          "internalType": "uint256",
          "name": "assets",
          "type": "uint256"
        },
        {
          "internalType": "address",
          "name": "receiver",
          "type": "address"
        }
      ],
      "name": "deposit",
      "outputs": [
        {
          "internalType": "uint256",
          "name": "",
          "type": "uint256"
        }
      ],
      "stateMutability": "nonpayable",
      "type": "function"
    },
    {
      "inputs": [],
      "name": "eip712Domain",
      "outputs": [
        {
          "internalType": "bytes1",
          "name": "fields",
          "type": "bytes1"
        },
        {
          "internalType": "string",
          "name": "name",
          "type": "string"
        },
        {
          "internalType": "string",
          "name": "version",
          "type": "string"
        },
        {
          "internalType": "uint256",
          "name": "chainId",
          "type": "uint256"
        },
        {
          "internalType": "address",
          "name": "verifyingContract",
          "type": "address"
        },
        {
          "internalType": "bytes32",
          "name": "salt",
          "type": "bytes32"
        },
        {
          "internalType": "uint256[]",
          "name": "extensions",
          "type": "uint256[]"
        }
      ],
      "stateMutability": "view",
      "type": "function"
    },
    {
      "inputs": [
        {
          "internalType": "address",
          "name": "owner",
          "type": "address"
        }
      ],
      "name": "getBalanceOfAsset",
      "outputs": [
        {
          "internalType": "uint256",
          "name": "assets",
          "type": "uint256"
        }
      ],
      "stateMutability": "view",
      "type": "function"
    },
    {
      "inputs": [],
      "name": "getProviders",
      "outputs": [
        {
          "internalType": "contract IProvider[]",
          "name": "",
          "type": "address[]"
        }
      ],
      "stateMutability": "view",
      "type": "function"
    },
    {
      "inputs": [
        {
          "internalType": "bytes32",
          "name": "role",
          "type": "bytes32"
        },
        {
          "internalType": "address",
          "name": "account",
          "type": "address"
        }
      ],
      "name": "grantRole",
      "outputs": [],
      "stateMutability": "nonpayable",
      "type": "function"
    },
    {
      "inputs": [
        {
          "internalType": "bytes32",
          "name": "role",
          "type": "bytes32"
        },
        {
          "internalType": "address",
          "name": "account",
          "type": "address"
        }
      ],
      "name": "hasRole",
      "outputs": [
        {
          "internalType": "bool",
          "name": "",
          "type": "bool"
        }
      ],
      "stateMutability": "view",
      "type": "function"
    },
    {
      "inputs": [
        {
          "internalType": "address",
          "name": "",
          "type": "address"
        }
      ],
      "name": "maxDeposit",
      "outputs": [
        {
          "internalType": "uint256",
          "name": "",
          "type": "uint256"
        }
      ],
      "stateMutability": "view",
      "type": "function"
    },
    {
      "inputs": [
        {
          "internalType": "address",
          "name": "",
          "type": "address"
        }
      ],
      "name": "maxMint",
      "outputs": [
        {
          "internalType": "uint256",
          "name": "",
          "type": "uint256"
        }
      ],
      "stateMutability": "view",
      "type": "function"
    },
    {
      "inputs": [
        {
          "internalType": "address",
          "name": "owner",
          "type": "address"
        }
      ],
      "name": "maxRedeem",
      "outputs": [
        {
          "internalType": "uint256",
          "name": "",
          "type": "uint256"
        }
      ],
      "stateMutability": "view",
      "type": "function"
    },
    {
      "inputs": [
        {
          "internalType": "address",
          "name": "owner",
          "type": "address"
        }
      ],
      "name": "maxWithdraw",
      "outputs": [
        {
          "internalType": "uint256",
          "name": "",
          "type": "uint256"
        }
      ],
      "stateMutability": "view",
      "type": "function"
    },
    {
      "inputs": [],
      "name": "minAmount",
      "outputs": [
        {
          "internalType": "uint256",
          "name": "",
          "type": "uint256"
        }
      ],
      "stateMutability": "view",
      "type": "function"
    },
    {
      "inputs": [
        {
          "internalType": "uint256",
          "name": "shares",
          "type": "uint256"
        },
        {
          "internalType": "address",
          "name": "receiver",
          "type": "address"
        }
      ],
      "name": "mint",
      "outputs": [
        {
          "internalType": "uint256",
          "name": "",
          "type": "uint256"
        }
      ],
      "stateMutability": "nonpayable",
      "type": "function"
    },
    {
      "inputs": [],
      "name": "name",
      "outputs": [
        {
          "internalType": "string",
          "name": "",
          "type": "string"
        }
      ],
      "stateMutability": "view",
      "type": "function"
    },
    {
      "inputs": [
        {
          "internalType": "address",
          "name": "owner",
          "type": "address"
        }
      ],
      "name": "nonces",
      "outputs": [
        {
          "internalType": "uint256",
          "name": "",
          "type": "uint256"
        }
      ],
      "stateMutability": "view",
      "type": "function"
    },
    {
      "inputs": [
        {
          "internalType": "enum PausableActions.Actions",
          "name": "action",
          "type": "uint8"
        }
      ],
      "name": "pause",
      "outputs": [],
      "stateMutability": "nonpayable",
      "type": "function"
    },
    {
      "inputs": [
        {
          "internalType": "enum PausableActions.Actions",
          "name": "action",
          "type": "uint8"
        }
      ],
      "name": "paused",
      "outputs": [
        {
          "internalType": "bool",
          "name": "",
          "type": "bool"
        }
      ],
      "stateMutability": "view",
      "type": "function"
    },
    {
      "inputs": [
        {
          "internalType": "address",
          "name": "owner",
          "type": "address"
        },
        {
          "internalType": "address",
          "name": "spender",
          "type": "address"
        },
        {
          "internalType": "uint256",
          "name": "value",
          "type": "uint256"
        },
        {
          "internalType": "uint256",
          "name": "deadline",
          "type": "uint256"
        },
        {
          "internalType": "uint8",
          "name": "v",
          "type": "uint8"
        },
        {
          "internalType": "bytes32",
          "name": "r",
          "type": "bytes32"
        },
        {
          "internalType": "bytes32",
          "name": "s",
          "type": "bytes32"
        }
      ],
      "name": "permit",
      "outputs": [],
      "stateMutability": "nonpayable",
      "type": "function"
    },
    {
      "inputs": [
        {
          "internalType": "uint256",
          "name": "assets",
          "type": "uint256"
        }
      ],
      "name": "previewDeposit",
      "outputs": [
        {
          "internalType": "uint256",
          "name": "",
          "type": "uint256"
        }
      ],
      "stateMutability": "view",
      "type": "function"
    },
    {
      "inputs": [
        {
          "internalType": "uint256",
          "name": "shares",
          "type": "uint256"
        }
      ],
      "name": "previewMint",
      "outputs": [
        {
          "internalType": "uint256",
          "name": "",
          "type": "uint256"
        }
      ],
      "stateMutability": "view",
      "type": "function"
    },
    {
      "inputs": [
        {
          "internalType": "uint256",
          "name": "shares",
          "type": "uint256"
        }
      ],
      "name": "previewRedeem",
      "outputs": [
        {
          "internalType": "uint256",
          "name": "",
          "type": "uint256"
        }
      ],
      "stateMutability": "view",
      "type": "function"
    },
    {
      "inputs": [
        {
          "internalType": "uint256",
          "name": "assets",
          "type": "uint256"
        }
      ],
      "name": "previewWithdraw",
      "outputs": [
        {
          "internalType": "uint256",
          "name": "",
          "type": "uint256"
        }
      ],
      "stateMutability": "view",
      "type": "function"
    },
    {
      "inputs": [
        {
          "internalType": "uint256",
          "name": "assets",
          "type": "uint256"
        },
        {
          "internalType": "contract IProvider",
          "name": "from",
          "type": "address"
        },
        {
          "internalType": "contract IProvider",
          "name": "to",
          "type": "address"
        },
        {
          "internalType": "uint256",
          "name": "fee",
          "type": "uint256"
        },
        {
          "internalType": "bool",
          "name": "activateToProvider",
          "type": "bool"
        }
      ],
      "name": "rebalance",
      "outputs": [
        {
          "internalType": "bool",
          "name": "",
          "type": "bool"
        }
      ],
      "stateMutability": "nonpayable",
      "type": "function"
    },
    {
      "inputs": [
        {
          "internalType": "uint256",
          "name": "shares",
          "type": "uint256"
        },
        {
          "internalType": "address",
          "name": "receiver",
          "type": "address"
        },
        {
          "internalType": "address",
          "name": "owner",
          "type": "address"
        }
      ],
      "name": "redeem",
      "outputs": [
        {
          "internalType": "uint256",
          "name": "",
          "type": "uint256"
        }
      ],
      "stateMutability": "nonpayable",
      "type": "function"
    },
    {
      "inputs": [
        {
          "internalType": "bytes32",
          "name": "role",
          "type": "bytes32"
        },
        {
          "internalType": "address",
          "name": "account",
          "type": "address"
        }
      ],
      "name": "revokeRole",
      "outputs": [],
      "stateMutability": "nonpayable",
      "type": "function"
    },
    {
      "inputs": [
        {
          "internalType": "contract IProvider",
          "name": "_activeProvider",
          "type": "address"
        }
      ],
      "name": "setActiveProvider",
      "outputs": [],
      "stateMutability": "nonpayable",
      "type": "function"
    },
    {
      "inputs": [
        {
          "internalType": "uint256",
          "name": "_minAmount",
          "type": "uint256"
        }
      ],
      "name": "setMinAmount",
      "outputs": [],
      "stateMutability": "nonpayable",
      "type": "function"
    },
    {
      "inputs": [
        {
          "internalType": "contract IProvider[]",
          "name": "providers",
          "type": "address[]"
        }
      ],
      "name": "setProviders",
      "outputs": [],
      "stateMutability": "nonpayable",
      "type": "function"
    },
    {
      "inputs": [
        {
          "internalType": "address",
          "name": "_timelock",
          "type": "address"
        }
      ],
      "name": "setTimelock",
      "outputs": [],
      "stateMutability": "nonpayable",
      "type": "function"
    },
    {
      "inputs": [
        {
          "internalType": "address",
          "name": "_treasury",
          "type": "address"
        }
      ],
      "name": "setTreasury",
      "outputs": [],
      "stateMutability": "nonpayable",
      "type": "function"
    },
    {
      "inputs": [
        {
          "internalType": "uint256",
          "name": "_withdrawFeePercent",
          "type": "uint256"
        }
      ],
      "name": "setWithdrawFeePercent",
      "outputs": [],
      "stateMutability": "nonpayable",
      "type": "function"
    },
    {
      "inputs": [],
      "name": "setupCompleted",
      "outputs": [
        {
          "internalType": "bool",
          "name": "",
          "type": "bool"
        }
      ],
      "stateMutability": "view",
      "type": "function"
    },
    {
      "inputs": [
        {
          "internalType": "uint256",
          "name": "assets",
          "type": "uint256"
        }
      ],
      "name": "setupVault",
      "outputs": [],
      "stateMutability": "nonpayable",
      "type": "function"
    },
    {
      "inputs": [],
      "name": "symbol",
      "outputs": [
        {
          "internalType": "string",
          "name": "",
          "type": "string"
        }
      ],
      "stateMutability": "view",
      "type": "function"
    },
    {
      "inputs": [],
      "name": "timelock",
      "outputs": [
        {
          "internalType": "address",
          "name": "",
          "type": "address"
        }
      ],
      "stateMutability": "view",
      "type": "function"
    },
    {
      "inputs": [],
      "name": "totalAssets",
      "outputs": [
        {
          "internalType": "uint256",
          "name": "assets",
          "type": "uint256"
        }
      ],
      "stateMutability": "view",
      "type": "function"
    },
    {
      "inputs": [],
      "name": "totalSupply",
      "outputs": [
        {
          "internalType": "uint256",
          "name": "",
          "type": "uint256"
        }
      ],
      "stateMutability": "view",
      "type": "function"
    },
    {
      "inputs": [
        {
          "internalType": "address",
          "name": "to",
          "type": "address"
        },
        {
          "internalType": "uint256",
          "name": "value",
          "type": "uint256"
        }
      ],
      "name": "transfer",
      "outputs": [
        {
          "internalType": "bool",
          "name": "",
          "type": "bool"
        }
      ],
      "stateMutability": "nonpayable",
      "type": "function"
    },
    {
      "inputs": [
        {
          "internalType": "address",
          "name": "from",
          "type": "address"
        },
        {
          "internalType": "address",
          "name": "to",
          "type": "address"
        },
        {
          "internalType": "uint256",
          "name": "value",
          "type": "uint256"
        }
      ],
      "name": "transferFrom",
      "outputs": [
        {
          "internalType": "bool",
          "name": "",
          "type": "bool"
        }
      ],
      "stateMutability": "nonpayable",
      "type": "function"
    },
    {
      "inputs": [],
      "name": "treasury",
      "outputs": [
        {
          "internalType": "address",
          "name": "",
          "type": "address"
        }
      ],
      "stateMutability": "view",
      "type": "function"
    },
    {
      "inputs": [
        {
          "internalType": "enum PausableActions.Actions",
          "name": "action",
          "type": "uint8"
        }
      ],
      "name": "unpause",
      "outputs": [],
      "stateMutability": "nonpayable",
      "type": "function"
    },
    {
      "inputs": [
        {
          "internalType": "uint256",
          "name": "assets",
          "type": "uint256"
        },
        {
          "internalType": "address",
          "name": "receiver",
          "type": "address"
        },
        {
          "internalType": "address",
          "name": "owner",
          "type": "address"
        }
      ],
      "name": "withdraw",
      "outputs": [
        {
          "internalType": "uint256",
          "name": "",
          "type": "uint256"
        }
      ],
      "stateMutability": "nonpayable",
      "type": "function"
    },
    {
      "inputs": [],
      "name": "withdrawFeePercent",
      "outputs": [
        {
          "internalType": "uint256",
          "name": "",
          "type": "uint256"
        }
      ],
      "stateMutability": "view",
      "type": "function"
    },
    {
      "stateMutability": "payable",
      "type": "receive"
    }
  ],
  "transactionHash": "0x7b088fbadfe9bfb4c814668f436e5471a2fa673ba366f7f25283653fc81cc76d",
  "args": [
    "0x833589fCD6eDb6E08f4c7C32D4f71b54bdA02913",
    "Thesauros USDC Vault",
    "tUSDC",
    [
      "0xFFAc48125fa4Bd8BC03CDCA725459563aAe77406",
      "0x034a62f9617E8A1770f7c7EbA04e2DAb2Fda7f12",
      "0x642E31bE2fF6d3EBa38dC16760f3a146092d89e3",
      "0x0EF8ceD75e5877c69ac8619145219b67D76193a1",
      "0x4516F8324bfAcC71e5099FabFC51E97e4905c062",
      "0x34c164e7021e38921aE20a723234d2b1B52289E9"
    ],
    "0",
    "0x9B9a07B79557e109D454913314E5ef41E1C679b2",
    "0xafa9ed53c33bbd8de300481ce150db3d35738f9d"
  ],
  "numDeployments": 1,
  "solcInputHash": "7c7894fc85d6f2f8a0b08082fd13a4b0",
  "bytecode": "0x6101a06040523480156200001257600080fd5b50604051620041c0380380620041c0833981016040819052620000359162000bb0565b868686868686868580604051806040016040528060018152602001603160f81b815250888881600390816200006b919062000d96565b5060046200007a828262000d96565b506200008c915083905060056200026b565b610120526200009d8160066200026b565b61014052815160208084019190912060e052815190820120610100524660a0526200012b60e05161010051604080517f8b73c3c69bb8fe3d512ecc4cf759cc79239f7b179b0ffacaa9a75d522b39400f60208201529081019290925260608201524660808201523060a082015260009060c00160405160208183030381529060405280519060200120905090565b60805250503060c0525062000142600033620002a4565b6001600160a01b0387166200016a57604051633335653160e01b815260040160405180910390fd5b6001600160a01b0387166101608190526040805163313ce56760e01b8152905163313ce567916004808201926020929091908290030181865afa158015620001b6573d6000803e3d6000fd5b505050506040513d601f19601f82011682018060405250810190620001dc919062000e62565b60ff1661018052620001ee8262000349565b620001f984620003bb565b620002278460008151811062000213576200021362000e8e565b60200260200101516200054260201b60201c565b6200023281620005b8565b6200023d836200062a565b6200024b620f424062000689565b620002576000620006bf565b505050505050505050505050505062000fec565b60006020835110156200028b5762000283836200075f565b90506200029e565b8162000298848262000d96565b5060ff90505b92915050565b60008281526008602090815260408083206001600160a01b038516845290915290205460ff16620003455760008281526008602090815260408083206001600160a01b03851684529091529020805460ff19166001179055620003043390565b6001600160a01b0316816001600160a01b0316837f2f8788117e7eff1d82e926ec794901d17c78024a50270940304540a733656f0d60405160405180910390a45b5050565b6001600160a01b0381166200037157604051633335653160e01b815260040160405180910390fd5b600e80546001600160a01b0319166001600160a01b0383169081179091556040517fc046b9e8f0cd9b70a3b838962e9c229277fbb7abee68ea0fad4acf2898ed2ca990600090a250565b60005b8151811015620004ef5760006001600160a01b0316828281518110620003e857620003e862000e8e565b60200260200101516001600160a01b0316036200041857604051633335653160e01b815260040160405180910390fd5b620004e682828151811062000431576200043162000e8e565b60200260200101516001600160a01b03166373f64d4462000457620007ab60201b60201c565b6040516001600160e01b031960e084901b1681526001600160a01b03909116600482015230602482015260006044820152606401602060405180830381865afa158015620004a9573d6000803e3d6000fd5b505050506040513d601f19601f82011682018060405250810190620004cf919062000ea4565b610160516001600160a01b031690600019620007b2565b600101620003be565b5080516200050590600a90602084019062000a24565b507f5f589bfb97387c6d7ce41557510dba9ca4a577876489cacc87a22a395b8b13ca8160405162000537919062000ec4565b60405180910390a150565b6200054d816200088d565b6200056b5760405163207562d360e21b815260040160405180910390fd5b600b80546001600160a01b0319166001600160a01b0383161790556040517f34ea2e3abaf449e8227dcf35ffa3aa94f2b89384cdf95fe6fd34dc2aefc59b09906200053790839062000f13565b6001600160a01b038116620005e057604051633335653160e01b815260040160405180910390fd5b600f80546001600160a01b0319166001600160a01b0383169081179091556040517f7dae230f18360d76a040c81f050aa14eb9d6dc7901b20fc5d855e2a20fe814d190600090a250565b66b1a2bc2ec50000811115620006535760405163207562d360e21b815260040160405180910390fd5b600d8190556040518181527fd84a6d804e5eabc5849fa0d39e4545509125b95c297e1ec5ed98fad0f66befb89060200162000537565b600c8190556040518181527f7a94dccf633222d5f6174016b33ae91ce3449a59c8ac979df57cc84ea1a5b2ef9060200162000537565b80620006cb81620008ee565b600160096000846001811115620006e657620006e662000f27565b6001811115620006fa57620006fa62000f27565b81526020810191909152604001600020805460ff19169115159190911790557f534f879afd40abb4e39f8e1b77a316be4c8e3521d9cf5a3a3db8959d574d4559620007423390565b836040516200075392919062000f3d565b60405180910390a15050565b600080829050601f8151111562000796578260405163305a27a960e01b81526004016200078d919062000f79565b60405180910390fd5b8051620007a38262000fae565b179392505050565b6101605190565b6000836001600160a01b031663095ea7b38484604051602401620007d892919062000fd3565b604051602081830303815290604052915060e01b6020820180516001600160e01b03838183161783525050505090506200081984826200091b60201b60201c565b62000887576200087b84856001600160a01b031663095ea7b38660006040516024016200084892919062000fd3565b60408051808303601f1901815291905260208101805160e09390931b6001600160e01b0393841617905291506200096d16565b6200088784826200096d565b50505050565b600a54600090815b81811015620008e757600a8181548110620008b457620008b462000e8e565b6000918252602090912001546001600160a01b0390811690851603620008de5760019250620008e7565b60010162000895565b5050919050565b620008f981620009db565b1562000918576040516336a4bf2d60e01b815260040160405180910390fd5b50565b6000806000806020600086516020880160008a5af192503d91506000519050828015620009635750811562000954578060011462000963565b6000866001600160a01b03163b115b9695505050505050565b600080602060008451602086016000885af18062000991576040513d6000823e3d81fd5b50506000513d91508115620009ab578060011415620009b8565b6001600160a01b0384163b155b15620008875783604051635274afe760e01b81526004016200078d919062000f13565b600060096000836001811115620009f657620009f662000f27565b600181111562000a0a5762000a0a62000f27565b815260208101919091526040016000205460ff1692915050565b82805482825590600052602060002090810192821562000a7c579160200282015b8281111562000a7c57825182546001600160a01b0319166001600160a01b0390911617825560209092019160019091019062000a45565b5062000a8a92915062000a8e565b5090565b5b8082111562000a8a576000815560010162000a8f565b6001600160a01b03811681146200091857600080fd5b805162000ac88162000aa5565b919050565b634e487b7160e01b600052604160045260246000fd5b604051601f8201601f191681016001600160401b038111828210171562000b0e5762000b0e62000acd565b604052919050565b60005b8381101562000b3357818101518382015260200162000b19565b50506000910152565b600082601f83011262000b4e57600080fd5b81516001600160401b0381111562000b6a5762000b6a62000acd565b62000b7f601f8201601f191660200162000ae3565b81815284602083860101111562000b9557600080fd5b62000ba882602083016020870162000b16565b949350505050565b600080600080600080600060e0888a03121562000bcc57600080fd5b875162000bd98162000aa5565b602089810151919850906001600160401b038082111562000bf957600080fd5b62000c078c838d0162000b3c565b985060408b015191508082111562000c1e57600080fd5b62000c2c8c838d0162000b3c565b975060608b015191508082111562000c4357600080fd5b818b0191508b601f83011262000c5857600080fd5b81518181111562000c6d5762000c6d62000acd565b8060051b915062000c8084830162000ae3565b818152918301840191848101908e84111562000c9b57600080fd5b938501935b8385101562000cc9578451925062000cb88362000aa5565b828252938501939085019062000ca0565b8099505050505050506080880151925062000ce760a0890162000abb565b915062000cf760c0890162000abb565b905092959891949750929550565b600181811c9082168062000d1a57607f821691505b60208210810362000d3b57634e487b7160e01b600052602260045260246000fd5b50919050565b601f82111562000d91576000816000526020600020601f850160051c8101602086101562000d6c5750805b601f850160051c820191505b8181101562000d8d5782815560010162000d78565b5050505b505050565b81516001600160401b0381111562000db25762000db262000acd565b62000dca8162000dc3845462000d05565b8462000d41565b602080601f83116001811462000e02576000841562000de95750858301515b600019600386901b1c1916600185901b17855562000d8d565b600085815260208120601f198616915b8281101562000e335788860151825594840194600190910190840162000e12565b508582101562000e525787850151600019600388901b60f8161c191681555b5050505050600190811b01905550565b60006020828403121562000e7557600080fd5b815160ff8116811462000e8757600080fd5b9392505050565b634e487b7160e01b600052603260045260246000fd5b60006020828403121562000eb757600080fd5b815162000e878162000aa5565b6020808252825182820181905260009190848201906040850190845b8181101562000f075783516001600160a01b03168352928401929184019160010162000ee0565b50909695505050505050565b6001600160a01b0391909116815260200190565b634e487b7160e01b600052602160045260246000fd5b6001600160a01b0383168152604081016002831062000f6c57634e487b7160e01b600052602160045260246000fd5b8260208301529392505050565b602081526000825180602084015262000f9a81604085016020870162000b16565b601f01601f19169190910160400192915050565b8051602080830151919081101562000d3b5760001960209190910360031b1b16919050565b6001600160a01b03929092168252602082015260400190565b60805160a05160c05160e051610100516101205161014051610160516101805161314062001080600039600061042e015260008181610b4001528181610d5c0152818161145f0152818161162c01528181611dc50152611df901526000611c1801526000611beb015260006118bf01526000611897015260006117f20152600061181c0152600061184601526131406000f3fe6080604052600436106102695760003560e01c806301e1d1141461027557806306fdde031461029d57806307a2d13a146102bf57806307bd0265146102df578063095ea7b3146103135780630a28a477146103435780630fa275391461036357806318160ddd146103855780631b98f6ac1461039a57806323b872dd146103ba5780632f2ff15d146103da578063301c7e5d146103fa578063313ce5671461041a5780633644e5151461045857806338d52e0f1461046d578063402d267d1461048f578063447cb896146104af578063495ef705146104cf5780634cdad506146102bf5780635ac86ab7146104e5578063609da8971461050557806361d027b3146105265780636e553f651461054657806370a082311461056657806371e114301461058657806375b238fc146105a65780637abac329146105bb5780637ecebe00146105db57806384b0196e146105fb5780638529727914610623578063897b06371461064357806391d148541461066357806394bf804d1461068357806395d89b41146106a357806397f75dd9146106b85780639b2cb5d8146106d8578063a9059cbb146106ee578063b3d7f6b91461070e578063b460af941461072e578063ba0876521461074e578063bdacb3031461076e578063c63d75b61461048f578063c6e6f5921461078e578063ce96cb77146107ae578063d33219b4146107ce578063d505accf146107ee578063d547741f1461080e578063d905777e1461082e578063dd62ed3e1461084e578063edc922a91461086e578063edf07f1514610890578063ef8b30f71461078e578063f0f44260146108b0578063f5b541a6146108d057600080fd5b3661027057005b600080fd5b34801561028157600080fd5b5061028a6108f2565b6040519081526020015b60405180910390f35b3480156102a957600080fd5b506102b2610901565b6040516102949190612a8d565b3480156102cb57600080fd5b5061028a6102da366004612aa0565b610993565b3480156102eb57600080fd5b5061028a7fd8aa0f3194971a2a116679f7c2090f6939c8d4e01a2a8d7e41d55e5351469e6381565b34801561031f57600080fd5b5061033361032e366004612ace565b6109a6565b6040519015158152602001610294565b34801561034f57600080fd5b5061028a61035e366004612aa0565b6109be565b34801561036f57600080fd5b5061038361037e366004612aa0565b6109cb565b005b34801561039157600080fd5b5060025461028a565b3480156103a657600080fd5b506103836103b5366004612b20565b610a70565b3480156103c657600080fd5b506103336103d5366004612be4565b610aa7565b3480156103e657600080fd5b506103836103f5366004612c25565b610acd565b34801561040657600080fd5b50610383610415366004612c55565b610b03565b34801561042657600080fd5b5060405160ff7f0000000000000000000000000000000000000000000000000000000000000000168152602001610294565b34801561046457600080fd5b5061028a610b34565b34801561047957600080fd5b50610482610b3e565b6040516102949190612c76565b34801561049b57600080fd5b5061028a6104aa366004612c8a565b610b62565b3480156104bb57600080fd5b506103836104ca366004612aa0565b610b84565b3480156104db57600080fd5b5061028a600d5481565b3480156104f157600080fd5b50610333610500366004612c55565b610bb5565b34801561051157600080fd5b50600f5461033390600160a01b900460ff1681565b34801561053257600080fd5b50600f54610482906001600160a01b031681565b34801561055257600080fd5b5061028a610561366004612c25565b610bf8565b34801561057257600080fd5b5061028a610581366004612c8a565b610c1d565b34801561059257600080fd5b506103836105a1366004612c8a565b610c38565b3480156105b257600080fd5b5061028a600081565b3480156105c757600080fd5b506103336105d6366004612ca7565b610c69565b3480156105e757600080fd5b5061028a6105f6366004612c8a565b610e23565b34801561060757600080fd5b50610610610e41565b6040516102949796959493929190612d0b565b34801561062f57600080fd5b5061028a61063e366004612c8a565b610e87565b34801561064f57600080fd5b5061038361065e366004612aa0565b610e95565b34801561066f57600080fd5b5061033361067e366004612c25565b610ec6565b34801561068f57600080fd5b5061028a61069e366004612c25565b610ef1565b3480156106af57600080fd5b506102b2610f16565b3480156106c457600080fd5b50600b54610482906001600160a01b031681565b3480156106e457600080fd5b5061028a600c5481565b3480156106fa57600080fd5b50610333610709366004612ace565b610f25565b34801561071a57600080fd5b5061028a610729366004612aa0565b610f33565b34801561073a57600080fd5b5061028a610749366004612da4565b610f40565b34801561075a57600080fd5b5061028a610769366004612da4565b610f79565b34801561077a57600080fd5b50610383610789366004612c8a565b610fb2565b34801561079a57600080fd5b5061028a6107a9366004612aa0565b610fe6565b3480156107ba57600080fd5b5061028a6107c9366004612c8a565b610ff3565b3480156107da57600080fd5b50600e54610482906001600160a01b031681565b3480156107fa57600080fd5b50610383610809366004612de6565b611018565b34801561081a57600080fd5b50610383610829366004612c25565b611148565b34801561083a57600080fd5b5061028a610849366004612c8a565b61117a565b34801561085a57600080fd5b5061028a610869366004612e5d565b61119c565b34801561087a57600080fd5b506108836111c7565b6040516102949190612e8b565b34801561089c57600080fd5b506103836108ab366004612c55565b611228565b3480156108bc57600080fd5b506103836108cb366004612c8a565b611259565b3480156108dc57600080fd5b5061028a6000805160206130eb83398151915281565b60006108fc61128a565b905090565b60606003805461091090612ecc565b80601f016020809104026020016040519081016040528092919081815260200182805461093c90612ecc565b80156109895780601f1061095e57610100808354040283529160200191610989565b820191906000526020600020905b81548152906001019060200180831161096c57829003601f168201915b5050505050905090565b60006109a0826000611347565b92915050565b6000336109b481858561137e565b5060019392505050565b60006109a0826001611390565b600f54600160a01b900460ff16156109f657604051632b2cba5d60e01b815260040160405180910390fd5b600c54811015610a19576040516309bb724360e21b815260040160405180910390fd5b610a2360006113c2565b610a2f33308384611452565b600f805460ff60a01b1916600160a01b17905560405133907fb1fa1aae20fc88a51add616c46f8bc3a8d65d75b8fbe30fb0a6a2df2e773632290600090a250565b600e546001600160a01b03163314610a9b5760405163084312d160e41b815260040160405180910390fd5b610aa481611522565b50565b600033610ab58582856116ac565b610ac0858585611700565b60019150505b9392505050565b610ad8600033610ec6565b610af557604051633dcaff7960e21b815260040160405180910390fd5b610aff828261175f565b5050565b610b0e600033610ec6565b610b2b57604051633dcaff7960e21b815260040160405180910390fd5b610aa4816113c2565b60006108fc6117e5565b7f000000000000000000000000000000000000000000000000000000000000000090565b6000610b6e6000610bb5565b15610b7b57506000919050565b50600019919050565b610b8f600033610ec6565b610bac57604051633dcaff7960e21b815260040160405180910390fd5b610aa481611910565b600060096000836001811115610bcd57610bcd612f06565b6001811115610bde57610bde612f06565b815260208101919091526040016000205460ff1692915050565b600080610c0484610fe6565b9050610c1183858361196d565b610ac633848684611452565b6001600160a01b031660009081526020819052604090205490565b610c43600033610ec6565b610c6057604051633dcaff7960e21b815260040160405180910390fd5b610aa4816119eb565b6000610c836000805160206130eb83398151915233610ec6565b610ca057604051635be2897760e11b815260040160405180910390fd5b610ca985611a5c565b1580610cbb5750610cb984611a5c565b155b15610cd9576040516301d9c4ab60e21b815260040160405180910390fd5b610ce38387611ab6565b610d0e8660405180604001604052806008815260200167776974686472617760c01b81525087611af6565b610d41610d1b8488612f32565b6040518060400160405280600781526020016619195c1bdcda5d60ca1b81525086611af6565b8215610db657600f546001600160a01b0390811690610d83907f0000000000000000000000000000000000000000000000000000000000000000168286611b8c565b806001600160a01b03166000805160206130cb83398151915285604051610dac91815260200190565b60405180910390a2505b8115610dc557610dc5846119eb565b6001600160a01b038085169086167f086c47503692f7dac9bd7ce63f1c29c814ce3ae59ee29390e242340d6dd8d58f88610dff8782612f32565b6040805192835260208301919091520160405180910390a350600195945050505050565b6001600160a01b0381166000908152600760205260408120546109a0565b600060608060008060006060610e55611be4565b610e5d611c11565b60408051600080825260208201909252600f60f81b9b939a50919850469750309650945092509050565b60006109a06102da83610c1d565b610ea0600033610ec6565b610ebd57604051633dcaff7960e21b815260040160405180910390fd5b610aa481611c3e565b60009182526008602090815260408084206001600160a01b0393909316845291905290205460ff1690565b600080610efd84610f33565b9050610f0a83828661196d565b610ac633848387611452565b60606004805461091090612ecc565b6000336109b4818585611700565b60006109a0826001611347565b600080610f4c856109be565b9050600080610f5e8784338989611c73565b91509150610f6f3387878585611d46565b9695505050505050565b600080610f8585610993565b9050600080610f978388338989611c73565b91509150610fa83387878585611d46565b5095945050505050565b600e546001600160a01b03163314610fdd5760405163084312d160e41b815260040160405180910390fd5b610aa481611ebb565b60006109a0826000611390565b6000610fff6001610bb5565b1561100c57506000919050565b6109a06102da83610c1d565b834211156110415760405163313c898160e11b8152600481018590526024015b60405180910390fd5b60007f6e71edae12b1b97f4d1f60370fef10105fa2faae0126114a169c64845d6126c988888861108e8c6001600160a01b0316600090815260076020526040902080546001810190915590565b6040805160208101969096526001600160a01b0394851690860152929091166060840152608083015260a082015260c0810186905260e00160405160208183030381529060405280519060200120905060006110e982611f2c565b905060006110f982878787611f59565b9050896001600160a01b0316816001600160a01b03161461113157808a6040516325c0072360e11b8152600401611038929190612f45565b61113c8a8a8a61137e565b50505050505050505050565b611153600033610ec6565b61117057604051633dcaff7960e21b815260040160405180910390fd5b610aff8282611f87565b60006111866001610bb5565b1561119357506000919050565b6109a082610c1d565b6001600160a01b03918216600090815260016020908152604080832093909416825291909152205490565b6060600a80548060200260200160405190810160405280929190818152602001828054801561098957602002820191906000526020600020905b81546001600160a01b03168152600190910190602001808311611201575050505050905090565b611233600033610ec6565b61125057604051633dcaff7960e21b815260040160405180910390fd5b610aa481611fee565b611264600033610ec6565b61128157604051633dcaff7960e21b815260040160405180910390fd5b610aa481612067565b600a546000908190815b8181101561134157600a81815481106112af576112af612f5f565b6000918252602090912001546040516302b844a960e21b81526001600160a01b0390911690630ae112a4906112ea9030908190600401612f45565b602060405180830381865afa158015611307573d6000803e3d6000fd5b505050506040513d601f19601f8201168201806040525081019061132b9190612f75565b92506113378385612f8e565b9350600101611294565b50505090565b60008061135360025490565b905080156113745761136f6113666108f2565b859083866120d8565b611376565b835b949350505050565b61138b8383836001612125565b505050565b60008061139c60025490565b90508315806113a9575080155b6113745761136f816113b96108f2565b869190866120d8565b806113cc816121ec565b6000600960008460018111156113e4576113e4612f06565b60018111156113f5576113f5612f06565b81526020810191909152604001600020805460ff19169115159190911790557f4cd3e1443d03aba343c5d882744f8f172c07b495e955ac3defb325cbd73c8550335b83604051611446929190612fa1565b60405180910390a15050565b6114876001600160a01b037f000000000000000000000000000000000000000000000000000000000000000016853085612212565b60408051808201909152600781526619195c1bdcda5d60ca1b6020820152600b546114bc9184916001600160a01b0316611af6565b6114c6838261224b565b826001600160a01b0316846001600160a01b03167fdcbc1c05240f31ff3ad067ef1ee35ce4997762752e3a095284754544f4c709d78484604051611514929190918252602082015260400190565b60405180910390a350505050565b60005b815181101561165d5760006001600160a01b031682828151811061154b5761154b612f5f565b60200260200101516001600160a01b03160361157a57604051633335653160e01b815260040160405180910390fd5b61165582828151811061158f5761158f612f5f565b60200260200101516001600160a01b03166373f64d446115ad610b3e565b6040516001600160e01b031960e084901b1681526001600160a01b03909116600482015230602482015260006044820152606401602060405180830381865afa1580156115fe573d6000803e3d6000fd5b505050506040513d601f19601f820116820180604052508101906116229190612fdc565b6001600160a01b037f00000000000000000000000000000000000000000000000000000000000000001690600019612281565b600101611525565b50805161167190600a9060208401906129c3565b507f5f589bfb97387c6d7ce41557510dba9ca4a577876489cacc87a22a395b8b13ca816040516116a19190612e8b565b60405180910390a150565b60006116b8848461119c565b90506000198110156116fa57818110156116eb57828183604051637dc7a0d960e11b815260040161103893929190612ff9565b6116fa84848484036000612125565b50505050565b6001600160a01b03831661172a576000604051634b637e8f60e11b81526004016110389190612c76565b6001600160a01b03821661175457600060405163ec442f0560e01b81526004016110389190612c76565b61138b838383612313565b6117698282610ec6565b610aff5760008281526008602090815260408083206001600160a01b03851684529091529020805460ff191660011790556117a13390565b6001600160a01b0316816001600160a01b0316837f2f8788117e7eff1d82e926ec794901d17c78024a50270940304540a733656f0d60405160405180910390a45050565b6000306001600160a01b037f00000000000000000000000000000000000000000000000000000000000000001614801561183e57507f000000000000000000000000000000000000000000000000000000000000000046145b1561186857507f000000000000000000000000000000000000000000000000000000000000000090565b6108fc604080517f8b73c3c69bb8fe3d512ecc4cf759cc79239f7b179b0ffacaa9a75d522b39400f60208201527f0000000000000000000000000000000000000000000000000000000000000000918101919091527f000000000000000000000000000000000000000000000000000000000000000060608201524660808201523060a082015260009060c00160405160208183030381529060405280519060200120905090565b66b1a2bc2ec500008111156119385760405163207562d360e21b815260040160405180910390fd5b600d8190556040518181527fd84a6d804e5eabc5849fa0d39e4545509125b95c297e1ec5ed98fad0f66befb8906020016116a1565b60006119788161242a565b6001600160a01b03841661199f57604051633335653160e01b815260040160405180910390fd5b8215806119aa575081155b156119c85760405163207562d360e21b815260040160405180910390fd5b600c548310156116fa576040516309bb724360e21b815260040160405180910390fd5b6119f481611a5c565b611a115760405163207562d360e21b815260040160405180910390fd5b600b80546001600160a01b0319166001600160a01b0383161790556040517f34ea2e3abaf449e8227dcf35ffa3aa94f2b89384cdf95fe6fd34dc2aefc59b09906116a1908390612c76565b600a54600090815b81811015611aaf57600a8181548110611a7f57611a7f612f5f565b6000918252602090912001546001600160a01b0390811690851603611aa75760019250611aaf565b600101611a64565b5050919050565b6000611ad3826702c68af0bb140000670de0b6b3a7640000612451565b90508083111561138b576040516337fa464560e21b815260040160405180910390fd5b600082604051602001611b09919061301a565b60408051601f1981840301815290829052602482018690523060448301529060640160408051601f198184030181529082905291611b469161304f565b6040519081900390206020820180516001600160e01b03166001600160e01b03199092169190911790529050611b856001600160a01b03831682612506565b5050505050565b61138b83846001600160a01b031663a9059cbb8585604051602401611bb292919061306b565b604051602081830303815290604052915060e01b6020820180516001600160e01b038381831617835250505050612573565b60606108fc7f000000000000000000000000000000000000000000000000000000000000000060056125db565b60606108fc7f000000000000000000000000000000000000000000000000000000000000000060066125db565b600c8190556040518181527f7a94dccf633222d5f6174016b33ae91ce3449a59c8ac979df57cc84ea1a5b2ef906020016116a1565b6000806001611c818161242a565b6001600160a01b0385161580611c9e57506001600160a01b038416155b15611cbc57604051633335653160e01b815260040160405180910390fd5b871580611cc7575086155b15611ce55760405163207562d360e21b815260040160405180910390fd5b6000611cf085610ff3565b905080891115611d0f57925082611d0881898b612451565b9250611d16565b8893508792505b846001600160a01b0316876001600160a01b031614611d3a57611d3a8588856116ac565b50509550959350505050565b600d54600090611d60908490670de0b6b3a7640000612451565b90506000611d6e8285612f32565b9050611d7a8584612686565b604080518082019091526008815267776974686472617760c01b6020820152600b54611db09186916001600160a01b0316611af6565b600f546001600160a01b0390811690611dec907f0000000000000000000000000000000000000000000000000000000000000000168285611b8c565b611e206001600160a01b037f0000000000000000000000000000000000000000000000000000000000000000168884611b8c565b806001600160a01b03166000805160206130cb83398151915284604051611e4991815260200190565b60405180910390a2856001600160a01b0316876001600160a01b0316896001600160a01b03167ffbde797d201c681b91056529119e0b02407c7bb96a4a2c75c01fc9667232c8db8588604051611ea9929190918252602082015260400190565b60405180910390a45050505050505050565b6001600160a01b038116611ee257604051633335653160e01b815260040160405180910390fd5b600e80546001600160a01b0319166001600160a01b0383169081179091556040517fc046b9e8f0cd9b70a3b838962e9c229277fbb7abee68ea0fad4acf2898ed2ca990600090a250565b60006109a0611f396117e5565b8360405161190160f01b8152600281019290925260228201526042902090565b600080600080611f6b888888886126bc565b925092509250611f7b8282612781565b50909695505050505050565b611f918282610ec6565b15610aff5760008281526008602090815260408083206001600160a01b0385168085529252808320805460ff1916905551339285917ff6391f5c32d9c69d2a47ea670b442974b53935d1edc7fd64eb21e047a839171b9190a45050565b80611ff88161242a565b60016009600084600181111561201057612010612f06565b600181111561202157612021612f06565b81526020810191909152604001600020805460ff19169115159190911790557f534f879afd40abb4e39f8e1b77a316be4c8e3521d9cf5a3a3db8959d574d455933611437565b6001600160a01b03811661208e57604051633335653160e01b815260040160405180910390fd5b600f80546001600160a01b0319166001600160a01b0383169081179091556040517f7dae230f18360d76a040c81f050aa14eb9d6dc7901b20fc5d855e2a20fe814d190600090a250565b60006121076120e68361283a565b80156121025750600084806120fd576120fd613084565b868809115b151590565b612112868686612451565b61211c9190612f8e565b95945050505050565b6001600160a01b03841661214f57600060405163e602df0560e01b81526004016110389190612c76565b6001600160a01b038316612179576000604051634a1406b160e11b81526004016110389190612c76565b6001600160a01b03808516600090815260016020908152604080832093871683529290522082905580156116fa57826001600160a01b0316846001600160a01b03167f8c5be1e5ebec7d5bd14f71427d1e84f3dd0314c0f7b2291e5b200ac8c7c3b9258460405161151491815260200190565b6121f581610bb5565b610aa4576040516360f8581d60e01b815260040160405180910390fd5b6040516001600160a01b0384811660248301528381166044830152606482018390526116fa9186918216906323b872dd90608401611bb2565b6001600160a01b03821661227557600060405163ec442f0560e01b81526004016110389190612c76565b610aff60008383612313565b6000836001600160a01b031663095ea7b384846040516024016122a592919061306b565b604051602081830303815290604052915060e01b6020820180516001600160e01b03838183161783525050505090506122de8482612867565b6116fa5761230984856001600160a01b031663095ea7b3866000604051602401611bb292919061306b565b6116fa8482612573565b6001600160a01b03831661233e5780600260008282546123339190612f8e565b9091555061239d9050565b6001600160a01b0383166000908152602081905260409020548181101561237e5783818360405163391434e360e21b815260040161103893929190612ff9565b6001600160a01b03841660009081526020819052604090209082900390555b6001600160a01b0382166123b9576002805482900390556123d8565b6001600160a01b03821660009081526020819052604090208054820190555b816001600160a01b0316836001600160a01b03167fddf252ad1be2c89b69c2b068fc378daa952ba7f163c4a11628f55a4df523b3ef8360405161241d91815260200190565b60405180910390a3505050565b61243381610bb5565b15610aa4576040516336a4bf2d60e01b815260040160405180910390fd5b600080600061246086866128b1565b91509150816000036124855783818161247b5761247b613084565b0492505050610ac6565b81841161249c5761249c60038515026011186128cf565b6000848688096000868103871696879004966002600389028118808a02820302808a02820302808a02820302808a02820302808a02820302808a02909103029181900381900460010185841190960395909502919093039390930492909217029150509392505050565b6060600080846001600160a01b031684604051612523919061304f565b600060405180830381855af49150503d806000811461255e576040519150601f19603f3d011682016040523d82523d6000602084013e612563565b606091505b509150915061211c8583836128e1565b600080602060008451602086016000885af180612596576040513d6000823e3d81fd5b50506000513d915081156125ae5780600114156125bb565b6001600160a01b0384163b155b156116fa5783604051635274afe760e01b81526004016110389190612c76565b606060ff83146125f5576125ee83612934565b90506109a0565b81805461260190612ecc565b80601f016020809104026020016040519081016040528092919081815260200182805461262d90612ecc565b801561267a5780601f1061264f5761010080835404028352916020019161267a565b820191906000526020600020905b81548152906001019060200180831161265d57829003601f168201915b505050505090506109a0565b6001600160a01b0382166126b0576000604051634b637e8f60e11b81526004016110389190612c76565b610aff82600083612313565b600080806fa2a8918ca85bafe22016d0b997e4df60600160ff1b038411156126ed5750600091506003905082612777565b604080516000808252602082018084528a905260ff891692820192909252606081018790526080810186905260019060a0016020604051602081039080840390855afa158015612741573d6000803e3d6000fd5b5050604051601f1901519150506001600160a01b03811661276d57506000925060019150829050612777565b9250600091508190505b9450945094915050565b600082600381111561279557612795612f06565b0361279e575050565b60018260038111156127b2576127b2612f06565b036127d05760405163f645eedf60e01b815260040160405180910390fd5b60028260038111156127e4576127e4612f06565b036128055760405163fce698f760e01b815260048101829052602401611038565b600382600381111561281957612819612f06565b03610aff576040516335e2f38360e21b815260048101829052602401611038565b6000600282600381111561285057612850612f06565b61285a919061309a565b60ff166001149050919050565b6000806000806020600086516020880160008a5af192503d91506000519050828015610f6f5750811561289d5780600114610f6f565b50505050506001600160a01b03163b151590565b60008060001983850993909202808410938190039390930393915050565b634e487b71600052806020526024601cfd5b6060826128f6576128f182612973565b610ac6565b815115801561290d57506001600160a01b0384163b155b1561292d5783604051639996b31560e01b81526004016110389190612c76565b5080610ac6565b606060006129418361299b565b604080516020808252818301909252919250600091906020820181803683375050509182525060208101929092525090565b80511561298257805160208201fd5b60405163d6bda27560e01b815260040160405180910390fd5b600060ff8216601f8111156109a057604051632cd44ac360e21b815260040160405180910390fd5b828054828255906000526020600020908101928215612a18579160200282015b82811115612a1857825182546001600160a01b0319166001600160a01b039091161782556020909201916001909101906129e3565b50612a24929150612a28565b5090565b5b80821115612a245760008155600101612a29565b60005b83811015612a58578181015183820152602001612a40565b50506000910152565b60008151808452612a79816020860160208601612a3d565b601f01601f19169290920160200192915050565b602081526000610ac66020830184612a61565b600060208284031215612ab257600080fd5b5035919050565b6001600160a01b0381168114610aa457600080fd5b60008060408385031215612ae157600080fd5b8235612aec81612ab9565b946020939093013593505050565b634e487b7160e01b600052604160045260246000fd5b8035612b1b81612ab9565b919050565b60006020808385031215612b3357600080fd5b82356001600160401b0380821115612b4a57600080fd5b818501915085601f830112612b5e57600080fd5b813581811115612b7057612b70612afa565b8060051b604051601f19603f83011681018181108582111715612b9557612b95612afa565b604052918252848201925083810185019188831115612bb357600080fd5b938501935b82851015612bd857612bc985612b10565b84529385019392850192612bb8565b98975050505050505050565b600080600060608486031215612bf957600080fd5b8335612c0481612ab9565b92506020840135612c1481612ab9565b929592945050506040919091013590565b60008060408385031215612c3857600080fd5b823591506020830135612c4a81612ab9565b809150509250929050565b600060208284031215612c6757600080fd5b813560028110610ac657600080fd5b6001600160a01b0391909116815260200190565b600060208284031215612c9c57600080fd5b8135610ac681612ab9565b600080600080600060a08688031215612cbf57600080fd5b853594506020860135612cd181612ab9565b93506040860135612ce181612ab9565b92506060860135915060808601358015158114612cfd57600080fd5b809150509295509295909350565b60ff60f81b881681526000602060e06020840152612d2c60e084018a612a61565b8381036040850152612d3e818a612a61565b606085018990526001600160a01b038816608086015260a0850187905284810360c08601528551808252602080880193509091019060005b81811015612d9257835183529284019291840191600101612d76565b50909c9b505050505050505050505050565b600080600060608486031215612db957600080fd5b833592506020840135612dcb81612ab9565b91506040840135612ddb81612ab9565b809150509250925092565b600080600080600080600060e0888a031215612e0157600080fd5b8735612e0c81612ab9565b96506020880135612e1c81612ab9565b95506040880135945060608801359350608088013560ff81168114612e4057600080fd5b9699959850939692959460a0840135945060c09093013592915050565b60008060408385031215612e7057600080fd5b8235612e7b81612ab9565b91506020830135612c4a81612ab9565b6020808252825182820181905260009190848201906040850190845b81811015611f7b5783516001600160a01b031683529284019291840191600101612ea7565b600181811c90821680612ee057607f821691505b602082108103612f0057634e487b7160e01b600052602260045260246000fd5b50919050565b634e487b7160e01b600052602160045260246000fd5b634e487b7160e01b600052601160045260246000fd5b818103818111156109a0576109a0612f1c565b6001600160a01b0392831681529116602082015260400190565b634e487b7160e01b600052603260045260246000fd5b600060208284031215612f8757600080fd5b5051919050565b808201808211156109a0576109a0612f1c565b6001600160a01b03831681526040810160028310612fcf57634e487b7160e01b600052602160045260246000fd5b8260208301529392505050565b600060208284031215612fee57600080fd5b8151610ac681612ab9565b6001600160a01b039390931683526020830191909152604082015260600190565b6000825161302c818460208701612a3d565b702875696e743235362c616464726573732960781b920191825250601101919050565b60008251613061818460208701612a3d565b9190910192915050565b6001600160a01b03929092168252602082015260400190565b634e487b7160e01b600052601260045260246000fd5b600060ff8316806130bb57634e487b7160e01b600052601260045260246000fd5b8060ff8416069150509291505056fe55bb3cade9d43b798a4fe5ffdd05024b2d7870df53920673bfc7e68047cd0ab197667070c54ef182b0f5858b034beac1b6f3089aa2d3188bb1e8929f4fa9b929a2646970667358221220e16d455dc88ec632734fc27a3f7b30b200b2b4d3de0731a4adb970e82a4a65aa64736f6c63430008170033",
  "devdoc": {
    "custom:rebalancing-features": "The contract provides: - Automated provider-to-provider transfers - Configurable rebalancing fees (max 20%) - Active provider management - Fee collection to treasury - Comprehensive event logging",
    "custom:rebalancing-process": "The rebalancing workflow: 1. Validate source and destination providers 2. Check fee limits (max 20% of rebalanced amount) 3. Withdraw assets from source provider 4. Deposit assets to destination provider (minus fee) 5. Transfer fee to treasury 6. Optionally activate destination provider 7. Emit rebalancing events",
    "custom:security-measures": "Security features include: - Operator-only rebalancing execution - Provider validation before operations - Fee limits to prevent excessive charges - Proper asset accounting and transfers - Event emission for transparency",
    "custom:usage": "Example: ```solidity // Rebalance 1000 USDC from Aave to Morpho with 1% fee rebalancer.rebalance(     1000e6, // 1000 USDC     aaveProvider,     morphoProvider,     10e6, // 1% fee (10 USDC)     true // Activate Morpho as active provider ); ```",
    "details": "This contract extends the base Vault functionality with automated rebalancing      capabilities, allowing operators to move funds between providers efficiently      while maintaining proper fee structures and security controls.",
    "errors": {
      "AccessManager__CallerIsNotAdmin()": [
        {
          "details": "Errors"
        }
      ],
      "AddressEmptyCode(address)": [
        {
          "details": "There's no code at `target` (it is not a contract)."
        }
      ],
      "ECDSAInvalidSignature()": [
        {
          "details": "The signature derives the `address(0)`."
        }
      ],
      "ECDSAInvalidSignatureLength(uint256)": [
        {
          "details": "The signature has an invalid length."
        }
      ],
      "ECDSAInvalidSignatureS(bytes32)": [
        {
          "details": "The signature has an S value that is in the upper half order."
        }
      ],
      "ERC20InsufficientAllowance(address,uint256,uint256)": [
        {
          "details": "Indicates a failure with the `spender`s `allowance`. Used in transfers.",
          "params": {
            "allowance": "Amount of tokens a `spender` is allowed to operate with.",
            "needed": "Minimum amount required to perform a transfer.",
            "spender": "Address that may be allowed to operate on tokens without being their owner."
          }
        }
      ],
      "ERC20InsufficientBalance(address,uint256,uint256)": [
        {
          "details": "Indicates an error related to the current `balance` of a `sender`. Used in transfers.",
          "params": {
            "balance": "Current balance for the interacting account.",
            "needed": "Minimum amount required to perform a transfer.",
            "sender": "Address whose tokens are being transferred."
          }
        }
      ],
      "ERC20InvalidApprover(address)": [
        {
          "details": "Indicates a failure with the `approver` of a token to be approved. Used in approvals.",
          "params": {
            "approver": "Address initiating an approval operation."
          }
        }
      ],
      "ERC20InvalidReceiver(address)": [
        {
          "details": "Indicates a failure with the token `receiver`. Used in transfers.",
          "params": {
            "receiver": "Address to which tokens are being transferred."
          }
        }
      ],
      "ERC20InvalidSender(address)": [
        {
          "details": "Indicates a failure with the token `sender`. Used in transfers.",
          "params": {
            "sender": "Address whose tokens are being transferred."
          }
        }
      ],
      "ERC20InvalidSpender(address)": [
        {
          "details": "Indicates a failure with the `spender` to be approved. Used in approvals.",
          "params": {
            "spender": "Address that may be allowed to operate on tokens without being their owner."
          }
        }
      ],
      "ERC2612ExpiredSignature(uint256)": [
        {
          "details": "Permit deadline has expired."
        }
      ],
      "ERC2612InvalidSigner(address,address)": [
        {
          "details": "Mismatched signature."
        }
      ],
      "FailedCall()": [
        {
          "details": "A call to an address target failed. The target may have reverted."
        }
      ],
      "InvalidAccountNonce(address,uint256)": [
        {
          "details": "The nonce used for an `account` is not the expected current nonce."
        }
      ],
      "PausableActions__ActionPaused()": [
        {
          "details": "Errors"
        }
      ],
      "Rebalancer__InvalidProvider()": [
        {
          "details": "Errors"
        }
      ],
      "SafeERC20FailedOperation(address)": [
        {
          "details": "An operation with an ERC-20 token failed."
        }
      ],
      "Vault__Unauthorized()": [
        {
          "details": "Errors"
        }
      ]
    },
    "events": {
      "ActiveProviderUpdated(address)": {
        "params": {
          "activeProvider": "The new active provider."
        }
      },
      "Approval(address,address,uint256)": {
        "details": "Emitted when the allowance of a `spender` for an `owner` is set by a call to {approve}. `value` is the new allowance."
      },
      "EIP712DomainChanged()": {
        "details": "MAY be emitted to signal that the domain could have changed."
      },
      "FeeCharged(address,uint256)": {
        "params": {
          "fee": "The amount charged.",
          "treasury": "The treasury address of the vault."
        }
      },
      "MinAmountUpdated(uint256)": {
        "params": {
          "minAmount": "The new minimum amount."
        }
      },
      "Paused(address,uint8)": {
        "details": "Emitted when the pause is triggered by `account` for a specific `action`."
      },
      "ProvidersUpdated(address[])": {
        "params": {
          "providers": "The new array of providers."
        }
      },
      "RebalanceExecuted(uint256,uint256,address,address)": {
        "params": {
          "assetsFrom": "The amount of assets rebalanced from.",
          "assetsTo": "The amount of assets rebalanced to.",
          "from": "The provider from which assets are rebalanced.",
          "to": "The provider to which assets are rebalanced."
        }
      },
      "RoleGranted(bytes32,address,address)": {
        "details": "Emitted when `account` is granted `role`."
      },
      "RoleRevoked(bytes32,address,address)": {
        "details": "Emitted when `account` is revoked `role`."
      },
      "SetupCompleted(address)": {
        "params": {
          "setupAddress": "The address that performed the vault setup."
        }
      },
      "TimelockUpdated(address)": {
        "params": {
          "timelock": "The new timelock contract address."
        }
      },
      "Transfer(address,address,uint256)": {
        "details": "Emitted when `value` tokens are moved from one account (`from`) to another (`to`). Note that `value` may be zero."
      },
      "TreasuryUpdated(address)": {
        "params": {
          "treasury": "The new treasury address."
        }
      },
      "Unpaused(address,uint8)": {
        "details": "Emitted when the pause is lifted by `account` for a specific `action`."
      },
      "WithdrawFeePercentUpdated(uint256)": {
        "params": {
          "withdrawFeePercent": "The new withdrawal fee percentage."
        }
      }
    },
    "kind": "dev",
    "methods": {
      "DOMAIN_SEPARATOR()": {
        "details": "Returns the domain separator used in the encoding of the signature for {permit}, as defined by {EIP712}."
      },
      "allowance(address,address)": {
        "details": "Returns the remaining number of tokens that `spender` will be allowed to spend on behalf of `owner` through {transferFrom}. This is zero by default. This value changes when {approve} or {transferFrom} are called."
      },
      "approve(address,uint256)": {
        "details": "See {IERC20-approve}. NOTE: If `value` is the maximum `uint256`, the allowance is not updated on `transferFrom`. This is semantically equivalent to an infinite approval. Requirements: - `spender` cannot be the zero address."
      },
      "asset()": {
        "details": "Returns the address of the underlying token used for the Vault for accounting, depositing, and withdrawing. - MUST be an ERC-20 token contract. - MUST NOT revert."
      },
      "balanceOf(address)": {
        "details": "Returns the value of tokens owned by `account`."
      },
      "constructor": {
        "details": "Initializes the Rebalancer contract with the specified parameters.",
        "params": {
          "asset_": "The address of the underlying asset managed by the vault.",
          "name_": "The name of the tokenized vault.",
          "providers_": "An array of providers serving as a liquidity source for lending and/or yield.",
          "symbol_": "The symbol of the tokenized vault.",
          "timelock_": "The address of the timelock contract.",
          "treasury_": "The address of the treasury.",
          "withdrawFeePercent_": "The fee percentage applied to withdrawals."
        }
      },
      "convertToAssets(uint256)": {
        "details": "Returns the amount of assets that the Vault would exchange for the amount of shares provided, in an ideal scenario where all the conditions are met. - MUST NOT be inclusive of any fees that are charged against assets in the Vault. - MUST NOT show any variations depending on the caller. - MUST NOT reflect slippage or other on-chain conditions, when performing the actual exchange. - MUST NOT revert. NOTE: This calculation MAY NOT reflect the per-user price-per-share, and instead should reflect the average-users price-per-share, meaning what the average user should expect to see when exchanging to and from."
      },
      "convertToShares(uint256)": {
        "details": "Returns the amount of shares that the Vault would exchange for the amount of assets provided, in an ideal scenario where all the conditions are met. - MUST NOT be inclusive of any fees that are charged against assets in the Vault. - MUST NOT show any variations depending on the caller. - MUST NOT reflect slippage or other on-chain conditions, when performing the actual exchange. - MUST NOT revert. NOTE: This calculation MAY NOT reflect the per-user price-per-share, and instead should reflect the average-users price-per-share, meaning what the average user should expect to see when exchanging to and from."
      },
      "deposit(uint256,address)": {
        "details": "Mints shares Vault shares to receiver by depositing exactly amount of underlying tokens. - MUST emit the Deposit event. - MAY support an additional flow in which the underlying tokens are owned by the Vault contract before the   deposit execution, and are accounted for during deposit. - MUST revert if all of assets cannot be deposited (due to deposit limit being reached, slippage, the user not   approving enough underlying tokens to the Vault contract, etc). NOTE: most implementations will require pre-approval of the Vault with the Vaults underlying asset token."
      },
      "eip712Domain()": {
        "details": "returns the fields and values that describe the domain separator used by this contract for EIP-712 signature."
      },
      "getBalanceOfAsset(address)": {
        "params": {
          "owner": "The address of the account whose asset balance is checked."
        }
      },
      "grantRole(bytes32,address)": {
        "details": "Grants `role` to `account`. If `account` had not been already granted `role`, emits a {RoleGranted} event. Requirements: - the caller must have the admin role. May emit a {RoleGranted} event."
      },
      "hasRole(bytes32,address)": {
        "details": "Returns `true` if `account` has been granted `role`."
      },
      "maxDeposit(address)": {
        "details": "Returns the maximum amount of the underlying asset that can be deposited into the Vault for the receiver, through a deposit call. - MUST return a limited value if receiver is subject to some deposit limit. - MUST return 2 ** 256 - 1 if there is no limit on the maximum amount of assets that may be deposited. - MUST NOT revert."
      },
      "maxMint(address)": {
        "details": "Returns the maximum amount of the Vault shares that can be minted for the receiver, through a mint call. - MUST return a limited value if receiver is subject to some mint limit. - MUST return 2 ** 256 - 1 if there is no limit on the maximum amount of shares that may be minted. - MUST NOT revert."
      },
      "maxRedeem(address)": {
        "details": "Returns the maximum amount of Vault shares that can be redeemed from the owner balance in the Vault, through a redeem call. - MUST return a limited value if owner is subject to some withdrawal limit or timelock. - MUST return balanceOf(owner) if owner is not subject to any withdrawal limit or timelock. - MUST NOT revert."
      },
      "maxWithdraw(address)": {
        "details": "Returns the maximum amount of the underlying asset that can be withdrawn from the owner balance in the Vault, through a withdraw call. - MUST return a limited value if owner is subject to some withdrawal limit or timelock. - MUST NOT revert."
      },
      "mint(uint256,address)": {
        "details": "Mints exactly shares Vault shares to receiver by depositing amount of underlying tokens. - MUST emit the Deposit event. - MAY support an additional flow in which the underlying tokens are owned by the Vault contract before the mint   execution, and are accounted for during mint. - MUST revert if all of shares cannot be minted (due to deposit limit being reached, slippage, the user not   approving enough underlying tokens to the Vault contract, etc). NOTE: most implementations will require pre-approval of the Vault with the Vaults underlying asset token."
      },
      "name()": {
        "details": "Returns the name of the token."
      },
      "nonces(address)": {
        "details": "Returns the current nonce for `owner`. This value must be included whenever a signature is generated for {permit}. Every successful call to {permit} increases ``owner``'s nonce by one. This prevents a signature from being used multiple times."
      },
      "pause(uint8)": {
        "params": {
          "action": "The action to pause."
        }
      },
      "paused(uint8)": {
        "details": "Returns true if the specified `action` is paused, and false otherwise."
      },
      "permit(address,address,uint256,uint256,uint8,bytes32,bytes32)": {
        "details": "Sets `value` as the allowance of `spender` over ``owner``'s tokens, given ``owner``'s signed approval. IMPORTANT: The same issues {IERC20-approve} has related to transaction ordering also apply here. Emits an {Approval} event. Requirements: - `spender` cannot be the zero address. - `deadline` must be a timestamp in the future. - `v`, `r` and `s` must be a valid `secp256k1` signature from `owner` over the EIP712-formatted function arguments. - the signature must use ``owner``'s current nonce (see {nonces}). For more information on the signature format, see the https://eips.ethereum.org/EIPS/eip-2612#specification[relevant EIP section]. CAUTION: See Security Considerations above."
      },
      "previewDeposit(uint256)": {
        "details": "Allows an on-chain or off-chain user to simulate the effects of their deposit at the current block, given current on-chain conditions. - MUST return as close to and no more than the exact amount of Vault shares that would be minted in a deposit   call in the same transaction. I.e. deposit should return the same or more shares as previewDeposit if called   in the same transaction. - MUST NOT account for deposit limits like those returned from maxDeposit and should always act as though the   deposit would be accepted, regardless if the user has enough tokens approved, etc. - MUST be inclusive of deposit fees. Integrators should be aware of the existence of deposit fees. - MUST NOT revert. NOTE: any unfavorable discrepancy between convertToShares and previewDeposit SHOULD be considered slippage in share price or some other type of condition, meaning the depositor will lose assets by depositing."
      },
      "previewMint(uint256)": {
        "details": "Allows an on-chain or off-chain user to simulate the effects of their mint at the current block, given current on-chain conditions. - MUST return as close to and no fewer than the exact amount of assets that would be deposited in a mint call   in the same transaction. I.e. mint should return the same or fewer assets as previewMint if called in the   same transaction. - MUST NOT account for mint limits like those returned from maxMint and should always act as though the mint   would be accepted, regardless if the user has enough tokens approved, etc. - MUST be inclusive of deposit fees. Integrators should be aware of the existence of deposit fees. - MUST NOT revert. NOTE: any unfavorable discrepancy between convertToAssets and previewMint SHOULD be considered slippage in share price or some other type of condition, meaning the depositor will lose assets by minting."
      },
      "previewRedeem(uint256)": {
        "details": "Allows an on-chain or off-chain user to simulate the effects of their redemption at the current block, given current on-chain conditions. - MUST return as close to and no more than the exact amount of assets that would be withdrawn in a redeem call   in the same transaction. I.e. redeem should return the same or more assets as previewRedeem if called in the   same transaction. - MUST NOT account for redemption limits like those returned from maxRedeem and should always act as though the   redemption would be accepted, regardless if the user has enough shares, etc. - MUST be inclusive of withdrawal fees. Integrators should be aware of the existence of withdrawal fees. - MUST NOT revert. NOTE: any unfavorable discrepancy between convertToAssets and previewRedeem SHOULD be considered slippage in share price or some other type of condition, meaning the depositor will lose assets by redeeming."
      },
      "previewWithdraw(uint256)": {
        "details": "Allows an on-chain or off-chain user to simulate the effects of their withdrawal at the current block, given current on-chain conditions. - MUST return as close to and no fewer than the exact amount of Vault shares that would be burned in a withdraw   call in the same transaction. I.e. withdraw should return the same or fewer shares as previewWithdraw if   called   in the same transaction. - MUST NOT account for withdrawal limits like those returned from maxWithdraw and should always act as though   the withdrawal would be accepted, regardless if the user has enough shares, etc. - MUST be inclusive of withdrawal fees. Integrators should be aware of the existence of withdrawal fees. - MUST NOT revert. NOTE: any unfavorable discrepancy between convertToShares and previewWithdraw SHOULD be considered slippage in share price or some other type of condition, meaning the depositor will lose assets by depositing."
      },
      "rebalance(uint256,address,address,uint256,bool)": {
        "params": {
          "activateToProvider": "A flag indicating whether to mark the receiving provider as active.",
          "assets": "The amount of assets to be rebalanced.",
          "fee": "The fee amount charged for the rebalancing.",
          "from": "The provider currently holding the assets.",
          "to": "The provider receiving the assets."
        }
      },
      "redeem(uint256,address,address)": {
        "details": "Burns exactly shares from owner and sends assets of underlying tokens to receiver. - MUST emit the Withdraw event. - MAY support an additional flow in which the underlying tokens are owned by the Vault contract before the   redeem execution, and are accounted for during redeem. - MUST revert if all of shares cannot be redeemed (due to withdrawal limit being reached, slippage, the owner   not having enough shares, etc). NOTE: some implementations will require pre-requesting to the Vault before a withdrawal may be performed. Those methods should be performed separately."
      },
      "revokeRole(bytes32,address)": {
        "details": "Revokes `role` from `account`. If `account` had been granted `role`, emits a {RoleRevoked} event. Requirements: - the caller must have the admin role. May emit a {RoleRevoked} event."
      },
      "setActiveProvider(address)": {
        "params": {
          "_activeProvider": "The contract of the new active provider."
        }
      },
      "setMinAmount(uint256)": {
        "params": {
          "_minAmount": "The new minimum amount."
        }
      },
      "setProviders(address[])": {
        "params": {
          "providers": "An array of provider contracts."
        }
      },
      "setTimelock(address)": {
        "params": {
          "_timelock": "The address of the new timelock contract."
        }
      },
      "setTreasury(address)": {
        "params": {
          "_treasury": "The new treasury address."
        }
      },
      "setWithdrawFeePercent(uint256)": {
        "params": {
          "_withdrawFeePercent": "The new withdrawal fee percentage."
        }
      },
      "setupVault(uint256)": {
        "details": "Refer to: https://rokinot.github.io/hatsfinance",
        "params": {
          "assets": "The amount used to set up the vault."
        }
      },
      "symbol()": {
        "details": "Returns the symbol of the token, usually a shorter version of the name."
      },
      "totalAssets()": {
        "details": "Returns the total amount of the underlying asset that is managed by Vault. - SHOULD include any compounding that occurs from yield. - MUST be inclusive of any fees that are charged against assets in the Vault. - MUST NOT revert."
      },
      "totalSupply()": {
        "details": "Returns the value of tokens in existence."
      },
      "transfer(address,uint256)": {
        "details": "See {IERC20-transfer}. Requirements: - `to` cannot be the zero address. - the caller must have a balance of at least `value`."
      },
      "transferFrom(address,address,uint256)": {
        "details": "See {IERC20-transferFrom}. Skips emitting an {Approval} event indicating an allowance update. This is not required by the ERC. See {xref-ERC20-_approve-address-address-uint256-bool-}[_approve]. NOTE: Does not update the allowance if the current allowance is the maximum `uint256`. Requirements: - `from` and `to` cannot be the zero address. - `from` must have a balance of at least `value`. - the caller must have allowance for ``from``'s tokens of at least `value`."
      },
      "unpause(uint8)": {
        "params": {
          "action": "The action to unpause."
        }
      },
      "withdraw(uint256,address,address)": {
        "details": "Burns shares from owner and sends exactly assets of underlying tokens to receiver. - MUST emit the Withdraw event. - MAY support an additional flow in which the underlying tokens are owned by the Vault contract before the   withdraw execution, and are accounted for during withdraw. - MUST revert if all of assets cannot be withdrawn (due to withdrawal limit being reached, slippage, the owner   not having enough shares, etc). Note that some implementations will require pre-requesting to the Vault before a withdrawal may be performed. Those methods should be performed separately."
      }
    },
    "title": "Rebalancer",
    "version": 1
  },
  "userdoc": {
    "events": {
      "ActiveProviderUpdated(address)": {
        "notice": "Emitted when the active provider is changed."
      },
      "FeeCharged(address,uint256)": {
        "notice": "Emitted when a fee is charged."
      },
      "MinAmountUpdated(uint256)": {
        "notice": "Emitted when the minimum amount is changed."
      },
      "ProvidersUpdated(address[])": {
        "notice": "Emitted when the available providers for the vault change."
      },
      "RebalanceExecuted(uint256,uint256,address,address)": {
        "notice": "Emitted when the vault is rebalanced."
      },
      "SetupCompleted(address)": {
        "notice": "Emitted when the vault setup is completed."
      },
      "TimelockUpdated(address)": {
        "notice": "Emitted when the timelock contract is changed."
      },
      "TreasuryUpdated(address)": {
        "notice": "Emitted when the treasury address is changed."
      },
      "WithdrawFeePercentUpdated(uint256)": {
        "notice": "Emitted when the withdrawal fee percentage is changed."
      }
    },
    "kind": "user",
    "methods": {
      "decimals()": {
        "notice": "Returns the number of decimals used to get number representation."
      },
      "getBalanceOfAsset(address)": {
        "notice": "Returns the amount of assets owned by the specified address."
      },
      "getProviders()": {
        "notice": "Returns the array of providers of this vault."
      },
      "pause(uint8)": {
        "notice": "Pauses the specified action in the vault."
      },
      "rebalance(uint256,address,address,uint256,bool)": {
        "notice": "Performs rebalancing of the vault by moving funds across providers."
      },
      "setActiveProvider(address)": {
        "notice": "Sets the active provider for this vault."
      },
      "setMinAmount(uint256)": {
        "notice": "Sets the minimum amount required for deposit and mint actions."
      },
      "setProviders(address[])": {
        "notice": "Sets the list of providers for this vault."
      },
      "setTimelock(address)": {
        "notice": "Sets the address of the timelock contract."
      },
      "setTreasury(address)": {
        "notice": "Sets the treasury address for this vault."
      },
      "setWithdrawFeePercent(uint256)": {
        "notice": "Sets the withdrawal fee percentage for this vault."
      },
      "setupVault(uint256)": {
        "notice": "Sets up the vault with a specified amount of assets to prevent inflation attacks."
      },
      "unpause(uint8)": {
        "notice": "Unpauses the specified action in the vault."
      }
    },
    "notice": "Specialized vault contract for automated rebalancing operations",
    "version": 1
  },
  "storageLayout": {
    "storage": [
      {
        "astId": 678,
        "contract": "contracts/Rebalancer.sol:Rebalancer",
        "label": "_balances",
        "offset": 0,
        "slot": "0",
        "type": "t_mapping(t_address,t_uint256)"
      },
      {
        "astId": 684,
        "contract": "contracts/Rebalancer.sol:Rebalancer",
        "label": "_allowances",
        "offset": 0,
        "slot": "1",
        "type": "t_mapping(t_address,t_mapping(t_address,t_uint256))"
      },
      {
        "astId": 686,
        "contract": "contracts/Rebalancer.sol:Rebalancer",
        "label": "_totalSupply",
        "offset": 0,
        "slot": "2",
        "type": "t_uint256"
      },
      {
        "astId": 688,
        "contract": "contracts/Rebalancer.sol:Rebalancer",
        "label": "_name",
        "offset": 0,
        "slot": "3",
        "type": "t_string_storage"
      },
      {
        "astId": 690,
        "contract": "contracts/Rebalancer.sol:Rebalancer",
        "label": "_symbol",
        "offset": 0,
        "slot": "4",
        "type": "t_string_storage"
      },
      {
        "astId": 5182,
        "contract": "contracts/Rebalancer.sol:Rebalancer",
        "label": "_nameFallback",
        "offset": 0,
        "slot": "5",
        "type": "t_string_storage"
      },
      {
        "astId": 5184,
        "contract": "contracts/Rebalancer.sol:Rebalancer",
        "label": "_versionFallback",
        "offset": 0,
        "slot": "6",
        "type": "t_string_storage"
      },
      {
        "astId": 2948,
        "contract": "contracts/Rebalancer.sol:Rebalancer",
        "label": "_nonces",
        "offset": 0,
        "slot": "7",
        "type": "t_mapping(t_address,t_uint256)"
      },
      {
        "astId": 9720,
        "contract": "contracts/Rebalancer.sol:Rebalancer",
        "label": "_roles",
        "offset": 0,
        "slot": "8",
        "type": "t_mapping(t_bytes32,t_mapping(t_address,t_bool))"
      },
      {
        "astId": 9943,
        "contract": "contracts/Rebalancer.sol:Rebalancer",
        "label": "_actionPaused",
        "offset": 0,
        "slot": "9",
        "type": "t_mapping(t_enum(Actions)9937,t_bool)"
      },
      {
        "astId": 10153,
        "contract": "contracts/Rebalancer.sol:Rebalancer",
        "label": "_providers",
        "offset": 0,
        "slot": "10",
        "type": "t_array(t_contract(IProvider)11531)dyn_storage"
      },
      {
        "astId": 10156,
        "contract": "contracts/Rebalancer.sol:Rebalancer",
        "label": "activeProvider",
        "offset": 0,
        "slot": "11",
        "type": "t_contract(IProvider)11531"
      },
      {
        "astId": 10158,
        "contract": "contracts/Rebalancer.sol:Rebalancer",
        "label": "minAmount",
        "offset": 0,
        "slot": "12",
        "type": "t_uint256"
      },
      {
        "astId": 10160,
        "contract": "contracts/Rebalancer.sol:Rebalancer",
        "label": "withdrawFeePercent",
        "offset": 0,
        "slot": "13",
        "type": "t_uint256"
      },
      {
        "astId": 10162,
        "contract": "contracts/Rebalancer.sol:Rebalancer",
        "label": "timelock",
        "offset": 0,
        "slot": "14",
        "type": "t_address"
      },
      {
        "astId": 10164,
        "contract": "contracts/Rebalancer.sol:Rebalancer",
        "label": "treasury",
        "offset": 0,
        "slot": "15",
        "type": "t_address"
      },
      {
        "astId": 10166,
        "contract": "contracts/Rebalancer.sol:Rebalancer",
        "label": "setupCompleted",
        "offset": 20,
        "slot": "15",
        "type": "t_bool"
      }
    ],
    "types": {
      "t_address": {
        "encoding": "inplace",
        "label": "address",
        "numberOfBytes": "20"
      },
      "t_array(t_contract(IProvider)11531)dyn_storage": {
        "base": "t_contract(IProvider)11531",
        "encoding": "dynamic_array",
        "label": "contract IProvider[]",
        "numberOfBytes": "32"
      },
      "t_bool": {
        "encoding": "inplace",
        "label": "bool",
        "numberOfBytes": "1"
      },
      "t_bytes32": {
        "encoding": "inplace",
        "label": "bytes32",
        "numberOfBytes": "32"
      },
      "t_contract(IProvider)11531": {
        "encoding": "inplace",
        "label": "contract IProvider",
        "numberOfBytes": "20"
      },
      "t_enum(Actions)9937": {
        "encoding": "inplace",
        "label": "enum PausableActions.Actions",
        "numberOfBytes": "1"
      },
      "t_mapping(t_address,t_bool)": {
        "encoding": "mapping",
        "key": "t_address",
        "label": "mapping(address => bool)",
        "numberOfBytes": "32",
        "value": "t_bool"
      },
      "t_mapping(t_address,t_mapping(t_address,t_uint256))": {
        "encoding": "mapping",
        "key": "t_address",
        "label": "mapping(address => mapping(address => uint256))",
        "numberOfBytes": "32",
        "value": "t_mapping(t_address,t_uint256)"
      },
      "t_mapping(t_address,t_uint256)": {
        "encoding": "mapping",
        "key": "t_address",
        "label": "mapping(address => uint256)",
        "numberOfBytes": "32",
        "value": "t_uint256"
      },
      "t_mapping(t_bytes32,t_mapping(t_address,t_bool))": {
        "encoding": "mapping",
        "key": "t_bytes32",
        "label": "mapping(bytes32 => mapping(address => bool))",
        "numberOfBytes": "32",
        "value": "t_mapping(t_address,t_bool)"
      },
      "t_mapping(t_enum(Actions)9937,t_bool)": {
        "encoding": "mapping",
        "key": "t_enum(Actions)9937",
        "label": "mapping(enum PausableActions.Actions => bool)",
        "numberOfBytes": "32",
        "value": "t_bool"
      },
      "t_string_storage": {
        "encoding": "bytes",
        "label": "string",
        "numberOfBytes": "32"
      },
      "t_uint256": {
        "encoding": "inplace",
        "label": "uint256",
        "numberOfBytes": "32"
      }
    }
  }
}