{
  "address": "0x4516F8324bfAcC71e5099FabFC51E97e4905c062",
  "abi": [
    {
      "inputs": [
        {
          "internalType": "address",
          "name": "metaMorpho_",
          "type": "address"
        }
      ],
      "stateMutability": "nonpayable",
      "type": "constructor"
    },
    {
      "inputs": [
        {
          "internalType": "uint256",
          "name": "amount",
          "type": "uint256"
        },
        {
          "internalType": "contract IVault",
          "name": "vault",
          "type": "address"
        }
      ],
      "name": "deposit",
      "outputs": [
        {
          "internalType": "bool",
          "name": "success",
          "type": "bool"
        }
      ],
      "stateMutability": "nonpayable",
      "type": "function"
    },
    {
      "inputs": [
        {
          "internalType": "address",
          "name": "user",
          "type": "address"
        },
        {
          "internalType": "contract IVault",
          "name": "",
          "type": "address"
        }
      ],
      "name": "getDepositBalance",
      "outputs": [
        {
          "internalType": "uint256",
          "name": "balance",
          "type": "uint256"
        }
      ],
      "stateMutability": "view",
      "type": "function"
    },
    {
      "inputs": [
        {
          "internalType": "contract IVault",
          "name": "",
          "type": "address"
        }
      ],
      "name": "getDepositRate",
      "outputs": [
        {
          "internalType": "uint256",
          "name": "rate",
          "type": "uint256"
        }
      ],
      "stateMutability": "view",
      "type": "function"
    },
    {
      "inputs": [],
      "name": "getIdentifier",
      "outputs": [
        {
          "internalType": "string",
          "name": "",
          "type": "string"
        }
      ],
      "stateMutability": "pure",
      "type": "function"
    },
    {
      "inputs": [
        {
          "internalType": "address",
          "name": "",
          "type": "address"
        },
        {
          "internalType": "address",
          "name": "",
          "type": "address"
        },
        {
          "internalType": "address",
          "name": "",
          "type": "address"
        }
      ],
      "name": "getSource",
      "outputs": [
        {
          "internalType": "address",
          "name": "source",
          "type": "address"
        }
      ],
      "stateMutability": "view",
      "type": "function"
    },
    {
      "inputs": [
        {
          "internalType": "uint256",
          "name": "amount",
          "type": "uint256"
        },
        {
          "internalType": "contract IVault",
          "name": "vault",
          "type": "address"
        }
      ],
      "name": "withdraw",
      "outputs": [
        {
          "internalType": "bool",
          "name": "success",
          "type": "bool"
        }
      ],
      "stateMutability": "nonpayable",
      "type": "function"
    }
  ],
  "args": [
    "0xBEEFE94c8aD530842bfE7d8B397938fFc1cb83b2"
  ],
  "numDeployments": 1,
  "bytecode": "0x60a060405234801561001057600080fd5b5060405161154038038061154083398101604081905261002f91610040565b6001600160a01b0316608052610070565b60006020828403121561005257600080fd5b81516001600160a01b038116811461006957600080fd5b9392505050565b6080516114706100d06000396000818160e601528181610179015281816101f80152818161029c01528181610329015281816103af01528181610455015281816105c80152818161061b015281816106ff015261073401526114706000f3fe608060405234801561001057600080fd5b50600436106100615760003560e01c8062f714ce146100665780630ae112a41461008e5780634c8f411d146100af5780636e553f65146100c257806373f64d44146100d5578063aa23e03d14610118575b600080fd5b610079610074366004610ebe565b610149565b60405190151581526020015b60405180910390f35b6100a161009c366004610eee565b6101f3565b604051908152602001610085565b6100a16100bd366004610f1c565b610317565b6100796100d0366004610ebe565b6106d6565b61010b6100e3366004610f39565b507f000000000000000000000000000000000000000000000000000000000000000092915050565b6040516100859190610f84565b604080518082018252600f81526e26b7b9383437afa83937bb34b232b960891b602082015290516100859190610f98565b604051632d182be560e21b8152600481018390526001600160a01b038281166024830181905260448301526000917f00000000000000000000000000000000000000000000000000000000000000009091169063b460af94906064015b6020604051808303816000875af11580156101c5573d6000803e3d6000fd5b505050506040513d601f19601f820116820180604052508101906101e99190610fe7565b5060019392505050565b6000807f00000000000000000000000000000000000000000000000000000000000000006001600160a01b03166370a08231856040518263ffffffff1660e01b81526004016102429190610f84565b602060405180830381865afa15801561025f573d6000803e3d6000fd5b505050506040513d601f19601f820116820180604052508101906102839190610fe7565b6040516303d1689d60e11b8152600481018290529091507f00000000000000000000000000000000000000000000000000000000000000006001600160a01b0316906307a2d13a90602401602060405180830381865afa1580156102eb573d6000803e3d6000fd5b505050506040513d601f19601f8201168201806040525081019061030f9190610fe7565b949350505050565b600080610322610730565b90506000807f00000000000000000000000000000000000000000000000000000000000000006001600160a01b03166333f91ebb6040518163ffffffff1660e01b8152600401602060405180830381865afa158015610385573d6000803e3d6000fd5b505050506040513d601f19601f820116820180604052508101906103a99190610fe7565b905060007f00000000000000000000000000000000000000000000000000000000000000006001600160a01b03166301e1d1146040518163ffffffff1660e01b8152600401602060405180830381865afa15801561040b573d6000803e3d6000fd5b505050506040513d601f19601f8201168201806040525081019061042f9190610fe7565b905060005b82811015610615576040516362518ddf60e01b8152600481018290526000907f00000000000000000000000000000000000000000000000000000000000000006001600160a01b0316906362518ddf90602401602060405180830381865afa1580156104a4573d6000803e3d6000fd5b505050506040513d601f19601f820116820180604052508101906104c89190610fe7565b604051632c3c915760e01b8152600481018290529091506000906001600160a01b03881690632c3c91579060240160a060405180830381865afa158015610513573d6000803e3d6000fd5b505050506040513d601f19601f820116820180604052508101906105379190611046565b604051632e3071cd60e11b8152600481018490529091506000906001600160a01b03891690635c60e39a9060240160c060405180830381865afa158015610582573d6000803e3d6000fd5b505050506040513d601f19601f820116820180604052508101906105a691906110f2565b905060006105b483836107b9565b905060006105ec6001600160a01b038b16857f00000000000000000000000000000000000000000000000000000000000000006108e7565b90506105f8828261093b565b610602908a6111a6565b9850506001909401935061043492505050565b506106be7f00000000000000000000000000000000000000000000000000000000000000006001600160a01b031663ddca3f436040518163ffffffff1660e01b8152600401602060405180830381865afa158015610677573d6000803e3d6000fd5b505050506040513d601f19601f8201168201806040525081019061069b91906111b9565b6106ad90670de0b6b3a76400006111e2565b84906001600160601b031683610957565b6106cc90633b9aca00611209565b9695505050505050565b604051636e553f6560e01b8152600481018390526001600160a01b0382811660248301526000917f000000000000000000000000000000000000000000000000000000000000000090911690636e553f65906044016101a6565b60007f00000000000000000000000000000000000000000000000000000000000000006001600160a01b0316633acb56246040518163ffffffff1660e01b8152600401602060405180830381865afa158015610790573d6000803e3d6000fd5b505050506040513d601f19601f820116820180604052508101906107b49190611220565b905090565b6000806107c4610730565b60608501519091506000906001600160a01b03166107e7576000925050506108e1565b6108686301e1338086606001516001600160a01b0316638c00bf6b88886040518363ffffffff1660e01b815260040161082192919061123d565b602060405180830381865afa15801561083e573d6000803e3d6000fd5b505050506040513d601f19601f820116820180604052508101906108629190610fe7565b9061096e565b90506000806108806001600160a01b038516886109cf565b50925050915060008160001461089f5761089a8284610c58565b6108a2565b60005b90506108d9816108d38960a00151670de0b6b3a76400006108c391906112d2565b87906001600160801b031661093b565b9061093b565b955050505050505b92915050565b6000806108f58460a0902090565b9050600061090d6001600160a01b0387168386610c6d565b905060008061091c88886109cf565b50919350915061092f9050838383610d1d565b98975050505050505050565b60006109508383670de0b6b3a7640000610957565b9392505050565b6000816109648486611209565b61030f91906112f2565b60008061097b8385611209565b9050600061099c8280610997670de0b6b3a76400006002611209565b610957565b905060006109b88284610997670de0b6b3a76400006003611209565b9050806109c583856111a6565b6106cc91906111a6565b60008060008060006109e28660a0902090565b604051632e3071cd60e11b8152600481018290529091506000906001600160a01b03891690635c60e39a9060240160c060405180830381865afa158015610a2d573d6000803e3d6000fd5b505050506040513d601f19601f82011682018060405250810190610a5191906110f2565b9050600081608001516001600160801b031642610a6e9190611314565b90508015801590610a8b575060408201516001600160801b031615155b8015610aa3575060608801516001600160a01b031615155b15610c24576060880151604051638c00bf6b60e01b81526000916001600160a01b031690638c00bf6b90610add908c90879060040161123d565b602060405180830381865afa158015610afa573d6000803e3d6000fd5b505050506040513d601f19601f82011682018060405250810190610b1e9190610fe7565b90506000610b43610b2f838561096e565b60408601516001600160801b03169061093b565b9050610b4e81610d42565b84604001818151610b5f9190611327565b6001600160801b0316905250610b7481610d42565b84518590610b83908390611327565b6001600160801b0390811690915260a086015116159050610c21576000610bc08560a001516001600160801b03168361093b90919063ffffffff16565b90506000610bf68287600001516001600160801b0316610be09190611314565b60208801518491906001600160801b0316610da8565b9050610c0181610d42565b86602001818151610c129190611327565b6001600160801b031690525050505b50505b508051602082015160408301516060909301516001600160801b039283169b9183169a509282169850911695509350505050565b600061095083670de0b6b3a764000084610dc5565b600080610c82610c7d8585610de7565b610e5b565b604051637784c68560e01b81529091506001600160a01b03861690637784c68590610cb1908490600401611347565b600060405180830381865afa158015610cce573d6000803e3d6000fd5b505050506040513d6000823e601f3d908101601f19168201604052610cf6919081019061138b565b600081518110610d0857610d08611424565b602002602001015160001c9150509392505050565b600061030f610d2d6001856111a6565b610d3a620f4240856111a6565b869190610957565b6040805180820190915260148152731b585e081d5a5b9d0c4c8e08195e18d95959195960621b60208201526000906001600160801b03831115610da15760405162461bcd60e51b8152600401610d989190610f98565b60405180910390fd5b5090919050565b600061030f610dba620f4240846111a6565b610d3a6001866111a6565b600081610dd3600182611314565b610ddd8587611209565b61096491906111a6565b60008082846002604051602001610e08929190918252602082015260400190565b60408051601f1981840301815282825280516020918201206001600160a01b03909416908301528101919091526060016040516020818303038152906040528051906020012060001c61095091906111a6565b60408051600180825281830190925260609160009190602080830190803683370190505090508281600081518110610e9557610e95611424565b602090810291909101015292915050565b6001600160a01b0381168114610ebb57600080fd5b50565b60008060408385031215610ed157600080fd5b823591506020830135610ee381610ea6565b809150509250929050565b60008060408385031215610f0157600080fd5b8235610f0c81610ea6565b91506020830135610ee381610ea6565b600060208284031215610f2e57600080fd5b813561095081610ea6565b600080600060608486031215610f4e57600080fd5b8335610f5981610ea6565b92506020840135610f6981610ea6565b91506040840135610f7981610ea6565b809150509250925092565b6001600160a01b0391909116815260200190565b60006020808352835180602085015260005b81811015610fc657858101830151858201604001528201610faa565b506000604082860101526040601f19601f8301168501019250505092915050565b600060208284031215610ff957600080fd5b5051919050565b634e487b7160e01b600052604160045260246000fd5b604051601f8201601f191681016001600160401b038111828210171561103e5761103e611000565b604052919050565b600060a0828403121561105857600080fd5b60405160a081016001600160401b038111828210171561107a5761107a611000565b604052825161108881610ea6565b8152602083015161109881610ea6565b602082015260408301516110ab81610ea6565b604082015260608301516110be81610ea6565b60608201526080928301519281019290925250919050565b80516001600160801b03811681146110ed57600080fd5b919050565b600060c0828403121561110457600080fd5b60405160c081016001600160401b038111828210171561112657611126611000565b604052611132836110d6565b8152611140602084016110d6565b6020820152611151604084016110d6565b6040820152611162606084016110d6565b6060820152611173608084016110d6565b608082015261118460a084016110d6565b60a08201529392505050565b634e487b7160e01b600052601160045260246000fd5b808201808211156108e1576108e1611190565b6000602082840312156111cb57600080fd5b81516001600160601b038116811461095057600080fd5b6001600160601b0382811682821603908082111561120257611202611190565b5092915050565b80820281158282048414176108e1576108e1611190565b60006020828403121561123257600080fd5b815161095081610ea6565b82516001600160a01b039081168252602080850151821681840152604080860151831681850152606080870151909316838501526080958601518685015284516001600160801b0390811660a08087019190915292860151811660c086015290850151811660e08501529184015182166101008401529383015181166101208301529190920151166101408201526101600190565b6001600160801b0382811682821603908082111561120257611202611190565b60008261130f57634e487b7160e01b600052601260045260246000fd5b500490565b818103818111156108e1576108e1611190565b6001600160801b0381811683821601908082111561120257611202611190565b6020808252825182820181905260009190848201906040850190845b8181101561137f57835183529284019291840191600101611363565b50909695505050505050565b6000602080838503121561139e57600080fd5b82516001600160401b03808211156113b557600080fd5b818501915085601f8301126113c957600080fd5b8151818111156113db576113db611000565b8060051b91506113ec848301611016565b818152918301840191848101908884111561140657600080fd5b938501935b8385101561092f5784518252938501939085019061140b565b634e487b7160e01b600052603260045260246000fdfea2646970667358221220530213e8ada939163fc212804c54cc92c83b3a83dd9d5c1fe47dcd43687db8a264736f6c63430008170033"
}