{
  "address": "0x30dC35B78a401Fd0227C229ADF6d0F5097358EF9",
  "abi": [
    {
      "inputs": [],
      "name": "AccessManager__CallerIsNotAdmin",
      "type": "error"
    },
    {
      "inputs": [],
      "name": "AccessManager__CallerIsNotExecutor",
      "type": "error"
    },
    {
      "inputs": [],
      "name": "AccessManager__CallerIsNotOperator",
      "type": "error"
    },
    {
      "inputs": [],
      "name": "AccessManager__CallerIsNotRootUpdater",
      "type": "error"
    },
    {
      "anonymous": false,
      "inputs": [
        {
          "indexed": false,
          "internalType": "string",
          "name": "identifier",
          "type": "string"
        },
        {
          "indexed": true,
          "internalType": "address",
          "name": "assetOne",
          "type": "address"
        },
        {
          "indexed": true,
          "internalType": "address",
          "name": "assetTwo",
          "type": "address"
        },
        {
          "indexed": false,
          "internalType": "address",
          "name": "market",
          "type": "address"
        }
      ],
      "name": "MarketUpdated",
      "type": "event"
    },
    {
      "anonymous": false,
      "inputs": [
        {
          "indexed": true,
          "internalType": "bytes32",
          "name": "role",
          "type": "bytes32"
        },
        {
          "indexed": true,
          "internalType": "address",
          "name": "account",
          "type": "address"
        },
        {
          "indexed": true,
          "internalType": "address",
          "name": "sender",
          "type": "address"
        }
      ],
      "name": "RoleGranted",
      "type": "event"
    },
    {
      "anonymous": false,
      "inputs": [
        {
          "indexed": true,
          "internalType": "bytes32",
          "name": "role",
          "type": "bytes32"
        },
        {
          "indexed": true,
          "internalType": "address",
          "name": "account",
          "type": "address"
        },
        {
          "indexed": true,
          "internalType": "address",
          "name": "sender",
          "type": "address"
        }
      ],
      "name": "RoleRevoked",
      "type": "event"
    },
    {
      "anonymous": false,
      "inputs": [
        {
          "indexed": false,
          "internalType": "string",
          "name": "identifier",
          "type": "string"
        },
        {
          "indexed": true,
          "internalType": "address",
          "name": "asset",
          "type": "address"
        },
        {
          "indexed": false,
          "internalType": "address",
          "name": "yieldToken",
          "type": "address"
        }
      ],
      "name": "YieldTokenUpdated",
      "type": "event"
    },
    {
      "inputs": [],
      "name": "ADMIN_ROLE",
      "outputs": [
        {
          "internalType": "bytes32",
          "name": "",
          "type": "bytes32"
        }
      ],
      "stateMutability": "view",
      "type": "function"
    },
    {
      "inputs": [],
      "name": "EXECUTOR_ROLE",
      "outputs": [
        {
          "internalType": "bytes32",
          "name": "",
          "type": "bytes32"
        }
      ],
      "stateMutability": "view",
      "type": "function"
    },
    {
      "inputs": [],
      "name": "OPERATOR_ROLE",
      "outputs": [
        {
          "internalType": "bytes32",
          "name": "",
          "type": "bytes32"
        }
      ],
      "stateMutability": "view",
      "type": "function"
    },
    {
      "inputs": [],
      "name": "ROOT_UPDATER_ROLE",
      "outputs": [
        {
          "internalType": "bytes32",
          "name": "",
          "type": "bytes32"
        }
      ],
      "stateMutability": "view",
      "type": "function"
    },
    {
      "inputs": [],
      "name": "getIdentifiers",
      "outputs": [
        {
          "internalType": "string[]",
          "name": "",
          "type": "string[]"
        }
      ],
      "stateMutability": "view",
      "type": "function"
    },
    {
      "inputs": [
        {
          "internalType": "string",
          "name": "identifier",
          "type": "string"
        },
        {
          "internalType": "address",
          "name": "assetOne",
          "type": "address"
        },
        {
          "internalType": "address",
          "name": "assetTwo",
          "type": "address"
        }
      ],
      "name": "getMarket",
      "outputs": [
        {
          "internalType": "address",
          "name": "",
          "type": "address"
        }
      ],
      "stateMutability": "view",
      "type": "function"
    },
    {
      "inputs": [
        {
          "internalType": "string",
          "name": "identifier",
          "type": "string"
        },
        {
          "internalType": "address",
          "name": "asset",
          "type": "address"
        }
      ],
      "name": "getYieldToken",
      "outputs": [
        {
          "internalType": "address",
          "name": "",
          "type": "address"
        }
      ],
      "stateMutability": "view",
      "type": "function"
    },
    {
      "inputs": [
        {
          "internalType": "bytes32",
          "name": "role",
          "type": "bytes32"
        },
        {
          "internalType": "address",
          "name": "account",
          "type": "address"
        }
      ],
      "name": "grantRole",
      "outputs": [],
      "stateMutability": "nonpayable",
      "type": "function"
    },
    {
      "inputs": [
        {
          "internalType": "bytes32",
          "name": "role",
          "type": "bytes32"
        },
        {
          "internalType": "address",
          "name": "account",
          "type": "address"
        }
      ],
      "name": "hasRole",
      "outputs": [
        {
          "internalType": "bool",
          "name": "",
          "type": "bool"
        }
      ],
      "stateMutability": "view",
      "type": "function"
    },
    {
      "inputs": [
        {
          "internalType": "bytes32",
          "name": "role",
          "type": "bytes32"
        },
        {
          "internalType": "address",
          "name": "account",
          "type": "address"
        }
      ],
      "name": "revokeRole",
      "outputs": [],
      "stateMutability": "nonpayable",
      "type": "function"
    },
    {
      "inputs": [
        {
          "internalType": "string",
          "name": "identifier",
          "type": "string"
        },
        {
          "internalType": "address",
          "name": "assetOne",
          "type": "address"
        },
        {
          "internalType": "address",
          "name": "assetTwo",
          "type": "address"
        },
        {
          "internalType": "address",
          "name": "market",
          "type": "address"
        }
      ],
      "name": "setMarket",
      "outputs": [],
      "stateMutability": "nonpayable",
      "type": "function"
    },
    {
      "inputs": [
        {
          "internalType": "string",
          "name": "identifier",
          "type": "string"
        },
        {
          "internalType": "address",
          "name": "asset",
          "type": "address"
        },
        {
          "internalType": "address",
          "name": "yieldToken",
          "type": "address"
        }
      ],
      "name": "setYieldToken",
      "outputs": [],
      "stateMutability": "nonpayable",
      "type": "function"
    }
  ],
  "transactionHash": "0xba7f35bb67646cda8f38b2c290dd241e0014edcbc53e8faaf45851e4643ae243",
  "args": [],
  "numDeployments": 1,
  "solcInputHash": "08e9f5ef185e61f929e85712217423f8",
  "bytecode": "0x608060405234801561001057600080fd5b5061001c600033610021565b6100c0565b6000828152602081815260408083206001600160a01b038516845290915290205460ff166100bc576000828152602081815260408083206001600160a01b03851684529091529020805460ff1916600117905561007b3390565b6001600160a01b0316816001600160a01b0316837f2f8788117e7eff1d82e926ec794901d17c78024a50270940304540a733656f0d60405160405180910390a45b5050565b610bf2806100cf6000396000f3fe608060405234801561001057600080fd5b50600436106100a45760003560e01c806307bd0265146100a95780632f2ff15d146100e357806375b238fc146100f8578063784260d61461010057806391d148541461012b57806395c8193a1461014e578063a4770a8814610161578063a8d01ca914610176578063c41adf5014610189578063d547741f1461019c578063d9ab2c5c146101af578063f5b541a6146101d5575b600080fd5b6100d07fd8aa0f3194971a2a116679f7c2090f6939c8d4e01a2a8d7e41d55e5351469e6381565b6040519081526020015b60405180910390f35b6100f66100f136600461077b565b6101fc565b005b6100d0600081565b61011361010e366004610849565b610232565b6040516001600160a01b0390911681526020016100da565b61013e61013936600461077b565b610281565b60405190151581526020016100da565b6100f661015c366004610849565b6102aa565b6101696103e3565b6040516100da91906108f6565b6100f661018436600461095a565b6104bc565b6101136101973660046109c8565b610603565b6100f66101aa36600461077b565b610644565b6100d07e9ab23a1010d07a0450a1fbea1d84169b57d2c2273b54bff0f20c3e90199b5d81565b6100d07f97667070c54ef182b0f5858b034beac1b6f3089aa2d3188bb1e8929f4fa9b92981565b610207600033610281565b61022457604051633dcaff7960e21b815260040160405180910390fd5b61022e8282610676565b5050565b60006002846040516102449190610a0c565b908152604080519182900360209081019092206001600160a01b038087166000908152918452828220868216835290935220541690509392505050565b6000918252602082815260408084206001600160a01b0393909316845291905290205460ff1690565b6102b5600033610281565b6102d257604051633dcaff7960e21b815260040160405180910390fd5b6003836040516102e29190610a0c565b9081526040519081900360200190205460ff1661035757600160038460405161030b9190610a0c565b908152604051908190036020019020805491151560ff1990921691909117905560048054600181018255600091909152600080516020610b9d833981519152016103558482610ab3565b505b806001846040516103689190610a0c565b90815260408051602092819003830181206001600160a01b0387811660008181529290955292902080546001600160a01b03191694909216939093179055907fc277be270aa676292d0cbddf713f8160bb9528890b12a3c5b2fc6e30052d07e1906103d69086908590610b72565b60405180910390a2505050565b60606004805480602002602001604051908101604052809291908181526020016000905b828210156104b357838290600052602060002001805461042690610a28565b80601f016020809104026020016040519081016040528092919081815260200182805461045290610a28565b801561049f5780601f106104745761010080835404028352916020019161049f565b820191906000526020600020905b81548152906001019060200180831161048257829003601f168201915b505050505081526020019060010190610407565b50505050905090565b6104c7600033610281565b6104e457604051633dcaff7960e21b815260040160405180910390fd5b6003846040516104f49190610a0c565b9081526040519081900360200190205460ff1661056957600160038560405161051d9190610a0c565b908152604051908190036020019020805491151560ff1990921691909117905560048054600181018255600091909152600080516020610b9d833981519152016105678582610ab3565b505b8060028560405161057a9190610a0c565b90815260408051602092819003830181206001600160a01b03888116600081815292865284832089831680855296529390912080546001600160a01b031916959091169490941790935590917fb2fa499914f4084c208b861c88d34ceb30d98d3e817ddff6468c1a9af5fd9bb4906105f59088908690610b72565b60405180910390a350505050565b60006001836040516106159190610a0c565b90815260408051602092819003830190206001600160a01b039485166000908152925290205490911692915050565b61064f600033610281565b61066c57604051633dcaff7960e21b815260040160405180910390fd5b61022e82826106fa565b6106808282610281565b61022e576000828152602081815260408083206001600160a01b03851684529091529020805460ff191660011790556106b63390565b6001600160a01b0316816001600160a01b0316837f2f8788117e7eff1d82e926ec794901d17c78024a50270940304540a733656f0d60405160405180910390a45050565b6107048282610281565b1561022e576000828152602081815260408083206001600160a01b0385168085529252808320805460ff1916905551339285917ff6391f5c32d9c69d2a47ea670b442974b53935d1edc7fd64eb21e047a839171b9190a45050565b80356001600160a01b038116811461077657600080fd5b919050565b6000806040838503121561078e57600080fd5b8235915061079e6020840161075f565b90509250929050565b634e487b7160e01b600052604160045260246000fd5b600082601f8301126107ce57600080fd5b81356001600160401b03808211156107e8576107e86107a7565b604051601f8301601f19908116603f01168101908282118183101715610810576108106107a7565b8160405283815286602085880101111561082957600080fd5b836020870160208301376000602085830101528094505050505092915050565b60008060006060848603121561085e57600080fd5b83356001600160401b0381111561087457600080fd5b610880868287016107bd565b93505061088f6020850161075f565b915061089d6040850161075f565b90509250925092565b60005b838110156108c15781810151838201526020016108a9565b50506000910152565b600081518084526108e28160208601602086016108a6565b601f01601f19169290920160200192915050565b600060208083016020845280855180835260408601915060408160051b87010192506020870160005b8281101561094d57603f1988860301845261093b8583516108ca565b9450928501929085019060010161091f565b5092979650505050505050565b6000806000806080858703121561097057600080fd5b84356001600160401b0381111561098657600080fd5b610992878288016107bd565b9450506109a16020860161075f565b92506109af6040860161075f565b91506109bd6060860161075f565b905092959194509250565b600080604083850312156109db57600080fd5b82356001600160401b038111156109f157600080fd5b6109fd858286016107bd565b92505061079e6020840161075f565b60008251610a1e8184602087016108a6565b9190910192915050565b600181811c90821680610a3c57607f821691505b602082108103610a5c57634e487b7160e01b600052602260045260246000fd5b50919050565b601f821115610aae576000816000526020600020601f850160051c81016020861015610a8b5750805b601f850160051c820191505b81811015610aaa57828155600101610a97565b5050505b505050565b81516001600160401b03811115610acc57610acc6107a7565b610ae081610ada8454610a28565b84610a62565b602080601f831160018114610b155760008415610afd5750858301515b600019600386901b1c1916600185901b178555610aaa565b600085815260208120601f198616915b82811015610b4457888601518255948401946001909101908401610b25565b5085821015610b625787850151600019600388901b60f8161c191681555b5050505050600190811b01905550565b604081526000610b8560408301856108ca565b905060018060a01b0383166020830152939250505056fe8a35acfbc15ff81a39ae7d344fd709f28e8600b4aa8c65c6b64bfe7fe36bd19ba26469706673582212203c1b2bbd062a7432b38838091c5914e3d48719c9a2fcd358096f631c3b3ded6664736f6c63430008170033",
  "devdoc": {
    "errors": {
      "AccessManager__CallerIsNotAdmin()": [
        {
          "details": "Errors"
        }
      ]
    },
    "events": {
      "MarketUpdated(string,address,address,address)": {
        "details": "Emitted when the market is set for two assets.",
        "params": {
          "assetOne": "The address of the first asset.",
          "assetTwo": "The address of the second asset.",
          "identifier": "The identifier of the provider.",
          "market": "The address of the corresponding market."
        }
      },
      "RoleGranted(bytes32,address,address)": {
        "details": "Emitted when `account` is granted `role`."
      },
      "RoleRevoked(bytes32,address,address)": {
        "details": "Emitted when `account` is revoked `role`."
      },
      "YieldTokenUpdated(string,address,address)": {
        "details": "Emitted when the yield token is set for an asset.",
        "params": {
          "asset": "The address of the asset.",
          "identifier": "The identifier of the provider.",
          "yieldToken": "The address of the corresponding yield token."
        }
      }
    },
    "kind": "dev",
    "methods": {
      "getMarket(string,address,address)": {
        "params": {
          "assetOne": "The address of the first asset.",
          "assetTwo": "The address of the second asset.",
          "identifier": "The identifier of the provider."
        }
      },
      "getYieldToken(string,address)": {
        "params": {
          "asset": "The address of the asset.",
          "identifier": "The identifier of the provider."
        }
      },
      "grantRole(bytes32,address)": {
        "details": "Grants `role` to `account`. If `account` had not been already granted `role`, emits a {RoleGranted} event. Requirements: - the caller must have the admin role. May emit a {RoleGranted} event."
      },
      "hasRole(bytes32,address)": {
        "details": "Returns `true` if `account` has been granted `role`."
      },
      "revokeRole(bytes32,address)": {
        "details": "Revokes `role` from `account`. If `account` had been granted `role`, emits a {RoleRevoked} event. Requirements: - the caller must have the admin role. May emit a {RoleRevoked} event."
      },
      "setMarket(string,address,address,address)": {
        "params": {
          "assetOne": "The address of the first asset.",
          "assetTwo": "The address of the second asset.",
          "identifier": "The identifier of the provider.",
          "market": "The address of the corresponding market."
        }
      },
      "setYieldToken(string,address,address)": {
        "params": {
          "asset": "The address of the asset.",
          "identifier": "The identifier of the provider.",
          "yieldToken": "The address of the corresponding yield token."
        }
      }
    },
    "title": "ProviderManager",
    "version": 1
  },
  "userdoc": {
    "kind": "user",
    "methods": {
      "getIdentifiers()": {
        "notice": "Returns the list of all the provider identifiers."
      },
      "getMarket(string,address,address)": {
        "notice": "Returns the market for two assets and a provider identifier."
      },
      "getYieldToken(string,address)": {
        "notice": "Returns the yield token for a given asset and provider identifier."
      },
      "setMarket(string,address,address,address)": {
        "notice": "Sets the market for two assets and a provider identifier."
      },
      "setYieldToken(string,address,address)": {
        "notice": "Sets the yield token for a given asset and provider identifier."
      }
    },
    "version": 1
  },
  "storageLayout": {
    "storage": [
      {
        "astId": 9559,
        "contract": "contracts/providers/ProviderManager.sol:ProviderManager",
        "label": "_roles",
        "offset": 0,
        "slot": "0",
        "type": "t_mapping(t_bytes32,t_mapping(t_address,t_bool))"
      },
      {
        "astId": 14546,
        "contract": "contracts/providers/ProviderManager.sol:ProviderManager",
        "label": "_assetToYieldToken",
        "offset": 0,
        "slot": "1",
        "type": "t_mapping(t_string_memory_ptr,t_mapping(t_address,t_address))"
      },
      {
        "astId": 14554,
        "contract": "contracts/providers/ProviderManager.sol:ProviderManager",
        "label": "_assetsToMarket",
        "offset": 0,
        "slot": "2",
        "type": "t_mapping(t_string_memory_ptr,t_mapping(t_address,t_mapping(t_address,t_address)))"
      },
      {
        "astId": 14558,
        "contract": "contracts/providers/ProviderManager.sol:ProviderManager",
        "label": "_identifierRegistered",
        "offset": 0,
        "slot": "3",
        "type": "t_mapping(t_string_memory_ptr,t_bool)"
      },
      {
        "astId": 14561,
        "contract": "contracts/providers/ProviderManager.sol:ProviderManager",
        "label": "_providerIdentifiers",
        "offset": 0,
        "slot": "4",
        "type": "t_array(t_string_storage)dyn_storage"
      }
    ],
    "types": {
      "t_address": {
        "encoding": "inplace",
        "label": "address",
        "numberOfBytes": "20"
      },
      "t_array(t_string_storage)dyn_storage": {
        "base": "t_string_storage",
        "encoding": "dynamic_array",
        "label": "string[]",
        "numberOfBytes": "32"
      },
      "t_bool": {
        "encoding": "inplace",
        "label": "bool",
        "numberOfBytes": "1"
      },
      "t_bytes32": {
        "encoding": "inplace",
        "label": "bytes32",
        "numberOfBytes": "32"
      },
      "t_mapping(t_address,t_address)": {
        "encoding": "mapping",
        "key": "t_address",
        "label": "mapping(address => address)",
        "numberOfBytes": "32",
        "value": "t_address"
      },
      "t_mapping(t_address,t_bool)": {
        "encoding": "mapping",
        "key": "t_address",
        "label": "mapping(address => bool)",
        "numberOfBytes": "32",
        "value": "t_bool"
      },
      "t_mapping(t_address,t_mapping(t_address,t_address))": {
        "encoding": "mapping",
        "key": "t_address",
        "label": "mapping(address => mapping(address => address))",
        "numberOfBytes": "32",
        "value": "t_mapping(t_address,t_address)"
      },
      "t_mapping(t_bytes32,t_mapping(t_address,t_bool))": {
        "encoding": "mapping",
        "key": "t_bytes32",
        "label": "mapping(bytes32 => mapping(address => bool))",
        "numberOfBytes": "32",
        "value": "t_mapping(t_address,t_bool)"
      },
      "t_mapping(t_string_memory_ptr,t_bool)": {
        "encoding": "mapping",
        "key": "t_string_memory_ptr",
        "label": "mapping(string => bool)",
        "numberOfBytes": "32",
        "value": "t_bool"
      },
      "t_mapping(t_string_memory_ptr,t_mapping(t_address,t_address))": {
        "encoding": "mapping",
        "key": "t_string_memory_ptr",
        "label": "mapping(string => mapping(address => address))",
        "numberOfBytes": "32",
        "value": "t_mapping(t_address,t_address)"
      },
      "t_mapping(t_string_memory_ptr,t_mapping(t_address,t_mapping(t_address,t_address)))": {
        "encoding": "mapping",
        "key": "t_string_memory_ptr",
        "label": "mapping(string => mapping(address => mapping(address => address)))",
        "numberOfBytes": "32",
        "value": "t_mapping(t_address,t_mapping(t_address,t_address))"
      },
      "t_string_memory_ptr": {
        "encoding": "bytes",
        "label": "string",
        "numberOfBytes": "32"
      },
      "t_string_storage": {
        "encoding": "bytes",
        "label": "string",
        "numberOfBytes": "32"
      }
    }
  }
}