{
  "address": "0x57C10bd3fdB2849384dDe954f63d37DfAD9d7d70",
  "abi": [
    {
      "inputs": [
        {
          "internalType": "address",
          "name": "asset_",
          "type": "address"
        },
        {
          "internalType": "string",
          "name": "name_",
          "type": "string"
        },
        {
          "internalType": "string",
          "name": "symbol_",
          "type": "string"
        },
        {
          "internalType": "contract IProvider[]",
          "name": "providers_",
          "type": "address[]"
        },
        {
          "internalType": "uint256",
          "name": "withdrawFeePercent_",
          "type": "uint256"
        },
        {
          "internalType": "address",
          "name": "timelock_",
          "type": "address"
        },
        {
          "internalType": "address",
          "name": "treasury_",
          "type": "address"
        }
      ],
      "stateMutability": "nonpayable",
      "type": "constructor"
    },
    {
      "inputs": [],
      "name": "AccessManager__CallerIsNotAdmin",
      "type": "error"
    },
    {
      "inputs": [],
      "name": "AccessManager__CallerIsNotExecutor",
      "type": "error"
    },
    {
      "inputs": [],
      "name": "AccessManager__CallerIsNotOperator",
      "type": "error"
    },
    {
      "inputs": [],
      "name": "AccessManager__CallerIsNotRootUpdater",
      "type": "error"
    },
    {
      "inputs": [
        {
          "internalType": "address",
          "name": "target",
          "type": "address"
        }
      ],
      "name": "AddressEmptyCode",
      "type": "error"
    },
    {
      "inputs": [],
      "name": "ECDSAInvalidSignature",
      "type": "error"
    },
    {
      "inputs": [
        {
          "internalType": "uint256",
          "name": "length",
          "type": "uint256"
        }
      ],
      "name": "ECDSAInvalidSignatureLength",
      "type": "error"
    },
    {
      "inputs": [
        {
          "internalType": "bytes32",
          "name": "s",
          "type": "bytes32"
        }
      ],
      "name": "ECDSAInvalidSignatureS",
      "type": "error"
    },
    {
      "inputs": [
        {
          "internalType": "address",
          "name": "spender",
          "type": "address"
        },
        {
          "internalType": "uint256",
          "name": "allowance",
          "type": "uint256"
        },
        {
          "internalType": "uint256",
          "name": "needed",
          "type": "uint256"
        }
      ],
      "name": "ERC20InsufficientAllowance",
      "type": "error"
    },
    {
      "inputs": [
        {
          "internalType": "address",
          "name": "sender",
          "type": "address"
        },
        {
          "internalType": "uint256",
          "name": "balance",
          "type": "uint256"
        },
        {
          "internalType": "uint256",
          "name": "needed",
          "type": "uint256"
        }
      ],
      "name": "ERC20InsufficientBalance",
      "type": "error"
    },
    {
      "inputs": [
        {
          "internalType": "address",
          "name": "approver",
          "type": "address"
        }
      ],
      "name": "ERC20InvalidApprover",
      "type": "error"
    },
    {
      "inputs": [
        {
          "internalType": "address",
          "name": "receiver",
          "type": "address"
        }
      ],
      "name": "ERC20InvalidReceiver",
      "type": "error"
    },
    {
      "inputs": [
        {
          "internalType": "address",
          "name": "sender",
          "type": "address"
        }
      ],
      "name": "ERC20InvalidSender",
      "type": "error"
    },
    {
      "inputs": [
        {
          "internalType": "address",
          "name": "spender",
          "type": "address"
        }
      ],
      "name": "ERC20InvalidSpender",
      "type": "error"
    },
    {
      "inputs": [
        {
          "internalType": "uint256",
          "name": "deadline",
          "type": "uint256"
        }
      ],
      "name": "ERC2612ExpiredSignature",
      "type": "error"
    },
    {
      "inputs": [
        {
          "internalType": "address",
          "name": "signer",
          "type": "address"
        },
        {
          "internalType": "address",
          "name": "owner",
          "type": "address"
        }
      ],
      "name": "ERC2612InvalidSigner",
      "type": "error"
    },
    {
      "inputs": [],
      "name": "FailedCall",
      "type": "error"
    },
    {
      "inputs": [
        {
          "internalType": "address",
          "name": "account",
          "type": "address"
        },
        {
          "internalType": "uint256",
          "name": "currentNonce",
          "type": "uint256"
        }
      ],
      "name": "InvalidAccountNonce",
      "type": "error"
    },
    {
      "inputs": [],
      "name": "InvalidShortString",
      "type": "error"
    },
    {
      "inputs": [],
      "name": "PausableActions__ActionNotPaused",
      "type": "error"
    },
    {
      "inputs": [],
      "name": "PausableActions__ActionPaused",
      "type": "error"
    },
    {
      "inputs": [],
      "name": "Rebalancer__ExcessRebalanceFee",
      "type": "error"
    },
    {
      "inputs": [],
      "name": "Rebalancer__InvalidProvider",
      "type": "error"
    },
    {
      "inputs": [
        {
          "internalType": "address",
          "name": "token",
          "type": "address"
        }
      ],
      "name": "SafeERC20FailedOperation",
      "type": "error"
    },
    {
      "inputs": [
        {
          "internalType": "string",
          "name": "str",
          "type": "string"
        }
      ],
      "name": "StringTooLong",
      "type": "error"
    },
    {
      "inputs": [],
      "name": "Vault__AddressZero",
      "type": "error"
    },
    {
      "inputs": [],
      "name": "Vault__DepositLessThanMin",
      "type": "error"
    },
    {
      "inputs": [],
      "name": "Vault__InvalidInput",
      "type": "error"
    },
    {
      "inputs": [],
      "name": "Vault__SetupAlreadyCompleted",
      "type": "error"
    },
    {
      "inputs": [],
      "name": "Vault__Unauthorized",
      "type": "error"
    },
    {
      "anonymous": false,
      "inputs": [
        {
          "indexed": false,
          "internalType": "contract IProvider",
          "name": "activeProvider",
          "type": "address"
        }
      ],
      "name": "ActiveProviderUpdated",
      "type": "event"
    },
    {
      "anonymous": false,
      "inputs": [
        {
          "indexed": true,
          "internalType": "address",
          "name": "owner",
          "type": "address"
        },
        {
          "indexed": true,
          "internalType": "address",
          "name": "spender",
          "type": "address"
        },
        {
          "indexed": false,
          "internalType": "uint256",
          "name": "value",
          "type": "uint256"
        }
      ],
      "name": "Approval",
      "type": "event"
    },
    {
      "anonymous": false,
      "inputs": [
        {
          "indexed": true,
          "internalType": "address",
          "name": "sender",
          "type": "address"
        },
        {
          "indexed": true,
          "internalType": "address",
          "name": "owner",
          "type": "address"
        },
        {
          "indexed": false,
          "internalType": "uint256",
          "name": "assets",
          "type": "uint256"
        },
        {
          "indexed": false,
          "internalType": "uint256",
          "name": "shares",
          "type": "uint256"
        }
      ],
      "name": "Deposit",
      "type": "event"
    },
    {
      "anonymous": false,
      "inputs": [
        {
          "indexed": true,
          "internalType": "address",
          "name": "rewardsDistributor",
          "type": "address"
        }
      ],
      "name": "DistributorUpdated",
      "type": "event"
    },
    {
      "anonymous": false,
      "inputs": [],
      "name": "EIP712DomainChanged",
      "type": "event"
    },
    {
      "anonymous": false,
      "inputs": [
        {
          "indexed": true,
          "internalType": "address",
          "name": "treasury",
          "type": "address"
        },
        {
          "indexed": false,
          "internalType": "uint256",
          "name": "assets",
          "type": "uint256"
        },
        {
          "indexed": false,
          "internalType": "uint256",
          "name": "fee",
          "type": "uint256"
        }
      ],
      "name": "FeeCharged",
      "type": "event"
    },
    {
      "anonymous": false,
      "inputs": [
        {
          "indexed": false,
          "internalType": "uint256",
          "name": "minAmount",
          "type": "uint256"
        }
      ],
      "name": "MinAmountUpdated",
      "type": "event"
    },
    {
      "anonymous": false,
      "inputs": [
        {
          "indexed": false,
          "internalType": "address",
          "name": "account",
          "type": "address"
        },
        {
          "indexed": false,
          "internalType": "enum PausableActions.Actions",
          "name": "action",
          "type": "uint8"
        }
      ],
      "name": "Paused",
      "type": "event"
    },
    {
      "anonymous": false,
      "inputs": [
        {
          "indexed": false,
          "internalType": "contract IProvider[]",
          "name": "providers",
          "type": "address[]"
        }
      ],
      "name": "ProvidersUpdated",
      "type": "event"
    },
    {
      "anonymous": false,
      "inputs": [
        {
          "indexed": false,
          "internalType": "uint256",
          "name": "assetsFrom",
          "type": "uint256"
        },
        {
          "indexed": false,
          "internalType": "uint256",
          "name": "assetsTo",
          "type": "uint256"
        },
        {
          "indexed": true,
          "internalType": "address",
          "name": "from",
          "type": "address"
        },
        {
          "indexed": true,
          "internalType": "address",
          "name": "to",
          "type": "address"
        }
      ],
      "name": "RebalanceExecuted",
      "type": "event"
    },
    {
      "anonymous": false,
      "inputs": [
        {
          "indexed": true,
          "internalType": "address",
          "name": "to",
          "type": "address"
        },
        {
          "indexed": false,
          "internalType": "uint256",
          "name": "amount",
          "type": "uint256"
        }
      ],
      "name": "RewardsTransferred",
      "type": "event"
    },
    {
      "anonymous": false,
      "inputs": [
        {
          "indexed": true,
          "internalType": "bytes32",
          "name": "role",
          "type": "bytes32"
        },
        {
          "indexed": true,
          "internalType": "address",
          "name": "account",
          "type": "address"
        },
        {
          "indexed": true,
          "internalType": "address",
          "name": "sender",
          "type": "address"
        }
      ],
      "name": "RoleGranted",
      "type": "event"
    },
    {
      "anonymous": false,
      "inputs": [
        {
          "indexed": true,
          "internalType": "bytes32",
          "name": "role",
          "type": "bytes32"
        },
        {
          "indexed": true,
          "internalType": "address",
          "name": "account",
          "type": "address"
        },
        {
          "indexed": true,
          "internalType": "address",
          "name": "sender",
          "type": "address"
        }
      ],
      "name": "RoleRevoked",
      "type": "event"
    },
    {
      "anonymous": false,
      "inputs": [
        {
          "indexed": true,
          "internalType": "address",
          "name": "setupAddress",
          "type": "address"
        }
      ],
      "name": "SetupCompleted",
      "type": "event"
    },
    {
      "anonymous": false,
      "inputs": [
        {
          "indexed": true,
          "internalType": "address",
          "name": "timelock",
          "type": "address"
        }
      ],
      "name": "TimelockUpdated",
      "type": "event"
    },
    {
      "anonymous": false,
      "inputs": [
        {
          "indexed": true,
          "internalType": "address",
          "name": "from",
          "type": "address"
        },
        {
          "indexed": true,
          "internalType": "address",
          "name": "to",
          "type": "address"
        },
        {
          "indexed": false,
          "internalType": "uint256",
          "name": "value",
          "type": "uint256"
        }
      ],
      "name": "Transfer",
      "type": "event"
    },
    {
      "anonymous": false,
      "inputs": [
        {
          "indexed": true,
          "internalType": "address",
          "name": "treasury",
          "type": "address"
        }
      ],
      "name": "TreasuryUpdated",
      "type": "event"
    },
    {
      "anonymous": false,
      "inputs": [
        {
          "indexed": false,
          "internalType": "address",
          "name": "account",
          "type": "address"
        },
        {
          "indexed": false,
          "internalType": "enum PausableActions.Actions",
          "name": "action",
          "type": "uint8"
        }
      ],
      "name": "Unpaused",
      "type": "event"
    },
    {
      "anonymous": false,
      "inputs": [
        {
          "indexed": true,
          "internalType": "address",
          "name": "sender",
          "type": "address"
        },
        {
          "indexed": true,
          "internalType": "address",
          "name": "receiver",
          "type": "address"
        },
        {
          "indexed": true,
          "internalType": "address",
          "name": "owner",
          "type": "address"
        },
        {
          "indexed": false,
          "internalType": "uint256",
          "name": "assets",
          "type": "uint256"
        },
        {
          "indexed": false,
          "internalType": "uint256",
          "name": "shares",
          "type": "uint256"
        }
      ],
      "name": "Withdraw",
      "type": "event"
    },
    {
      "anonymous": false,
      "inputs": [
        {
          "indexed": false,
          "internalType": "uint256",
          "name": "withdrawFeePercent",
          "type": "uint256"
        }
      ],
      "name": "WithdrawFeePercentUpdated",
      "type": "event"
    },
    {
      "inputs": [],
      "name": "ADMIN_ROLE",
      "outputs": [
        {
          "internalType": "bytes32",
          "name": "",
          "type": "bytes32"
        }
      ],
      "stateMutability": "view",
      "type": "function"
    },
    {
      "inputs": [],
      "name": "DOMAIN_SEPARATOR",
      "outputs": [
        {
          "internalType": "bytes32",
          "name": "",
          "type": "bytes32"
        }
      ],
      "stateMutability": "view",
      "type": "function"
    },
    {
      "inputs": [],
      "name": "EXECUTOR_ROLE",
      "outputs": [
        {
          "internalType": "bytes32",
          "name": "",
          "type": "bytes32"
        }
      ],
      "stateMutability": "view",
      "type": "function"
    },
    {
      "inputs": [],
      "name": "OPERATOR_ROLE",
      "outputs": [
        {
          "internalType": "bytes32",
          "name": "",
          "type": "bytes32"
        }
      ],
      "stateMutability": "view",
      "type": "function"
    },
    {
      "inputs": [],
      "name": "ROOT_UPDATER_ROLE",
      "outputs": [
        {
          "internalType": "bytes32",
          "name": "",
          "type": "bytes32"
        }
      ],
      "stateMutability": "view",
      "type": "function"
    },
    {
      "inputs": [],
      "name": "activeProvider",
      "outputs": [
        {
          "internalType": "contract IProvider",
          "name": "",
          "type": "address"
        }
      ],
      "stateMutability": "view",
      "type": "function"
    },
    {
      "inputs": [
        {
          "internalType": "address",
          "name": "owner",
          "type": "address"
        },
        {
          "internalType": "address",
          "name": "spender",
          "type": "address"
        }
      ],
      "name": "allowance",
      "outputs": [
        {
          "internalType": "uint256",
          "name": "",
          "type": "uint256"
        }
      ],
      "stateMutability": "view",
      "type": "function"
    },
    {
      "inputs": [
        {
          "internalType": "address",
          "name": "spender",
          "type": "address"
        },
        {
          "internalType": "uint256",
          "name": "value",
          "type": "uint256"
        }
      ],
      "name": "approve",
      "outputs": [
        {
          "internalType": "bool",
          "name": "",
          "type": "bool"
        }
      ],
      "stateMutability": "nonpayable",
      "type": "function"
    },
    {
      "inputs": [],
      "name": "asset",
      "outputs": [
        {
          "internalType": "address",
          "name": "",
          "type": "address"
        }
      ],
      "stateMutability": "view",
      "type": "function"
    },
    {
      "inputs": [
        {
          "internalType": "address",
          "name": "account",
          "type": "address"
        }
      ],
      "name": "balanceOf",
      "outputs": [
        {
          "internalType": "uint256",
          "name": "",
          "type": "uint256"
        }
      ],
      "stateMutability": "view",
      "type": "function"
    },
    {
      "inputs": [
        {
          "internalType": "uint256",
          "name": "shares",
          "type": "uint256"
        }
      ],
      "name": "convertToAssets",
      "outputs": [
        {
          "internalType": "uint256",
          "name": "assets",
          "type": "uint256"
        }
      ],
      "stateMutability": "view",
      "type": "function"
    },
    {
      "inputs": [
        {
          "internalType": "uint256",
          "name": "assets",
          "type": "uint256"
        }
      ],
      "name": "convertToShares",
      "outputs": [
        {
          "internalType": "uint256",
          "name": "shares",
          "type": "uint256"
        }
      ],
      "stateMutability": "view",
      "type": "function"
    },
    {
      "inputs": [],
      "name": "decimals",
      "outputs": [
        {
          "internalType": "uint8",
          "name": "",
          "type": "uint8"
        }
      ],
      "stateMutability": "view",
      "type": "function"
    },
    {
      "inputs": [
        {
          "internalType": "uint256",
          "name": "assets",
          "type": "uint256"
        },
        {
          "internalType": "address",
          "name": "receiver",
          "type": "address"
        }
      ],
      "name": "deposit",
      "outputs": [
        {
          "internalType": "uint256",
          "name": "",
          "type": "uint256"
        }
      ],
      "stateMutability": "nonpayable",
      "type": "function"
    },
    {
      "inputs": [],
      "name": "eip712Domain",
      "outputs": [
        {
          "internalType": "bytes1",
          "name": "fields",
          "type": "bytes1"
        },
        {
          "internalType": "string",
          "name": "name",
          "type": "string"
        },
        {
          "internalType": "string",
          "name": "version",
          "type": "string"
        },
        {
          "internalType": "uint256",
          "name": "chainId",
          "type": "uint256"
        },
        {
          "internalType": "address",
          "name": "verifyingContract",
          "type": "address"
        },
        {
          "internalType": "bytes32",
          "name": "salt",
          "type": "bytes32"
        },
        {
          "internalType": "uint256[]",
          "name": "extensions",
          "type": "uint256[]"
        }
      ],
      "stateMutability": "view",
      "type": "function"
    },
    {
      "inputs": [
        {
          "internalType": "address",
          "name": "owner",
          "type": "address"
        }
      ],
      "name": "getBalanceOfAsset",
      "outputs": [
        {
          "internalType": "uint256",
          "name": "assets",
          "type": "uint256"
        }
      ],
      "stateMutability": "view",
      "type": "function"
    },
    {
      "inputs": [],
      "name": "getProviders",
      "outputs": [
        {
          "internalType": "contract IProvider[]",
          "name": "",
          "type": "address[]"
        }
      ],
      "stateMutability": "view",
      "type": "function"
    },
    {
      "inputs": [
        {
          "internalType": "bytes32",
          "name": "role",
          "type": "bytes32"
        },
        {
          "internalType": "address",
          "name": "account",
          "type": "address"
        }
      ],
      "name": "grantRole",
      "outputs": [],
      "stateMutability": "nonpayable",
      "type": "function"
    },
    {
      "inputs": [
        {
          "internalType": "bytes32",
          "name": "role",
          "type": "bytes32"
        },
        {
          "internalType": "address",
          "name": "account",
          "type": "address"
        }
      ],
      "name": "hasRole",
      "outputs": [
        {
          "internalType": "bool",
          "name": "",
          "type": "bool"
        }
      ],
      "stateMutability": "view",
      "type": "function"
    },
    {
      "inputs": [
        {
          "internalType": "address",
          "name": "",
          "type": "address"
        }
      ],
      "name": "maxDeposit",
      "outputs": [
        {
          "internalType": "uint256",
          "name": "",
          "type": "uint256"
        }
      ],
      "stateMutability": "view",
      "type": "function"
    },
    {
      "inputs": [
        {
          "internalType": "address",
          "name": "",
          "type": "address"
        }
      ],
      "name": "maxMint",
      "outputs": [
        {
          "internalType": "uint256",
          "name": "",
          "type": "uint256"
        }
      ],
      "stateMutability": "view",
      "type": "function"
    },
    {
      "inputs": [
        {
          "internalType": "address",
          "name": "owner",
          "type": "address"
        }
      ],
      "name": "maxRedeem",
      "outputs": [
        {
          "internalType": "uint256",
          "name": "",
          "type": "uint256"
        }
      ],
      "stateMutability": "view",
      "type": "function"
    },
    {
      "inputs": [
        {
          "internalType": "address",
          "name": "owner",
          "type": "address"
        }
      ],
      "name": "maxWithdraw",
      "outputs": [
        {
          "internalType": "uint256",
          "name": "",
          "type": "uint256"
        }
      ],
      "stateMutability": "view",
      "type": "function"
    },
    {
      "inputs": [],
      "name": "minAmount",
      "outputs": [
        {
          "internalType": "uint256",
          "name": "",
          "type": "uint256"
        }
      ],
      "stateMutability": "view",
      "type": "function"
    },
    {
      "inputs": [
        {
          "internalType": "uint256",
          "name": "shares",
          "type": "uint256"
        },
        {
          "internalType": "address",
          "name": "receiver",
          "type": "address"
        }
      ],
      "name": "mint",
      "outputs": [
        {
          "internalType": "uint256",
          "name": "",
          "type": "uint256"
        }
      ],
      "stateMutability": "nonpayable",
      "type": "function"
    },
    {
      "inputs": [],
      "name": "name",
      "outputs": [
        {
          "internalType": "string",
          "name": "",
          "type": "string"
        }
      ],
      "stateMutability": "view",
      "type": "function"
    },
    {
      "inputs": [
        {
          "internalType": "address",
          "name": "owner",
          "type": "address"
        }
      ],
      "name": "nonces",
      "outputs": [
        {
          "internalType": "uint256",
          "name": "",
          "type": "uint256"
        }
      ],
      "stateMutability": "view",
      "type": "function"
    },
    {
      "inputs": [
        {
          "internalType": "enum PausableActions.Actions",
          "name": "action",
          "type": "uint8"
        }
      ],
      "name": "pause",
      "outputs": [],
      "stateMutability": "nonpayable",
      "type": "function"
    },
    {
      "inputs": [
        {
          "internalType": "enum PausableActions.Actions",
          "name": "action",
          "type": "uint8"
        }
      ],
      "name": "paused",
      "outputs": [
        {
          "internalType": "bool",
          "name": "",
          "type": "bool"
        }
      ],
      "stateMutability": "view",
      "type": "function"
    },
    {
      "inputs": [
        {
          "internalType": "address",
          "name": "owner",
          "type": "address"
        },
        {
          "internalType": "address",
          "name": "spender",
          "type": "address"
        },
        {
          "internalType": "uint256",
          "name": "value",
          "type": "uint256"
        },
        {
          "internalType": "uint256",
          "name": "deadline",
          "type": "uint256"
        },
        {
          "internalType": "uint8",
          "name": "v",
          "type": "uint8"
        },
        {
          "internalType": "bytes32",
          "name": "r",
          "type": "bytes32"
        },
        {
          "internalType": "bytes32",
          "name": "s",
          "type": "bytes32"
        }
      ],
      "name": "permit",
      "outputs": [],
      "stateMutability": "nonpayable",
      "type": "function"
    },
    {
      "inputs": [
        {
          "internalType": "uint256",
          "name": "assets",
          "type": "uint256"
        }
      ],
      "name": "previewDeposit",
      "outputs": [
        {
          "internalType": "uint256",
          "name": "",
          "type": "uint256"
        }
      ],
      "stateMutability": "view",
      "type": "function"
    },
    {
      "inputs": [
        {
          "internalType": "uint256",
          "name": "shares",
          "type": "uint256"
        }
      ],
      "name": "previewMint",
      "outputs": [
        {
          "internalType": "uint256",
          "name": "",
          "type": "uint256"
        }
      ],
      "stateMutability": "view",
      "type": "function"
    },
    {
      "inputs": [
        {
          "internalType": "uint256",
          "name": "shares",
          "type": "uint256"
        }
      ],
      "name": "previewRedeem",
      "outputs": [
        {
          "internalType": "uint256",
          "name": "",
          "type": "uint256"
        }
      ],
      "stateMutability": "view",
      "type": "function"
    },
    {
      "inputs": [
        {
          "internalType": "uint256",
          "name": "assets",
          "type": "uint256"
        }
      ],
      "name": "previewWithdraw",
      "outputs": [
        {
          "internalType": "uint256",
          "name": "",
          "type": "uint256"
        }
      ],
      "stateMutability": "view",
      "type": "function"
    },
    {
      "inputs": [
        {
          "internalType": "uint256",
          "name": "assets",
          "type": "uint256"
        },
        {
          "internalType": "contract IProvider",
          "name": "from",
          "type": "address"
        },
        {
          "internalType": "contract IProvider",
          "name": "to",
          "type": "address"
        },
        {
          "internalType": "uint256",
          "name": "fee",
          "type": "uint256"
        },
        {
          "internalType": "bool",
          "name": "activateToProvider",
          "type": "bool"
        }
      ],
      "name": "rebalance",
      "outputs": [
        {
          "internalType": "bool",
          "name": "",
          "type": "bool"
        }
      ],
      "stateMutability": "nonpayable",
      "type": "function"
    },
    {
      "inputs": [
        {
          "internalType": "uint256",
          "name": "shares",
          "type": "uint256"
        },
        {
          "internalType": "address",
          "name": "receiver",
          "type": "address"
        },
        {
          "internalType": "address",
          "name": "owner",
          "type": "address"
        }
      ],
      "name": "redeem",
      "outputs": [
        {
          "internalType": "uint256",
          "name": "",
          "type": "uint256"
        }
      ],
      "stateMutability": "nonpayable",
      "type": "function"
    },
    {
      "inputs": [
        {
          "internalType": "bytes32",
          "name": "role",
          "type": "bytes32"
        },
        {
          "internalType": "address",
          "name": "account",
          "type": "address"
        }
      ],
      "name": "revokeRole",
      "outputs": [],
      "stateMutability": "nonpayable",
      "type": "function"
    },
    {
      "inputs": [
        {
          "internalType": "contract IProvider",
          "name": "_activeProvider",
          "type": "address"
        }
      ],
      "name": "setActiveProvider",
      "outputs": [],
      "stateMutability": "nonpayable",
      "type": "function"
    },
    {
      "inputs": [
        {
          "internalType": "uint256",
          "name": "_minAmount",
          "type": "uint256"
        }
      ],
      "name": "setMinAmount",
      "outputs": [],
      "stateMutability": "nonpayable",
      "type": "function"
    },
    {
      "inputs": [
        {
          "internalType": "contract IProvider[]",
          "name": "providers",
          "type": "address[]"
        }
      ],
      "name": "setProviders",
      "outputs": [],
      "stateMutability": "nonpayable",
      "type": "function"
    },
    {
      "inputs": [
        {
          "internalType": "address",
          "name": "_timelock",
          "type": "address"
        }
      ],
      "name": "setTimelock",
      "outputs": [],
      "stateMutability": "nonpayable",
      "type": "function"
    },
    {
      "inputs": [
        {
          "internalType": "address",
          "name": "_treasury",
          "type": "address"
        }
      ],
      "name": "setTreasury",
      "outputs": [],
      "stateMutability": "nonpayable",
      "type": "function"
    },
    {
      "inputs": [
        {
          "internalType": "uint256",
          "name": "_withdrawFeePercent",
          "type": "uint256"
        }
      ],
      "name": "setWithdrawFeePercent",
      "outputs": [],
      "stateMutability": "nonpayable",
      "type": "function"
    },
    {
      "inputs": [],
      "name": "setupCompleted",
      "outputs": [
        {
          "internalType": "bool",
          "name": "",
          "type": "bool"
        }
      ],
      "stateMutability": "view",
      "type": "function"
    },
    {
      "inputs": [
        {
          "internalType": "uint256",
          "name": "assets",
          "type": "uint256"
        }
      ],
      "name": "setupVault",
      "outputs": [],
      "stateMutability": "nonpayable",
      "type": "function"
    },
    {
      "inputs": [],
      "name": "symbol",
      "outputs": [
        {
          "internalType": "string",
          "name": "",
          "type": "string"
        }
      ],
      "stateMutability": "view",
      "type": "function"
    },
    {
      "inputs": [],
      "name": "timelock",
      "outputs": [
        {
          "internalType": "address",
          "name": "",
          "type": "address"
        }
      ],
      "stateMutability": "view",
      "type": "function"
    },
    {
      "inputs": [],
      "name": "totalAssets",
      "outputs": [
        {
          "internalType": "uint256",
          "name": "assets",
          "type": "uint256"
        }
      ],
      "stateMutability": "view",
      "type": "function"
    },
    {
      "inputs": [],
      "name": "totalSupply",
      "outputs": [
        {
          "internalType": "uint256",
          "name": "",
          "type": "uint256"
        }
      ],
      "stateMutability": "view",
      "type": "function"
    },
    {
      "inputs": [
        {
          "internalType": "address",
          "name": "to",
          "type": "address"
        },
        {
          "internalType": "uint256",
          "name": "value",
          "type": "uint256"
        }
      ],
      "name": "transfer",
      "outputs": [
        {
          "internalType": "bool",
          "name": "",
          "type": "bool"
        }
      ],
      "stateMutability": "nonpayable",
      "type": "function"
    },
    {
      "inputs": [
        {
          "internalType": "address",
          "name": "from",
          "type": "address"
        },
        {
          "internalType": "address",
          "name": "to",
          "type": "address"
        },
        {
          "internalType": "uint256",
          "name": "value",
          "type": "uint256"
        }
      ],
      "name": "transferFrom",
      "outputs": [
        {
          "internalType": "bool",
          "name": "",
          "type": "bool"
        }
      ],
      "stateMutability": "nonpayable",
      "type": "function"
    },
    {
      "inputs": [],
      "name": "treasury",
      "outputs": [
        {
          "internalType": "address",
          "name": "",
          "type": "address"
        }
      ],
      "stateMutability": "view",
      "type": "function"
    },
    {
      "inputs": [
        {
          "internalType": "enum PausableActions.Actions",
          "name": "action",
          "type": "uint8"
        }
      ],
      "name": "unpause",
      "outputs": [],
      "stateMutability": "nonpayable",
      "type": "function"
    },
    {
      "inputs": [
        {
          "internalType": "uint256",
          "name": "assets",
          "type": "uint256"
        },
        {
          "internalType": "address",
          "name": "receiver",
          "type": "address"
        },
        {
          "internalType": "address",
          "name": "owner",
          "type": "address"
        }
      ],
      "name": "withdraw",
      "outputs": [
        {
          "internalType": "uint256",
          "name": "",
          "type": "uint256"
        }
      ],
      "stateMutability": "nonpayable",
      "type": "function"
    },
    {
      "inputs": [],
      "name": "withdrawFeePercent",
      "outputs": [
        {
          "internalType": "uint256",
          "name": "",
          "type": "uint256"
        }
      ],
      "stateMutability": "view",
      "type": "function"
    },
    {
      "stateMutability": "payable",
      "type": "receive"
    }
  ],
  "args": [
    "0xaf88d065e77c8cC2239327C5EDb3A432268e5831",
    "Thesauros USDC Vault",
    "tUSDC",
    [
      "0xaBD932E0Fff6417a4Af16431d8D86a4e62d62fA3",
      "0xbeEdb89DC47cab2678eBB796cfc8131062F16E39"
    ],
    "1000000000000000",
    "0xDCa08813082952AAF61A4709A706c8834c37Fab2",
    "0xafA9ed53c33bbD8DE300481ce150dB3D35738F9D"
  ],
  "numDeployments": 3,
  "bytecode": "0x6101a06040523480156200001257600080fd5b50604051620041f8380380620041f8833981016040819052620000359162000bb0565b868686868686868580604051806040016040528060018152602001603160f81b815250888881600390816200006b919062000d96565b5060046200007a828262000d96565b506200008c915083905060056200026b565b610120526200009d8160066200026b565b61014052815160208084019190912060e052815190820120610100524660a0526200012b60e05161010051604080517f8b73c3c69bb8fe3d512ecc4cf759cc79239f7b179b0ffacaa9a75d522b39400f60208201529081019290925260608201524660808201523060a082015260009060c00160405160208183030381529060405280519060200120905090565b60805250503060c0525062000142600033620002a4565b6001600160a01b0387166200016a57604051633335653160e01b815260040160405180910390fd5b6001600160a01b0387166101608190526040805163313ce56760e01b8152905163313ce567916004808201926020929091908290030181865afa158015620001b6573d6000803e3d6000fd5b505050506040513d601f19601f82011682018060405250810190620001dc919062000e62565b60ff1661018052620001ee8262000349565b620001f984620003bb565b620002278460008151811062000213576200021362000e8e565b60200260200101516200054260201b60201c565b6200023281620005b8565b6200023d836200062a565b6200024b620f424062000689565b620002576000620006bf565b505050505050505050505050505062000fec565b60006020835110156200028b5762000283836200075f565b90506200029e565b8162000298848262000d96565b5060ff90505b92915050565b60008281526008602090815260408083206001600160a01b038516845290915290205460ff16620003455760008281526008602090815260408083206001600160a01b03851684529091529020805460ff19166001179055620003043390565b6001600160a01b0316816001600160a01b0316837f2f8788117e7eff1d82e926ec794901d17c78024a50270940304540a733656f0d60405160405180910390a45b5050565b6001600160a01b0381166200037157604051633335653160e01b815260040160405180910390fd5b600e80546001600160a01b0319166001600160a01b0383169081179091556040517fc046b9e8f0cd9b70a3b838962e9c229277fbb7abee68ea0fad4acf2898ed2ca990600090a250565b60005b8151811015620004ef5760006001600160a01b0316828281518110620003e857620003e862000e8e565b60200260200101516001600160a01b0316036200041857604051633335653160e01b815260040160405180910390fd5b620004e682828151811062000431576200043162000e8e565b60200260200101516001600160a01b03166373f64d4462000457620007ab60201b60201c565b6040516001600160e01b031960e084901b1681526001600160a01b03909116600482015230602482015260006044820152606401602060405180830381865afa158015620004a9573d6000803e3d6000fd5b505050506040513d601f19601f82011682018060405250810190620004cf919062000ea4565b610160516001600160a01b031690600019620007b2565b600101620003be565b5080516200050590600a90602084019062000a24565b507f5f589bfb97387c6d7ce41557510dba9ca4a577876489cacc87a22a395b8b13ca8160405162000537919062000ec4565b60405180910390a150565b6200054d816200088d565b6200056b5760405163207562d360e21b815260040160405180910390fd5b600b80546001600160a01b0319166001600160a01b0383161790556040517f34ea2e3abaf449e8227dcf35ffa3aa94f2b89384cdf95fe6fd34dc2aefc59b09906200053790839062000f13565b6001600160a01b038116620005e057604051633335653160e01b815260040160405180910390fd5b600f80546001600160a01b0319166001600160a01b0383169081179091556040517f7dae230f18360d76a040c81f050aa14eb9d6dc7901b20fc5d855e2a20fe814d190600090a250565b66b1a2bc2ec50000811115620006535760405163207562d360e21b815260040160405180910390fd5b600d8190556040518181527fd84a6d804e5eabc5849fa0d39e4545509125b95c297e1ec5ed98fad0f66befb89060200162000537565b600c8190556040518181527f7a94dccf633222d5f6174016b33ae91ce3449a59c8ac979df57cc84ea1a5b2ef9060200162000537565b80620006cb81620008ee565b600160096000846001811115620006e657620006e662000f27565b6001811115620006fa57620006fa62000f27565b81526020810191909152604001600020805460ff19169115159190911790557f534f879afd40abb4e39f8e1b77a316be4c8e3521d9cf5a3a3db8959d574d4559620007423390565b836040516200075392919062000f3d565b60405180910390a15050565b600080829050601f8151111562000796578260405163305a27a960e01b81526004016200078d919062000f79565b60405180910390fd5b8051620007a38262000fae565b179392505050565b6101605190565b6000836001600160a01b031663095ea7b38484604051602401620007d892919062000fd3565b604051602081830303815290604052915060e01b6020820180516001600160e01b03838183161783525050505090506200081984826200091b60201b60201c565b62000887576200087b84856001600160a01b031663095ea7b38660006040516024016200084892919062000fd3565b60408051808303601f1901815291905260208101805160e09390931b6001600160e01b0393841617905291506200096d16565b6200088784826200096d565b50505050565b600a54600090815b81811015620008e757600a8181548110620008b457620008b462000e8e565b6000918252602090912001546001600160a01b0390811690851603620008de5760019250620008e7565b60010162000895565b5050919050565b620008f981620009db565b1562000918576040516336a4bf2d60e01b815260040160405180910390fd5b50565b6000806000806020600086516020880160008a5af192503d91506000519050828015620009635750811562000954578060011462000963565b6000866001600160a01b03163b115b9695505050505050565b600080602060008451602086016000885af18062000991576040513d6000823e3d81fd5b50506000513d91508115620009ab578060011415620009b8565b6001600160a01b0384163b155b15620008875783604051635274afe760e01b81526004016200078d919062000f13565b600060096000836001811115620009f657620009f662000f27565b600181111562000a0a5762000a0a62000f27565b815260208101919091526040016000205460ff1692915050565b82805482825590600052602060002090810192821562000a7c579160200282015b8281111562000a7c57825182546001600160a01b0319166001600160a01b0390911617825560209092019160019091019062000a45565b5062000a8a92915062000a8e565b5090565b5b8082111562000a8a576000815560010162000a8f565b6001600160a01b03811681146200091857600080fd5b805162000ac88162000aa5565b919050565b634e487b7160e01b600052604160045260246000fd5b604051601f8201601f191681016001600160401b038111828210171562000b0e5762000b0e62000acd565b604052919050565b60005b8381101562000b3357818101518382015260200162000b19565b50506000910152565b600082601f83011262000b4e57600080fd5b81516001600160401b0381111562000b6a5762000b6a62000acd565b62000b7f601f8201601f191660200162000ae3565b81815284602083860101111562000b9557600080fd5b62000ba882602083016020870162000b16565b949350505050565b600080600080600080600060e0888a03121562000bcc57600080fd5b875162000bd98162000aa5565b602089810151919850906001600160401b038082111562000bf957600080fd5b62000c078c838d0162000b3c565b985060408b015191508082111562000c1e57600080fd5b62000c2c8c838d0162000b3c565b975060608b015191508082111562000c4357600080fd5b818b0191508b601f83011262000c5857600080fd5b81518181111562000c6d5762000c6d62000acd565b8060051b915062000c8084830162000ae3565b818152918301840191848101908e84111562000c9b57600080fd5b938501935b8385101562000cc9578451925062000cb88362000aa5565b828252938501939085019062000ca0565b8099505050505050506080880151925062000ce760a0890162000abb565b915062000cf760c0890162000abb565b905092959891949750929550565b600181811c9082168062000d1a57607f821691505b60208210810362000d3b57634e487b7160e01b600052602260045260246000fd5b50919050565b601f82111562000d91576000816000526020600020601f850160051c8101602086101562000d6c5750805b601f850160051c820191505b8181101562000d8d5782815560010162000d78565b5050505b505050565b81516001600160401b0381111562000db25762000db262000acd565b62000dca8162000dc3845462000d05565b8462000d41565b602080601f83116001811462000e02576000841562000de95750858301515b600019600386901b1c1916600185901b17855562000d8d565b600085815260208120601f198616915b8281101562000e335788860151825594840194600190910190840162000e12565b508582101562000e525787850151600019600388901b60f8161c191681555b5050505050600190811b01905550565b60006020828403121562000e7557600080fd5b815160ff8116811462000e8757600080fd5b9392505050565b634e487b7160e01b600052603260045260246000fd5b60006020828403121562000eb757600080fd5b815162000e878162000aa5565b6020808252825182820181905260009190848201906040850190845b8181101562000f075783516001600160a01b03168352928401929184019160010162000ee0565b50909695505050505050565b6001600160a01b0391909116815260200190565b634e487b7160e01b600052602160045260246000fd5b6001600160a01b0383168152604081016002831062000f6c57634e487b7160e01b600052602160045260246000fd5b8260208301529392505050565b602081526000825180602084015262000f9a81604085016020870162000b16565b601f01601f19169190910160400192915050565b8051602080830151919081101562000d3b5760001960209190910360031b1b16919050565b6001600160a01b03929092168252602082015260400190565b60805160a05160c05160e0516101005161012051610140516101605161018051613178620010806000396000610439015260008181610b7e01528181610d9a0152818161149b0152818161165f01528181611df80152611e2c01526000611c4b01526000611c1e015260006118f2015260006118ca015260006118250152600061184f0152600061187901526131786000f3fe6080604052600436106102745760003560e01c806301e1d1141461028057806306fdde03146102a857806307a2d13a146102ca57806307bd0265146102ea578063095ea7b31461031e5780630a28a4771461034e5780630fa275391461036e57806318160ddd146103905780631b98f6ac146103a557806323b872dd146103c55780632f2ff15d146103e5578063301c7e5d14610405578063313ce567146104255780633644e5151461046357806338d52e0f14610478578063402d267d1461049a578063447cb896146104ba578063495ef705146104da5780634cdad506146102ca5780635ac86ab7146104f0578063609da8971461051057806361d027b3146105315780636e553f651461055157806370a082311461057157806371e114301461059157806375b238fc146105b15780637abac329146105c65780637ecebe00146105e657806384b0196e14610606578063852972791461062e578063897b06371461064e57806391d148541461066e57806394bf804d1461068e57806395d89b41146106ae57806397f75dd9146106c35780639b2cb5d8146106e3578063a9059cbb146106f9578063b3d7f6b914610719578063b460af9414610739578063ba08765214610759578063bdacb30314610779578063c63d75b61461049a578063c6e6f59214610799578063ce96cb77146107b9578063d33219b4146107d9578063d505accf146107f9578063d547741f14610819578063d905777e14610839578063d9ab2c5c14610859578063dd62ed3e1461088c578063edc922a9146108ac578063edf07f15146108ce578063ef8b30f714610799578063f0f44260146108ee578063f5b541a61461090e57600080fd5b3661027b57005b600080fd5b34801561028c57600080fd5b50610295610930565b6040519081526020015b60405180910390f35b3480156102b457600080fd5b506102bd61093f565b60405161029f9190612ab7565b3480156102d657600080fd5b506102956102e5366004612aca565b6109d1565b3480156102f657600080fd5b506102957fd8aa0f3194971a2a116679f7c2090f6939c8d4e01a2a8d7e41d55e5351469e6381565b34801561032a57600080fd5b5061033e610339366004612af8565b6109e4565b604051901515815260200161029f565b34801561035a57600080fd5b50610295610369366004612aca565b6109fc565b34801561037a57600080fd5b5061038e610389366004612aca565b610a09565b005b34801561039c57600080fd5b50600254610295565b3480156103b157600080fd5b5061038e6103c0366004612b4a565b610aae565b3480156103d157600080fd5b5061033e6103e0366004612c0e565b610ae5565b3480156103f157600080fd5b5061038e610400366004612c4f565b610b0b565b34801561041157600080fd5b5061038e610420366004612c7f565b610b41565b34801561043157600080fd5b5060405160ff7f000000000000000000000000000000000000000000000000000000000000000016815260200161029f565b34801561046f57600080fd5b50610295610b72565b34801561048457600080fd5b5061048d610b7c565b60405161029f9190612ca0565b3480156104a657600080fd5b506102956104b5366004612cb4565b610ba0565b3480156104c657600080fd5b5061038e6104d5366004612aca565b610bc2565b3480156104e657600080fd5b50610295600d5481565b3480156104fc57600080fd5b5061033e61050b366004612c7f565b610bf3565b34801561051c57600080fd5b50600f5461033e90600160a01b900460ff1681565b34801561053d57600080fd5b50600f5461048d906001600160a01b031681565b34801561055d57600080fd5b5061029561056c366004612c4f565b610c36565b34801561057d57600080fd5b5061029561058c366004612cb4565b610c5b565b34801561059d57600080fd5b5061038e6105ac366004612cb4565b610c76565b3480156105bd57600080fd5b50610295600081565b3480156105d257600080fd5b5061033e6105e1366004612cd1565b610ca7565b3480156105f257600080fd5b50610295610601366004612cb4565b610e5f565b34801561061257600080fd5b5061061b610e7d565b60405161029f9796959493929190612d35565b34801561063a57600080fd5b50610295610649366004612cb4565b610ec3565b34801561065a57600080fd5b5061038e610669366004612aca565b610ed1565b34801561067a57600080fd5b5061033e610689366004612c4f565b610f02565b34801561069a57600080fd5b506102956106a9366004612c4f565b610f2d565b3480156106ba57600080fd5b506102bd610f52565b3480156106cf57600080fd5b50600b5461048d906001600160a01b031681565b3480156106ef57600080fd5b50610295600c5481565b34801561070557600080fd5b5061033e610714366004612af8565b610f61565b34801561072557600080fd5b50610295610734366004612aca565b610f6f565b34801561074557600080fd5b50610295610754366004612dce565b610f7c565b34801561076557600080fd5b50610295610774366004612dce565b610fb5565b34801561078557600080fd5b5061038e610794366004612cb4565b610fee565b3480156107a557600080fd5b506102956107b4366004612aca565b611022565b3480156107c557600080fd5b506102956107d4366004612cb4565b61102f565b3480156107e557600080fd5b50600e5461048d906001600160a01b031681565b34801561080557600080fd5b5061038e610814366004612e10565b611054565b34801561082557600080fd5b5061038e610834366004612c4f565b611184565b34801561084557600080fd5b50610295610854366004612cb4565b6111b6565b34801561086557600080fd5b506102957e9ab23a1010d07a0450a1fbea1d84169b57d2c2273b54bff0f20c3e90199b5d81565b34801561089857600080fd5b506102956108a7366004612e87565b6111d8565b3480156108b857600080fd5b506108c1611203565b60405161029f9190612eb5565b3480156108da57600080fd5b5061038e6108e9366004612c7f565b611264565b3480156108fa57600080fd5b5061038e610909366004612cb4565b611295565b34801561091a57600080fd5b5061029560008051602061312383398151915281565b600061093a6112c6565b905090565b60606003805461094e90612ef6565b80601f016020809104026020016040519081016040528092919081815260200182805461097a90612ef6565b80156109c75780601f1061099c576101008083540402835291602001916109c7565b820191906000526020600020905b8154815290600101906020018083116109aa57829003601f168201915b5050505050905090565b60006109de826000611383565b92915050565b6000336109f28185856113ba565b5060019392505050565b60006109de8260016113cc565b600f54600160a01b900460ff1615610a3457604051632b2cba5d60e01b815260040160405180910390fd5b600c54811015610a57576040516309bb724360e21b815260040160405180910390fd5b610a6160006113fe565b610a6d3330838461148e565b600f805460ff60a01b1916600160a01b17905560405133907fb1fa1aae20fc88a51add616c46f8bc3a8d65d75b8fbe30fb0a6a2df2e773632290600090a250565b600e546001600160a01b03163314610ad95760405163084312d160e41b815260040160405180910390fd5b610ae281611555565b50565b600033610af38582856116df565b610afe858585611733565b60019150505b9392505050565b610b16600033610f02565b610b3357604051633dcaff7960e21b815260040160405180910390fd5b610b3d8282611792565b5050565b610b4c600033610f02565b610b6957604051633dcaff7960e21b815260040160405180910390fd5b610ae2816113fe565b600061093a611818565b7f000000000000000000000000000000000000000000000000000000000000000090565b6000610bac6000610bf3565b15610bb957506000919050565b50600019919050565b610bcd600033610f02565b610bea57604051633dcaff7960e21b815260040160405180910390fd5b610ae281611943565b600060096000836001811115610c0b57610c0b612f30565b6001811115610c1c57610c1c612f30565b815260208101919091526040016000205460ff1692915050565b600080610c4284611022565b9050610c4f8385836119a0565b610b043384868461148e565b6001600160a01b031660009081526020819052604090205490565b610c81600033610f02565b610c9e57604051633dcaff7960e21b815260040160405180910390fd5b610ae281611a1e565b6000610cc160008051602061312383398151915233610f02565b610cde57604051635be2897760e11b815260040160405180910390fd5b610ce785611a8f565b1580610cf95750610cf784611a8f565b155b15610d17576040516301d9c4ab60e21b815260040160405180910390fd5b610d218387611ae9565b610d4c8660405180604001604052806008815260200167776974686472617760c01b81525087611b29565b610d7f610d598488612f5c565b6040518060400160405280600781526020016619195c1bdcda5d60ca1b81525086611b29565b8215610df457600f546001600160a01b0390811690610dc1907f0000000000000000000000000000000000000000000000000000000000000000168286611bbf565b806001600160a01b03166000805160206131038339815191528886604051610dea929190612f6f565b60405180910390a2505b8115610e0357610e0384611a1e565b6001600160a01b038085169086167f086c47503692f7dac9bd7ce63f1c29c814ce3ae59ee29390e242340d6dd8d58f88610e3d8782612f5c565b604051610e4b929190612f6f565b60405180910390a350600195945050505050565b6001600160a01b0381166000908152600760205260408120546109de565b600060608060008060006060610e91611c17565b610e99611c44565b60408051600080825260208201909252600f60f81b9b939a50919850469750309650945092509050565b60006109de6102e583610c5b565b610edc600033610f02565b610ef957604051633dcaff7960e21b815260040160405180910390fd5b610ae281611c71565b60009182526008602090815260408084206001600160a01b0393909316845291905290205460ff1690565b600080610f3984610f6f565b9050610f468382866119a0565b610b043384838761148e565b60606004805461094e90612ef6565b6000336109f2818585611733565b60006109de826001611383565b600080610f88856109fc565b9050600080610f9a8784338989611ca6565b91509150610fab3387878585611d79565b9695505050505050565b600080610fc1856109d1565b9050600080610fd38388338989611ca6565b91509150610fe43387878585611d79565b5095945050505050565b600e546001600160a01b031633146110195760405163084312d160e41b815260040160405180910390fd5b610ae281611ee5565b60006109de8260006113cc565b600061103b6001610bf3565b1561104857506000919050565b6109de6102e583610c5b565b8342111561107d5760405163313c898160e11b8152600481018590526024015b60405180910390fd5b60007f6e71edae12b1b97f4d1f60370fef10105fa2faae0126114a169c64845d6126c98888886110ca8c6001600160a01b0316600090815260076020526040902080546001810190915590565b6040805160208101969096526001600160a01b0394851690860152929091166060840152608083015260a082015260c0810186905260e001604051602081830303815290604052805190602001209050600061112582611f56565b9050600061113582878787611f83565b9050896001600160a01b0316816001600160a01b03161461116d57808a6040516325c0072360e11b8152600401611074929190612f7d565b6111788a8a8a6113ba565b50505050505050505050565b61118f600033610f02565b6111ac57604051633dcaff7960e21b815260040160405180910390fd5b610b3d8282611fb1565b60006111c26001610bf3565b156111cf57506000919050565b6109de82610c5b565b6001600160a01b03918216600090815260016020908152604080832093909416825291909152205490565b6060600a8054806020026020016040519081016040528092919081815260200182805480156109c757602002820191906000526020600020905b81546001600160a01b0316815260019091019060200180831161123d575050505050905090565b61126f600033610f02565b61128c57604051633dcaff7960e21b815260040160405180910390fd5b610ae281612018565b6112a0600033610f02565b6112bd57604051633dcaff7960e21b815260040160405180910390fd5b610ae281612091565b600a546000908190815b8181101561137d57600a81815481106112eb576112eb612f97565b6000918252602090912001546040516302b844a960e21b81526001600160a01b0390911690630ae112a4906113269030908190600401612f7d565b602060405180830381865afa158015611343573d6000803e3d6000fd5b505050506040513d601f19601f820116820180604052508101906113679190612fad565b92506113738385612fc6565b93506001016112d0565b50505090565b60008061138f60025490565b905080156113b0576113ab6113a2610930565b85908386612102565b6113b2565b835b949350505050565b6113c7838383600161214f565b505050565b6000806113d860025490565b90508315806113e5575080155b6113b0576113ab816113f5610930565b86919086612102565b8061140881612216565b60006009600084600181111561142057611420612f30565b600181111561143157611431612f30565b81526020810191909152604001600020805460ff19169115159190911790557f4cd3e1443d03aba343c5d882744f8f172c07b495e955ac3defb325cbd73c8550335b83604051611482929190612fd9565b60405180910390a15050565b6114c36001600160a01b037f00000000000000000000000000000000000000000000000000000000000000001685308561223c565b60408051808201909152600781526619195c1bdcda5d60ca1b6020820152600b546114f89184916001600160a01b0316611b29565b6115028382612275565b826001600160a01b0316846001600160a01b03167fdcbc1c05240f31ff3ad067ef1ee35ce4997762752e3a095284754544f4c709d78484604051611547929190612f6f565b60405180910390a350505050565b60005b81518110156116905760006001600160a01b031682828151811061157e5761157e612f97565b60200260200101516001600160a01b0316036115ad57604051633335653160e01b815260040160405180910390fd5b6116888282815181106115c2576115c2612f97565b60200260200101516001600160a01b03166373f64d446115e0610b7c565b6040516001600160e01b031960e084901b1681526001600160a01b03909116600482015230602482015260006044820152606401602060405180830381865afa158015611631573d6000803e3d6000fd5b505050506040513d601f19601f820116820180604052508101906116559190613014565b6001600160a01b037f000000000000000000000000000000000000000000000000000000000000000016906000196122ab565b600101611558565b5080516116a490600a9060208401906129ed565b507f5f589bfb97387c6d7ce41557510dba9ca4a577876489cacc87a22a395b8b13ca816040516116d49190612eb5565b60405180910390a150565b60006116eb84846111d8565b905060001981101561172d578181101561171e57828183604051637dc7a0d960e11b815260040161107493929190613031565b61172d8484848403600061214f565b50505050565b6001600160a01b03831661175d576000604051634b637e8f60e11b81526004016110749190612ca0565b6001600160a01b03821661178757600060405163ec442f0560e01b81526004016110749190612ca0565b6113c783838361233d565b61179c8282610f02565b610b3d5760008281526008602090815260408083206001600160a01b03851684529091529020805460ff191660011790556117d43390565b6001600160a01b0316816001600160a01b0316837f2f8788117e7eff1d82e926ec794901d17c78024a50270940304540a733656f0d60405160405180910390a45050565b6000306001600160a01b037f00000000000000000000000000000000000000000000000000000000000000001614801561187157507f000000000000000000000000000000000000000000000000000000000000000046145b1561189b57507f000000000000000000000000000000000000000000000000000000000000000090565b61093a604080517f8b73c3c69bb8fe3d512ecc4cf759cc79239f7b179b0ffacaa9a75d522b39400f60208201527f0000000000000000000000000000000000000000000000000000000000000000918101919091527f000000000000000000000000000000000000000000000000000000000000000060608201524660808201523060a082015260009060c00160405160208183030381529060405280519060200120905090565b66b1a2bc2ec5000081111561196b5760405163207562d360e21b815260040160405180910390fd5b600d8190556040518181527fd84a6d804e5eabc5849fa0d39e4545509125b95c297e1ec5ed98fad0f66befb8906020016116d4565b60006119ab81612454565b6001600160a01b0384166119d257604051633335653160e01b815260040160405180910390fd5b8215806119dd575081155b156119fb5760405163207562d360e21b815260040160405180910390fd5b600c5483101561172d576040516309bb724360e21b815260040160405180910390fd5b611a2781611a8f565b611a445760405163207562d360e21b815260040160405180910390fd5b600b80546001600160a01b0319166001600160a01b0383161790556040517f34ea2e3abaf449e8227dcf35ffa3aa94f2b89384cdf95fe6fd34dc2aefc59b09906116d4908390612ca0565b600a54600090815b81811015611ae257600a8181548110611ab257611ab2612f97565b6000918252602090912001546001600160a01b0390811690851603611ada5760019250611ae2565b600101611a97565b5050919050565b6000611b06826702c68af0bb140000670de0b6b3a764000061247b565b9050808311156113c7576040516337fa464560e21b815260040160405180910390fd5b600082604051602001611b3c9190613052565b60408051601f1981840301815290829052602482018690523060448301529060640160408051601f198184030181529082905291611b7991613087565b6040519081900390206020820180516001600160e01b03166001600160e01b03199092169190911790529050611bb86001600160a01b03831682612530565b5050505050565b6113c783846001600160a01b031663a9059cbb8585604051602401611be59291906130a3565b604051602081830303815290604052915060e01b6020820180516001600160e01b03838183161783525050505061259d565b606061093a7f00000000000000000000000000000000000000000000000000000000000000006005612605565b606061093a7f00000000000000000000000000000000000000000000000000000000000000006006612605565b600c8190556040518181527f7a94dccf633222d5f6174016b33ae91ce3449a59c8ac979df57cc84ea1a5b2ef906020016116d4565b6000806001611cb481612454565b6001600160a01b0385161580611cd157506001600160a01b038416155b15611cef57604051633335653160e01b815260040160405180910390fd5b871580611cfa575086155b15611d185760405163207562d360e21b815260040160405180910390fd5b6000611d238561102f565b905080891115611d4257925082611d3b81898b61247b565b9250611d49565b8893508792505b846001600160a01b0316876001600160a01b031614611d6d57611d6d8588856116df565b50509550959350505050565b600d54600090611d93908490670de0b6b3a764000061247b565b90506000611da18285612f5c565b9050611dad85846126b0565b604080518082019091526008815267776974686472617760c01b6020820152600b54611de39186916001600160a01b0316611b29565b600f546001600160a01b0390811690611e1f907f0000000000000000000000000000000000000000000000000000000000000000168285611bbf565b611e536001600160a01b037f0000000000000000000000000000000000000000000000000000000000000000168884611bbf565b806001600160a01b03166000805160206131038339815191528685604051611e7c929190612f6f565b60405180910390a2856001600160a01b0316876001600160a01b0316896001600160a01b03167ffbde797d201c681b91056529119e0b02407c7bb96a4a2c75c01fc9667232c8db8588604051611ed3929190612f6f565b60405180910390a45050505050505050565b6001600160a01b038116611f0c57604051633335653160e01b815260040160405180910390fd5b600e80546001600160a01b0319166001600160a01b0383169081179091556040517fc046b9e8f0cd9b70a3b838962e9c229277fbb7abee68ea0fad4acf2898ed2ca990600090a250565b60006109de611f63611818565b8360405161190160f01b8152600281019290925260228201526042902090565b600080600080611f95888888886126e6565b925092509250611fa582826127ab565b50909695505050505050565b611fbb8282610f02565b15610b3d5760008281526008602090815260408083206001600160a01b0385168085529252808320805460ff1916905551339285917ff6391f5c32d9c69d2a47ea670b442974b53935d1edc7fd64eb21e047a839171b9190a45050565b8061202281612454565b60016009600084600181111561203a5761203a612f30565b600181111561204b5761204b612f30565b81526020810191909152604001600020805460ff19169115159190911790557f534f879afd40abb4e39f8e1b77a316be4c8e3521d9cf5a3a3db8959d574d455933611473565b6001600160a01b0381166120b857604051633335653160e01b815260040160405180910390fd5b600f80546001600160a01b0319166001600160a01b0383169081179091556040517f7dae230f18360d76a040c81f050aa14eb9d6dc7901b20fc5d855e2a20fe814d190600090a250565b600061213161211083612864565b801561212c575060008480612127576121276130bc565b868809115b151590565b61213c86868661247b565b6121469190612fc6565b95945050505050565b6001600160a01b03841661217957600060405163e602df0560e01b81526004016110749190612ca0565b6001600160a01b0383166121a3576000604051634a1406b160e11b81526004016110749190612ca0565b6001600160a01b038085166000908152600160209081526040808320938716835292905220829055801561172d57826001600160a01b0316846001600160a01b03167f8c5be1e5ebec7d5bd14f71427d1e84f3dd0314c0f7b2291e5b200ac8c7c3b9258460405161154791815260200190565b61221f81610bf3565b610ae2576040516360f8581d60e01b815260040160405180910390fd5b6040516001600160a01b03848116602483015283811660448301526064820183905261172d9186918216906323b872dd90608401611be5565b6001600160a01b03821661229f57600060405163ec442f0560e01b81526004016110749190612ca0565b610b3d6000838361233d565b6000836001600160a01b031663095ea7b384846040516024016122cf9291906130a3565b604051602081830303815290604052915060e01b6020820180516001600160e01b03838183161783525050505090506123088482612891565b61172d5761233384856001600160a01b031663095ea7b3866000604051602401611be59291906130a3565b61172d848261259d565b6001600160a01b03831661236857806002600082825461235d9190612fc6565b909155506123c79050565b6001600160a01b038316600090815260208190526040902054818110156123a85783818360405163391434e360e21b815260040161107493929190613031565b6001600160a01b03841660009081526020819052604090209082900390555b6001600160a01b0382166123e357600280548290039055612402565b6001600160a01b03821660009081526020819052604090208054820190555b816001600160a01b0316836001600160a01b03167fddf252ad1be2c89b69c2b068fc378daa952ba7f163c4a11628f55a4df523b3ef8360405161244791815260200190565b60405180910390a3505050565b61245d81610bf3565b15610ae2576040516336a4bf2d60e01b815260040160405180910390fd5b600080600061248a86866128db565b91509150816000036124af578381816124a5576124a56130bc565b0492505050610b04565b8184116124c6576124c660038515026011186128f9565b6000848688096000868103871696879004966002600389028118808a02820302808a02820302808a02820302808a02820302808a02820302808a02909103029181900381900460010185841190960395909502919093039390930492909217029150509392505050565b6060600080846001600160a01b03168460405161254d9190613087565b600060405180830381855af49150503d8060008114612588576040519150601f19603f3d011682016040523d82523d6000602084013e61258d565b606091505b509150915061214685838361290b565b600080602060008451602086016000885af1806125c0576040513d6000823e3d81fd5b50506000513d915081156125d85780600114156125e5565b6001600160a01b0384163b155b1561172d5783604051635274afe760e01b81526004016110749190612ca0565b606060ff831461261f576126188361295e565b90506109de565b81805461262b90612ef6565b80601f016020809104026020016040519081016040528092919081815260200182805461265790612ef6565b80156126a45780601f10612679576101008083540402835291602001916126a4565b820191906000526020600020905b81548152906001019060200180831161268757829003601f168201915b505050505090506109de565b6001600160a01b0382166126da576000604051634b637e8f60e11b81526004016110749190612ca0565b610b3d8260008361233d565b600080806fa2a8918ca85bafe22016d0b997e4df60600160ff1b0384111561271757506000915060039050826127a1565b604080516000808252602082018084528a905260ff891692820192909252606081018790526080810186905260019060a0016020604051602081039080840390855afa15801561276b573d6000803e3d6000fd5b5050604051601f1901519150506001600160a01b038116612797575060009250600191508290506127a1565b9250600091508190505b9450945094915050565b60008260038111156127bf576127bf612f30565b036127c8575050565b60018260038111156127dc576127dc612f30565b036127fa5760405163f645eedf60e01b815260040160405180910390fd5b600282600381111561280e5761280e612f30565b0361282f5760405163fce698f760e01b815260048101829052602401611074565b600382600381111561284357612843612f30565b03610b3d576040516335e2f38360e21b815260048101829052602401611074565b6000600282600381111561287a5761287a612f30565b61288491906130d2565b60ff166001149050919050565b6000806000806020600086516020880160008a5af192503d91506000519050828015610fab575081156128c75780600114610fab565b50505050506001600160a01b03163b151590565b60008060001983850993909202808410938190039390930393915050565b634e487b71600052806020526024601cfd5b6060826129205761291b8261299d565b610b04565b815115801561293757506001600160a01b0384163b155b156129575783604051639996b31560e01b81526004016110749190612ca0565b5080610b04565b6060600061296b836129c5565b604080516020808252818301909252919250600091906020820181803683375050509182525060208101929092525090565b8051156129ac57805160208201fd5b60405163d6bda27560e01b815260040160405180910390fd5b600060ff8216601f8111156109de57604051632cd44ac360e21b815260040160405180910390fd5b828054828255906000526020600020908101928215612a42579160200282015b82811115612a4257825182546001600160a01b0319166001600160a01b03909116178255602090920191600190910190612a0d565b50612a4e929150612a52565b5090565b5b80821115612a4e5760008155600101612a53565b60005b83811015612a82578181015183820152602001612a6a565b50506000910152565b60008151808452612aa3816020860160208601612a67565b601f01601f19169290920160200192915050565b602081526000610b046020830184612a8b565b600060208284031215612adc57600080fd5b5035919050565b6001600160a01b0381168114610ae257600080fd5b60008060408385031215612b0b57600080fd5b8235612b1681612ae3565b946020939093013593505050565b634e487b7160e01b600052604160045260246000fd5b8035612b4581612ae3565b919050565b60006020808385031215612b5d57600080fd5b82356001600160401b0380821115612b7457600080fd5b818501915085601f830112612b8857600080fd5b813581811115612b9a57612b9a612b24565b8060051b604051601f19603f83011681018181108582111715612bbf57612bbf612b24565b604052918252848201925083810185019188831115612bdd57600080fd5b938501935b82851015612c0257612bf385612b3a565b84529385019392850192612be2565b98975050505050505050565b600080600060608486031215612c2357600080fd5b8335612c2e81612ae3565b92506020840135612c3e81612ae3565b929592945050506040919091013590565b60008060408385031215612c6257600080fd5b823591506020830135612c7481612ae3565b809150509250929050565b600060208284031215612c9157600080fd5b813560028110610b0457600080fd5b6001600160a01b0391909116815260200190565b600060208284031215612cc657600080fd5b8135610b0481612ae3565b600080600080600060a08688031215612ce957600080fd5b853594506020860135612cfb81612ae3565b93506040860135612d0b81612ae3565b92506060860135915060808601358015158114612d2757600080fd5b809150509295509295909350565b60ff60f81b881681526000602060e06020840152612d5660e084018a612a8b565b8381036040850152612d68818a612a8b565b606085018990526001600160a01b038816608086015260a0850187905284810360c08601528551808252602080880193509091019060005b81811015612dbc57835183529284019291840191600101612da0565b50909c9b505050505050505050505050565b600080600060608486031215612de357600080fd5b833592506020840135612df581612ae3565b91506040840135612e0581612ae3565b809150509250925092565b600080600080600080600060e0888a031215612e2b57600080fd5b8735612e3681612ae3565b96506020880135612e4681612ae3565b95506040880135945060608801359350608088013560ff81168114612e6a57600080fd5b9699959850939692959460a0840135945060c09093013592915050565b60008060408385031215612e9a57600080fd5b8235612ea581612ae3565b91506020830135612c7481612ae3565b6020808252825182820181905260009190848201906040850190845b81811015611fa55783516001600160a01b031683529284019291840191600101612ed1565b600181811c90821680612f0a57607f821691505b602082108103612f2a57634e487b7160e01b600052602260045260246000fd5b50919050565b634e487b7160e01b600052602160045260246000fd5b634e487b7160e01b600052601160045260246000fd5b818103818111156109de576109de612f46565b918252602082015260400190565b6001600160a01b0392831681529116602082015260400190565b634e487b7160e01b600052603260045260246000fd5b600060208284031215612fbf57600080fd5b5051919050565b808201808211156109de576109de612f46565b6001600160a01b0383168152604081016002831061300757634e487b7160e01b600052602160045260246000fd5b8260208301529392505050565b60006020828403121561302657600080fd5b8151610b0481612ae3565b6001600160a01b039390931683526020830191909152604082015260600190565b60008251613064818460208701612a67565b702875696e743235362c616464726573732960781b920191825250601101919050565b60008251613099818460208701612a67565b9190910192915050565b6001600160a01b03929092168252602082015260400190565b634e487b7160e01b600052601260045260246000fd5b600060ff8316806130f357634e487b7160e01b600052601260045260246000fd5b8060ff8416069150509291505056feacffcc86834d0f1a64b0d5a675798deed6ff0bcfc2231edd3480e7288dba7ff497667070c54ef182b0f5858b034beac1b6f3089aa2d3188bb1e8929f4fa9b929a2646970667358221220ceba0204736f634c29fb5ef40f73f5c012c2fade87bcb730e9a31c272fa68b8264736f6c63430008170033"
}