{
  "address": "0x8Ff0d9ef10898E77565662dd6B57ec38a0CeAD2c",
  "abi": [
    {
      "inputs": [],
      "name": "AccessManager__CallerIsNotAdmin",
      "type": "error"
    },
    {
      "inputs": [],
      "name": "AccessManager__CallerIsNotExecutor",
      "type": "error"
    },
    {
      "inputs": [],
      "name": "AccessManager__CallerIsNotOperator",
      "type": "error"
    },
    {
      "inputs": [],
      "name": "VaultManager__ArrayMismatch",
      "type": "error"
    },
    {
      "inputs": [],
      "name": "VaultManager__InvalidAssetAmount",
      "type": "error"
    },
    {
      "inputs": [],
      "name": "VaultManager__InvalidCount",
      "type": "error"
    },
    {
      "anonymous": false,
      "inputs": [
        {
          "indexed": true,
          "internalType": "bytes32",
          "name": "role",
          "type": "bytes32"
        },
        {
          "indexed": true,
          "internalType": "address",
          "name": "account",
          "type": "address"
        },
        {
          "indexed": true,
          "internalType": "address",
          "name": "sender",
          "type": "address"
        }
      ],
      "name": "RoleGranted",
      "type": "event"
    },
    {
      "anonymous": false,
      "inputs": [
        {
          "indexed": true,
          "internalType": "bytes32",
          "name": "role",
          "type": "bytes32"
        },
        {
          "indexed": true,
          "internalType": "address",
          "name": "account",
          "type": "address"
        },
        {
          "indexed": true,
          "internalType": "address",
          "name": "sender",
          "type": "address"
        }
      ],
      "name": "RoleRevoked",
      "type": "event"
    },
    {
      "inputs": [],
      "name": "ADMIN_ROLE",
      "outputs": [
        {
          "internalType": "bytes32",
          "name": "",
          "type": "bytes32"
        }
      ],
      "stateMutability": "view",
      "type": "function"
    },
    {
      "inputs": [],
      "name": "DEPOSITOR_ROLE",
      "outputs": [
        {
          "internalType": "bytes32",
          "name": "",
          "type": "bytes32"
        }
      ],
      "stateMutability": "view",
      "type": "function"
    },
    {
      "inputs": [],
      "name": "EXECUTOR_ROLE",
      "outputs": [
        {
          "internalType": "bytes32",
          "name": "",
          "type": "bytes32"
        }
      ],
      "stateMutability": "view",
      "type": "function"
    },
    {
      "inputs": [],
      "name": "OPERATOR_ROLE",
      "outputs": [
        {
          "internalType": "bytes32",
          "name": "",
          "type": "bytes32"
        }
      ],
      "stateMutability": "view",
      "type": "function"
    },
    {
      "inputs": [
        {
          "internalType": "bytes32",
          "name": "role",
          "type": "bytes32"
        },
        {
          "internalType": "address",
          "name": "account",
          "type": "address"
        }
      ],
      "name": "grantRole",
      "outputs": [],
      "stateMutability": "nonpayable",
      "type": "function"
    },
    {
      "inputs": [
        {
          "internalType": "bytes32",
          "name": "role",
          "type": "bytes32"
        },
        {
          "internalType": "address",
          "name": "account",
          "type": "address"
        }
      ],
      "name": "hasRole",
      "outputs": [
        {
          "internalType": "bool",
          "name": "",
          "type": "bool"
        }
      ],
      "stateMutability": "view",
      "type": "function"
    },
    {
      "inputs": [
        {
          "internalType": "contract IVault",
          "name": "vault",
          "type": "address"
        },
        {
          "internalType": "uint256[]",
          "name": "amounts",
          "type": "uint256[]"
        },
        {
          "internalType": "contract IProvider[]",
          "name": "sources",
          "type": "address[]"
        },
        {
          "internalType": "contract IProvider[]",
          "name": "destinations",
          "type": "address[]"
        },
        {
          "internalType": "uint256[]",
          "name": "fees",
          "type": "uint256[]"
        }
      ],
      "name": "rebalanceVault",
      "outputs": [
        {
          "internalType": "bool",
          "name": "success",
          "type": "bool"
        }
      ],
      "stateMutability": "nonpayable",
      "type": "function"
    },
    {
      "inputs": [
        {
          "internalType": "bytes32",
          "name": "role",
          "type": "bytes32"
        },
        {
          "internalType": "address",
          "name": "account",
          "type": "address"
        }
      ],
      "name": "revokeRole",
      "outputs": [],
      "stateMutability": "nonpayable",
      "type": "function"
    }
  ],
  "transactionHash": "0x7f023d0d94c70726060d591521f776666bdcbc39d65311f5aae6a389d4d87bbc",
  "args": [],
  "numDeployments": 1,
  "solcInputHash": "a16a99bd455ecfd28c69d3f310336f0a",
  "bytecode": "0x608060405234801561001057600080fd5b5061001c600033610021565b6100c0565b6000828152602081815260408083206001600160a01b038516845290915290205460ff166100bc576000828152602081815260408083206001600160a01b03851684529091529020805460ff1916600117905561007b3390565b6001600160a01b0316816001600160a01b0316837f2f8788117e7eff1d82e926ec794901d17c78024a50270940304540a733656f0d60405160405180910390a45b5050565b610834806100cf6000396000f3fe608060405234801561001057600080fd5b50600436106100785760003560e01c806307bd02651461007d5780632f2ff15d146100a557806375b238fc146100ba57806391d14854146100c2578063a3b0b5a3146100e5578063ba99f5b31461010c578063d547741f1461011f578063f5b541a614610132575b600080fd5b6100926000805160206107df83398151915281565b6040519081526020015b60405180910390f35b6100b86100b3366004610557565b610159565b005b610092600081565b6100d56100d0366004610557565b61018f565b604051901515815260200161009c565b6100927f8f4f2da22e8ac8f11e15f9fc141cddbb5deea8800186560abb6e68c5496619a981565b6100d561011a3660046106c7565b6101b8565b6100b861012d366004610557565b610424565b6100927f97667070c54ef182b0f5858b034beac1b6f3089aa2d3188bb1e8929f4fa9b92981565b61016460003361018f565b61018157604051633dcaff7960e21b815260040160405180910390fd5b61018b8282610456565b5050565b6000918252602082815260408084206001600160a01b0393909316845291905290205460ff1690565b60006101d26000805160206107df8339815191523361018f565b6101ef57604051633f9135d360e01b815260040160405180910390fd5b8451600081900361021357604051631737ffb960e31b815260040160405180910390fd5b845181141580610224575083518114155b80610230575082518114155b1561024e5760405163a4e281a960e01b815260040160405180910390fd5b60005b8181101561041657600087828151811061026d5761026d610786565b60200260200101519050600087838151811061028b5761028b610786565b6020026020010151905060008784815181106102a9576102a9610786565b6020026020010151905060008785815181106102c7576102c7610786565b60209081029190910101516040516302b844a960e21b81526001600160a01b038e8116600483018190526024830152919250600091851690630ae112a490604401602060405180830381865afa158015610325573d6000803e3d6000fd5b505050506040513d601f19601f82011682018060405250810190610349919061079c565b90506000198503610358578094505b84158061036457508085115b156103825760405163ee9052f960e01b815260040160405180910390fd5b604051639edd7b2360e01b8152600481018690526001600160a01b0385811660248301528481166044830152606482018490528e1690639edd7b23906084016020604051808303816000875af11580156103e0573d6000803e3d6000fd5b505050506040513d601f19601f8201168201806040525081019061040491906107b5565b50506001909401935061025192505050565b506001979650505050505050565b61042f60003361018f565b61044c57604051633dcaff7960e21b815260040160405180910390fd5b61018b82826104da565b610460828261018f565b61018b576000828152602081815260408083206001600160a01b03851684529091529020805460ff191660011790556104963390565b6001600160a01b0316816001600160a01b0316837f2f8788117e7eff1d82e926ec794901d17c78024a50270940304540a733656f0d60405160405180910390a45050565b6104e4828261018f565b1561018b576000828152602081815260408083206001600160a01b0385168085529252808320805460ff1916905551339285917ff6391f5c32d9c69d2a47ea670b442974b53935d1edc7fd64eb21e047a839171b9190a45050565b6001600160a01b038116811461055457600080fd5b50565b6000806040838503121561056a57600080fd5b82359150602083013561057c8161053f565b809150509250929050565b634e487b7160e01b600052604160045260246000fd5b604051601f8201601f191681016001600160401b03811182821017156105c5576105c5610587565b604052919050565b60006001600160401b038211156105e6576105e6610587565b5060051b60200190565b600082601f83011261060157600080fd5b81356020610616610611836105cd565b61059d565b8083825260208201915060208460051b87010193508684111561063857600080fd5b602086015b84811015610654578035835291830191830161063d565b509695505050505050565b600082601f83011261067057600080fd5b81356020610680610611836105cd565b8083825260208201915060208460051b8701019350868411156106a257600080fd5b602086015b848110156106545780356106ba8161053f565b83529183019183016106a7565b600080600080600060a086880312156106df57600080fd5b85356106ea8161053f565b945060208601356001600160401b038082111561070657600080fd5b61071289838a016105f0565b9550604088013591508082111561072857600080fd5b61073489838a0161065f565b9450606088013591508082111561074a57600080fd5b61075689838a0161065f565b9350608088013591508082111561076c57600080fd5b50610779888289016105f0565b9150509295509295909350565b634e487b7160e01b600052603260045260246000fd5b6000602082840312156107ae57600080fd5b5051919050565b6000602082840312156107c757600080fd5b815180151581146107d757600080fd5b939250505056fed8aa0f3194971a2a116679f7c2090f6939c8d4e01a2a8d7e41d55e5351469e63a264697066735822122089cab3e387699ca0f84a8dbf78ce126b10941e6f4f748bbc7e9dae803125526364736f6c63430008170033",
  "devdoc": {
    "custom:rebalancing-process": "The rebalancing process: 1. Validates the requested asset amount 2. Checks that the source provider has sufficient assets 3. Executes the rebalancing through the vault 4. Optionally activates the destination provider ",
    "custom:security": "Features: - Only authorized executors can trigger rebalancing - Validates asset amounts before execution - Prevents invalid rebalancing operations - Integrates with AccessManager for role-based permissions ",
    "custom:usage": "Example: ```solidity // Rebalance 1000 USDC from Aave to Morpho vaultManager.rebalanceVault(     usdcVault,     1000e6, // 1000 USDC     aaveProvider,     morphoProvider,     0, // No fee     true // Activate Morpho as active provider ); ```",
    "details": "This contract provides a secure interface for executing rebalancing operations      across different providers within vaults. It acts as an intermediary between      external operators and vault contracts. ",
    "errors": {
      "AccessManager__CallerIsNotAdmin()": [
        {
          "details": "Errors"
        }
      ],
      "VaultManager__InvalidCount()": [
        {
          "details": "Errors"
        }
      ]
    },
    "events": {
      "RoleGranted(bytes32,address,address)": {
        "details": "Emitted when `account` is granted `role`."
      },
      "RoleRevoked(bytes32,address,address)": {
        "details": "Emitted when `account` is revoked `role`."
      }
    },
    "kind": "dev",
    "methods": {
      "grantRole(bytes32,address)": {
        "details": "Grants `role` to `account`. If `account` had not been already granted `role`, emits a {RoleGranted} event. Requirements: - the caller must have the admin role. May emit a {RoleGranted} event."
      },
      "hasRole(bytes32,address)": {
        "details": "Returns `true` if `account` has been granted `role`."
      },
      "rebalanceVault(address,uint256[],address[],address[],uint256[])": {
        "params": {
          "amounts": "An array of asset amounts to be rebalanced.",
          "destinations": "An array of providers receiving the assets.",
          "fees": "An array of fee amounts charged for each rebalancing.",
          "sources": "An array of providers holding the assets.",
          "vault": "The vault undergoing rebalancing."
        }
      },
      "revokeRole(bytes32,address)": {
        "details": "Revokes `role` from `account`. If `account` had been granted `role`, emits a {RoleRevoked} event. Requirements: - the caller must have the admin role. May emit a {RoleRevoked} event."
      }
    },
    "title": "VaultManager",
    "version": 1
  },
  "userdoc": {
    "kind": "user",
    "methods": {
      "rebalanceVault(address,uint256[],address[],address[],uint256[])": {
        "notice": "Performs rebalancing of the vault by moving funds across providers."
      }
    },
    "notice": "Centralized manager for vault rebalancing operations",
    "version": 1
  },
  "storageLayout": {
    "storage": [
      {
        "astId": 9854,
        "contract": "contracts/VaultManager.sol:VaultManager",
        "label": "_roles",
        "offset": 0,
        "slot": "0",
        "type": "t_mapping(t_bytes32,t_mapping(t_address,t_bool))"
      }
    ],
    "types": {
      "t_address": {
        "encoding": "inplace",
        "label": "address",
        "numberOfBytes": "20"
      },
      "t_bool": {
        "encoding": "inplace",
        "label": "bool",
        "numberOfBytes": "1"
      },
      "t_bytes32": {
        "encoding": "inplace",
        "label": "bytes32",
        "numberOfBytes": "32"
      },
      "t_mapping(t_address,t_bool)": {
        "encoding": "mapping",
        "key": "t_address",
        "label": "mapping(address => bool)",
        "numberOfBytes": "32",
        "value": "t_bool"
      },
      "t_mapping(t_bytes32,t_mapping(t_address,t_bool))": {
        "encoding": "mapping",
        "key": "t_bytes32",
        "label": "mapping(bytes32 => mapping(address => bool))",
        "numberOfBytes": "32",
        "value": "t_mapping(t_address,t_bool)"
      }
    }
  }
}