{"abi":[{"type":"constructor","inputs":[{"name":"owner_","type":"address","internalType":"address"},{"name":"delay_","type":"uint256","internalType":"uint256"}],"stateMutability":"nonpayable"},{"type":"fallback","stateMutability":"payable"},{"type":"receive","stateMutability":"payable"},{"type":"function","name":"GRACE_PERIOD","inputs":[],"outputs":[{"name":"","type":"uint256","internalType":"uint256"}],"stateMutability":"view"},{"type":"function","name":"MAX_DELAY","inputs":[],"outputs":[{"name":"","type":"uint256","internalType":"uint256"}],"stateMutability":"view"},{"type":"function","name":"MIN_DELAY","inputs":[],"outputs":[{"name":"","type":"uint256","internalType":"uint256"}],"stateMutability":"view"},{"type":"function","name":"acceptOwnership","inputs":[],"outputs":[],"stateMutability":"nonpayable"},{"type":"function","name":"cancel","inputs":[{"name":"target","type":"address","internalType":"address"},{"name":"value","type":"uint256","internalType":"uint256"},{"name":"signature","type":"string","internalType":"string"},{"name":"data","type":"bytes","internalType":"bytes"},{"name":"timestamp","type":"uint256","internalType":"uint256"}],"outputs":[],"stateMutability":"nonpayable"},{"type":"function","name":"delay","inputs":[],"outputs":[{"name":"","type":"uint256","internalType":"uint256"}],"stateMutability":"view"},{"type":"function","name":"execute","inputs":[{"name":"target","type":"address","internalType":"address"},{"name":"value","type":"uint256","internalType":"uint256"},{"name":"signature","type":"string","internalType":"string"},{"name":"data","type":"bytes","internalType":"bytes"},{"name":"timestamp","type":"uint256","internalType":"uint256"}],"outputs":[{"name":"","type":"bytes","internalType":"bytes"}],"stateMutability":"payable"},{"type":"function","name":"owner","inputs":[],"outputs":[{"name":"","type":"address","internalType":"address"}],"stateMutability":"view"},{"type":"function","name":"pendingOwner","inputs":[],"outputs":[{"name":"","type":"address","internalType":"address"}],"stateMutability":"view"},{"type":"function","name":"queue","inputs":[{"name":"target","type":"address","internalType":"address"},{"name":"value","type":"uint256","internalType":"uint256"},{"name":"signature","type":"string","internalType":"string"},{"name":"data","type":"bytes","internalType":"bytes"},{"name":"timestamp","type":"uint256","internalType":"uint256"}],"outputs":[{"name":"","type":"bytes32","internalType":"bytes32"}],"stateMutability":"nonpayable"},{"type":"function","name":"queued","inputs":[{"name":"","type":"bytes32","internalType":"bytes32"}],"outputs":[{"name":"","type":"bool","internalType":"bool"}],"stateMutability":"view"},{"type":"function","name":"renounceOwnership","inputs":[],"outputs":[],"stateMutability":"nonpayable"},{"type":"function","name":"setDelay","inputs":[{"name":"_delay","type":"uint256","internalType":"uint256"}],"outputs":[],"stateMutability":"nonpayable"},{"type":"function","name":"transferOwnership","inputs":[{"name":"newOwner","type":"address","internalType":"address"}],"outputs":[],"stateMutability":"nonpayable"},{"type":"event","name":"Cancelled","inputs":[{"name":"txId","type":"bytes32","indexed":true,"internalType":"bytes32"},{"name":"target","type":"address","indexed":true,"internalType":"address"},{"name":"value","type":"uint256","indexed":false,"internalType":"uint256"},{"name":"signature","type":"string","indexed":false,"internalType":"string"},{"name":"data","type":"bytes","indexed":false,"internalType":"bytes"},{"name":"timestamp","type":"uint256","indexed":false,"internalType":"uint256"}],"anonymous":false},{"type":"event","name":"DelayUpdated","inputs":[{"name":"newDelay","type":"uint256","indexed":true,"internalType":"uint256"}],"anonymous":false},{"type":"event","name":"Executed","inputs":[{"name":"txId","type":"bytes32","indexed":true,"internalType":"bytes32"},{"name":"target","type":"address","indexed":true,"internalType":"address"},{"name":"value","type":"uint256","indexed":false,"internalType":"uint256"},{"name":"signature","type":"string","indexed":false,"internalType":"string"},{"name":"data","type":"bytes","indexed":false,"internalType":"bytes"},{"name":"timestamp","type":"uint256","indexed":false,"internalType":"uint256"}],"anonymous":false},{"type":"event","name":"OwnershipTransferStarted","inputs":[{"name":"previousOwner","type":"address","indexed":true,"internalType":"address"},{"name":"newOwner","type":"address","indexed":true,"internalType":"address"}],"anonymous":false},{"type":"event","name":"OwnershipTransferred","inputs":[{"name":"previousOwner","type":"address","indexed":true,"internalType":"address"},{"name":"newOwner","type":"address","indexed":true,"internalType":"address"}],"anonymous":false},{"type":"event","name":"Queued","inputs":[{"name":"txId","type":"bytes32","indexed":true,"internalType":"bytes32"},{"name":"target","type":"address","indexed":true,"internalType":"address"},{"name":"value","type":"uint256","indexed":false,"internalType":"uint256"},{"name":"signature","type":"string","indexed":false,"internalType":"string"},{"name":"data","type":"bytes","indexed":false,"internalType":"bytes"},{"name":"timestamp","type":"uint256","indexed":false,"internalType":"uint256"}],"anonymous":false},{"type":"error","name":"OwnableInvalidOwner","inputs":[{"name":"owner","type":"address","internalType":"address"}]},{"type":"error","name":"OwnableUnauthorizedAccount","inputs":[{"name":"account","type":"address","internalType":"address"}]},{"type":"error","name":"Timelock__ExecutionFailed","inputs":[]},{"type":"error","name":"Timelock__Expired","inputs":[]},{"type":"error","name":"Timelock__InvalidDelay","inputs":[]},{"type":"error","name":"Timelock__InvalidTimestamp","inputs":[]},{"type":"error","name":"Timelock__NotQueued","inputs":[]},{"type":"error","name":"Timelock__StillLocked","inputs":[]},{"type":"error","name":"Timelock__Unauthorized","inputs":[]}],"bytecode":{"object":"0x608060405234801562000010575f80fd5b50604051620016a6380380620016a68339818101604052810190620000369190620002ed565b815f73ffffffffffffffffffffffffffffffffffffffff168173ffffffffffffffffffffffffffffffffffffffff1603620000aa575f6040517f1e4fbdf7000000000000000000000000000000000000000000000000000000008152600401620000a1919062000343565b60405180910390fd5b620000bb81620000d560201b60201c565b50620000cd816200010d60201b60201c565b50506200035e565b60015f6101000a81549073ffffffffffffffffffffffffffffffffffffffff02191690556200010a816200018f60201b60201c565b50565b61070881108062000120575062278d0081115b1562000158576040517f78de463600000000000000000000000000000000000000000000000000000000815260040160405180910390fd5b80600381905550807f7ed9288af3fe7320be9af1fcb6714d780e3ffd1a17c1a395594978fd6741ddcb60405160405180910390a250565b5f805f9054906101000a900473ffffffffffffffffffffffffffffffffffffffff169050815f806101000a81548173ffffffffffffffffffffffffffffffffffffffff021916908373ffffffffffffffffffffffffffffffffffffffff1602179055508173ffffffffffffffffffffffffffffffffffffffff168173ffffffffffffffffffffffffffffffffffffffff167f8be0079c531659141344cd1fd0a4f28419497f9722a3daafe3b4186f6b6457e060405160405180910390a35050565b5f80fd5b5f73ffffffffffffffffffffffffffffffffffffffff82169050919050565b5f6200027f8262000254565b9050919050565b620002918162000273565b81146200029c575f80fd5b50565b5f81519050620002af8162000286565b92915050565b5f819050919050565b620002c981620002b5565b8114620002d4575f80fd5b50565b5f81519050620002e781620002be565b92915050565b5f806040838503121562000306576200030562000250565b5b5f62000315858286016200029f565b92505060206200032885828601620002d7565b9150509250929050565b6200033d8162000273565b82525050565b5f602082019050620003585f83018462000332565b92915050565b61133a806200036c5f395ff3fe6080604052600436106100e0575f3560e01c80638da5cb5b1161007e578063c1a287e211610058578063c1a287e21461028d578063e177246e146102b7578063e30c3978146102df578063f2fde38b14610309576100e7565b80638da5cb5b146102095780639f81aed714610233578063b0f8b1421461025d576100e7565b80634cdbfad6116100ba5780634cdbfad61461018b5780636a42b8f8146101b3578063715018a6146101dd57806379ba5097146101f3576100e7565b8063228250c9146100e95780634125ff90146101255780634b9915a51461014f576100e7565b366100e757005b005b3480156100f4575f80fd5b5061010f600480360381019061010a9190610c04565b610331565b60405161011c9190610c49565b60405180910390f35b348015610130575f80fd5b5061013961034e565b6040516101469190610c7a565b60405180910390f35b34801561015a575f80fd5b5061017560048036038101906101709190610ef1565b610355565b6040516101829190610faf565b60405180910390f35b348015610196575f80fd5b506101b160048036038101906101ac9190610ef1565b610462565b005b3480156101be575f80fd5b506101c7610521565b6040516101d49190610c7a565b60405180910390f35b3480156101e8575f80fd5b506101f1610527565b005b3480156101fe575f80fd5b5061020761053a565b005b348015610214575f80fd5b5061021d6105c8565b60405161022a9190610fd7565b60405180910390f35b34801561023e575f80fd5b506102476105ef565b6040516102549190610c7a565b60405180910390f35b61027760048036038101906102729190610ef1565b6105f5565b604051610284919061106a565b60405180910390f35b348015610298575f80fd5b506102a1610875565b6040516102ae9190610c7a565b60405180910390f35b3480156102c2575f80fd5b506102dd60048036038101906102d8919061108a565b61087c565b005b3480156102ea575f80fd5b506102f36108ed565b6040516103009190610fd7565b60405180910390f35b348015610314575f80fd5b5061032f600480360381019061032a91906110b5565b610915565b005b6002602052805f5260405f205f915054906101000a900460ff1681565b62278d0081565b5f61035e6109c1565b6003544261036c919061110d565b8210156103a5576040517f5b4e3c2200000000000000000000000000000000000000000000000000000000815260040160405180910390fd5b5f86868686866040516020016103bf959493929190611192565b604051602081830303815290604052805190602001209050600160025f8381526020019081526020015f205f6101000a81548160ff0219169083151502179055508673ffffffffffffffffffffffffffffffffffffffff16817fe6078611738a572e481d24f65dac585d324038a1b65b3ac7e16ad2975278a86b8888888860405161044d94939291906111f1565b60405180910390a38091505095945050505050565b61046a6109c1565b5f8585858585604051602001610484959493929190611192565b6040516020818303038152906040528051906020012090505f60025f8381526020019081526020015f205f6101000a81548160ff0219169083151502179055508573ffffffffffffffffffffffffffffffffffffffff16817f147c9d8001e3b0105fed2cf093029b86ccdc816c1beb9ba2746376c92f9c07968787878760405161051194939291906111f1565b60405180910390a3505050505050565b60035481565b61052f6109c1565b6105385f610a48565b565b5f610543610a78565b90508073ffffffffffffffffffffffffffffffffffffffff166105646108ed565b73ffffffffffffffffffffffffffffffffffffffff16146105bc57806040517f118cdaa70000000000000000000000000000000000000000000000000000000081526004016105b39190610fd7565b60405180910390fd5b6105c581610a48565b50565b5f805f9054906101000a900473ffffffffffffffffffffffffffffffffffffffff16905090565b61070881565b60606105ff6109c1565b5f8686868686604051602001610619959493929190611192565b60405160208183030381529060405280519060200120905060025f8281526020019081526020015f205f9054906101000a900460ff16610685576040517f5e6b0baa00000000000000000000000000000000000000000000000000000000815260040160405180910390fd5b824210156106bf576040517f22674bc400000000000000000000000000000000000000000000000000000000815260040160405180910390fd5b62127500836106ce919061110d565b421115610707576040517fa307fe2000000000000000000000000000000000000000000000000000000000815260040160405180910390fd5b5f60025f8381526020019081526020015f205f6101000a81548160ff02191690831515021790555060605f8651036107415784905061076d565b85805190602001208560405160200161075b9291906112c7565b60405160208183030381529060405290505b5f808973ffffffffffffffffffffffffffffffffffffffff16898460405161079591906112ee565b5f6040518083038185875af1925050503d805f81146107cf576040519150601f19603f3d011682016040523d82523d5f602084013e6107d4565b606091505b509150915081610810576040517fcfec1b0400000000000000000000000000000000000000000000000000000000815260040160405180910390fd5b8973ffffffffffffffffffffffffffffffffffffffff16847f4d89696b1438d0f9c59a98b32692918d0505bb64c719b1f94f306b6333d7c77b8b8b8b8b60405161085d94939291906111f1565b60405180910390a38094505050505095945050505050565b6212750081565b3073ffffffffffffffffffffffffffffffffffffffff163373ffffffffffffffffffffffffffffffffffffffff16146108e1576040517ffcd5c78200000000000000000000000000000000000000000000000000000000815260040160405180910390fd5b6108ea81610a7f565b50565b5f60015f9054906101000a900473ffffffffffffffffffffffffffffffffffffffff16905090565b61091d6109c1565b8060015f6101000a81548173ffffffffffffffffffffffffffffffffffffffff021916908373ffffffffffffffffffffffffffffffffffffffff1602179055508073ffffffffffffffffffffffffffffffffffffffff1661097c6105c8565b73ffffffffffffffffffffffffffffffffffffffff167f38d16b8cac22d99fc7c124b9cd0de2d3fa1faef420bfe791d8c362d765e2270060405160405180910390a350565b6109c9610a78565b73ffffffffffffffffffffffffffffffffffffffff166109e76105c8565b73ffffffffffffffffffffffffffffffffffffffff1614610a4657610a0a610a78565b6040517f118cdaa7000000000000000000000000000000000000000000000000000000008152600401610a3d9190610fd7565b60405180910390fd5b565b60015f6101000a81549073ffffffffffffffffffffffffffffffffffffffff0219169055610a7581610aff565b50565b5f33905090565b610708811080610a91575062278d0081115b15610ac8576040517f78de463600000000000000000000000000000000000000000000000000000000815260040160405180910390fd5b80600381905550807f7ed9288af3fe7320be9af1fcb6714d780e3ffd1a17c1a395594978fd6741ddcb60405160405180910390a250565b5f805f9054906101000a900473ffffffffffffffffffffffffffffffffffffffff169050815f806101000a81548173ffffffffffffffffffffffffffffffffffffffff021916908373ffffffffffffffffffffffffffffffffffffffff1602179055508173ffffffffffffffffffffffffffffffffffffffff168173ffffffffffffffffffffffffffffffffffffffff167f8be0079c531659141344cd1fd0a4f28419497f9722a3daafe3b4186f6b6457e060405160405180910390a35050565b5f604051905090565b5f80fd5b5f80fd5b5f819050919050565b610be381610bd1565b8114610bed575f80fd5b50565b5f81359050610bfe81610bda565b92915050565b5f60208284031215610c1957610c18610bc9565b5b5f610c2684828501610bf0565b91505092915050565b5f8115159050919050565b610c4381610c2f565b82525050565b5f602082019050610c5c5f830184610c3a565b92915050565b5f819050919050565b610c7481610c62565b82525050565b5f602082019050610c8d5f830184610c6b565b92915050565b5f73ffffffffffffffffffffffffffffffffffffffff82169050919050565b5f610cbc82610c93565b9050919050565b610ccc81610cb2565b8114610cd6575f80fd5b50565b5f81359050610ce781610cc3565b92915050565b610cf681610c62565b8114610d00575f80fd5b50565b5f81359050610d1181610ced565b92915050565b5f80fd5b5f80fd5b5f601f19601f8301169050919050565b7f4e487b71000000000000000000000000000000000000000000000000000000005f52604160045260245ffd5b610d6582610d1f565b810181811067ffffffffffffffff82111715610d8457610d83610d2f565b5b80604052505050565b5f610d96610bc0565b9050610da28282610d5c565b919050565b5f67ffffffffffffffff821115610dc157610dc0610d2f565b5b610dca82610d1f565b9050602081019050919050565b828183375f83830152505050565b5f610df7610df284610da7565b610d8d565b905082815260208101848484011115610e1357610e12610d1b565b5b610e1e848285610dd7565b509392505050565b5f82601f830112610e3a57610e39610d17565b5b8135610e4a848260208601610de5565b91505092915050565b5f67ffffffffffffffff821115610e6d57610e6c610d2f565b5b610e7682610d1f565b9050602081019050919050565b5f610e95610e9084610e53565b610d8d565b905082815260208101848484011115610eb157610eb0610d1b565b5b610ebc848285610dd7565b509392505050565b5f82601f830112610ed857610ed7610d17565b5b8135610ee8848260208601610e83565b91505092915050565b5f805f805f60a08688031215610f0a57610f09610bc9565b5b5f610f1788828901610cd9565b9550506020610f2888828901610d03565b945050604086013567ffffffffffffffff811115610f4957610f48610bcd565b5b610f5588828901610e26565b935050606086013567ffffffffffffffff811115610f7657610f75610bcd565b5b610f8288828901610ec4565b9250506080610f9388828901610d03565b9150509295509295909350565b610fa981610bd1565b82525050565b5f602082019050610fc25f830184610fa0565b92915050565b610fd181610cb2565b82525050565b5f602082019050610fea5f830184610fc8565b92915050565b5f81519050919050565b5f82825260208201905092915050565b5f5b8381101561102757808201518184015260208101905061100c565b5f8484015250505050565b5f61103c82610ff0565b6110468185610ffa565b935061105681856020860161100a565b61105f81610d1f565b840191505092915050565b5f6020820190508181035f8301526110828184611032565b905092915050565b5f6020828403121561109f5761109e610bc9565b5b5f6110ac84828501610d03565b91505092915050565b5f602082840312156110ca576110c9610bc9565b5b5f6110d784828501610cd9565b91505092915050565b7f4e487b71000000000000000000000000000000000000000000000000000000005f52601160045260245ffd5b5f61111782610c62565b915061112283610c62565b925082820190508082111561113a576111396110e0565b5b92915050565b5f81519050919050565b5f82825260208201905092915050565b5f61116482611140565b61116e818561114a565b935061117e81856020860161100a565b61118781610d1f565b840191505092915050565b5f60a0820190506111a55f830188610fc8565b6111b26020830187610c6b565b81810360408301526111c4818661115a565b905081810360608301526111d88185611032565b90506111e76080830184610c6b565b9695505050505050565b5f6080820190506112045f830187610c6b565b8181036020830152611216818661115a565b9050818103604083015261122a8185611032565b90506112396060830184610c6b565b95945050505050565b5f7fffffffff0000000000000000000000000000000000000000000000000000000082169050919050565b5f819050919050565b61128761128282611242565b61126d565b82525050565b5f81905092915050565b5f6112a182610ff0565b6112ab818561128d565b93506112bb81856020860161100a565b80840191505092915050565b5f6112d28285611276565b6004820191506112e28284611297565b91508190509392505050565b5f6112f98284611297565b91508190509291505056fea2646970667358221220636b71865862fec90f2a989c9d4302d4980ded8cbc938477937707711b32ec8364736f6c63430008170033","linkReferences":{}},"methodIdentifiers":{"GRACE_PERIOD()":"c1a287e2","MAX_DELAY()":"4125ff90","MIN_DELAY()":"9f81aed7","acceptOwnership()":"79ba5097","cancel(address,uint256,string,bytes,uint256)":"4cdbfad6","delay()":"6a42b8f8","execute(address,uint256,string,bytes,uint256)":"b0f8b142","owner()":"8da5cb5b","pendingOwner()":"e30c3978","queue(address,uint256,string,bytes,uint256)":"4b9915a5","queued(bytes32)":"228250c9","renounceOwnership()":"715018a6","setDelay(uint256)":"e177246e","transferOwnership(address)":"f2fde38b"},"id":3}