{"abi":[{"type":"constructor","inputs":[],"stateMutability":"nonpayable"},{"type":"function","name":"ADMIN_ROLE","inputs":[],"outputs":[{"name":"","type":"bytes32","internalType":"bytes32"}],"stateMutability":"view"},{"type":"function","name":"EXECUTOR_ROLE","inputs":[],"outputs":[{"name":"","type":"bytes32","internalType":"bytes32"}],"stateMutability":"view"},{"type":"function","name":"OPERATOR_ROLE","inputs":[],"outputs":[{"name":"","type":"bytes32","internalType":"bytes32"}],"stateMutability":"view"},{"type":"function","name":"ROOT_UPDATER_ROLE","inputs":[],"outputs":[{"name":"","type":"bytes32","internalType":"bytes32"}],"stateMutability":"view"},{"type":"function","name":"grantRole","inputs":[{"name":"role","type":"bytes32","internalType":"bytes32"},{"name":"account","type":"address","internalType":"address"}],"outputs":[],"stateMutability":"nonpayable"},{"type":"function","name":"hasRole","inputs":[{"name":"role","type":"bytes32","internalType":"bytes32"},{"name":"account","type":"address","internalType":"address"}],"outputs":[{"name":"","type":"bool","internalType":"bool"}],"stateMutability":"view"},{"type":"function","name":"revokeRole","inputs":[{"name":"role","type":"bytes32","internalType":"bytes32"},{"name":"account","type":"address","internalType":"address"}],"outputs":[],"stateMutability":"nonpayable"},{"type":"event","name":"RoleGranted","inputs":[{"name":"role","type":"bytes32","indexed":true,"internalType":"bytes32"},{"name":"account","type":"address","indexed":true,"internalType":"address"},{"name":"sender","type":"address","indexed":true,"internalType":"address"}],"anonymous":false},{"type":"event","name":"RoleRevoked","inputs":[{"name":"role","type":"bytes32","indexed":true,"internalType":"bytes32"},{"name":"account","type":"address","indexed":true,"internalType":"address"},{"name":"sender","type":"address","indexed":true,"internalType":"address"}],"anonymous":false},{"type":"error","name":"AccessManager__CallerIsNotAdmin","inputs":[]},{"type":"error","name":"AccessManager__CallerIsNotExecutor","inputs":[]},{"type":"error","name":"AccessManager__CallerIsNotOperator","inputs":[]},{"type":"error","name":"AccessManager__CallerIsNotRootUpdater","inputs":[]}],"bytecode":{"object":"0x608060405234801561000f575f80fd5b5061002f5f801b61002461003460201b60201c565b61003b60201b60201c565b610180565b5f33905090565b61004b828261011f60201b60201c565b61011b5760015f808481526020019081526020015f205f8373ffffffffffffffffffffffffffffffffffffffff1673ffffffffffffffffffffffffffffffffffffffff1681526020019081526020015f205f6101000a81548160ff0219169083151502179055506100c061003460201b60201c565b73ffffffffffffffffffffffffffffffffffffffff168173ffffffffffffffffffffffffffffffffffffffff16837f2f8788117e7eff1d82e926ec794901d17c78024a50270940304540a733656f0d60405160405180910390a45b5050565b5f805f8481526020019081526020015f205f8373ffffffffffffffffffffffffffffffffffffffff1673ffffffffffffffffffffffffffffffffffffffff1681526020019081526020015f205f9054906101000a900460ff16905092915050565b6105f68061018d5f395ff3fe608060405234801561000f575f80fd5b506004361061007b575f3560e01c806391d148541161005957806391d14854146100d7578063d547741f14610107578063d9ab2c5c14610123578063f5b541a6146101415761007b565b806307bd02651461007f5780632f2ff15d1461009d57806375b238fc146100b9575b5f80fd5b61008761015f565b60405161009491906104ae565b60405180910390f35b6100b760048036038101906100b2919061054f565b610183565b005b6100c16101da565b6040516100ce91906104ae565b60405180910390f35b6100f160048036038101906100ec919061054f565b6101e0565b6040516100fe91906105a7565b60405180910390f35b610121600480360381019061011c919061054f565b610241565b005b61012b610298565b60405161013891906104ae565b60405180910390f35b6101496102bb565b60405161015691906104ae565b60405180910390f35b7fd8aa0f3194971a2a116679f7c2090f6939c8d4e01a2a8d7e41d55e5351469e6381565b6101965f801b6101916102df565b6101e0565b6101cc576040517ff72bfde400000000000000000000000000000000000000000000000000000000815260040160405180910390fd5b6101d682826102e6565b5050565b5f801b81565b5f805f8481526020019081526020015f205f8373ffffffffffffffffffffffffffffffffffffffff1673ffffffffffffffffffffffffffffffffffffffff1681526020019081526020015f205f9054906101000a900460ff16905092915050565b6102545f801b61024f6102df565b6101e0565b61028a576040517ff72bfde400000000000000000000000000000000000000000000000000000000815260040160405180910390fd5b61029482826103be565b5050565b7e9ab23a1010d07a0450a1fbea1d84169b57d2c2273b54bff0f20c3e90199b5d81565b7f97667070c54ef182b0f5858b034beac1b6f3089aa2d3188bb1e8929f4fa9b92981565b5f33905090565b6102f082826101e0565b6103ba5760015f808481526020019081526020015f205f8373ffffffffffffffffffffffffffffffffffffffff1673ffffffffffffffffffffffffffffffffffffffff1681526020019081526020015f205f6101000a81548160ff02191690831515021790555061035f6102df565b73ffffffffffffffffffffffffffffffffffffffff168173ffffffffffffffffffffffffffffffffffffffff16837f2f8788117e7eff1d82e926ec794901d17c78024a50270940304540a733656f0d60405160405180910390a45b5050565b6103c882826101e0565b15610492575f805f8481526020019081526020015f205f8373ffffffffffffffffffffffffffffffffffffffff1673ffffffffffffffffffffffffffffffffffffffff1681526020019081526020015f205f6101000a81548160ff0219169083151502179055506104376102df565b73ffffffffffffffffffffffffffffffffffffffff168173ffffffffffffffffffffffffffffffffffffffff16837ff6391f5c32d9c69d2a47ea670b442974b53935d1edc7fd64eb21e047a839171b60405160405180910390a45b5050565b5f819050919050565b6104a881610496565b82525050565b5f6020820190506104c15f83018461049f565b92915050565b5f80fd5b6104d481610496565b81146104de575f80fd5b50565b5f813590506104ef816104cb565b92915050565b5f73ffffffffffffffffffffffffffffffffffffffff82169050919050565b5f61051e826104f5565b9050919050565b61052e81610514565b8114610538575f80fd5b50565b5f8135905061054981610525565b92915050565b5f8060408385031215610565576105646104c7565b5b5f610572858286016104e1565b92505060206105838582860161053b565b9150509250929050565b5f8115159050919050565b6105a18161058d565b82525050565b5f6020820190506105ba5f830184610598565b9291505056fea2646970667358221220076092ff5774c20d74763d02304e4dc71c610a7498fd742f706816db61b6834064736f6c63430008170033","linkReferences":{}},"methodIdentifiers":{"ADMIN_ROLE()":"75b238fc","EXECUTOR_ROLE()":"07bd0265","OPERATOR_ROLE()":"f5b541a6","ROOT_UPDATER_ROLE()":"d9ab2c5c","grantRole(bytes32,address)":"2f2ff15d","hasRole(bytes32,address)":"91d14854","revokeRole(bytes32,address)":"d547741f"},"id":5}