{"abi":[{"type":"function","name":"ADMIN_ROLE","inputs":[],"outputs":[{"name":"","type":"bytes32","internalType":"bytes32"}],"stateMutability":"view"},{"type":"function","name":"EXECUTOR_ROLE","inputs":[],"outputs":[{"name":"","type":"bytes32","internalType":"bytes32"}],"stateMutability":"view"},{"type":"function","name":"OPERATOR_ROLE","inputs":[],"outputs":[{"name":"","type":"bytes32","internalType":"bytes32"}],"stateMutability":"view"},{"type":"function","name":"ROOT_UPDATER_ROLE","inputs":[],"outputs":[{"name":"","type":"bytes32","internalType":"bytes32"}],"stateMutability":"view"},{"type":"function","name":"grantRole","inputs":[{"name":"role","type":"bytes32","internalType":"bytes32"},{"name":"account","type":"address","internalType":"address"}],"outputs":[],"stateMutability":"nonpayable"},{"type":"function","name":"hasRole","inputs":[{"name":"role","type":"bytes32","internalType":"bytes32"},{"name":"account","type":"address","internalType":"address"}],"outputs":[{"name":"","type":"bool","internalType":"bool"}],"stateMutability":"view"},{"type":"function","name":"rebalanceVault","inputs":[{"name":"vault","type":"address","internalType":"contract IVault"},{"name":"assets","type":"uint256","internalType":"uint256"},{"name":"from","type":"address","internalType":"contract IProvider"},{"name":"to","type":"address","internalType":"contract IProvider"},{"name":"fee","type":"uint256","internalType":"uint256"},{"name":"activateToProvider","type":"bool","internalType":"bool"}],"outputs":[{"name":"success","type":"bool","internalType":"bool"}],"stateMutability":"nonpayable"},{"type":"function","name":"revokeRole","inputs":[{"name":"role","type":"bytes32","internalType":"bytes32"},{"name":"account","type":"address","internalType":"address"}],"outputs":[],"stateMutability":"nonpayable"},{"type":"event","name":"RoleGranted","inputs":[{"name":"role","type":"bytes32","indexed":true,"internalType":"bytes32"},{"name":"account","type":"address","indexed":true,"internalType":"address"},{"name":"sender","type":"address","indexed":true,"internalType":"address"}],"anonymous":false},{"type":"event","name":"RoleRevoked","inputs":[{"name":"role","type":"bytes32","indexed":true,"internalType":"bytes32"},{"name":"account","type":"address","indexed":true,"internalType":"address"},{"name":"sender","type":"address","indexed":true,"internalType":"address"}],"anonymous":false},{"type":"error","name":"AccessManager__CallerIsNotAdmin","inputs":[]},{"type":"error","name":"AccessManager__CallerIsNotExecutor","inputs":[]},{"type":"error","name":"AccessManager__CallerIsNotOperator","inputs":[]},{"type":"error","name":"AccessManager__CallerIsNotRootUpdater","inputs":[]},{"type":"error","name":"VaultManager__InvalidAssetAmount","inputs":[]}],"bytecode":{"object":"0x608060405234801561000f575f80fd5b5061002f5f801b61002461003460201b60201c565b61003b60201b60201c565b610180565b5f33905090565b61004b828261011f60201b60201c565b61011b5760015f808481526020019081526020015f205f8373ffffffffffffffffffffffffffffffffffffffff1673ffffffffffffffffffffffffffffffffffffffff1681526020019081526020015f205f6101000a81548160ff0219169083151502179055506100c061003460201b60201c565b73ffffffffffffffffffffffffffffffffffffffff168173ffffffffffffffffffffffffffffffffffffffff16837f2f8788117e7eff1d82e926ec794901d17c78024a50270940304540a733656f0d60405160405180910390a45b5050565b5f805f8481526020019081526020015f205f8373ffffffffffffffffffffffffffffffffffffffff1673ffffffffffffffffffffffffffffffffffffffff1681526020019081526020015f205f9054906101000a900460ff16905092915050565b610b018061018d5f395ff3fe608060405234801561000f575f80fd5b5060043610610086575f3560e01c806391d148541161005957806391d1485414610112578063d547741f14610142578063d9ab2c5c1461015e578063f5b541a61461017c57610086565b806307bd02651461008a578063190e2863146100a85780632f2ff15d146100d857806375b238fc146100f4575b5f80fd5b61009261019a565b60405161009f91906106ce565b60405180910390f35b6100c260048036038101906100bd91906107f9565b6101be565b6040516100cf9190610891565b60405180910390f35b6100f260048036038101906100ed91906108fe565b6103a3565b005b6100fc6103fa565b60405161010991906106ce565b60405180910390f35b61012c600480360381019061012791906108fe565b610400565b6040516101399190610891565b60405180910390f35b61015c600480360381019061015791906108fe565b610461565b005b6101666104b8565b60405161017391906106ce565b60405180910390f35b6101846104db565b60405161019191906106ce565b60405180910390f35b7fd8aa0f3194971a2a116679f7c2090f6939c8d4e01a2a8d7e41d55e5351469e6381565b5f6101f07fd8aa0f3194971a2a116679f7c2090f6939c8d4e01a2a8d7e41d55e5351469e636101eb6104ff565b610400565b610226576040517f3f9135d300000000000000000000000000000000000000000000000000000000815260040160405180910390fd5b5f8573ffffffffffffffffffffffffffffffffffffffff16630ae112a4898a6040518363ffffffff1660e01b81526004016102629291906109a6565b602060405180830381865afa15801561027d573d5f803e3d5ffd5b505050506040513d601f19601f820116820180604052508101906102a191906109e1565b90507fffffffffffffffffffffffffffffffffffffffffffffffffffffffffffffffff87036102ce578096505b5f8714806102db57508087115b15610312576040517fee9052f900000000000000000000000000000000000000000000000000000000815260040160405180910390fd5b8773ffffffffffffffffffffffffffffffffffffffff16637abac32988888888886040518663ffffffff1660e01b8152600401610353959493929190610a3b565b6020604051808303815f875af115801561036f573d5f803e3d5ffd5b505050506040513d601f19601f820116820180604052508101906103939190610aa0565b5060019150509695505050505050565b6103b65f801b6103b16104ff565b610400565b6103ec576040517ff72bfde400000000000000000000000000000000000000000000000000000000815260040160405180910390fd5b6103f68282610506565b5050565b5f801b81565b5f805f8481526020019081526020015f205f8373ffffffffffffffffffffffffffffffffffffffff1673ffffffffffffffffffffffffffffffffffffffff1681526020019081526020015f205f9054906101000a900460ff16905092915050565b6104745f801b61046f6104ff565b610400565b6104aa576040517ff72bfde400000000000000000000000000000000000000000000000000000000815260040160405180910390fd5b6104b482826105de565b5050565b7e9ab23a1010d07a0450a1fbea1d84169b57d2c2273b54bff0f20c3e90199b5d81565b7f97667070c54ef182b0f5858b034beac1b6f3089aa2d3188bb1e8929f4fa9b92981565b5f33905090565b6105108282610400565b6105da5760015f808481526020019081526020015f205f8373ffffffffffffffffffffffffffffffffffffffff1673ffffffffffffffffffffffffffffffffffffffff1681526020019081526020015f205f6101000a81548160ff02191690831515021790555061057f6104ff565b73ffffffffffffffffffffffffffffffffffffffff168173ffffffffffffffffffffffffffffffffffffffff16837f2f8788117e7eff1d82e926ec794901d17c78024a50270940304540a733656f0d60405160405180910390a45b5050565b6105e88282610400565b156106b2575f805f8481526020019081526020015f205f8373ffffffffffffffffffffffffffffffffffffffff1673ffffffffffffffffffffffffffffffffffffffff1681526020019081526020015f205f6101000a81548160ff0219169083151502179055506106576104ff565b73ffffffffffffffffffffffffffffffffffffffff168173ffffffffffffffffffffffffffffffffffffffff16837ff6391f5c32d9c69d2a47ea670b442974b53935d1edc7fd64eb21e047a839171b60405160405180910390a45b5050565b5f819050919050565b6106c8816106b6565b82525050565b5f6020820190506106e15f8301846106bf565b92915050565b5f80fd5b5f73ffffffffffffffffffffffffffffffffffffffff82169050919050565b5f610714826106eb565b9050919050565b5f6107258261070a565b9050919050565b6107358161071b565b811461073f575f80fd5b50565b5f813590506107508161072c565b92915050565b5f819050919050565b61076881610756565b8114610772575f80fd5b50565b5f813590506107838161075f565b92915050565b5f6107938261070a565b9050919050565b6107a381610789565b81146107ad575f80fd5b50565b5f813590506107be8161079a565b92915050565b5f8115159050919050565b6107d8816107c4565b81146107e2575f80fd5b50565b5f813590506107f3816107cf565b92915050565b5f805f805f8060c08789031215610813576108126106e7565b5b5f61082089828a01610742565b965050602061083189828a01610775565b955050604061084289828a016107b0565b945050606061085389828a016107b0565b935050608061086489828a01610775565b92505060a061087589828a016107e5565b9150509295509295509295565b61088b816107c4565b82525050565b5f6020820190506108a45f830184610882565b92915050565b6108b3816106b6565b81146108bd575f80fd5b50565b5f813590506108ce816108aa565b92915050565b6108dd8161070a565b81146108e7575f80fd5b50565b5f813590506108f8816108d4565b92915050565b5f8060408385031215610914576109136106e7565b5b5f610921858286016108c0565b9250506020610932858286016108ea565b9150509250929050565b6109458161070a565b82525050565b5f819050919050565b5f61096e610969610964846106eb565b61094b565b6106eb565b9050919050565b5f61097f82610954565b9050919050565b5f61099082610975565b9050919050565b6109a081610986565b82525050565b5f6040820190506109b95f83018561093c565b6109c66020830184610997565b9392505050565b5f815190506109db8161075f565b92915050565b5f602082840312156109f6576109f56106e7565b5b5f610a03848285016109cd565b91505092915050565b610a1581610756565b82525050565b5f610a2582610975565b9050919050565b610a3581610a1b565b82525050565b5f60a082019050610a4e5f830188610a0c565b610a5b6020830187610a2c565b610a686040830186610a2c565b610a756060830185610a0c565b610a826080830184610882565b9695505050505050565b5f81519050610a9a816107cf565b92915050565b5f60208284031215610ab557610ab46106e7565b5b5f610ac284828501610a8c565b9150509291505056fea264697066735822122052fd5cc2129e08d163f81e877c61f7a2c1ccd7b6db837b62d535123c0cbd846064736f6c63430008170033","linkReferences":{}},"methodIdentifiers":{"ADMIN_ROLE()":"75b238fc","EXECUTOR_ROLE()":"07bd0265","OPERATOR_ROLE()":"f5b541a6","ROOT_UPDATER_ROLE()":"d9ab2c5c","grantRole(bytes32,address)":"2f2ff15d","hasRole(bytes32,address)":"91d14854","rebalanceVault(address,uint256,address,address,uint256,bool)":"190e2863","revokeRole(bytes32,address)":"d547741f"},"id":4}