{"abi":[{"type":"function","name":"ADMIN_ROLE","inputs":[],"outputs":[{"name":"","type":"bytes32","internalType":"bytes32"}],"stateMutability":"view"},{"type":"function","name":"EXECUTOR_ROLE","inputs":[],"outputs":[{"name":"","type":"bytes32","internalType":"bytes32"}],"stateMutability":"view"},{"type":"function","name":"OPERATOR_ROLE","inputs":[],"outputs":[{"name":"","type":"bytes32","internalType":"bytes32"}],"stateMutability":"view"},{"type":"function","name":"ROOT_UPDATER_ROLE","inputs":[],"outputs":[{"name":"","type":"bytes32","internalType":"bytes32"}],"stateMutability":"view"},{"type":"function","name":"getIdentifiers","inputs":[],"outputs":[{"name":"","type":"string[]","internalType":"string[]"}],"stateMutability":"view"},{"type":"function","name":"getMarket","inputs":[{"name":"identifier","type":"string","internalType":"string"},{"name":"assetOne","type":"address","internalType":"address"},{"name":"assetTwo","type":"address","internalType":"address"}],"outputs":[{"name":"","type":"address","internalType":"address"}],"stateMutability":"view"},{"type":"function","name":"getYieldToken","inputs":[{"name":"identifier","type":"string","internalType":"string"},{"name":"asset","type":"address","internalType":"address"}],"outputs":[{"name":"","type":"address","internalType":"address"}],"stateMutability":"view"},{"type":"function","name":"grantRole","inputs":[{"name":"role","type":"bytes32","internalType":"bytes32"},{"name":"account","type":"address","internalType":"address"}],"outputs":[],"stateMutability":"nonpayable"},{"type":"function","name":"hasRole","inputs":[{"name":"role","type":"bytes32","internalType":"bytes32"},{"name":"account","type":"address","internalType":"address"}],"outputs":[{"name":"","type":"bool","internalType":"bool"}],"stateMutability":"view"},{"type":"function","name":"revokeRole","inputs":[{"name":"role","type":"bytes32","internalType":"bytes32"},{"name":"account","type":"address","internalType":"address"}],"outputs":[],"stateMutability":"nonpayable"},{"type":"function","name":"setMarket","inputs":[{"name":"identifier","type":"string","internalType":"string"},{"name":"assetOne","type":"address","internalType":"address"},{"name":"assetTwo","type":"address","internalType":"address"},{"name":"market","type":"address","internalType":"address"}],"outputs":[],"stateMutability":"nonpayable"},{"type":"function","name":"setYieldToken","inputs":[{"name":"identifier","type":"string","internalType":"string"},{"name":"asset","type":"address","internalType":"address"},{"name":"yieldToken","type":"address","internalType":"address"}],"outputs":[],"stateMutability":"nonpayable"},{"type":"event","name":"MarketUpdated","inputs":[{"name":"identifier","type":"string","indexed":false,"internalType":"string"},{"name":"assetOne","type":"address","indexed":true,"internalType":"address"},{"name":"assetTwo","type":"address","indexed":true,"internalType":"address"},{"name":"market","type":"address","indexed":false,"internalType":"address"}],"anonymous":false},{"type":"event","name":"RoleGranted","inputs":[{"name":"role","type":"bytes32","indexed":true,"internalType":"bytes32"},{"name":"account","type":"address","indexed":true,"internalType":"address"},{"name":"sender","type":"address","indexed":true,"internalType":"address"}],"anonymous":false},{"type":"event","name":"RoleRevoked","inputs":[{"name":"role","type":"bytes32","indexed":true,"internalType":"bytes32"},{"name":"account","type":"address","indexed":true,"internalType":"address"},{"name":"sender","type":"address","indexed":true,"internalType":"address"}],"anonymous":false},{"type":"event","name":"YieldTokenUpdated","inputs":[{"name":"identifier","type":"string","indexed":false,"internalType":"string"},{"name":"asset","type":"address","indexed":true,"internalType":"address"},{"name":"yieldToken","type":"address","indexed":false,"internalType":"address"}],"anonymous":false},{"type":"error","name":"AccessManager__CallerIsNotAdmin","inputs":[]},{"type":"error","name":"AccessManager__CallerIsNotExecutor","inputs":[]},{"type":"error","name":"AccessManager__CallerIsNotOperator","inputs":[]},{"type":"error","name":"AccessManager__CallerIsNotRootUpdater","inputs":[]}],"bytecode":{"object":"0x608060405234801561000f575f80fd5b5061002f5f801b61002461003460201b60201c565b61003b60201b60201c565b610180565b5f33905090565b61004b828261011f60201b60201c565b61011b5760015f808481526020019081526020015f205f8373ffffffffffffffffffffffffffffffffffffffff1673ffffffffffffffffffffffffffffffffffffffff1681526020019081526020015f205f6101000a81548160ff0219169083151502179055506100c061003460201b60201c565b73ffffffffffffffffffffffffffffffffffffffff168173ffffffffffffffffffffffffffffffffffffffff16837f2f8788117e7eff1d82e926ec794901d17c78024a50270940304540a733656f0d60405160405180910390a45b5050565b5f805f8481526020019081526020015f205f8373ffffffffffffffffffffffffffffffffffffffff1673ffffffffffffffffffffffffffffffffffffffff1681526020019081526020015f205f9054906101000a900460ff16905092915050565b611488806200018e5f395ff3fe608060405234801561000f575f80fd5b50600436106100b2575f3560e01c8063a4770a881161006f578063a4770a881461018a578063a8d01ca9146101a8578063c41adf50146101c4578063d547741f146101f4578063d9ab2c5c14610210578063f5b541a61461022e576100b2565b806307bd0265146100b65780632f2ff15d146100d457806375b238fc146100f0578063784260d61461010e57806391d148541461013e57806395c8193a1461016e575b5f80fd5b6100be61024c565b6040516100cb9190610b9c565b60405180910390f35b6100ee60048036038101906100e99190610c4a565b610270565b005b6100f86102c7565b6040516101059190610b9c565b60405180910390f35b61012860048036038101906101239190610dc4565b6102cd565b6040516101359190610e3f565b60405180910390f35b61015860048036038101906101539190610c4a565b61038b565b6040516101659190610e72565b60405180910390f35b61018860048036038101906101839190610dc4565b6103ec565b005b6101926105b9565b60405161019f9190610fc0565b60405180910390f35b6101c260048036038101906101bd9190610fe0565b61068d565b005b6101de60048036038101906101d99190611060565b6108ad565b6040516101eb9190610e3f565b60405180910390f35b61020e60048036038101906102099190610c4a565b61092f565b005b610218610986565b6040516102259190610b9c565b60405180910390f35b6102366109a9565b6040516102439190610b9c565b60405180910390f35b7fd8aa0f3194971a2a116679f7c2090f6939c8d4e01a2a8d7e41d55e5351469e6381565b6102835f801b61027e6109cd565b61038b565b6102b9576040517ff72bfde400000000000000000000000000000000000000000000000000000000815260040160405180910390fd5b6102c382826109d4565b5050565b5f801b81565b5f6002846040516102de91906110f4565b90815260200160405180910390205f8473ffffffffffffffffffffffffffffffffffffffff1673ffffffffffffffffffffffffffffffffffffffff1681526020019081526020015f205f8373ffffffffffffffffffffffffffffffffffffffff1673ffffffffffffffffffffffffffffffffffffffff1681526020019081526020015f205f9054906101000a900473ffffffffffffffffffffffffffffffffffffffff1690509392505050565b5f805f8481526020019081526020015f205f8373ffffffffffffffffffffffffffffffffffffffff1673ffffffffffffffffffffffffffffffffffffffff1681526020019081526020015f205f9054906101000a900460ff16905092915050565b6103ff5f801b6103fa6109cd565b61038b565b610435576040517ff72bfde400000000000000000000000000000000000000000000000000000000815260040160405180910390fd5b60038360405161044591906110f4565b90815260200160405180910390205f9054906101000a900460ff166104cd57600160038460405161047691906110f4565b90815260200160405180910390205f6101000a81548160ff021916908315150217905550600483908060018154018082558091505060019003905f5260205f20015f9091909190915090816104cb919061130d565b505b806001846040516104de91906110f4565b90815260200160405180910390205f8473ffffffffffffffffffffffffffffffffffffffff1673ffffffffffffffffffffffffffffffffffffffff1681526020019081526020015f205f6101000a81548173ffffffffffffffffffffffffffffffffffffffff021916908373ffffffffffffffffffffffffffffffffffffffff1602179055508173ffffffffffffffffffffffffffffffffffffffff167fc277be270aa676292d0cbddf713f8160bb9528890b12a3c5b2fc6e30052d07e184836040516105ac929190611424565b60405180910390a2505050565b60606004805480602002602001604051908101604052809291908181526020015f905b82821015610684578382905f5260205f200180546105f990611137565b80601f016020809104026020016040519081016040528092919081815260200182805461062590611137565b80156106705780601f1061064757610100808354040283529160200191610670565b820191905f5260205f20905b81548152906001019060200180831161065357829003601f168201915b5050505050815260200190600101906105dc565b50505050905090565b6106a05f801b61069b6109cd565b61038b565b6106d6576040517ff72bfde400000000000000000000000000000000000000000000000000000000815260040160405180910390fd5b6003846040516106e691906110f4565b90815260200160405180910390205f9054906101000a900460ff1661076e57600160038560405161071791906110f4565b90815260200160405180910390205f6101000a81548160ff021916908315150217905550600484908060018154018082558091505060019003905f5260205f20015f90919091909150908161076c919061130d565b505b8060028560405161077f91906110f4565b90815260200160405180910390205f8573ffffffffffffffffffffffffffffffffffffffff1673ffffffffffffffffffffffffffffffffffffffff1681526020019081526020015f205f8473ffffffffffffffffffffffffffffffffffffffff1673ffffffffffffffffffffffffffffffffffffffff1681526020019081526020015f205f6101000a81548173ffffffffffffffffffffffffffffffffffffffff021916908373ffffffffffffffffffffffffffffffffffffffff1602179055508173ffffffffffffffffffffffffffffffffffffffff168373ffffffffffffffffffffffffffffffffffffffff167fb2fa499914f4084c208b861c88d34ceb30d98d3e817ddff6468c1a9af5fd9bb4868460405161089f929190611424565b60405180910390a350505050565b5f6001836040516108be91906110f4565b90815260200160405180910390205f8373ffffffffffffffffffffffffffffffffffffffff1673ffffffffffffffffffffffffffffffffffffffff1681526020019081526020015f205f9054906101000a900473ffffffffffffffffffffffffffffffffffffffff16905092915050565b6109425f801b61093d6109cd565b61038b565b610978576040517ff72bfde400000000000000000000000000000000000000000000000000000000815260040160405180910390fd5b6109828282610aac565b5050565b7e9ab23a1010d07a0450a1fbea1d84169b57d2c2273b54bff0f20c3e90199b5d81565b7f97667070c54ef182b0f5858b034beac1b6f3089aa2d3188bb1e8929f4fa9b92981565b5f33905090565b6109de828261038b565b610aa85760015f808481526020019081526020015f205f8373ffffffffffffffffffffffffffffffffffffffff1673ffffffffffffffffffffffffffffffffffffffff1681526020019081526020015f205f6101000a81548160ff021916908315150217905550610a4d6109cd565b73ffffffffffffffffffffffffffffffffffffffff168173ffffffffffffffffffffffffffffffffffffffff16837f2f8788117e7eff1d82e926ec794901d17c78024a50270940304540a733656f0d60405160405180910390a45b5050565b610ab6828261038b565b15610b80575f805f8481526020019081526020015f205f8373ffffffffffffffffffffffffffffffffffffffff1673ffffffffffffffffffffffffffffffffffffffff1681526020019081526020015f205f6101000a81548160ff021916908315150217905550610b256109cd565b73ffffffffffffffffffffffffffffffffffffffff168173ffffffffffffffffffffffffffffffffffffffff16837ff6391f5c32d9c69d2a47ea670b442974b53935d1edc7fd64eb21e047a839171b60405160405180910390a45b5050565b5f819050919050565b610b9681610b84565b82525050565b5f602082019050610baf5f830184610b8d565b92915050565b5f604051905090565b5f80fd5b5f80fd5b610bcf81610b84565b8114610bd9575f80fd5b50565b5f81359050610bea81610bc6565b92915050565b5f73ffffffffffffffffffffffffffffffffffffffff82169050919050565b5f610c1982610bf0565b9050919050565b610c2981610c0f565b8114610c33575f80fd5b50565b5f81359050610c4481610c20565b92915050565b5f8060408385031215610c6057610c5f610bbe565b5b5f610c6d85828601610bdc565b9250506020610c7e85828601610c36565b9150509250929050565b5f80fd5b5f80fd5b5f601f19601f8301169050919050565b7f4e487b71000000000000000000000000000000000000000000000000000000005f52604160045260245ffd5b610cd682610c90565b810181811067ffffffffffffffff82111715610cf557610cf4610ca0565b5b80604052505050565b5f610d07610bb5565b9050610d138282610ccd565b919050565b5f67ffffffffffffffff821115610d3257610d31610ca0565b5b610d3b82610c90565b9050602081019050919050565b828183375f83830152505050565b5f610d68610d6384610d18565b610cfe565b905082815260208101848484011115610d8457610d83610c8c565b5b610d8f848285610d48565b509392505050565b5f82601f830112610dab57610daa610c88565b5b8135610dbb848260208601610d56565b91505092915050565b5f805f60608486031215610ddb57610dda610bbe565b5b5f84013567ffffffffffffffff811115610df857610df7610bc2565b5b610e0486828701610d97565b9350506020610e1586828701610c36565b9250506040610e2686828701610c36565b9150509250925092565b610e3981610c0f565b82525050565b5f602082019050610e525f830184610e30565b92915050565b5f8115159050919050565b610e6c81610e58565b82525050565b5f602082019050610e855f830184610e63565b92915050565b5f81519050919050565b5f82825260208201905092915050565b5f819050602082019050919050565b5f81519050919050565b5f82825260208201905092915050565b5f5b83811015610eeb578082015181840152602081019050610ed0565b5f8484015250505050565b5f610f0082610eb4565b610f0a8185610ebe565b9350610f1a818560208601610ece565b610f2381610c90565b840191505092915050565b5f610f398383610ef6565b905092915050565b5f602082019050919050565b5f610f5782610e8b565b610f618185610e95565b935083602082028501610f7385610ea5565b805f5b85811015610fae5784840389528151610f8f8582610f2e565b9450610f9a83610f41565b925060208a01995050600181019050610f76565b50829750879550505050505092915050565b5f6020820190508181035f830152610fd88184610f4d565b905092915050565b5f805f8060808587031215610ff857610ff7610bbe565b5b5f85013567ffffffffffffffff81111561101557611014610bc2565b5b61102187828801610d97565b945050602061103287828801610c36565b935050604061104387828801610c36565b925050606061105487828801610c36565b91505092959194509250565b5f806040838503121561107657611075610bbe565b5b5f83013567ffffffffffffffff81111561109357611092610bc2565b5b61109f85828601610d97565b92505060206110b085828601610c36565b9150509250929050565b5f81905092915050565b5f6110ce82610eb4565b6110d881856110ba565b93506110e8818560208601610ece565b80840191505092915050565b5f6110ff82846110c4565b915081905092915050565b7f4e487b71000000000000000000000000000000000000000000000000000000005f52602260045260245ffd5b5f600282049050600182168061114e57607f821691505b6020821081036111615761116061110a565b5b50919050565b5f819050815f5260205f209050919050565b5f6020601f8301049050919050565b5f82821b905092915050565b5f600883026111c37fffffffffffffffffffffffffffffffffffffffffffffffffffffffffffffffff82611188565b6111cd8683611188565b95508019841693508086168417925050509392505050565b5f819050919050565b5f819050919050565b5f61121161120c611207846111e5565b6111ee565b6111e5565b9050919050565b5f819050919050565b61122a836111f7565b61123e61123682611218565b848454611194565b825550505050565b5f90565b611252611246565b61125d818484611221565b505050565b5b81811015611280576112755f8261124a565b600181019050611263565b5050565b601f8211156112c55761129681611167565b61129f84611179565b810160208510156112ae578190505b6112c26112ba85611179565b830182611262565b50505b505050565b5f82821c905092915050565b5f6112e55f19846008026112ca565b1980831691505092915050565b5f6112fd83836112d6565b9150826002028217905092915050565b61131682610eb4565b67ffffffffffffffff81111561132f5761132e610ca0565b5b6113398254611137565b611344828285611284565b5f60209050601f831160018114611375575f8415611363578287015190505b61136d85826112f2565b8655506113d4565b601f19841661138386611167565b5f5b828110156113aa57848901518255600182019150602085019450602081019050611385565b868310156113c757848901516113c3601f8916826112d6565b8355505b6001600288020188555050505b505050505050565b5f82825260208201905092915050565b5f6113f682610eb4565b61140081856113dc565b9350611410818560208601610ece565b61141981610c90565b840191505092915050565b5f6040820190508181035f83015261143c81856113ec565b905061144b6020830184610e30565b939250505056fea2646970667358221220aeb51724cc7e60bd74e4fb6f7c83876feaa9223c754ba98298b5363200764a8e64736f6c63430008170033","linkReferences":{}},"methodIdentifiers":{"ADMIN_ROLE()":"75b238fc","EXECUTOR_ROLE()":"07bd0265","OPERATOR_ROLE()":"f5b541a6","ROOT_UPDATER_ROLE()":"d9ab2c5c","getIdentifiers()":"a4770a88","getMarket(string,address,address)":"784260d6","getYieldToken(string,address)":"c41adf50","grantRole(bytes32,address)":"2f2ff15d","hasRole(bytes32,address)":"91d14854","revokeRole(bytes32,address)":"d547741f","setMarket(string,address,address,address)":"a8d01ca9","setYieldToken(string,address,address)":"95c8193a"},"id":30}