{
  "_format": "hh-sol-artifact-1",
  "contractName": "VaultManager",
  "sourceName": "contracts/VaultManager.sol",
  "abi": [
    {
      "inputs": [],
      "name": "AccessManager__CallerIsNotAdmin",
      "type": "error"
    },
    {
      "inputs": [],
      "name": "AccessManager__CallerIsNotExecutor",
      "type": "error"
    },
    {
      "inputs": [],
      "name": "AccessManager__CallerIsNotOperator",
      "type": "error"
    },
    {
      "inputs": [],
      "name": "AccessManager__CallerIsNotRootUpdater",
      "type": "error"
    },
    {
      "inputs": [],
      "name": "VaultManager__InvalidAssetAmount",
      "type": "error"
    },
    {
      "anonymous": false,
      "inputs": [
        {
          "indexed": true,
          "internalType": "bytes32",
          "name": "role",
          "type": "bytes32"
        },
        {
          "indexed": true,
          "internalType": "address",
          "name": "account",
          "type": "address"
        },
        {
          "indexed": true,
          "internalType": "address",
          "name": "sender",
          "type": "address"
        }
      ],
      "name": "RoleGranted",
      "type": "event"
    },
    {
      "anonymous": false,
      "inputs": [
        {
          "indexed": true,
          "internalType": "bytes32",
          "name": "role",
          "type": "bytes32"
        },
        {
          "indexed": true,
          "internalType": "address",
          "name": "account",
          "type": "address"
        },
        {
          "indexed": true,
          "internalType": "address",
          "name": "sender",
          "type": "address"
        }
      ],
      "name": "RoleRevoked",
      "type": "event"
    },
    {
      "inputs": [],
      "name": "ADMIN_ROLE",
      "outputs": [
        {
          "internalType": "bytes32",
          "name": "",
          "type": "bytes32"
        }
      ],
      "stateMutability": "view",
      "type": "function"
    },
    {
      "inputs": [],
      "name": "EXECUTOR_ROLE",
      "outputs": [
        {
          "internalType": "bytes32",
          "name": "",
          "type": "bytes32"
        }
      ],
      "stateMutability": "view",
      "type": "function"
    },
    {
      "inputs": [],
      "name": "OPERATOR_ROLE",
      "outputs": [
        {
          "internalType": "bytes32",
          "name": "",
          "type": "bytes32"
        }
      ],
      "stateMutability": "view",
      "type": "function"
    },
    {
      "inputs": [],
      "name": "ROOT_UPDATER_ROLE",
      "outputs": [
        {
          "internalType": "bytes32",
          "name": "",
          "type": "bytes32"
        }
      ],
      "stateMutability": "view",
      "type": "function"
    },
    {
      "inputs": [
        {
          "internalType": "bytes32",
          "name": "role",
          "type": "bytes32"
        },
        {
          "internalType": "address",
          "name": "account",
          "type": "address"
        }
      ],
      "name": "grantRole",
      "outputs": [],
      "stateMutability": "nonpayable",
      "type": "function"
    },
    {
      "inputs": [
        {
          "internalType": "bytes32",
          "name": "role",
          "type": "bytes32"
        },
        {
          "internalType": "address",
          "name": "account",
          "type": "address"
        }
      ],
      "name": "hasRole",
      "outputs": [
        {
          "internalType": "bool",
          "name": "",
          "type": "bool"
        }
      ],
      "stateMutability": "view",
      "type": "function"
    },
    {
      "inputs": [
        {
          "internalType": "contract IVault",
          "name": "vault",
          "type": "address"
        },
        {
          "internalType": "uint256",
          "name": "assets",
          "type": "uint256"
        },
        {
          "internalType": "contract IProvider",
          "name": "from",
          "type": "address"
        },
        {
          "internalType": "contract IProvider",
          "name": "to",
          "type": "address"
        },
        {
          "internalType": "uint256",
          "name": "fee",
          "type": "uint256"
        },
        {
          "internalType": "bool",
          "name": "activateToProvider",
          "type": "bool"
        }
      ],
      "name": "rebalanceVault",
      "outputs": [
        {
          "internalType": "bool",
          "name": "success",
          "type": "bool"
        }
      ],
      "stateMutability": "nonpayable",
      "type": "function"
    },
    {
      "inputs": [
        {
          "internalType": "bytes32",
          "name": "role",
          "type": "bytes32"
        },
        {
          "internalType": "address",
          "name": "account",
          "type": "address"
        }
      ],
      "name": "revokeRole",
      "outputs": [],
      "stateMutability": "nonpayable",
      "type": "function"
    }
  ],
  "bytecode": "0x608060405234801561001057600080fd5b5061001c600033610021565b6100c0565b6000828152602081815260408083206001600160a01b038516845290915290205460ff166100bc576000828152602081815260408083206001600160a01b03851684529091529020805460ff1916600117905561007b3390565b6001600160a01b0316816001600160a01b0316837f2f8788117e7eff1d82e926ec794901d17c78024a50270940304540a733656f0d60405160405180910390a45b5050565b6105a9806100cf6000396000f3fe608060405234801561001057600080fd5b50600436106100785760003560e01c806307bd02651461007d578063190e2863146100a55780632f2ff15d146100c857806375b238fc146100dd57806391d14854146100e5578063d547741f146100f8578063d9ab2c5c1461010b578063f5b541a614610131575b600080fd5b61009260008051602061055483398151915281565b6040519081526020015b60405180910390f35b6100b86100b3366004610476565b610158565b604051901515815260200161009c565b6100db6100d63660046104e6565b6102d6565b005b610092600081565b6100b86100f33660046104e6565b61030c565b6100db6101063660046104e6565b610335565b6100927e9ab23a1010d07a0450a1fbea1d84169b57d2c2273b54bff0f20c3e90199b5d81565b6100927f97667070c54ef182b0f5858b034beac1b6f3089aa2d3188bb1e8929f4fa9b92981565b60006101726000805160206105548339815191523361030c565b61018f57604051633f9135d360e01b815260040160405180910390fd5b6040516302b844a960e21b81526001600160a01b0388811660048301819052602483015260009190871690630ae112a490604401602060405180830381865afa1580156101e0573d6000803e3d6000fd5b505050506040513d601f19601f820116820180604052508101906102049190610516565b90506000198703610213578096505b86158061021f57508087115b1561023d5760405163ee9052f960e01b815260040160405180910390fd5b604051637abac32960e01b8152600481018890526001600160a01b0387811660248301528681166044830152606482018690528415156084830152891690637abac3299060a4016020604051808303816000875af11580156102a3573d6000803e3d6000fd5b505050506040513d601f19601f820116820180604052508101906102c7919061052f565b50600198975050505050505050565b6102e160003361030c565b6102fe57604051633dcaff7960e21b815260040160405180910390fd5b6103088282610367565b5050565b6000918252602082815260408084206001600160a01b0393909316845291905290205460ff1690565b61034060003361030c565b61035d57604051633dcaff7960e21b815260040160405180910390fd5b61030882826103eb565b610371828261030c565b610308576000828152602081815260408083206001600160a01b03851684529091529020805460ff191660011790556103a73390565b6001600160a01b0316816001600160a01b0316837f2f8788117e7eff1d82e926ec794901d17c78024a50270940304540a733656f0d60405160405180910390a45050565b6103f5828261030c565b15610308576000828152602081815260408083206001600160a01b0385168085529252808320805460ff1916905551339285917ff6391f5c32d9c69d2a47ea670b442974b53935d1edc7fd64eb21e047a839171b9190a45050565b6001600160a01b038116811461046557600080fd5b50565b801515811461046557600080fd5b60008060008060008060c0878903121561048f57600080fd5b863561049a81610450565b95506020870135945060408701356104b181610450565b935060608701356104c181610450565b92506080870135915060a08701356104d881610468565b809150509295509295509295565b600080604083850312156104f957600080fd5b82359150602083013561050b81610450565b809150509250929050565b60006020828403121561052857600080fd5b5051919050565b60006020828403121561054157600080fd5b815161054c81610468565b939250505056fed8aa0f3194971a2a116679f7c2090f6939c8d4e01a2a8d7e41d55e5351469e63a26469706673582212204173dd11a6ea709bee4d1af56ba93fa7da72ddffddc09d954e34bce688c3e62564736f6c63430008170033",
  "linkReferences": {},
  "deployedLinkReferences": {}
}