{"abi":[{"type":"function","name":"deposit","inputs":[{"name":"amount","type":"uint256","internalType":"uint256"},{"name":"vault","type":"address","internalType":"contract IVault"}],"outputs":[{"name":"success","type":"bool","internalType":"bool"}],"stateMutability":"nonpayable"},{"type":"function","name":"getDepositBalance","inputs":[{"name":"user","type":"address","internalType":"address"},{"name":"","type":"address","internalType":"contract IVault"}],"outputs":[{"name":"balance","type":"uint256","internalType":"uint256"}],"stateMutability":"view"},{"type":"function","name":"getDepositRate","inputs":[{"name":"","type":"address","internalType":"contract IVault"}],"outputs":[{"name":"rate","type":"uint256","internalType":"uint256"}],"stateMutability":"view"},{"type":"function","name":"getIdentifier","inputs":[],"outputs":[{"name":"","type":"string","internalType":"string"}],"stateMutability":"pure"},{"type":"function","name":"getSource","inputs":[{"name":"","type":"address","internalType":"address"},{"name":"","type":"address","internalType":"address"},{"name":"","type":"address","internalType":"address"}],"outputs":[{"name":"source","type":"address","internalType":"address"}],"stateMutability":"pure"},{"type":"function","name":"withdraw","inputs":[{"name":"amount","type":"uint256","internalType":"uint256"},{"name":"vault","type":"address","internalType":"contract IVault"}],"outputs":[{"name":"success","type":"bool","internalType":"bool"}],"stateMutability":"nonpayable"}],"bytecode":{"object":"0x608060405234801561000f575f80fd5b50610bc38061001d5f395ff3fe608060405234801561000f575f80fd5b506004361061005f575f3560e01c8062f714ce146100635780630ae112a4146100935780634c8f411d146100c35780636e553f65146100f357806373f64d4414610123578063aa23e03d14610153575b5f80fd5b61007d60048036038101906100789190610634565b610171565b60405161008a919061068c565b60405180910390f35b6100ad60048036038101906100a891906106cf565b610206565b6040516100ba919061071c565b60405180910390f35b6100dd60048036038101906100d89190610735565b610314565b6040516100ea919061071c565b60405180910390f35b61010d60048036038101906101089190610634565b610495565b60405161011a919061068c565b60405180910390f35b61013d60048036038101906101389190610760565b610528565b60405161014a91906107bf565b60405180910390f35b61015b61053a565b6040516101689190610862565b60405180910390f35b5f8061017b610577565b90508073ffffffffffffffffffffffffffffffffffffffff1663b460af948585866040518463ffffffff1660e01b81526004016101ba93929190610882565b6020604051808303815f875af11580156101d6573d5f803e3d5ffd5b505050506040513d601f19601f820116820180604052508101906101fa91906108cb565b50600191505092915050565b5f80610210610577565b90505f8173ffffffffffffffffffffffffffffffffffffffff166370a08231866040518263ffffffff1660e01b815260040161024c91906107bf565b602060405180830381865afa158015610267573d5f803e3d5ffd5b505050506040513d601f19601f8201168201806040525081019061028b91906108cb565b90508173ffffffffffffffffffffffffffffffffffffffff16637d37bdd7825f60016040518463ffffffff1660e01b81526004016102cb939291906108f6565b602060405180830381865afa1580156102e6573d5f803e3d5ffd5b505050506040513d601f19601f8201168201806040525081019061030a91906108cb565b9250505092915050565b5f8061031e610577565b90505f8173ffffffffffffffffffffffffffffffffffffffff166395d14ca86040518163ffffffff1660e01b815260040160a060405180830381865afa15801561036a573d5f803e3d5ffd5b505050506040513d601f19601f8201168201806040525081019061038e9190610968565b5093505050505f808373ffffffffffffffffffffffffffffffffffffffff1663cdd72d526040518163ffffffff1660e01b815260040160a060405180830381865afa1580156103df573d5f803e3d5ffd5b505050506040513d601f19601f820116820180604052508101906104039190610a24565b505092505091505f6301e133808467ffffffffffffffff166104259190610ac8565b90505f836fffffffffffffffffffffffffffffffff16670de0b6b3a7640000846fffffffffffffffffffffffffffffffff166104619190610ac8565b61046b9190610b36565b9050633b9aca00828261047e9190610ac8565b6104889190610b36565b9650505050505050919050565b5f8061049f610577565b90508073ffffffffffffffffffffffffffffffffffffffff16636e553f6585856040518363ffffffff1660e01b81526004016104dc929190610b66565b6020604051808303815f875af11580156104f8573d5f803e3d5ffd5b505050506040513d601f19601f8201168201806040525081019061051c91906108cb565b50600191505092915050565b5f610531610577565b90509392505050565b60606040518060400160405280601181526020017f467261786c656e645f50726f7669646572000000000000000000000000000000815250905090565b5f739168ac3a83a31bd85c93f4429a84c05db2caef08905090565b5f80fd5b5f819050919050565b6105a881610596565b81146105b2575f80fd5b50565b5f813590506105c38161059f565b92915050565b5f73ffffffffffffffffffffffffffffffffffffffff82169050919050565b5f6105f2826105c9565b9050919050565b5f610603826105e8565b9050919050565b610613816105f9565b811461061d575f80fd5b50565b5f8135905061062e8161060a565b92915050565b5f806040838503121561064a57610649610592565b5b5f610657858286016105b5565b925050602061066885828601610620565b9150509250929050565b5f8115159050919050565b61068681610672565b82525050565b5f60208201905061069f5f83018461067d565b92915050565b6106ae816105e8565b81146106b8575f80fd5b50565b5f813590506106c9816106a5565b92915050565b5f80604083850312156106e5576106e4610592565b5b5f6106f2858286016106bb565b925050602061070385828601610620565b9150509250929050565b61071681610596565b82525050565b5f60208201905061072f5f83018461070d565b92915050565b5f6020828403121561074a57610749610592565b5b5f61075784828501610620565b91505092915050565b5f805f6060848603121561077757610776610592565b5b5f610784868287016106bb565b9350506020610795868287016106bb565b92505060406107a6868287016106bb565b9150509250925092565b6107b9816105e8565b82525050565b5f6020820190506107d25f8301846107b0565b92915050565b5f81519050919050565b5f82825260208201905092915050565b5f5b8381101561080f5780820151818401526020810190506107f4565b5f8484015250505050565b5f601f19601f8301169050919050565b5f610834826107d8565b61083e81856107e2565b935061084e8185602086016107f2565b6108578161081a565b840191505092915050565b5f6020820190508181035f83015261087a818461082a565b905092915050565b5f6060820190506108955f83018661070d565b6108a260208301856107b0565b6108af60408301846107b0565b949350505050565b5f815190506108c58161059f565b92915050565b5f602082840312156108e0576108df610592565b5b5f6108ed848285016108b7565b91505092915050565b5f6060820190506109095f83018661070d565b610916602083018561067d565b610923604083018461067d565b949350505050565b5f67ffffffffffffffff82169050919050565b6109478161092b565b8114610951575f80fd5b50565b5f815190506109628161093e565b92915050565b5f805f805f60a0868803121561098157610980610592565b5b5f61098e88828901610954565b955050602061099f88828901610954565b94505060406109b088828901610954565b93505060606109c188828901610954565b92505060806109d288828901610954565b9150509295509295909350565b5f6fffffffffffffffffffffffffffffffff82169050919050565b610a03816109df565b8114610a0d575f80fd5b50565b5f81519050610a1e816109fa565b92915050565b5f805f805f60a08688031215610a3d57610a3c610592565b5b5f610a4a88828901610a10565b9550506020610a5b88828901610a10565b9450506040610a6c88828901610a10565b9350506060610a7d88828901610a10565b9250506080610a8e888289016108b7565b9150509295509295909350565b7f4e487b71000000000000000000000000000000000000000000000000000000005f52601160045260245ffd5b5f610ad282610596565b9150610add83610596565b9250828202610aeb81610596565b91508282048414831517610b0257610b01610a9b565b5b5092915050565b7f4e487b71000000000000000000000000000000000000000000000000000000005f52601260045260245ffd5b5f610b4082610596565b9150610b4b83610596565b925082610b5b57610b5a610b09565b5b828204905092915050565b5f604082019050610b795f83018561070d565b610b8660208301846107b0565b939250505056fea26469706673582212206a7c222de5e40111dd88d2a2e57fe067b6b512aac260dd9ae9ce944702272f9e64736f6c63430008170033","linkReferences":{}},"methodIdentifiers":{"deposit(uint256,address)":"6e553f65","getDepositBalance(address,address)":"0ae112a4","getDepositRate(address)":"4c8f411d","getIdentifier()":"aa23e03d","getSource(address,address,address)":"73f64d44","withdraw(uint256,address)":"00f714ce"},"id":29}