{"abi":[{"type":"constructor","inputs":[{"name":"asset_","type":"address","internalType":"address"},{"name":"name_","type":"string","internalType":"string"},{"name":"symbol_","type":"string","internalType":"string"},{"name":"providers_","type":"address[]","internalType":"contract IProvider[]"},{"name":"withdrawFeePercent_","type":"uint256","internalType":"uint256"},{"name":"rewardsDistributor_","type":"address","internalType":"address"},{"name":"timelock_","type":"address","internalType":"address"},{"name":"treasury_","type":"address","internalType":"address"}],"stateMutability":"nonpayable"},{"type":"receive","stateMutability":"payable"},{"type":"function","name":"ADMIN_ROLE","inputs":[],"outputs":[{"name":"","type":"bytes32","internalType":"bytes32"}],"stateMutability":"view"},{"type":"function","name":"DOMAIN_SEPARATOR","inputs":[],"outputs":[{"name":"","type":"bytes32","internalType":"bytes32"}],"stateMutability":"view"},{"type":"function","name":"EXECUTOR_ROLE","inputs":[],"outputs":[{"name":"","type":"bytes32","internalType":"bytes32"}],"stateMutability":"view"},{"type":"function","name":"OPERATOR_ROLE","inputs":[],"outputs":[{"name":"","type":"bytes32","internalType":"bytes32"}],"stateMutability":"view"},{"type":"function","name":"ROOT_UPDATER_ROLE","inputs":[],"outputs":[{"name":"","type":"bytes32","internalType":"bytes32"}],"stateMutability":"view"},{"type":"function","name":"activeProvider","inputs":[],"outputs":[{"name":"","type":"address","internalType":"contract IProvider"}],"stateMutability":"view"},{"type":"function","name":"allowance","inputs":[{"name":"owner","type":"address","internalType":"address"},{"name":"spender","type":"address","internalType":"address"}],"outputs":[{"name":"","type":"uint256","internalType":"uint256"}],"stateMutability":"view"},{"type":"function","name":"approve","inputs":[{"name":"spender","type":"address","internalType":"address"},{"name":"value","type":"uint256","internalType":"uint256"}],"outputs":[{"name":"","type":"bool","internalType":"bool"}],"stateMutability":"nonpayable"},{"type":"function","name":"asset","inputs":[],"outputs":[{"name":"","type":"address","internalType":"address"}],"stateMutability":"view"},{"type":"function","name":"balanceOf","inputs":[{"name":"account","type":"address","internalType":"address"}],"outputs":[{"name":"","type":"uint256","internalType":"uint256"}],"stateMutability":"view"},{"type":"function","name":"convertToAssets","inputs":[{"name":"shares","type":"uint256","internalType":"uint256"}],"outputs":[{"name":"assets","type":"uint256","internalType":"uint256"}],"stateMutability":"view"},{"type":"function","name":"convertToShares","inputs":[{"name":"assets","type":"uint256","internalType":"uint256"}],"outputs":[{"name":"shares","type":"uint256","internalType":"uint256"}],"stateMutability":"view"},{"type":"function","name":"decimals","inputs":[],"outputs":[{"name":"","type":"uint8","internalType":"uint8"}],"stateMutability":"view"},{"type":"function","name":"deposit","inputs":[{"name":"assets","type":"uint256","internalType":"uint256"},{"name":"receiver","type":"address","internalType":"address"}],"outputs":[{"name":"","type":"uint256","internalType":"uint256"}],"stateMutability":"nonpayable"},{"type":"function","name":"eip712Domain","inputs":[],"outputs":[{"name":"fields","type":"bytes1","internalType":"bytes1"},{"name":"name","type":"string","internalType":"string"},{"name":"version","type":"string","internalType":"string"},{"name":"chainId","type":"uint256","internalType":"uint256"},{"name":"verifyingContract","type":"address","internalType":"address"},{"name":"salt","type":"bytes32","internalType":"bytes32"},{"name":"extensions","type":"uint256[]","internalType":"uint256[]"}],"stateMutability":"view"},{"type":"function","name":"getBalanceOfAsset","inputs":[{"name":"owner","type":"address","internalType":"address"}],"outputs":[{"name":"assets","type":"uint256","internalType":"uint256"}],"stateMutability":"view"},{"type":"function","name":"getProviders","inputs":[],"outputs":[{"name":"","type":"address[]","internalType":"contract IProvider[]"}],"stateMutability":"view"},{"type":"function","name":"grantRole","inputs":[{"name":"role","type":"bytes32","internalType":"bytes32"},{"name":"account","type":"address","internalType":"address"}],"outputs":[],"stateMutability":"nonpayable"},{"type":"function","name":"hasRole","inputs":[{"name":"role","type":"bytes32","internalType":"bytes32"},{"name":"account","type":"address","internalType":"address"}],"outputs":[{"name":"","type":"bool","internalType":"bool"}],"stateMutability":"view"},{"type":"function","name":"maxDeposit","inputs":[{"name":"","type":"address","internalType":"address"}],"outputs":[{"name":"","type":"uint256","internalType":"uint256"}],"stateMutability":"view"},{"type":"function","name":"maxMint","inputs":[{"name":"","type":"address","internalType":"address"}],"outputs":[{"name":"","type":"uint256","internalType":"uint256"}],"stateMutability":"view"},{"type":"function","name":"maxRedeem","inputs":[{"name":"owner","type":"address","internalType":"address"}],"outputs":[{"name":"","type":"uint256","internalType":"uint256"}],"stateMutability":"view"},{"type":"function","name":"maxWithdraw","inputs":[{"name":"owner","type":"address","internalType":"address"}],"outputs":[{"name":"","type":"uint256","internalType":"uint256"}],"stateMutability":"view"},{"type":"function","name":"minAmount","inputs":[],"outputs":[{"name":"","type":"uint256","internalType":"uint256"}],"stateMutability":"view"},{"type":"function","name":"mint","inputs":[{"name":"shares","type":"uint256","internalType":"uint256"},{"name":"receiver","type":"address","internalType":"address"}],"outputs":[{"name":"","type":"uint256","internalType":"uint256"}],"stateMutability":"nonpayable"},{"type":"function","name":"name","inputs":[],"outputs":[{"name":"","type":"string","internalType":"string"}],"stateMutability":"view"},{"type":"function","name":"nonces","inputs":[{"name":"owner","type":"address","internalType":"address"}],"outputs":[{"name":"","type":"uint256","internalType":"uint256"}],"stateMutability":"view"},{"type":"function","name":"pause","inputs":[{"name":"action","type":"uint8","internalType":"enum PausableActions.Actions"}],"outputs":[],"stateMutability":"nonpayable"},{"type":"function","name":"paused","inputs":[{"name":"action","type":"uint8","internalType":"enum PausableActions.Actions"}],"outputs":[{"name":"","type":"bool","internalType":"bool"}],"stateMutability":"view"},{"type":"function","name":"permit","inputs":[{"name":"owner","type":"address","internalType":"address"},{"name":"spender","type":"address","internalType":"address"},{"name":"value","type":"uint256","internalType":"uint256"},{"name":"deadline","type":"uint256","internalType":"uint256"},{"name":"v","type":"uint8","internalType":"uint8"},{"name":"r","type":"bytes32","internalType":"bytes32"},{"name":"s","type":"bytes32","internalType":"bytes32"}],"outputs":[],"stateMutability":"nonpayable"},{"type":"function","name":"previewDeposit","inputs":[{"name":"assets","type":"uint256","internalType":"uint256"}],"outputs":[{"name":"","type":"uint256","internalType":"uint256"}],"stateMutability":"view"},{"type":"function","name":"previewMint","inputs":[{"name":"shares","type":"uint256","internalType":"uint256"}],"outputs":[{"name":"","type":"uint256","internalType":"uint256"}],"stateMutability":"view"},{"type":"function","name":"previewRedeem","inputs":[{"name":"shares","type":"uint256","internalType":"uint256"}],"outputs":[{"name":"","type":"uint256","internalType":"uint256"}],"stateMutability":"view"},{"type":"function","name":"previewWithdraw","inputs":[{"name":"assets","type":"uint256","internalType":"uint256"}],"outputs":[{"name":"","type":"uint256","internalType":"uint256"}],"stateMutability":"view"},{"type":"function","name":"rebalance","inputs":[{"name":"assets","type":"uint256","internalType":"uint256"},{"name":"from","type":"address","internalType":"contract IProvider"},{"name":"to","type":"address","internalType":"contract IProvider"},{"name":"fee","type":"uint256","internalType":"uint256"},{"name":"activateToProvider","type":"bool","internalType":"bool"}],"outputs":[{"name":"","type":"bool","internalType":"bool"}],"stateMutability":"nonpayable"},{"type":"function","name":"redeem","inputs":[{"name":"shares","type":"uint256","internalType":"uint256"},{"name":"receiver","type":"address","internalType":"address"},{"name":"owner","type":"address","internalType":"address"}],"outputs":[{"name":"","type":"uint256","internalType":"uint256"}],"stateMutability":"nonpayable"},{"type":"function","name":"revokeRole","inputs":[{"name":"role","type":"bytes32","internalType":"bytes32"},{"name":"account","type":"address","internalType":"address"}],"outputs":[],"stateMutability":"nonpayable"},{"type":"function","name":"rewardsDistributor","inputs":[],"outputs":[{"name":"","type":"address","internalType":"address"}],"stateMutability":"view"},{"type":"function","name":"setActiveProvider","inputs":[{"name":"_activeProvider","type":"address","internalType":"contract IProvider"}],"outputs":[],"stateMutability":"nonpayable"},{"type":"function","name":"setMinAmount","inputs":[{"name":"_minAmount","type":"uint256","internalType":"uint256"}],"outputs":[],"stateMutability":"nonpayable"},{"type":"function","name":"setProviders","inputs":[{"name":"providers","type":"address[]","internalType":"contract IProvider[]"}],"outputs":[],"stateMutability":"nonpayable"},{"type":"function","name":"setRewardsDistributor","inputs":[{"name":"_rewardsDistributor","type":"address","internalType":"address"}],"outputs":[],"stateMutability":"nonpayable"},{"type":"function","name":"setTimelock","inputs":[{"name":"_timelock","type":"address","internalType":"address"}],"outputs":[],"stateMutability":"nonpayable"},{"type":"function","name":"setTreasury","inputs":[{"name":"_treasury","type":"address","internalType":"address"}],"outputs":[],"stateMutability":"nonpayable"},{"type":"function","name":"setWithdrawFeePercent","inputs":[{"name":"_withdrawFeePercent","type":"uint256","internalType":"uint256"}],"outputs":[],"stateMutability":"nonpayable"},{"type":"function","name":"setupCompleted","inputs":[],"outputs":[{"name":"","type":"bool","internalType":"bool"}],"stateMutability":"view"},{"type":"function","name":"setupVault","inputs":[{"name":"assets","type":"uint256","internalType":"uint256"}],"outputs":[],"stateMutability":"nonpayable"},{"type":"function","name":"symbol","inputs":[],"outputs":[{"name":"","type":"string","internalType":"string"}],"stateMutability":"view"},{"type":"function","name":"timelock","inputs":[],"outputs":[{"name":"","type":"address","internalType":"address"}],"stateMutability":"view"},{"type":"function","name":"totalAssets","inputs":[],"outputs":[{"name":"assets","type":"uint256","internalType":"uint256"}],"stateMutability":"view"},{"type":"function","name":"totalSupply","inputs":[],"outputs":[{"name":"","type":"uint256","internalType":"uint256"}],"stateMutability":"view"},{"type":"function","name":"transfer","inputs":[{"name":"to","type":"address","internalType":"address"},{"name":"value","type":"uint256","internalType":"uint256"}],"outputs":[{"name":"","type":"bool","internalType":"bool"}],"stateMutability":"nonpayable"},{"type":"function","name":"transferFrom","inputs":[{"name":"from","type":"address","internalType":"address"},{"name":"to","type":"address","internalType":"address"},{"name":"value","type":"uint256","internalType":"uint256"}],"outputs":[{"name":"","type":"bool","internalType":"bool"}],"stateMutability":"nonpayable"},{"type":"function","name":"transferRewards","inputs":[{"name":"token","type":"address","internalType":"address"}],"outputs":[],"stateMutability":"nonpayable"},{"type":"function","name":"treasury","inputs":[],"outputs":[{"name":"","type":"address","internalType":"address"}],"stateMutability":"view"},{"type":"function","name":"unpause","inputs":[{"name":"action","type":"uint8","internalType":"enum PausableActions.Actions"}],"outputs":[],"stateMutability":"nonpayable"},{"type":"function","name":"withdraw","inputs":[{"name":"assets","type":"uint256","internalType":"uint256"},{"name":"receiver","type":"address","internalType":"address"},{"name":"owner","type":"address","internalType":"address"}],"outputs":[{"name":"","type":"uint256","internalType":"uint256"}],"stateMutability":"nonpayable"},{"type":"function","name":"withdrawFeePercent","inputs":[],"outputs":[{"name":"","type":"uint256","internalType":"uint256"}],"stateMutability":"view"},{"type":"event","name":"ActiveProviderUpdated","inputs":[{"name":"activeProvider","type":"address","indexed":false,"internalType":"contract IProvider"}],"anonymous":false},{"type":"event","name":"Approval","inputs":[{"name":"owner","type":"address","indexed":true,"internalType":"address"},{"name":"spender","type":"address","indexed":true,"internalType":"address"},{"name":"value","type":"uint256","indexed":false,"internalType":"uint256"}],"anonymous":false},{"type":"event","name":"Deposit","inputs":[{"name":"sender","type":"address","indexed":true,"internalType":"address"},{"name":"owner","type":"address","indexed":true,"internalType":"address"},{"name":"assets","type":"uint256","indexed":false,"internalType":"uint256"},{"name":"shares","type":"uint256","indexed":false,"internalType":"uint256"}],"anonymous":false},{"type":"event","name":"DistributorUpdated","inputs":[{"name":"rewardsDistributor","type":"address","indexed":true,"internalType":"address"}],"anonymous":false},{"type":"event","name":"EIP712DomainChanged","inputs":[],"anonymous":false},{"type":"event","name":"FeeCharged","inputs":[{"name":"treasury","type":"address","indexed":true,"internalType":"address"},{"name":"assets","type":"uint256","indexed":false,"internalType":"uint256"},{"name":"fee","type":"uint256","indexed":false,"internalType":"uint256"}],"anonymous":false},{"type":"event","name":"MinAmountUpdated","inputs":[{"name":"minAmount","type":"uint256","indexed":false,"internalType":"uint256"}],"anonymous":false},{"type":"event","name":"Paused","inputs":[{"name":"account","type":"address","indexed":false,"internalType":"address"},{"name":"action","type":"uint8","indexed":false,"internalType":"enum PausableActions.Actions"}],"anonymous":false},{"type":"event","name":"ProvidersUpdated","inputs":[{"name":"providers","type":"address[]","indexed":false,"internalType":"contract IProvider[]"}],"anonymous":false},{"type":"event","name":"RebalanceExecuted","inputs":[{"name":"assetsFrom","type":"uint256","indexed":false,"internalType":"uint256"},{"name":"assetsTo","type":"uint256","indexed":false,"internalType":"uint256"},{"name":"from","type":"address","indexed":true,"internalType":"address"},{"name":"to","type":"address","indexed":true,"internalType":"address"}],"anonymous":false},{"type":"event","name":"RewardsTransferred","inputs":[{"name":"to","type":"address","indexed":true,"internalType":"address"},{"name":"amount","type":"uint256","indexed":false,"internalType":"uint256"}],"anonymous":false},{"type":"event","name":"RoleGranted","inputs":[{"name":"role","type":"bytes32","indexed":true,"internalType":"bytes32"},{"name":"account","type":"address","indexed":true,"internalType":"address"},{"name":"sender","type":"address","indexed":true,"internalType":"address"}],"anonymous":false},{"type":"event","name":"RoleRevoked","inputs":[{"name":"role","type":"bytes32","indexed":true,"internalType":"bytes32"},{"name":"account","type":"address","indexed":true,"internalType":"address"},{"name":"sender","type":"address","indexed":true,"internalType":"address"}],"anonymous":false},{"type":"event","name":"SetupCompleted","inputs":[{"name":"setupAddress","type":"address","indexed":true,"internalType":"address"}],"anonymous":false},{"type":"event","name":"TimelockUpdated","inputs":[{"name":"timelock","type":"address","indexed":true,"internalType":"address"}],"anonymous":false},{"type":"event","name":"Transfer","inputs":[{"name":"from","type":"address","indexed":true,"internalType":"address"},{"name":"to","type":"address","indexed":true,"internalType":"address"},{"name":"value","type":"uint256","indexed":false,"internalType":"uint256"}],"anonymous":false},{"type":"event","name":"TreasuryUpdated","inputs":[{"name":"treasury","type":"address","indexed":true,"internalType":"address"}],"anonymous":false},{"type":"event","name":"Unpaused","inputs":[{"name":"account","type":"address","indexed":false,"internalType":"address"},{"name":"action","type":"uint8","indexed":false,"internalType":"enum PausableActions.Actions"}],"anonymous":false},{"type":"event","name":"Withdraw","inputs":[{"name":"sender","type":"address","indexed":true,"internalType":"address"},{"name":"receiver","type":"address","indexed":true,"internalType":"address"},{"name":"owner","type":"address","indexed":true,"internalType":"address"},{"name":"assets","type":"uint256","indexed":false,"internalType":"uint256"},{"name":"shares","type":"uint256","indexed":false,"internalType":"uint256"}],"anonymous":false},{"type":"event","name":"WithdrawFeePercentUpdated","inputs":[{"name":"withdrawFeePercent","type":"uint256","indexed":false,"internalType":"uint256"}],"anonymous":false},{"type":"error","name":"AccessManager__CallerIsNotAdmin","inputs":[]},{"type":"error","name":"AccessManager__CallerIsNotExecutor","inputs":[]},{"type":"error","name":"AccessManager__CallerIsNotOperator","inputs":[]},{"type":"error","name":"AccessManager__CallerIsNotRootUpdater","inputs":[]},{"type":"error","name":"AddressEmptyCode","inputs":[{"name":"target","type":"address","internalType":"address"}]},{"type":"error","name":"ECDSAInvalidSignature","inputs":[]},{"type":"error","name":"ECDSAInvalidSignatureLength","inputs":[{"name":"length","type":"uint256","internalType":"uint256"}]},{"type":"error","name":"ECDSAInvalidSignatureS","inputs":[{"name":"s","type":"bytes32","internalType":"bytes32"}]},{"type":"error","name":"ERC20InsufficientAllowance","inputs":[{"name":"spender","type":"address","internalType":"address"},{"name":"allowance","type":"uint256","internalType":"uint256"},{"name":"needed","type":"uint256","internalType":"uint256"}]},{"type":"error","name":"ERC20InsufficientBalance","inputs":[{"name":"sender","type":"address","internalType":"address"},{"name":"balance","type":"uint256","internalType":"uint256"},{"name":"needed","type":"uint256","internalType":"uint256"}]},{"type":"error","name":"ERC20InvalidApprover","inputs":[{"name":"approver","type":"address","internalType":"address"}]},{"type":"error","name":"ERC20InvalidReceiver","inputs":[{"name":"receiver","type":"address","internalType":"address"}]},{"type":"error","name":"ERC20InvalidSender","inputs":[{"name":"sender","type":"address","internalType":"address"}]},{"type":"error","name":"ERC20InvalidSpender","inputs":[{"name":"spender","type":"address","internalType":"address"}]},{"type":"error","name":"ERC2612ExpiredSignature","inputs":[{"name":"deadline","type":"uint256","internalType":"uint256"}]},{"type":"error","name":"ERC2612InvalidSigner","inputs":[{"name":"signer","type":"address","internalType":"address"},{"name":"owner","type":"address","internalType":"address"}]},{"type":"error","name":"FailedCall","inputs":[]},{"type":"error","name":"InvalidAccountNonce","inputs":[{"name":"account","type":"address","internalType":"address"},{"name":"currentNonce","type":"uint256","internalType":"uint256"}]},{"type":"error","name":"InvalidShortString","inputs":[]},{"type":"error","name":"PausableActions__ActionNotPaused","inputs":[]},{"type":"error","name":"PausableActions__ActionPaused","inputs":[]},{"type":"error","name":"RebalancerWithRewards__AddressZero","inputs":[]},{"type":"error","name":"RebalancerWithRewards__ExcessRebalanceFee","inputs":[]},{"type":"error","name":"RebalancerWithRewards__InvalidProvider","inputs":[]},{"type":"error","name":"SafeERC20FailedOperation","inputs":[{"name":"token","type":"address","internalType":"address"}]},{"type":"error","name":"StringTooLong","inputs":[{"name":"str","type":"string","internalType":"string"}]},{"type":"error","name":"Vault__AddressZero","inputs":[]},{"type":"error","name":"Vault__DepositLessThanMin","inputs":[]},{"type":"error","name":"Vault__InvalidInput","inputs":[]},{"type":"error","name":"Vault__SetupAlreadyCompleted","inputs":[]},{"type":"error","name":"Vault__Unauthorized","inputs":[]}],"bytecode":{"object":"0x6101a060405234801562000011575f80fd5b50604051620076cb380380620076cb833981810160405281019062000037919062001404565b8787878787868685806040518060400160405280600181526020017f31000000000000000000000000000000000000000000000000000000000000008152508888816003908162000089919062001753565b5080600490816200009b919062001753565b505050620000b46005836200034860201b90919060201c565b6101208181525050620000d26006826200034860201b90919060201c565b6101408181525050818051906020012060e08181525050808051906020012061010081815250504660a08181525050620001116200039d60201b60201c565b608081815250503073ffffffffffffffffffffffffffffffffffffffff1660c08173ffffffffffffffffffffffffffffffffffffffff1681525050505050620001725f801b62000166620003f960201b60201c565b6200040060201b60201c565b5f73ffffffffffffffffffffffffffffffffffffffff168773ffffffffffffffffffffffffffffffffffffffff1603620001d8576040517f3335653100000000000000000000000000000000000000000000000000000000815260040160405180910390fd5b8673ffffffffffffffffffffffffffffffffffffffff166101608173ffffffffffffffffffffffffffffffffffffffff16815250508673ffffffffffffffffffffffffffffffffffffffff1663313ce5676040518163ffffffff1660e01b8152600401602060405180830381865afa15801562000257573d5f803e3d5ffd5b505050506040513d601f19601f820116820180604052508101906200027d919062001872565b60ff166101808160ff16815250506200029c82620004ea60201b60201c565b620002ad84620005d660201b60201c565b620002db845f81518110620002c757620002c6620018a2565b5b6020026020010151620007c560201b60201c565b620002ec816200088960201b60201c565b620002fd836200097560201b60201c565b62000311620f4240620009fa60201b60201c565b620003225f62000a3d60201b60201c565b505050505050506200033a8362000af060201b60201c565b505050505050505062001db7565b5f6020835110156200036d57620003658362000bdc60201b60201c565b905062000397565b826200037f8362000c4660201b60201c565b5f0190816200038f919062001753565b5060ff5f1b90505b92915050565b5f7f8b73c3c69bb8fe3d512ecc4cf759cc79239f7b179b0ffacaa9a75d522b39400f60e051610100514630604051602001620003de9594939291906200190b565b60405160208183030381529060405280519060200120905090565b5f33905090565b62000412828262000c4f60201b60201c565b620004e657600160085f8481526020019081526020015f205f8373ffffffffffffffffffffffffffffffffffffffff1673ffffffffffffffffffffffffffffffffffffffff1681526020019081526020015f205f6101000a81548160ff0219169083151502179055506200048b620003f960201b60201c565b73ffffffffffffffffffffffffffffffffffffffff168173ffffffffffffffffffffffffffffffffffffffff16837f2f8788117e7eff1d82e926ec794901d17c78024a50270940304540a733656f0d60405160405180910390a45b5050565b5f73ffffffffffffffffffffffffffffffffffffffff168173ffffffffffffffffffffffffffffffffffffffff160362000550576040517f3335653100000000000000000000000000000000000000000000000000000000815260040160405180910390fd5b80600e5f6101000a81548173ffffffffffffffffffffffffffffffffffffffff021916908373ffffffffffffffffffffffffffffffffffffffff1602179055508073ffffffffffffffffffffffffffffffffffffffff167fc046b9e8f0cd9b70a3b838962e9c229277fbb7abee68ea0fad4acf2898ed2ca960405160405180910390a250565b5f5b81518110156200076f575f73ffffffffffffffffffffffffffffffffffffffff168282815181106200060f576200060e620018a2565b5b602002602001015173ffffffffffffffffffffffffffffffffffffffff160362000665576040517f3335653100000000000000000000000000000000000000000000000000000000815260040160405180910390fd5b620007618282815181106200067f576200067e620018a2565b5b602002602001015173ffffffffffffffffffffffffffffffffffffffff166373f64d44620006b262000cb160201b60201c565b305f6040518463ffffffff1660e01b8152600401620006d49392919062001966565b602060405180830381865afa158015620006f0573d5f803e3d5ffd5b505050506040513d601f19601f82011682018060405250810190620007169190620019a1565b7fffffffffffffffffffffffffffffffffffffffffffffffffffffffffffffffff6101605173ffffffffffffffffffffffffffffffffffffffff1662000cbb60201b9092919060201c565b8080600101915050620005d8565b5080600a90805190602001906200078892919062001024565b507f5f589bfb97387c6d7ce41557510dba9ca4a577876489cacc87a22a395b8b13ca81604051620007ba919062001ae5565b60405180910390a150565b620007d68162000de560201b60201c565b6200080d576040517f81d58b4c00000000000000000000000000000000000000000000000000000000815260040160405180910390fd5b80600b5f6101000a81548173ffffffffffffffffffffffffffffffffffffffff021916908373ffffffffffffffffffffffffffffffffffffffff1602179055507f34ea2e3abaf449e8227dcf35ffa3aa94f2b89384cdf95fe6fd34dc2aefc59b09816040516200087e919062001b18565b60405180910390a150565b5f73ffffffffffffffffffffffffffffffffffffffff168173ffffffffffffffffffffffffffffffffffffffff1603620008ef576040517f3335653100000000000000000000000000000000000000000000000000000000815260040160405180910390fd5b80600f5f6101000a81548173ffffffffffffffffffffffffffffffffffffffff021916908373ffffffffffffffffffffffffffffffffffffffff1602179055508073ffffffffffffffffffffffffffffffffffffffff167f7dae230f18360d76a040c81f050aa14eb9d6dc7901b20fc5d855e2a20fe814d160405160405180910390a250565b66b1a2bc2ec50000811115620009b7576040517f81d58b4c00000000000000000000000000000000000000000000000000000000815260040160405180910390fd5b80600d819055507fd84a6d804e5eabc5849fa0d39e4545509125b95c297e1ec5ed98fad0f66befb881604051620009ef919062001b33565b60405180910390a150565b80600c819055507f7a94dccf633222d5f6174016b33ae91ce3449a59c8ac979df57cc84ea1a5b2ef8160405162000a32919062001b33565b60405180910390a150565b8062000a4f8162000e8b60201b60201c565b600160095f84600181111562000a6a5762000a6962001b4e565b5b600181111562000a7f5762000a7e62001b4e565b5b81526020019081526020015f205f6101000a81548160ff0219169083151502179055507f534f879afd40abb4e39f8e1b77a316be4c8e3521d9cf5a3a3db8959d574d455962000ad3620003f960201b60201c565b8360405162000ae492919062001bca565b60405180910390a15050565b5f73ffffffffffffffffffffffffffffffffffffffff168173ffffffffffffffffffffffffffffffffffffffff160362000b56576040517f8f17374000000000000000000000000000000000000000000000000000000000815260040160405180910390fd5b8060105f6101000a81548173ffffffffffffffffffffffffffffffffffffffff021916908373ffffffffffffffffffffffffffffffffffffffff1602179055508073ffffffffffffffffffffffffffffffffffffffff167fc0ebb188f905d128bcd7e4282dd1f9cf24cd331b69071002e488349aca6a867b60405160405180910390a250565b5f80829050601f8151111562000c2b57826040517f305a27a900000000000000000000000000000000000000000000000000000000815260040162000c22919062001c45565b60405180910390fd5b80518162000c399062001c96565b5f1c175f1b915050919050565b5f819050919050565b5f60085f8481526020019081526020015f205f8373ffffffffffffffffffffffffffffffffffffffff1673ffffffffffffffffffffffffffffffffffffffff1681526020019081526020015f205f9054906101000a900460ff16905092915050565b5f61016051905090565b5f8373ffffffffffffffffffffffffffffffffffffffff1663095ea7b3848460405160240162000ced92919062001d05565b604051602081830303815290604052915060e01b6020820180517bffffffffffffffffffffffffffffffffffffffffffffffffffffffff8381831617835250505050905062000d43848262000ed760201b60201c565b62000ddf5762000dcc848573ffffffffffffffffffffffffffffffffffffffff1663095ea7b3865f60405160240162000d7e92919062001d71565b604051602081830303815290604052915060e01b6020820180517bffffffffffffffffffffffffffffffffffffffffffffffffffffffff838183161783525050505062000f3360201b60201c565b62000dde848262000f3360201b60201c565b5b50505050565b5f80600a8054905090505f5b8181101562000e8457600a818154811062000e115762000e10620018a2565b5b905f5260205f20015f9054906101000a900473ffffffffffffffffffffffffffffffffffffffff1673ffffffffffffffffffffffffffffffffffffffff168473ffffffffffffffffffffffffffffffffffffffff160362000e76576001925062000e84565b808060010191505062000df1565b5050919050565b62000e9c8162000fd460201b60201c565b1562000ed4576040517f36a4bf2d00000000000000000000000000000000000000000000000000000000815260040160405180910390fd5b50565b5f805f8060205f8651602088015f8a5af192503d91505f51905082801562000f2857505f821462000f0c576001811462000f27565b5f8673ffffffffffffffffffffffffffffffffffffffff163b115b5b935050505092915050565b5f8060205f8451602086015f885af18062000f53576040513d5f823e3d81fd5b3d92505f519150505f821462000f6e57600181141562000f89565b5f8473ffffffffffffffffffffffffffffffffffffffff163b145b1562000fce57836040517f5274afe700000000000000000000000000000000000000000000000000000000815260040162000fc5919062001d9c565b60405180910390fd5b50505050565b5f60095f83600181111562000fee5762000fed62001b4e565b5b600181111562001003576200100262001b4e565b5b81526020019081526020015f205f9054906101000a900460ff169050919050565b828054828255905f5260205f209081019282156200109d579160200282015b828111156200109c578251825f6101000a81548173ffffffffffffffffffffffffffffffffffffffff021916908373ffffffffffffffffffffffffffffffffffffffff1602179055509160200191906001019062001043565b5b509050620010ac9190620010b0565b5090565b5b80821115620010c9575f815f905550600101620010b1565b5090565b5f604051905090565b5f80fd5b5f80fd5b5f73ffffffffffffffffffffffffffffffffffffffff82169050919050565b5f6200110982620010de565b9050919050565b6200111b81620010fd565b811462001126575f80fd5b50565b5f81519050620011398162001110565b92915050565b5f80fd5b5f80fd5b5f601f19601f8301169050919050565b7f4e487b71000000000000000000000000000000000000000000000000000000005f52604160045260245ffd5b6200118f8262001147565b810181811067ffffffffffffffff82111715620011b157620011b062001157565b5b80604052505050565b5f620011c5620010cd565b9050620011d3828262001184565b919050565b5f67ffffffffffffffff821115620011f557620011f462001157565b5b620012008262001147565b9050602081019050919050565b5f5b838110156200122c5780820151818401526020810190506200120f565b5f8484015250505050565b5f6200124d6200124784620011d8565b620011ba565b9050828152602081018484840111156200126c576200126b62001143565b5b620012798482856200120d565b509392505050565b5f82601f8301126200129857620012976200113f565b5b8151620012aa84826020860162001237565b91505092915050565b5f67ffffffffffffffff821115620012d057620012cf62001157565b5b602082029050602081019050919050565b5f80fd5b5f620012f182620010fd565b9050919050565b6200130381620012e5565b81146200130e575f80fd5b50565b5f815190506200132181620012f8565b92915050565b5f6200133d6200133784620012b3565b620011ba565b90508083825260208201905060208402830185811115620013635762001362620012e1565b5b835b818110156200139057806200137b888262001311565b84526020840193505060208101905062001365565b5050509392505050565b5f82601f830112620013b157620013b06200113f565b5b8151620013c384826020860162001327565b91505092915050565b5f819050919050565b620013e081620013cc565b8114620013eb575f80fd5b50565b5f81519050620013fe81620013d5565b92915050565b5f805f805f805f80610100898b031215620014245762001423620010d6565b5b5f620014338b828c0162001129565b985050602089015167ffffffffffffffff811115620014575762001456620010da565b5b620014658b828c0162001281565b975050604089015167ffffffffffffffff811115620014895762001488620010da565b5b620014978b828c0162001281565b965050606089015167ffffffffffffffff811115620014bb57620014ba620010da565b5b620014c98b828c016200139a565b9550506080620014dc8b828c01620013ee565b94505060a0620014ef8b828c0162001129565b93505060c0620015028b828c0162001129565b92505060e0620015158b828c0162001129565b9150509295985092959890939650565b5f81519050919050565b7f4e487b71000000000000000000000000000000000000000000000000000000005f52602260045260245ffd5b5f60028204905060018216806200157457607f821691505b6020821081036200158a57620015896200152f565b5b50919050565b5f819050815f5260205f209050919050565b5f6020601f8301049050919050565b5f82821b905092915050565b5f60088302620015ee7fffffffffffffffffffffffffffffffffffffffffffffffffffffffffffffffff82620015b1565b620015fa8683620015b1565b95508019841693508086168417925050509392505050565b5f819050919050565b5f6200163b620016356200162f84620013cc565b62001612565b620013cc565b9050919050565b5f819050919050565b62001656836200161b565b6200166e620016658262001642565b848454620015bd565b825550505050565b5f90565b6200168462001676565b620016918184846200164b565b505050565b5b81811015620016b857620016ac5f826200167a565b60018101905062001697565b5050565b601f8211156200170757620016d18162001590565b620016dc84620015a2565b81016020851015620016ec578190505b62001704620016fb85620015a2565b83018262001696565b50505b505050565b5f82821c905092915050565b5f620017295f19846008026200170c565b1980831691505092915050565b5f62001743838362001718565b9150826002028217905092915050565b6200175e8262001525565b67ffffffffffffffff8111156200177a576200177962001157565b5b6200178682546200155c565b62001793828285620016bc565b5f60209050601f831160018114620017c9575f8415620017b4578287015190505b620017c0858262001736565b8655506200182f565b601f198416620017d98662001590565b5f5b828110156200180257848901518255600182019150602085019450602081019050620017db565b868310156200182257848901516200181e601f89168262001718565b8355505b6001600288020188555050505b505050505050565b5f60ff82169050919050565b6200184e8162001837565b811462001859575f80fd5b50565b5f815190506200186c8162001843565b92915050565b5f602082840312156200188a5762001889620010d6565b5b5f62001899848285016200185c565b91505092915050565b7f4e487b71000000000000000000000000000000000000000000000000000000005f52603260045260245ffd5b5f819050919050565b620018e381620018cf565b82525050565b620018f481620013cc565b82525050565b6200190581620010fd565b82525050565b5f60a082019050620019205f830188620018d8565b6200192f6020830187620018d8565b6200193e6040830186620018d8565b6200194d6060830185620018e9565b6200195c6080830184620018fa565b9695505050505050565b5f6060820190506200197b5f830186620018fa565b6200198a6020830185620018fa565b620019996040830184620018fa565b949350505050565b5f60208284031215620019b957620019b8620010d6565b5b5f620019c88482850162001129565b91505092915050565b5f81519050919050565b5f82825260208201905092915050565b5f819050602082019050919050565b5f62001a1a62001a1462001a0e84620010de565b62001612565b620010de565b9050919050565b5f62001a2d82620019fa565b9050919050565b5f62001a408262001a21565b9050919050565b62001a528162001a34565b82525050565b5f62001a65838362001a47565b60208301905092915050565b5f602082019050919050565b5f62001a8982620019d1565b62001a958185620019db565b935062001aa283620019eb565b805f5b8381101562001ad857815162001abc888262001a58565b975062001ac98362001a71565b92505060018101905062001aa5565b5085935050505092915050565b5f6020820190508181035f83015262001aff818462001a7d565b905092915050565b62001b128162001a34565b82525050565b5f60208201905062001b2d5f83018462001b07565b92915050565b5f60208201905062001b485f830184620018e9565b92915050565b7f4e487b71000000000000000000000000000000000000000000000000000000005f52602160045260245ffd5b6002811062001b8f5762001b8e62001b4e565b5b50565b5f81905062001ba18262001b7b565b919050565b5f62001bb28262001b92565b9050919050565b62001bc48162001ba6565b82525050565b5f60408201905062001bdf5f830185620018fa565b62001bee602083018462001bb9565b9392505050565b5f82825260208201905092915050565b5f62001c118262001525565b62001c1d818562001bf5565b935062001c2f8185602086016200120d565b62001c3a8162001147565b840191505092915050565b5f6020820190508181035f83015262001c5f818462001c05565b905092915050565b5f81519050919050565b5f819050602082019050919050565b5f62001c8d8251620018cf565b80915050919050565b5f62001ca28262001c67565b8262001cae8462001c71565b905062001cbb8162001c80565b9250602082101562001cfe5762001cf97fffffffffffffffffffffffffffffffffffffffffffffffffffffffffffffffff83602003600802620015b1565b831692505b5050919050565b5f60408201905062001d1a5f830185620018fa565b62001d296020830184620018e9565b9392505050565b5f819050919050565b5f62001d5962001d5362001d4d8462001d30565b62001612565b620013cc565b9050919050565b62001d6b8162001d39565b82525050565b5f60408201905062001d865f830185620018fa565b62001d95602083018462001d60565b9392505050565b5f60208201905062001db15f830184620018fa565b92915050565b60805160a05160c05160e051610100516101205161014051610160516101805161588b62001e405f395f61122701525f818161125c015281816116250152818161231801528181612582015281816130fa015261314501525f612e4d01525f612e1201525f613dfa01525f613dd901525f61288301525f6128d901525f612902015261588b5ff3fe608060405260043610610384575f3560e01c806384b0196e116101d0578063c63d75b611610101578063d905777e1161009f578063edf07f151161006e578063edf07f1514610df7578063ef8b30f714610e1f578063f0f4426014610e5b578063f5b541a614610e835761038b565b8063d905777e14610d2b578063d9ab2c5c14610d67578063dd62ed3e14610d91578063edc922a914610dcd5761038b565b8063d1f5c33b116100db578063d1f5c33b14610c89578063d33219b414610cb1578063d505accf14610cdb578063d547741f14610d035761038b565b8063c63d75b614610bd5578063c6e6f59214610c11578063ce96cb7714610c4d5761038b565b80639b2cb5d81161016e578063b460af9411610148578063b460af9414610b0d578063ba08765214610b49578063bd88ab5614610b85578063bdacb30314610bad5761038b565b80639b2cb5d814610a6b578063a9059cbb14610a95578063b3d7f6b914610ad15761038b565b806391d14854116101aa57806391d148541461099f57806394bf804d146109db57806395d89b4114610a1757806397f75dd914610a415761038b565b806384b0196e1461090b578063852972791461093b578063897b0637146109775761038b565b806338d52e0f116102b5578063609da8971161025357806371e114301161022257806371e114301461084157806375b238fc146108695780637abac329146108935780637ecebe00146108cf5761038b565b8063609da8971461077557806361d027b31461079f5780636e553f65146107c957806370a08231146108055761038b565b8063447cb8961161028f578063447cb896146106ab578063495ef705146106d35780634cdad506146106fd5780635ac86ab7146107395761038b565b806338d52e0f1461061b5780633f2a554014610645578063402d267d1461066f5761038b565b806318160ddd116103225780632f2ff15d116102fc5780632f2ff15d14610577578063301c7e5d1461059f578063313ce567146105c75780633644e515146105f15761038b565b806318160ddd146104e95780631b98f6ac1461051357806323b872dd1461053b5761038b565b806307bd02651161035e57806307bd02651461041f578063095ea7b3146104495780630a28a477146104855780630fa27539146104c15761038b565b806301e1d1141461038f57806306fdde03146103b957806307a2d13a146103e35761038b565b3661038b57005b5f80fd5b34801561039a575f80fd5b506103a3610ead565b6040516103b09190614748565b60405180910390f35b3480156103c4575f80fd5b506103cd610ebb565b6040516103da91906147eb565b60405180910390f35b3480156103ee575f80fd5b5061040960048036038101906104049190614846565b610f4b565b6040516104169190614748565b60405180910390f35b34801561042a575f80fd5b50610433610f5d565b6040516104409190614889565b60405180910390f35b348015610454575f80fd5b5061046f600480360381019061046a91906148fc565b610f81565b60405161047c9190614954565b60405180910390f35b348015610490575f80fd5b506104ab60048036038101906104a69190614846565b610fa3565b6040516104b89190614748565b60405180910390f35b3480156104cc575f80fd5b506104e760048036038101906104e29190614846565b610fb6565b005b3480156104f4575f80fd5b506104fd6110af565b60405161050a9190614748565b60405180910390f35b34801561051e575f80fd5b5061053960048036038101906105349190614ae8565b6110b8565b005b348015610546575f80fd5b50610561600480360381019061055c9190614b2f565b61114a565b60405161056e9190614954565b60405180910390f35b348015610582575f80fd5b5061059d60048036038101906105989190614ba9565b611178565b005b3480156105aa575f80fd5b506105c560048036038101906105c09190614c0a565b6111cf565b005b3480156105d2575f80fd5b506105db611224565b6040516105e89190614c50565b60405180910390f35b3480156105fc575f80fd5b5061060561124b565b6040516106129190614889565b60405180910390f35b348015610626575f80fd5b5061062f611259565b60405161063c9190614c78565b60405180910390f35b348015610650575f80fd5b50610659611280565b6040516106669190614c78565b60405180910390f35b34801561067a575f80fd5b5061069560048036038101906106909190614c91565b6112a5565b6040516106a29190614748565b60405180910390f35b3480156106b6575f80fd5b506106d160048036038101906106cc9190614846565b6112e5565b005b3480156106de575f80fd5b506106e761133a565b6040516106f49190614748565b60405180910390f35b348015610708575f80fd5b50610723600480360381019061071e9190614846565b611340565b6040516107309190614748565b60405180910390f35b348015610744575f80fd5b5061075f600480360381019061075a9190614c0a565b611352565b60405161076c9190614954565b60405180910390f35b348015610780575f80fd5b5061078961139c565b6040516107969190614954565b60405180910390f35b3480156107aa575f80fd5b506107b36113af565b6040516107c09190614c78565b60405180910390f35b3480156107d4575f80fd5b506107ef60048036038101906107ea9190614cbc565b6113d4565b6040516107fc9190614748565b60405180910390f35b348015610810575f80fd5b5061082b60048036038101906108269190614c91565b611402565b6040516108389190614748565b60405180910390f35b34801561084c575f80fd5b5061086760048036038101906108629190614cfa565b611447565b005b348015610874575f80fd5b5061087d61149c565b60405161088a9190614889565b60405180910390f35b34801561089e575f80fd5b506108b960048036038101906108b49190614d4f565b6114a2565b6040516108c69190614954565b60405180910390f35b3480156108da575f80fd5b506108f560048036038101906108f09190614c91565b61174a565b6040516109029190614748565b60405180910390f35b348015610916575f80fd5b5061091f61175b565b6040516109329796959493929190614eb7565b60405180910390f35b348015610946575f80fd5b50610961600480360381019061095c9190614c91565b611800565b60405161096e9190614748565b60405180910390f35b348015610982575f80fd5b5061099d60048036038101906109989190614846565b611819565b005b3480156109aa575f80fd5b506109c560048036038101906109c09190614ba9565b61186e565b6040516109d29190614954565b60405180910390f35b3480156109e6575f80fd5b50610a0160048036038101906109fc9190614cbc565b6118d0565b604051610a0e9190614748565b60405180910390f35b348015610a22575f80fd5b50610a2b6118fe565b604051610a3891906147eb565b60405180910390f35b348015610a4c575f80fd5b50610a5561198e565b604051610a629190614f94565b60405180910390f35b348015610a76575f80fd5b50610a7f6119b3565b604051610a8c9190614748565b60405180910390f35b348015610aa0575f80fd5b50610abb6004803603810190610ab691906148fc565b6119b9565b604051610ac89190614954565b60405180910390f35b348015610adc575f80fd5b50610af76004803603810190610af29190614846565b6119db565b604051610b049190614748565b60405180910390f35b348015610b18575f80fd5b50610b336004803603810190610b2e9190614fad565b6119ee565b604051610b409190614748565b60405180910390f35b348015610b54575f80fd5b50610b6f6004803603810190610b6a9190614fad565b611a28565b604051610b7c9190614748565b60405180910390f35b348015610b90575f80fd5b50610bab6004803603810190610ba69190614c91565b611a62565b005b348015610bb8575f80fd5b50610bd36004803603810190610bce9190614c91565b611b80565b005b348015610be0575f80fd5b50610bfb6004803603810190610bf69190614c91565b611c12565b604051610c089190614748565b60405180910390f35b348015610c1c575f80fd5b50610c376004803603810190610c329190614846565b611c52565b604051610c449190614748565b60405180910390f35b348015610c58575f80fd5b50610c736004803603810190610c6e9190614c91565b611c64565b604051610c809190614748565b60405180910390f35b348015610c94575f80fd5b50610caf6004803603810190610caa9190614c91565b611c95565b005b348015610cbc575f80fd5b50610cc5611cea565b604051610cd29190614c78565b60405180910390f35b348015610ce6575f80fd5b50610d016004803603810190610cfc9190615027565b611d0f565b005b348015610d0e575f80fd5b50610d296004803603810190610d249190614ba9565b611e54565b005b348015610d36575f80fd5b50610d516004803603810190610d4c9190614c91565b611eab565b604051610d5e9190614748565b60405180910390f35b348015610d72575f80fd5b50610d7b611ed4565b604051610d889190614889565b60405180910390f35b348015610d9c575f80fd5b50610db76004803603810190610db291906150c4565b611ef7565b604051610dc49190614748565b60405180910390f35b348015610dd8575f80fd5b50610de1611f79565b604051610dee91906151b9565b60405180910390f35b348015610e02575f80fd5b50610e1d6004803603810190610e189190614c0a565b612004565b005b348015610e2a575f80fd5b50610e456004803603810190610e409190614846565b612059565b604051610e529190614748565b60405180910390f35b348015610e66575f80fd5b50610e816004803603810190610e7c9190614c91565b61206b565b005b348015610e8e575f80fd5b50610e976120c0565b604051610ea49190614889565b60405180910390f35b5f610eb66120e4565b905090565b606060038054610eca90615206565b80601f0160208091040260200160405190810160405280929190818152602001828054610ef690615206565b8015610f415780601f10610f1857610100808354040283529160200191610f41565b820191905f5260205f20905b815481529060010190602001808311610f2457829003601f168201915b5050505050905090565b5f610f56825f6121d1565b9050919050565b7fd8aa0f3194971a2a116679f7c2090f6939c8d4e01a2a8d7e41d55e5351469e6381565b5f80610f8b612212565b9050610f98818585612219565b600191505092915050565b5f610faf82600161222b565b9050919050565b600f60149054906101000a900460ff1615610ffd576040517f2b2cba5d00000000000000000000000000000000000000000000000000000000815260040160405180910390fd5b600c54811015611039576040517f26edc90c00000000000000000000000000000000000000000000000000000000815260040160405180910390fd5b6110425f612276565b61104e33308384612310565b6001600f60146101000a81548160ff0219169083151502179055503373ffffffffffffffffffffffffffffffffffffffff167fb1fa1aae20fc88a51add616c46f8bc3a8d65d75b8fbe30fb0a6a2df2e773632260405160405180910390a250565b5f600254905090565b600e5f9054906101000a900473ffffffffffffffffffffffffffffffffffffffff1673ffffffffffffffffffffffffffffffffffffffff163373ffffffffffffffffffffffffffffffffffffffff161461113e576040517f84312d1000000000000000000000000000000000000000000000000000000000815260040160405180910390fd5b61114781612435565b50565b5f80611154612212565b9050611161858285612625565b61116c8585856126b7565b60019150509392505050565b61118b5f801b611186612212565b61186e565b6111c1576040517ff72bfde400000000000000000000000000000000000000000000000000000000815260040160405180910390fd5b6111cb82826127a7565b5050565b6111e25f801b6111dd612212565b61186e565b611218576040517ff72bfde400000000000000000000000000000000000000000000000000000000815260040160405180910390fd5b61122181612276565b50565b5f7f0000000000000000000000000000000000000000000000000000000000000000905090565b5f611254612880565b905090565b5f7f0000000000000000000000000000000000000000000000000000000000000000905090565b60105f9054906101000a900473ffffffffffffffffffffffffffffffffffffffff1681565b5f6112af5f611352565b156112bc575f90506112e0565b7fffffffffffffffffffffffffffffffffffffffffffffffffffffffffffffffff90505b919050565b6112f85f801b6112f3612212565b61186e565b61132e576040517ff72bfde400000000000000000000000000000000000000000000000000000000815260040160405180910390fd5b61133781612936565b50565b600d5481565b5f61134b825f6121d1565b9050919050565b5f60095f83600181111561136957611368615236565b5b600181111561137b5761137a615236565b5b81526020019081526020015f205f9054906101000a900460ff169050919050565b600f60149054906101000a900460ff1681565b600f5f9054906101000a900473ffffffffffffffffffffffffffffffffffffffff1681565b5f806113df84612059565b90506113ec8385836129b8565b6113f833848684612310565b8091505092915050565b5f805f8373ffffffffffffffffffffffffffffffffffffffff1673ffffffffffffffffffffffffffffffffffffffff1681526020019081526020015f20549050919050565b61145a5f801b611455612212565b61186e565b611490576040517ff72bfde400000000000000000000000000000000000000000000000000000000815260040160405180910390fd5b61149981612aad565b50565b5f801b81565b5f6114d47f97667070c54ef182b0f5858b034beac1b6f3089aa2d3188bb1e8929f4fa9b9296114cf612212565b61186e565b61150a576040517fb7c512ee00000000000000000000000000000000000000000000000000000000815260040160405180910390fd5b61151385612b66565b1580611525575061152384612b66565b155b1561155c576040517f3c74bff000000000000000000000000000000000000000000000000000000000815260040160405180910390fd5b6115668387612c05565b6115a6866040518060400160405280600881526020017f776974686472617700000000000000000000000000000000000000000000000081525087612c6c565b6115f183876115b59190615290565b6040518060400160405280600781526020017f6465706f7369740000000000000000000000000000000000000000000000000081525086612c6c565b5f8311156116bb575f600f5f9054906101000a900473ffffffffffffffffffffffffffffffffffffffff16905061166981857f000000000000000000000000000000000000000000000000000000000000000073ffffffffffffffffffffffffffffffffffffffff16612d449092919063ffffffff16565b8073ffffffffffffffffffffffffffffffffffffffff167facffcc86834d0f1a64b0d5a675798deed6ff0bcfc2231edd3480e7288dba7ff488866040516116b19291906152c3565b60405180910390a2505b81156116cb576116ca84612aad565b5b8373ffffffffffffffffffffffffffffffffffffffff168573ffffffffffffffffffffffffffffffffffffffff167f086c47503692f7dac9bd7ce63f1c29c814ce3ae59ee29390e242340d6dd8d58f88868a6117279190615290565b6040516117359291906152c3565b60405180910390a36001905095945050505050565b5f61175482612dc3565b9050919050565b5f6060805f805f606061176c612e09565b611774612e44565b46305f801b5f67ffffffffffffffff81111561179357611792614971565b5b6040519080825280602002602001820160405280156117c15781602001602082028036833780820191505090505b507f0f00000000000000000000000000000000000000000000000000000000000000959493929190965096509650965096509650965090919293949596565b5f61181261180d83611402565b610f4b565b9050919050565b61182c5f801b611827612212565b61186e565b611862576040517ff72bfde400000000000000000000000000000000000000000000000000000000815260040160405180910390fd5b61186b81612e7f565b50565b5f60085f8481526020019081526020015f205f8373ffffffffffffffffffffffffffffffffffffffff1673ffffffffffffffffffffffffffffffffffffffff1681526020019081526020015f205f9054906101000a900460ff16905092915050565b5f806118db846119db565b90506118e88382866129b8565b6118f433848387612310565b8091505092915050565b60606004805461190d90615206565b80601f016020809104026020016040519081016040528092919081815260200182805461193990615206565b80156119845780601f1061195b57610100808354040283529160200191611984565b820191905f5260205f20905b81548152906001019060200180831161196757829003601f168201915b5050505050905090565b600b5f9054906101000a900473ffffffffffffffffffffffffffffffffffffffff1681565b600c5481565b5f806119c3612212565b90506119d08185856126b7565b600191505092915050565b5f6119e78260016121d1565b9050919050565b5f806119f985610fa3565b90505f80611a0a8784338989612ec0565b91509150611a1b3387878585613032565b8093505050509392505050565b5f80611a3385611340565b90505f80611a448388338989612ec0565b91509150611a553387878585613032565b8193505050509392505050565b5f8173ffffffffffffffffffffffffffffffffffffffff166370a08231306040518263ffffffff1660e01b8152600401611a9c9190614c78565b602060405180830381865afa158015611ab7573d5f803e3d5ffd5b505050506040513d601f19601f82011682018060405250810190611adb91906152fe565b90505f60105f9054906101000a900473ffffffffffffffffffffffffffffffffffffffff169050611b2d81838573ffffffffffffffffffffffffffffffffffffffff16612d449092919063ffffffff16565b8073ffffffffffffffffffffffffffffffffffffffff167f586b2e63a21a7a4e1402e36f48ce10cb1ec94684fea254c186b76d1f98ecf13083604051611b739190614748565b60405180910390a2505050565b600e5f9054906101000a900473ffffffffffffffffffffffffffffffffffffffff1673ffffffffffffffffffffffffffffffffffffffff163373ffffffffffffffffffffffffffffffffffffffff1614611c06576040517f84312d1000000000000000000000000000000000000000000000000000000000815260040160405180910390fd5b611c0f81613261565b50565b5f611c1c5f611352565b15611c29575f9050611c4d565b7fffffffffffffffffffffffffffffffffffffffffffffffffffffffffffffffff90505b919050565b5f611c5d825f61222b565b9050919050565b5f611c6f6001611352565b15611c7c575f9050611c90565b611c8d611c8883611402565b610f4b565b90505b919050565b611ca85f801b611ca3612212565b61186e565b611cde576040517ff72bfde400000000000000000000000000000000000000000000000000000000815260040160405180910390fd5b611ce78161334c565b50565b600e5f9054906101000a900473ffffffffffffffffffffffffffffffffffffffff1681565b83421115611d5457836040517f62791302000000000000000000000000000000000000000000000000000000008152600401611d4b9190614748565b60405180910390fd5b5f7f6e71edae12b1b97f4d1f60370fef10105fa2faae0126114a169c64845d6126c9888888611d828c613437565b89604051602001611d9896959493929190615329565b6040516020818303038152906040528051906020012090505f611dba8261348a565b90505f611dc9828787876134a3565b90508973ffffffffffffffffffffffffffffffffffffffff168173ffffffffffffffffffffffffffffffffffffffff1614611e3d57808a6040517f4b800e46000000000000000000000000000000000000000000000000000000008152600401611e34929190615388565b60405180910390fd5b611e488a8a8a612219565b50505050505050505050565b611e675f801b611e62612212565b61186e565b611e9d576040517ff72bfde400000000000000000000000000000000000000000000000000000000815260040160405180910390fd5b611ea782826134d1565b5050565b5f611eb66001611352565b15611ec3575f9050611ecf565b611ecc82611402565b90505b919050565b7e9ab23a1010d07a0450a1fbea1d84169b57d2c2273b54bff0f20c3e90199b5d81565b5f60015f8473ffffffffffffffffffffffffffffffffffffffff1673ffffffffffffffffffffffffffffffffffffffff1681526020019081526020015f205f8373ffffffffffffffffffffffffffffffffffffffff1673ffffffffffffffffffffffffffffffffffffffff1681526020019081526020015f2054905092915050565b6060600a805480602002602001604051908101604052809291908181526020018280548015611ffa57602002820191905f5260205f20905b815f9054906101000a900473ffffffffffffffffffffffffffffffffffffffff1673ffffffffffffffffffffffffffffffffffffffff1681526020019060010190808311611fb1575b5050505050905090565b6120175f801b612012612212565b61186e565b61204d576040517ff72bfde400000000000000000000000000000000000000000000000000000000815260040160405180910390fd5b612056816135aa565b50565b5f612064825f61222b565b9050919050565b61207e5f801b612079612212565b61186e565b6120b4576040517ff72bfde400000000000000000000000000000000000000000000000000000000815260040160405180910390fd5b6120bd81613645565b50565b7f97667070c54ef182b0f5858b034beac1b6f3089aa2d3188bb1e8929f4fa9b92981565b5f805f600a8054905090505f5b818110156121cb57600a818154811061210d5761210c6153af565b5b905f5260205f20015f9054906101000a900473ffffffffffffffffffffffffffffffffffffffff1673ffffffffffffffffffffffffffffffffffffffff16630ae112a430306040518363ffffffff1660e01b815260040161216f9291906153fc565b602060405180830381865afa15801561218a573d5f803e3d5ffd5b505050506040513d601f19601f820116820180604052508101906121ae91906152fe565b925082846121bc9190615423565b935080806001019150506120f1565b50505090565b5f806121db6110af565b90505f8114612207576122026121ef610ead565b828587613730909392919063ffffffff16565b612209565b835b91505092915050565b5f33905090565b612226838383600161377d565b505050565b5f806122356110af565b90505f84148061224457505f81145b61226b5761226681612254610ead565b8587613730909392919063ffffffff16565b61226d565b835b91505092915050565b806122808161394c565b5f60095f84600181111561229757612296615236565b5b60018111156122a9576122a8615236565b5b81526020019081526020015f205f6101000a81548160ff0219169083151502179055507f4cd3e1443d03aba343c5d882744f8f172c07b495e955ac3defb325cbd73c85506122f5612212565b8360405161230492919061549c565b60405180910390a15050565b61235d8430847f000000000000000000000000000000000000000000000000000000000000000073ffffffffffffffffffffffffffffffffffffffff1661398e909392919063ffffffff16565b6123be826040518060400160405280600781526020017f6465706f73697400000000000000000000000000000000000000000000000000815250600b5f9054906101000a900473ffffffffffffffffffffffffffffffffffffffff16612c6c565b6123c88382613a10565b8273ffffffffffffffffffffffffffffffffffffffff168473ffffffffffffffffffffffffffffffffffffffff167fdcbc1c05240f31ff3ad067ef1ee35ce4997762752e3a095284754544f4c709d784846040516124279291906152c3565b60405180910390a350505050565b5f5b81518110156125d3575f73ffffffffffffffffffffffffffffffffffffffff1682828151811061246a576124696153af565b5b602002602001015173ffffffffffffffffffffffffffffffffffffffff16036124bf576040517f3335653100000000000000000000000000000000000000000000000000000000815260040160405180910390fd5b6125c68282815181106124d5576124d46153af565b5b602002602001015173ffffffffffffffffffffffffffffffffffffffff166373f64d44612500611259565b305f6040518463ffffffff1660e01b8152600401612520939291906154c3565b602060405180830381865afa15801561253b573d5f803e3d5ffd5b505050506040513d601f19601f8201168201806040525081019061255f919061550c565b7fffffffffffffffffffffffffffffffffffffffffffffffffffffffffffffffff7f000000000000000000000000000000000000000000000000000000000000000073ffffffffffffffffffffffffffffffffffffffff16613a8f9092919063ffffffff16565b8080600101915050612437565b5080600a90805190602001906125ea92919061468e565b507f5f589bfb97387c6d7ce41557510dba9ca4a577876489cacc87a22a395b8b13ca8160405161261a91906151b9565b60405180910390a150565b5f6126308484611ef7565b90507fffffffffffffffffffffffffffffffffffffffffffffffffffffffffffffffff81146126b157818110156126a2578281836040517ffb8f41b200000000000000000000000000000000000000000000000000000000815260040161269993929190615537565b60405180910390fd5b6126b084848484035f61377d565b5b50505050565b5f73ffffffffffffffffffffffffffffffffffffffff168373ffffffffffffffffffffffffffffffffffffffff1603612727575f6040517f96c6fd1e00000000000000000000000000000000000000000000000000000000815260040161271e9190614c78565b60405180910390fd5b5f73ffffffffffffffffffffffffffffffffffffffff168273ffffffffffffffffffffffffffffffffffffffff1603612797575f6040517fec442f0500000000000000000000000000000000000000000000000000000000815260040161278e9190614c78565b60405180910390fd5b6127a2838383613b9c565b505050565b6127b1828261186e565b61287c57600160085f8481526020019081526020015f205f8373ffffffffffffffffffffffffffffffffffffffff1673ffffffffffffffffffffffffffffffffffffffff1681526020019081526020015f205f6101000a81548160ff021916908315150217905550612821612212565b73ffffffffffffffffffffffffffffffffffffffff168173ffffffffffffffffffffffffffffffffffffffff16837f2f8788117e7eff1d82e926ec794901d17c78024a50270940304540a733656f0d60405160405180910390a45b5050565b5f7f000000000000000000000000000000000000000000000000000000000000000073ffffffffffffffffffffffffffffffffffffffff163073ffffffffffffffffffffffffffffffffffffffff161480156128fb57507f000000000000000000000000000000000000000000000000000000000000000046145b15612928577f00000000000000000000000000000000000000000000000000000000000000009050612933565b612930613db5565b90505b90565b66b1a2bc2ec50000811115612977576040517f81d58b4c00000000000000000000000000000000000000000000000000000000815260040160405180910390fd5b80600d819055507fd84a6d804e5eabc5849fa0d39e4545509125b95c297e1ec5ed98fad0f66befb8816040516129ad9190614748565b60405180910390a150565b5f6129c281613e4a565b5f73ffffffffffffffffffffffffffffffffffffffff168473ffffffffffffffffffffffffffffffffffffffff1603612a27576040517f3335653100000000000000000000000000000000000000000000000000000000815260040160405180910390fd5b5f831480612a3457505f82145b15612a6b576040517f81d58b4c00000000000000000000000000000000000000000000000000000000815260040160405180910390fd5b600c54831015612aa7576040517f26edc90c00000000000000000000000000000000000000000000000000000000815260040160405180910390fd5b50505050565b612ab681612b66565b612aec576040517f81d58b4c00000000000000000000000000000000000000000000000000000000815260040160405180910390fd5b80600b5f6101000a81548173ffffffffffffffffffffffffffffffffffffffff021916908373ffffffffffffffffffffffffffffffffffffffff1602179055507f34ea2e3abaf449e8227dcf35ffa3aa94f2b89384cdf95fe6fd34dc2aefc59b0981604051612b5b9190614f94565b60405180910390a150565b5f80600a8054905090505f5b81811015612bfe57600a8181548110612b8e57612b8d6153af565b5b905f5260205f20015f9054906101000a900473ffffffffffffffffffffffffffffffffffffffff1673ffffffffffffffffffffffffffffffffffffffff168473ffffffffffffffffffffffffffffffffffffffff1603612bf15760019250612bfe565b8080600101915050612b72565b5050919050565b5f612c2b6702c68af0bb140000670de0b6b3a764000084613e8d9092919063ffffffff16565b905080831115612c67576040517f64b0da1900000000000000000000000000000000000000000000000000000000815260040160405180910390fd5b505050565b5f82604051602001612c7e91906155f0565b6040516020818303038152906040528430604051602401612ca0929190615611565b60405160208183030381529060405290604051612cbd9190615638565b60405180910390207bffffffffffffffffffffffffffffffffffffffffffffffffffffffff19166020820180517bffffffffffffffffffffffffffffffffffffffffffffffffffffffff83818316178352505050509050612d3d818373ffffffffffffffffffffffffffffffffffffffff16613f7290919063ffffffff16565b5050505050565b612dbe838473ffffffffffffffffffffffffffffffffffffffff1663a9059cbb8585604051602401612d7792919061564e565b604051602081830303815290604052915060e01b6020820180517bffffffffffffffffffffffffffffffffffffffffffffffffffffffff8381831617835250505050613ff2565b505050565b5f60075f8373ffffffffffffffffffffffffffffffffffffffff1673ffffffffffffffffffffffffffffffffffffffff1681526020019081526020015f20549050919050565b6060612e3f60057f000000000000000000000000000000000000000000000000000000000000000061408d90919063ffffffff16565b905090565b6060612e7a60067f000000000000000000000000000000000000000000000000000000000000000061408d90919063ffffffff16565b905090565b80600c819055507f7a94dccf633222d5f6174016b33ae91ce3449a59c8ac979df57cc84ea1a5b2ef81604051612eb59190614748565b60405180910390a150565b5f806001612ecd81613e4a565b5f73ffffffffffffffffffffffffffffffffffffffff168573ffffffffffffffffffffffffffffffffffffffff161480612f3257505f73ffffffffffffffffffffffffffffffffffffffff168473ffffffffffffffffffffffffffffffffffffffff16145b15612f69576040517f3335653100000000000000000000000000000000000000000000000000000000815260040160405180910390fd5b5f881480612f7657505f87145b15612fad576040517f81d58b4c00000000000000000000000000000000000000000000000000000000815260040160405180910390fd5b5f612fb785611c64565b905080891115612fe057809350612fd9888a86613e8d9092919063ffffffff16565b9250612fe7565b8893508792505b8473ffffffffffffffffffffffffffffffffffffffff168773ffffffffffffffffffffffffffffffffffffffff161461302657613025858885612625565b5b50509550959350505050565b5f613052600d54670de0b6b3a764000085613e8d9092919063ffffffff16565b90505f81846130619190615290565b905061306d858461413a565b6130ce846040518060400160405280600881526020017f7769746864726177000000000000000000000000000000000000000000000000815250600b5f9054906101000a900473ffffffffffffffffffffffffffffffffffffffff16612c6c565b5f600f5f9054906101000a900473ffffffffffffffffffffffffffffffffffffffff16905061313e81847f000000000000000000000000000000000000000000000000000000000000000073ffffffffffffffffffffffffffffffffffffffff16612d449092919063ffffffff16565b61318987837f000000000000000000000000000000000000000000000000000000000000000073ffffffffffffffffffffffffffffffffffffffff16612d449092919063ffffffff16565b8073ffffffffffffffffffffffffffffffffffffffff167facffcc86834d0f1a64b0d5a675798deed6ff0bcfc2231edd3480e7288dba7ff486856040516131d19291906152c3565b60405180910390a28573ffffffffffffffffffffffffffffffffffffffff168773ffffffffffffffffffffffffffffffffffffffff168973ffffffffffffffffffffffffffffffffffffffff167ffbde797d201c681b91056529119e0b02407c7bb96a4a2c75c01fc9667232c8db858860405161324f9291906152c3565b60405180910390a45050505050505050565b5f73ffffffffffffffffffffffffffffffffffffffff168173ffffffffffffffffffffffffffffffffffffffff16036132c6576040517f3335653100000000000000000000000000000000000000000000000000000000815260040160405180910390fd5b80600e5f6101000a81548173ffffffffffffffffffffffffffffffffffffffff021916908373ffffffffffffffffffffffffffffffffffffffff1602179055508073ffffffffffffffffffffffffffffffffffffffff167fc046b9e8f0cd9b70a3b838962e9c229277fbb7abee68ea0fad4acf2898ed2ca960405160405180910390a250565b5f73ffffffffffffffffffffffffffffffffffffffff168173ffffffffffffffffffffffffffffffffffffffff16036133b1576040517f8f17374000000000000000000000000000000000000000000000000000000000815260040160405180910390fd5b8060105f6101000a81548173ffffffffffffffffffffffffffffffffffffffff021916908373ffffffffffffffffffffffffffffffffffffffff1602179055508073ffffffffffffffffffffffffffffffffffffffff167fc0ebb188f905d128bcd7e4282dd1f9cf24cd331b69071002e488349aca6a867b60405160405180910390a250565b5f60075f8373ffffffffffffffffffffffffffffffffffffffff1673ffffffffffffffffffffffffffffffffffffffff1681526020019081526020015f205f815480929190600101919050559050919050565b5f61349c613496612880565b836141b9565b9050919050565b5f805f806134b3888888886141f9565b9250925092506134c382826142e0565b829350505050949350505050565b6134db828261186e565b156135a6575f60085f8481526020019081526020015f205f8373ffffffffffffffffffffffffffffffffffffffff1673ffffffffffffffffffffffffffffffffffffffff1681526020019081526020015f205f6101000a81548160ff02191690831515021790555061354b612212565b73ffffffffffffffffffffffffffffffffffffffff168173ffffffffffffffffffffffffffffffffffffffff16837ff6391f5c32d9c69d2a47ea670b442974b53935d1edc7fd64eb21e047a839171b60405160405180910390a45b5050565b806135b481613e4a565b600160095f8460018111156135cc576135cb615236565b5b60018111156135de576135dd615236565b5b81526020019081526020015f205f6101000a81548160ff0219169083151502179055507f534f879afd40abb4e39f8e1b77a316be4c8e3521d9cf5a3a3db8959d574d455961362a612212565b8360405161363992919061549c565b60405180910390a15050565b5f73ffffffffffffffffffffffffffffffffffffffff168173ffffffffffffffffffffffffffffffffffffffff16036136aa576040517f3335653100000000000000000000000000000000000000000000000000000000815260040160405180910390fd5b80600f5f6101000a81548173ffffffffffffffffffffffffffffffffffffffff021916908373ffffffffffffffffffffffffffffffffffffffff1602179055508073ffffffffffffffffffffffffffffffffffffffff167f7dae230f18360d76a040c81f050aa14eb9d6dc7901b20fc5d855e2a20fe814d160405160405180910390a250565b5f61375e61373d83614442565b801561375957505f848061375457613753615675565b5b868809115b61446f565b613769868686613e8d565b6137739190615423565b9050949350505050565b5f73ffffffffffffffffffffffffffffffffffffffff168473ffffffffffffffffffffffffffffffffffffffff16036137ed575f6040517fe602df050000000000000000000000000000000000000000000000000000000081526004016137e49190614c78565b60405180910390fd5b5f73ffffffffffffffffffffffffffffffffffffffff168373ffffffffffffffffffffffffffffffffffffffff160361385d575f6040517f94280d620000000000000000000000000000000000000000000000000000000081526004016138549190614c78565b60405180910390fd5b8160015f8673ffffffffffffffffffffffffffffffffffffffff1673ffffffffffffffffffffffffffffffffffffffff1681526020019081526020015f205f8573ffffffffffffffffffffffffffffffffffffffff1673ffffffffffffffffffffffffffffffffffffffff1681526020019081526020015f20819055508015613946578273ffffffffffffffffffffffffffffffffffffffff168473ffffffffffffffffffffffffffffffffffffffff167f8c5be1e5ebec7d5bd14f71427d1e84f3dd0314c0f7b2291e5b200ac8c7c3b9258460405161393d9190614748565b60405180910390a35b50505050565b61395581611352565b61398b576040517f60f8581d00000000000000000000000000000000000000000000000000000000815260040160405180910390fd5b50565b613a0a848573ffffffffffffffffffffffffffffffffffffffff166323b872dd8686866040516024016139c3939291906156a2565b604051602081830303815290604052915060e01b6020820180517bffffffffffffffffffffffffffffffffffffffffffffffffffffffff8381831617835250505050613ff2565b50505050565b5f73ffffffffffffffffffffffffffffffffffffffff168273ffffffffffffffffffffffffffffffffffffffff1603613a80575f6040517fec442f05000000000000000000000000000000000000000000000000000000008152600401613a779190614c78565b60405180910390fd5b613a8b5f8383613b9c565b5050565b5f8373ffffffffffffffffffffffffffffffffffffffff1663095ea7b38484604051602401613abf92919061564e565b604051602081830303815290604052915060e01b6020820180517bffffffffffffffffffffffffffffffffffffffffffffffffffffffff83818316178352505050509050613b0d848261447a565b613b9657613b8b848573ffffffffffffffffffffffffffffffffffffffff1663095ea7b3865f604051602401613b44929190615710565b604051602081830303815290604052915060e01b6020820180517bffffffffffffffffffffffffffffffffffffffffffffffffffffffff8381831617835250505050613ff2565b613b958482613ff2565b5b50505050565b5f73ffffffffffffffffffffffffffffffffffffffff168373ffffffffffffffffffffffffffffffffffffffff1603613bec578060025f828254613be09190615423565b92505081905550613cba565b5f805f8573ffffffffffffffffffffffffffffffffffffffff1673ffffffffffffffffffffffffffffffffffffffff1681526020019081526020015f2054905081811015613c75578381836040517fe450d38c000000000000000000000000000000000000000000000000000000008152600401613c6c93929190615537565b60405180910390fd5b8181035f808673ffffffffffffffffffffffffffffffffffffffff1673ffffffffffffffffffffffffffffffffffffffff1681526020019081526020015f2081905550505b5f73ffffffffffffffffffffffffffffffffffffffff168273ffffffffffffffffffffffffffffffffffffffff1603613d01578060025f8282540392505081905550613d4b565b805f808473ffffffffffffffffffffffffffffffffffffffff1673ffffffffffffffffffffffffffffffffffffffff1681526020019081526020015f205f82825401925050819055505b8173ffffffffffffffffffffffffffffffffffffffff168373ffffffffffffffffffffffffffffffffffffffff167fddf252ad1be2c89b69c2b068fc378daa952ba7f163c4a11628f55a4df523b3ef83604051613da89190614748565b60405180910390a3505050565b5f7f8b73c3c69bb8fe3d512ecc4cf759cc79239f7b179b0ffacaa9a75d522b39400f7f00000000000000000000000000000000000000000000000000000000000000007f00000000000000000000000000000000000000000000000000000000000000004630604051602001613e2f959493929190615737565b60405160208183030381529060405280519060200120905090565b613e5381611352565b15613e8a576040517f36a4bf2d00000000000000000000000000000000000000000000000000000000815260040160405180910390fd5b50565b5f8083850290505f8019858709828110838203039150505f8103613ec557838281613ebb57613eba615675565b5b0492505050613f6b565b808411613ee457613ee3613ede5f8614601260116144d3565b6144ec565b5b5f8486880990508281118203915080830392505f855f038616905080860495508084049350600181825f0304019050808302841793505f600287600302189050808702600203810290508087026002038102905080870260020381029050808702600203810290508087026002038102905080870260020381029050808502955050505050505b9392505050565b60605f808473ffffffffffffffffffffffffffffffffffffffff1684604051613f9b91906157cc565b5f60405180830381855af49150503d805f8114613fd3576040519150601f19603f3d011682016040523d82523d5f602084013e613fd8565b606091505b5091509150613fe88583836144fd565b9250505092915050565b5f8060205f8451602086015f885af180614011576040513d5f823e3d81fd5b3d92505f519150505f821461402a576001811415614045565b5f8473ffffffffffffffffffffffffffffffffffffffff163b145b1561408757836040517f5274afe700000000000000000000000000000000000000000000000000000000815260040161407e9190614c78565b60405180910390fd5b50505050565b606060ff5f1b83146140a9576140a28361458a565b9050614134565b8180546140b590615206565b80601f01602080910402602001604051908101604052809291908181526020018280546140e190615206565b801561412c5780601f106141035761010080835404028352916020019161412c565b820191905f5260205f20905b81548152906001019060200180831161410f57829003601f168201915b505050505090505b92915050565b5f73ffffffffffffffffffffffffffffffffffffffff168273ffffffffffffffffffffffffffffffffffffffff16036141aa575f6040517f96c6fd1e0000000000000000000000000000000000000000000000000000000081526004016141a19190614c78565b60405180910390fd5b6141b5825f83613b9c565b5050565b5f6040517f190100000000000000000000000000000000000000000000000000000000000081528360028201528260228201526042812091505092915050565b5f805f7f7fffffffffffffffffffffffffffffff5d576e7357a4501ddfe92f46681b20a0845f1c1115614235575f6003859250925092506142d6565b5f6001888888886040515f815260200160405260405161425894939291906157e2565b6020604051602081039080840390855afa158015614278573d5f803e3d5ffd5b5050506020604051035190505f73ffffffffffffffffffffffffffffffffffffffff168173ffffffffffffffffffffffffffffffffffffffff16036142c9575f60015f801b935093509350506142d6565b805f805f1b935093509350505b9450945094915050565b5f60038111156142f3576142f2615236565b5b82600381111561430657614305615236565b5b031561443e57600160038111156143205761431f615236565b5b82600381111561433357614332615236565b5b0361436a576040517ff645eedf00000000000000000000000000000000000000000000000000000000815260040160405180910390fd5b6002600381111561437e5761437d615236565b5b82600381111561439157614390615236565b5b036143d557805f1c6040517ffce698f70000000000000000000000000000000000000000000000000000000081526004016143cc9190614748565b60405180910390fd5b6003808111156143e8576143e7615236565b5b8260038111156143fb576143fa615236565b5b0361443d57806040517fd78bce0c0000000000000000000000000000000000000000000000000000000081526004016144349190614889565b60405180910390fd5b5b5050565b5f6001600283600381111561445a57614459615236565b5b6144649190615825565b60ff16149050919050565b5f8115159050919050565b5f805f8060205f8651602088015f8a5af192503d91505f5190508280156144c857505f82146144ac57600181146144c7565b5f8673ffffffffffffffffffffffffffffffffffffffff163b115b5b935050505092915050565b5f6144dd8461446f565b82841802821890509392505050565b634e487b715f52806020526024601cfd5b6060826145125761450d826145fc565b614582565b5f825114801561453857505f8473ffffffffffffffffffffffffffffffffffffffff163b145b1561457a57836040517f9996b3150000000000000000000000000000000000000000000000000000000081526004016145719190614c78565b60405180910390fd5b819050614583565b5b9392505050565b60605f61459683614640565b90505f602067ffffffffffffffff8111156145b4576145b3614971565b5b6040519080825280601f01601f1916602001820160405280156145e65781602001600182028036833780820191505090505b5090508181528360208201528092505050919050565b5f8151111561460e5780518082602001fd5b6040517fd6bda27500000000000000000000000000000000000000000000000000000000815260040160405180910390fd5b5f8060ff835f1c169050601f811115614685576040517fb3512b0c00000000000000000000000000000000000000000000000000000000815260040160405180910390fd5b80915050919050565b828054828255905f5260205f20908101928215614704579160200282015b82811115614703578251825f6101000a81548173ffffffffffffffffffffffffffffffffffffffff021916908373ffffffffffffffffffffffffffffffffffffffff160217905550916020019190600101906146ac565b5b5090506147119190614715565b5090565b5b8082111561472c575f815f905550600101614716565b5090565b5f819050919050565b61474281614730565b82525050565b5f60208201905061475b5f830184614739565b92915050565b5f81519050919050565b5f82825260208201905092915050565b5f5b8381101561479857808201518184015260208101905061477d565b5f8484015250505050565b5f601f19601f8301169050919050565b5f6147bd82614761565b6147c7818561476b565b93506147d781856020860161477b565b6147e0816147a3565b840191505092915050565b5f6020820190508181035f83015261480381846147b3565b905092915050565b5f604051905090565b5f80fd5b5f80fd5b61482581614730565b811461482f575f80fd5b50565b5f813590506148408161481c565b92915050565b5f6020828403121561485b5761485a614814565b5b5f61486884828501614832565b91505092915050565b5f819050919050565b61488381614871565b82525050565b5f60208201905061489c5f83018461487a565b92915050565b5f73ffffffffffffffffffffffffffffffffffffffff82169050919050565b5f6148cb826148a2565b9050919050565b6148db816148c1565b81146148e5575f80fd5b50565b5f813590506148f6816148d2565b92915050565b5f806040838503121561491257614911614814565b5b5f61491f858286016148e8565b925050602061493085828601614832565b9150509250929050565b5f8115159050919050565b61494e8161493a565b82525050565b5f6020820190506149675f830184614945565b92915050565b5f80fd5b7f4e487b71000000000000000000000000000000000000000000000000000000005f52604160045260245ffd5b6149a7826147a3565b810181811067ffffffffffffffff821117156149c6576149c5614971565b5b80604052505050565b5f6149d861480b565b90506149e4828261499e565b919050565b5f67ffffffffffffffff821115614a0357614a02614971565b5b602082029050602081019050919050565b5f80fd5b5f614a22826148c1565b9050919050565b614a3281614a18565b8114614a3c575f80fd5b50565b5f81359050614a4d81614a29565b92915050565b5f614a65614a60846149e9565b6149cf565b90508083825260208201905060208402830185811115614a8857614a87614a14565b5b835b81811015614ab15780614a9d8882614a3f565b845260208401935050602081019050614a8a565b5050509392505050565b5f82601f830112614acf57614ace61496d565b5b8135614adf848260208601614a53565b91505092915050565b5f60208284031215614afd57614afc614814565b5b5f82013567ffffffffffffffff811115614b1a57614b19614818565b5b614b2684828501614abb565b91505092915050565b5f805f60608486031215614b4657614b45614814565b5b5f614b53868287016148e8565b9350506020614b64868287016148e8565b9250506040614b7586828701614832565b9150509250925092565b614b8881614871565b8114614b92575f80fd5b50565b5f81359050614ba381614b7f565b92915050565b5f8060408385031215614bbf57614bbe614814565b5b5f614bcc85828601614b95565b9250506020614bdd858286016148e8565b9150509250929050565b60028110614bf3575f80fd5b50565b5f81359050614c0481614be7565b92915050565b5f60208284031215614c1f57614c1e614814565b5b5f614c2c84828501614bf6565b91505092915050565b5f60ff82169050919050565b614c4a81614c35565b82525050565b5f602082019050614c635f830184614c41565b92915050565b614c72816148c1565b82525050565b5f602082019050614c8b5f830184614c69565b92915050565b5f60208284031215614ca657614ca5614814565b5b5f614cb3848285016148e8565b91505092915050565b5f8060408385031215614cd257614cd1614814565b5b5f614cdf85828601614832565b9250506020614cf0858286016148e8565b9150509250929050565b5f60208284031215614d0f57614d0e614814565b5b5f614d1c84828501614a3f565b91505092915050565b614d2e8161493a565b8114614d38575f80fd5b50565b5f81359050614d4981614d25565b92915050565b5f805f805f60a08688031215614d6857614d67614814565b5b5f614d7588828901614832565b9550506020614d8688828901614a3f565b9450506040614d9788828901614a3f565b9350506060614da888828901614832565b9250506080614db988828901614d3b565b9150509295509295909350565b5f7fff0000000000000000000000000000000000000000000000000000000000000082169050919050565b614dfa81614dc6565b82525050565b5f81519050919050565b5f82825260208201905092915050565b5f819050602082019050919050565b614e3281614730565b82525050565b5f614e438383614e29565b60208301905092915050565b5f602082019050919050565b5f614e6582614e00565b614e6f8185614e0a565b9350614e7a83614e1a565b805f5b83811015614eaa578151614e918882614e38565b9750614e9c83614e4f565b925050600181019050614e7d565b5085935050505092915050565b5f60e082019050614eca5f83018a614df1565b8181036020830152614edc81896147b3565b90508181036040830152614ef081886147b3565b9050614eff6060830187614739565b614f0c6080830186614c69565b614f1960a083018561487a565b81810360c0830152614f2b8184614e5b565b905098975050505050505050565b5f819050919050565b5f614f5c614f57614f52846148a2565b614f39565b6148a2565b9050919050565b5f614f6d82614f42565b9050919050565b5f614f7e82614f63565b9050919050565b614f8e81614f74565b82525050565b5f602082019050614fa75f830184614f85565b92915050565b5f805f60608486031215614fc457614fc3614814565b5b5f614fd186828701614832565b9350506020614fe2868287016148e8565b9250506040614ff3868287016148e8565b9150509250925092565b61500681614c35565b8114615010575f80fd5b50565b5f8135905061502181614ffd565b92915050565b5f805f805f805f60e0888a03121561504257615041614814565b5b5f61504f8a828b016148e8565b97505060206150608a828b016148e8565b96505060406150718a828b01614832565b95505060606150828a828b01614832565b94505060806150938a828b01615013565b93505060a06150a48a828b01614b95565b92505060c06150b58a828b01614b95565b91505092959891949750929550565b5f80604083850312156150da576150d9614814565b5b5f6150e7858286016148e8565b92505060206150f8858286016148e8565b9150509250929050565b5f81519050919050565b5f82825260208201905092915050565b5f819050602082019050919050565b61513481614f74565b82525050565b5f615145838361512b565b60208301905092915050565b5f602082019050919050565b5f61516782615102565b615171818561510c565b935061517c8361511c565b805f5b838110156151ac578151615193888261513a565b975061519e83615151565b92505060018101905061517f565b5085935050505092915050565b5f6020820190508181035f8301526151d1818461515d565b905092915050565b7f4e487b71000000000000000000000000000000000000000000000000000000005f52602260045260245ffd5b5f600282049050600182168061521d57607f821691505b6020821081036152305761522f6151d9565b5b50919050565b7f4e487b71000000000000000000000000000000000000000000000000000000005f52602160045260245ffd5b7f4e487b71000000000000000000000000000000000000000000000000000000005f52601160045260245ffd5b5f61529a82614730565b91506152a583614730565b92508282039050818111156152bd576152bc615263565b5b92915050565b5f6040820190506152d65f830185614739565b6152e36020830184614739565b9392505050565b5f815190506152f88161481c565b92915050565b5f6020828403121561531357615312614814565b5b5f615320848285016152ea565b91505092915050565b5f60c08201905061533c5f83018961487a565b6153496020830188614c69565b6153566040830187614c69565b6153636060830186614739565b6153706080830185614739565b61537d60a0830184614739565b979650505050505050565b5f60408201905061539b5f830185614c69565b6153a86020830184614c69565b9392505050565b7f4e487b71000000000000000000000000000000000000000000000000000000005f52603260045260245ffd5b5f6153e682614f63565b9050919050565b6153f6816153dc565b82525050565b5f60408201905061540f5f830185614c69565b61541c60208301846153ed565b9392505050565b5f61542d82614730565b915061543883614730565b92508282019050808211156154505761544f615263565b5b92915050565b6002811061546757615466615236565b5b50565b5f81905061547782615456565b919050565b5f6154868261546a565b9050919050565b6154968161547c565b82525050565b5f6040820190506154af5f830185614c69565b6154bc602083018461548d565b9392505050565b5f6060820190506154d65f830186614c69565b6154e36020830185614c69565b6154f06040830184614c69565b949350505050565b5f81519050615506816148d2565b92915050565b5f6020828403121561552157615520614814565b5b5f61552e848285016154f8565b91505092915050565b5f60608201905061554a5f830186614c69565b6155576020830185614739565b6155646040830184614739565b949350505050565b5f81905092915050565b5f61558082614761565b61558a818561556c565b935061559a81856020860161477b565b80840191505092915050565b7f2875696e743235362c61646472657373290000000000000000000000000000005f82015250565b5f6155da60118361556c565b91506155e5826155a6565b601182019050919050565b5f6155fb8284615576565b9150615606826155ce565b915081905092915050565b5f6040820190506156245f830185614739565b6156316020830184614c69565b9392505050565b5f6156438284615576565b915081905092915050565b5f6040820190506156615f830185614c69565b61566e6020830184614739565b9392505050565b7f4e487b71000000000000000000000000000000000000000000000000000000005f52601260045260245ffd5b5f6060820190506156b55f830186614c69565b6156c26020830185614c69565b6156cf6040830184614739565b949350505050565b5f819050919050565b5f6156fa6156f56156f0846156d7565b614f39565b614730565b9050919050565b61570a816156e0565b82525050565b5f6040820190506157235f830185614c69565b6157306020830184615701565b9392505050565b5f60a08201905061574a5f83018861487a565b615757602083018761487a565b615764604083018661487a565b6157716060830185614739565b61577e6080830184614c69565b9695505050505050565b5f81519050919050565b5f81905092915050565b5f6157a682615788565b6157b08185615792565b93506157c081856020860161477b565b80840191505092915050565b5f6157d7828461579c565b915081905092915050565b5f6080820190506157f55f83018761487a565b6158026020830186614c41565b61580f604083018561487a565b61581c606083018461487a565b95945050505050565b5f61582f82614c35565b915061583a83614c35565b92508261584a57615849615675565b5b82820690509291505056fea26469706673582212207849db1df86b2151fb2925b03581b6554518fa929cc16c50749e8e546b95dc8b64736f6c63430008170033","linkReferences":{}},"methodIdentifiers":{"ADMIN_ROLE()":"75b238fc","DOMAIN_SEPARATOR()":"3644e515","EXECUTOR_ROLE()":"07bd0265","OPERATOR_ROLE()":"f5b541a6","ROOT_UPDATER_ROLE()":"d9ab2c5c","activeProvider()":"97f75dd9","allowance(address,address)":"dd62ed3e","approve(address,uint256)":"095ea7b3","asset()":"38d52e0f","balanceOf(address)":"70a08231","convertToAssets(uint256)":"07a2d13a","convertToShares(uint256)":"c6e6f592","decimals()":"313ce567","deposit(uint256,address)":"6e553f65","eip712Domain()":"84b0196e","getBalanceOfAsset(address)":"85297279","getProviders()":"edc922a9","grantRole(bytes32,address)":"2f2ff15d","hasRole(bytes32,address)":"91d14854","maxDeposit(address)":"402d267d","maxMint(address)":"c63d75b6","maxRedeem(address)":"d905777e","maxWithdraw(address)":"ce96cb77","minAmount()":"9b2cb5d8","mint(uint256,address)":"94bf804d","name()":"06fdde03","nonces(address)":"7ecebe00","pause(uint8)":"edf07f15","paused(uint8)":"5ac86ab7","permit(address,address,uint256,uint256,uint8,bytes32,bytes32)":"d505accf","previewDeposit(uint256)":"ef8b30f7","previewMint(uint256)":"b3d7f6b9","previewRedeem(uint256)":"4cdad506","previewWithdraw(uint256)":"0a28a477","rebalance(uint256,address,address,uint256,bool)":"7abac329","redeem(uint256,address,address)":"ba087652","revokeRole(bytes32,address)":"d547741f","rewardsDistributor()":"3f2a5540","setActiveProvider(address)":"71e11430","setMinAmount(uint256)":"897b0637","setProviders(address[])":"1b98f6ac","setRewardsDistributor(address)":"d1f5c33b","setTimelock(address)":"bdacb303","setTreasury(address)":"f0f44260","setWithdrawFeePercent(uint256)":"447cb896","setupCompleted()":"609da897","setupVault(uint256)":"0fa27539","symbol()":"95d89b41","timelock()":"d33219b4","totalAssets()":"01e1d114","totalSupply()":"18160ddd","transfer(address,uint256)":"a9059cbb","transferFrom(address,address,uint256)":"23b872dd","transferRewards(address)":"bd88ab56","treasury()":"61d027b3","unpause(uint8)":"301c7e5d","withdraw(uint256,address,address)":"b460af94","withdrawFeePercent()":"495ef705"},"id":1}